{
	"data": {
		"bytecode": {
			"linkReferences": {
				"remix_tests.sol": {
					"Assert": [
						{
							"length": 20,
							"start": 951
						},
						{
							"length": 20,
							"start": 1119
						},
						{
							"length": 20,
							"start": 2652
						},
						{
							"length": 20,
							"start": 2819
						},
						{
							"length": 20,
							"start": 3470
						},
						{
							"length": 20,
							"start": 3637
						},
						{
							"length": 20,
							"start": 4700
						},
						{
							"length": 20,
							"start": 4867
						},
						{
							"length": 20,
							"start": 5217
						},
						{
							"length": 20,
							"start": 5384
						},
						{
							"length": 20,
							"start": 5734
						},
						{
							"length": 20,
							"start": 5901
						},
						{
							"length": 20,
							"start": 6390
						},
						{
							"length": 20,
							"start": 6539
						},
						{
							"length": 20,
							"start": 6689
						},
						{
							"length": 20,
							"start": 6839
						},
						{
							"length": 20,
							"start": 6987
						},
						{
							"length": 20,
							"start": 7136
						},
						{
							"length": 20,
							"start": 7285
						},
						{
							"length": 20,
							"start": 8458
						},
						{
							"length": 20,
							"start": 8625
						},
						{
							"length": 20,
							"start": 9230
						},
						{
							"length": 20,
							"start": 9397
						},
						{
							"length": 20,
							"start": 11505
						},
						{
							"length": 20,
							"start": 11673
						},
						{
							"length": 20,
							"start": 12112
						},
						{
							"length": 20,
							"start": 12280
						},
						{
							"length": 20,
							"start": 12970
						},
						{
							"length": 20,
							"start": 13138
						},
						{
							"length": 20,
							"start": 15538
						},
						{
							"length": 20,
							"start": 15688
						},
						{
							"length": 20,
							"start": 17755
						},
						{
							"length": 20,
							"start": 17905
						},
						{
							"length": 20,
							"start": 18416
						},
						{
							"length": 20,
							"start": 18583
						},
						{
							"length": 20,
							"start": 20262
						},
						{
							"length": 20,
							"start": 20412
						},
						{
							"length": 20,
							"start": 20965
						},
						{
							"length": 20,
							"start": 21111
						},
						{
							"length": 20,
							"start": 21291
						}
					]
				}
			},
			"object": "608060405234801561001057600080fd5b5061caba80620000216000396000f3fe60806040523480156200001157600080fd5b50600436106200010b5760003560e01c806361150d1411620000a5578063df81360c116200006f578063df81360c1462000194578063f1d69bf014620001a0578063f84073d314620001ac578063fb235a6814620001b8576200010b565b806361150d1414620001645780637fea0d4b146200017057806385e042a9146200017c578063d845e0501462000188576200010b565b806350988b1111620000e757806350988b111462000134578063528572eb1462000140578063581d7b6f146200014c57806358b1b81e1462000158576200010b565b8062c71acd14620001105780631ae3c34b146200011c578063345adf2f1462000128575b600080fd5b6200011a620001c4565b005b62000126620004ce565b005b6200013262001074565b005b6200013e62001ceb565b005b6200014a62002630565b005b6200015662002632565b005b6200016262002634565b005b6200016e62002a0f565b005b6200017a620033c2565b005b6200018662003693565b005b6200019262003dbe565b005b6200019e62003f3c565b005b620001aa62004667565b005b620001b662004907565b005b620001c262005032565b005b600260009054906101000a900473ffffffffffffffffffffffffffffffffffffffff1673ffffffffffffffffffffffffffffffffffffffff16632e9c58bb6040518163ffffffff1660e01b8152600401602060405180830381600087803b1580156200022f57600080fd5b505af115801562000244573d6000803e3d6000fd5b505050506040513d601f19601f820116820180604052508101906200026a9190620057a9565b50600260009054906101000a900473ffffffffffffffffffffffffffffffffffffffff1673ffffffffffffffffffffffffffffffffffffffff1663bdf666a460055460017fd83da95c058c118d61c20dba7a15f44fa0a4c079eff4ca94932f2baf31135e037fd83da95c058c118d61c20dba7a15f44fa0a4c079eff4ca94932f2baf31135e046040518563ffffffff1660e01b8152600401620003119493929190620063ef565b602060405180830381600087803b1580156200032c57600080fd5b505af19250505080156200036057506040513d601f19601f820116820180604052508101906200035d9190620057a9565b60015b6200043b576200036f62007319565b806308c379a014156200042957506200038762007724565b806200039457506200042b565b73__$acbfb1c35000d78352310b16a054a6b106$__63e8c2cb16826040518263ffffffff1660e01b8152600401620003cd9190620065a3565b60206040518083038186803b158015620003e657600080fd5b505af4158015620003fb573d6000803e3d6000fd5b505050506040513d601f19601f82011682018060405250810190620004219190620057a9565b505062000435565b505b3d6000803e3d6000fd5b620004cc565b5073__$acbfb1c35000d78352310b16a054a6b106$__6339df137f60006040518263ffffffff1660e01b815260040162000476919062005f2c565b60206040518083038186803b1580156200048f57600080fd5b505af4158015620004a4573d6000803e3d6000fd5b505050506040513d601f19601f82011682018060405250810190620004ca9190620057a9565b505b565b6000600160009054906101000a900473ffffffffffffffffffffffffffffffffffffffff1673ffffffffffffffffffffffffffffffffffffffff166375cb2a0e7fa83da95c058c118d61c20dba7a15f44fa0a4c079eff4ca94932f2baf31135e026040518263ffffffff1660e01b81526004016200054d919062006961565b602060405180830381600087803b1580156200056857600080fd5b505af11580156200057d573d6000803e3d6000fd5b505050506040513d601f19601f82011682018060405250810190620005a39190620057db565b9050600160009054906101000a900473ffffffffffffffffffffffffffffffffffffffff1673ffffffffffffffffffffffffffffffffffffffff166357c91b95826001610bb861012c6020806040518763ffffffff1660e01b8152600401620006129695949392919062006335565b600060405180830381600087803b1580156200062d57600080fd5b505af115801562000642573d6000803e3d6000fd5b50505050600260009054906101000a900473ffffffffffffffffffffffffffffffffffffffff1673ffffffffffffffffffffffffffffffffffffffff1663bdf666a48260017fe83da95c058c118d61c20dba7a15f44fa0a4c079eff4ca94932f2baf31135e017fe83da95c058c118d61c20dba7a15f44fa0a4c079eff4ca94932f2baf31135e026040518563ffffffff1660e01b8152600401620006ea949392919062006174565b602060405180830381600087803b1580156200070557600080fd5b505af11580156200071a573d6000803e3d6000fd5b505050506040513d601f19601f82011682018060405250810190620007409190620057a9565b50600360009054906101000a900473ffffffffffffffffffffffffffffffffffffffff1673ffffffffffffffffffffffffffffffffffffffff1663bdf666a48260017ff83da95c058c118d61c20dba7a15f44fa0a4c079eff4ca94932f2baf31135e087ff83da95c058c118d61c20dba7a15f44fa0a4c079eff4ca94932f2baf31135e096040518563ffffffff1660e01b8152600401620007e594939291906200620e565b602060405180830381600087803b1580156200080057600080fd5b505af115801562000815573d6000803e3d6000fd5b505050506040513d601f19601f820116820180604052508101906200083b9190620057a9565b506000600267ffffffffffffffff8111156200085c576200085b620072ea565b5b6040519080825280602002602001820160405280156200088b5781602001602082028036833780820191505090505b509050600260009054906101000a900473ffffffffffffffffffffffffffffffffffffffff1681600081518110620008c857620008c7620072bb565b5b602002602001019073ffffffffffffffffffffffffffffffffffffffff16908173ffffffffffffffffffffffffffffffffffffffff1681525050600360009054906101000a900473ffffffffffffffffffffffffffffffffffffffff16816001815181106200093c576200093b620072bb565b5b602002602001019073ffffffffffffffffffffffffffffffffffffffff16908173ffffffffffffffffffffffffffffffffffffffff1681525050600260009054906101000a900473ffffffffffffffffffffffffffffffffffffffff1673ffffffffffffffffffffffffffffffffffffffff166341e865cb836001846040518463ffffffff1660e01b8152600401620009d8939291906200609f565b600060405180830381600087803b158015620009f357600080fd5b505af192505050801562000a05575060015b62000ae05762000a1462007319565b806308c379a0141562000ace575062000a2c62007724565b8062000a39575062000ad0565b73__$acbfb1c35000d78352310b16a054a6b106$__63e8c2cb16826040518263ffffffff1660e01b815260040162000a72919062006729565b60206040518083038186803b15801562000a8b57600080fd5b505af415801562000aa0573d6000803e3d6000fd5b505050506040513d601f19601f8201168201806040525081019062000ac69190620057a9565b505062000ada565b505b3d6000803e3d6000fd5b62000b70565b73__$acbfb1c35000d78352310b16a054a6b106$__6339df137f60006040518263ffffffff1660e01b815260040162000b1a919062005f2c565b60206040518083038186803b15801562000b3357600080fd5b505af415801562000b48573d6000803e3d6000fd5b505050506040513d601f19601f8201168201806040525081019062000b6e9190620057a9565b505b600267ffffffffffffffff81111562000b8e5762000b8d620072ea565b5b60405190808252806020026020018201604052801562000bbd5781602001602082028036833780820191505090505b509050600260009054906101000a900473ffffffffffffffffffffffffffffffffffffffff168160008151811062000bfa5762000bf9620072bb565b5b602002602001019073ffffffffffffffffffffffffffffffffffffffff16908173ffffffffffffffffffffffffffffffffffffffff1681525050600460009054906101000a900473ffffffffffffffffffffffffffffffffffffffff168160018151811062000c6e5762000c6d620072bb565b5b602002602001019073ffffffffffffffffffffffffffffffffffffffff16908173ffffffffffffffffffffffffffffffffffffffff1681525050600160009054906101000a900473ffffffffffffffffffffffffffffffffffffffff1673ffffffffffffffffffffffffffffffffffffffff166341e865cb836001846040518463ffffffff1660e01b815260040162000d0a939291906200609f565b600060405180830381600087803b15801562000d2557600080fd5b505af192505050801562000d37575060015b62000e125762000d4662007319565b806308c379a0141562000e00575062000d5e62007724565b8062000d6b575062000e02565b73__$acbfb1c35000d78352310b16a054a6b106$__63e8c2cb16826040518263ffffffff1660e01b815260040162000da491906200668d565b60206040518083038186803b15801562000dbd57600080fd5b505af415801562000dd2573d6000803e3d6000fd5b505050506040513d601f19601f8201168201806040525081019062000df89190620057a9565b505062000e0c565b505b3d6000803e3d6000fd5b62000ea2565b73__$acbfb1c35000d78352310b16a054a6b106$__6339df137f60006040518263ffffffff1660e01b815260040162000e4c919062005f2c565b60206040518083038186803b15801562000e6557600080fd5b505af415801562000e7a573d6000803e3d6000fd5b505050506040513d601f19601f8201168201806040525081019062000ea09190620057a9565b505b600267ffffffffffffffff81111562000ec05762000ebf620072ea565b5b60405190808252806020026020018201604052801562000eef5781602001602082028036833780820191505090505b509050600260009054906101000a900473ffffffffffffffffffffffffffffffffffffffff168160008151811062000f2c5762000f2b620072bb565b5b602002602001019073ffffffffffffffffffffffffffffffffffffffff16908173ffffffffffffffffffffffffffffffffffffffff1681525050600360009054906101000a900473ffffffffffffffffffffffffffffffffffffffff168160018151811062000fa05762000f9f620072bb565b5b602002602001019073ffffffffffffffffffffffffffffffffffffffff16908173ffffffffffffffffffffffffffffffffffffffff1681525050600160009054906101000a900473ffffffffffffffffffffffffffffffffffffffff1673ffffffffffffffffffffffffffffffffffffffff166341e865cb836001846040518463ffffffff1660e01b81526004016200103c939291906200609f565b600060405180830381600087803b1580156200105757600080fd5b505af11580156200106c573d6000803e3d6000fd5b505050505050565b6000600160009054906101000a900473ffffffffffffffffffffffffffffffffffffffff1673ffffffffffffffffffffffffffffffffffffffff166375cb2a0e7fd83da95c058c118d61c20dba7a15f44fa0a4c079eff4ca94932f2baf31135e016040518263ffffffff1660e01b8152600401620010f39190620069f7565b602060405180830381600087803b1580156200110e57600080fd5b505af115801562001123573d6000803e3d6000fd5b505050506040513d601f19601f82011682018060405250810190620011499190620057db565b9050600160009054906101000a900473ffffffffffffffffffffffffffffffffffffffff1673ffffffffffffffffffffffffffffffffffffffff166357c91b957fd83da95c058c118d61c20dba7a15f44fa0a4c079eff4ca94932f2baf31135e006000610bb861012c6020806040518763ffffffff1660e01b8152600401620011d8969594939291906200649b565b600060405180830381600087803b158015620011f357600080fd5b505af192505050801562001205575060015b620012e0576200121462007319565b806308c379a01415620012ce57506200122c62007724565b80620012395750620012d0565b73__$acbfb1c35000d78352310b16a054a6b106$__63e8c2cb16826040518263ffffffff1660e01b8152600401620012729190620068af565b60206040518083038186803b1580156200128b57600080fd5b505af4158015620012a0573d6000803e3d6000fd5b505050506040513d601f19601f82011682018060405250810190620012c69190620057a9565b5050620012da565b505b3d6000803e3d6000fd5b62001370565b73__$acbfb1c35000d78352310b16a054a6b106$__6339df137f60006040518263ffffffff1660e01b81526004016200131a919062005f2c565b60206040518083038186803b1580156200133357600080fd5b505af415801562001348573d6000803e3d6000fd5b505050506040513d601f19601f820116820180604052508101906200136e9190620057a9565b505b600260009054906101000a900473ffffffffffffffffffffffffffffffffffffffff1673ffffffffffffffffffffffffffffffffffffffff166357c91b95826001610bb861012c6020806040518763ffffffff1660e01b8152600401620013dd9695949392919062006335565b600060405180830381600087803b158015620013f857600080fd5b505af19250505080156200140a575060015b620014e5576200141962007319565b806308c379a01415620014d357506200143162007724565b806200143e5750620014d5565b73__$acbfb1c35000d78352310b16a054a6b106$__63e8c2cb16826040518263ffffffff1660e01b815260040162001477919062006777565b60206040518083038186803b1580156200149057600080fd5b505af4158015620014a5573d6000803e3d6000fd5b505050506040513d601f19601f82011682018060405250810190620014cb9190620057a9565b5050620014df565b505b3d6000803e3d6000fd5b62001575565b73__$acbfb1c35000d78352310b16a054a6b106$__6339df137f60006040518263ffffffff1660e01b81526004016200151f919062005f2c565b60206040518083038186803b1580156200153857600080fd5b505af41580156200154d573d6000803e3d6000fd5b505050506040513d601f19601f82011682018060405250810190620015739190620057a9565b505b600160009054906101000a900473ffffffffffffffffffffffffffffffffffffffff1673ffffffffffffffffffffffffffffffffffffffff166357c91b95826000610bb861012c6020806040518763ffffffff1660e01b8152600401620015e29695949392919062005fb8565b600060405180830381600087803b158015620015fd57600080fd5b505af19250505080156200160f575060015b620016ea576200161e62007319565b806308c379a01415620016d857506200163662007724565b80620016435750620016da565b73__$acbfb1c35000d78352310b16a054a6b106$__63e8c2cb16826040518263ffffffff1660e01b81526004016200167c9190620065f1565b60206040518083038186803b1580156200169557600080fd5b505af4158015620016aa573d6000803e3d6000fd5b505050506040513d601f19601f82011682018060405250810190620016d09190620057a9565b5050620016e4565b505b3d6000803e3d6000fd5b6200177a565b73__$acbfb1c35000d78352310b16a054a6b106$__6339df137f60006040518263ffffffff1660e01b815260040162001724919062005f2c565b60206040518083038186803b1580156200173d57600080fd5b505af415801562001752573d6000803e3d6000fd5b505050506040513d601f19601f82011682018060405250810190620017789190620057a9565b505b600160009054906101000a900473ffffffffffffffffffffffffffffffffffffffff1673ffffffffffffffffffffffffffffffffffffffff166357c91b95826001610bb861012c6020806040518763ffffffff1660e01b8152600401620017e79695949392919062006335565b600060405180830381600087803b1580156200180257600080fd5b505af115801562001817573d6000803e3d6000fd5b5050505060008060009054906101000a900473ffffffffffffffffffffffffffffffffffffffff1673ffffffffffffffffffffffffffffffffffffffff16634893b3628360016040518363ffffffff1660e01b81526004016200187c92919062006072565b6101006040518083038186803b1580156200189657600080fd5b505afa158015620018ab573d6000803e3d6000fd5b505050506040513d601f19601f82011682018060405250810190620018d191906200585e565b905073__$acbfb1c35000d78352310b16a054a6b106$__63abcd7960826000015160016040518363ffffffff1660e01b81526004016200191392919062006c5b565b60206040518083038186803b1580156200192c57600080fd5b505af415801562001941573d6000803e3d6000fd5b505050506040513d601f19601f82011682018060405250810190620019679190620057a9565b5073__$acbfb1c35000d78352310b16a054a6b106$__63abcd79608260200151610bb86040518363ffffffff1660e01b8152600401620019a992919062006b53565b60206040518083038186803b158015620019c257600080fd5b505af4158015620019d7573d6000803e3d6000fd5b505050506040513d601f19601f82011682018060405250810190620019fd9190620057a9565b5073__$acbfb1c35000d78352310b16a054a6b106$__63abcd7960826040015161012c6040518363ffffffff1660e01b815260040162001a3f92919062006b95565b60206040518083038186803b15801562001a5857600080fd5b505af415801562001a6d573d6000803e3d6000fd5b505050506040513d601f19601f8201168201806040525081019062001a939190620057a9565b5073__$acbfb1c35000d78352310b16a054a6b106$__63abcd79608260800151436040518363ffffffff1660e01b815260040162001ad392919062006b11565b60206040518083038186803b15801562001aec57600080fd5b505af415801562001b01573d6000803e3d6000fd5b505050506040513d601f19601f8201168201806040525081019062001b279190620057a9565b5073__$acbfb1c35000d78352310b16a054a6b106$__63abcd79608260a0015160006040518363ffffffff1660e01b815260040162001b6892919062006a8d565b60206040518083038186803b15801562001b8157600080fd5b505af415801562001b96573d6000803e3d6000fd5b505050506040513d601f19601f8201168201806040525081019062001bbc9190620057a9565b5073__$acbfb1c35000d78352310b16a054a6b106$__63abcd79608260c0015160206040518363ffffffff1660e01b815260040162001bfd92919062006bd7565b60206040518083038186803b15801562001c1657600080fd5b505af415801562001c2b573d6000803e3d6000fd5b505050506040513d601f19601f8201168201806040525081019062001c519190620057a9565b5073__$acbfb1c35000d78352310b16a054a6b106$__63abcd79608260e0015160206040518363ffffffff1660e01b815260040162001c9292919062006bd7565b60206040518083038186803b15801562001cab57600080fd5b505af415801562001cc0573d6000803e3d6000fd5b505050506040513d601f19601f8201168201806040525081019062001ce69190620057a9565b505050565b6000600160009054906101000a900473ffffffffffffffffffffffffffffffffffffffff1673ffffffffffffffffffffffffffffffffffffffff166375cb2a0e7fa83da95c058c118d61c20dba7a15f44fa0a4c079eff4ca94932f2baf31135e096040518263ffffffff1660e01b815260040162001d6a919062006993565b602060405180830381600087803b15801562001d8557600080fd5b505af115801562001d9a573d6000803e3d6000fd5b505050506040513d601f19601f8201168201806040525081019062001dc09190620057db565b9050600160009054906101000a900473ffffffffffffffffffffffffffffffffffffffff1673ffffffffffffffffffffffffffffffffffffffff166357c91b95826001610bb861012c6020806040518763ffffffff1660e01b815260040162001e2f9695949392919062006335565b600060405180830381600087803b15801562001e4a57600080fd5b505af115801562001e5f573d6000803e3d6000fd5b50505050600260009054906101000a900473ffffffffffffffffffffffffffffffffffffffff1673ffffffffffffffffffffffffffffffffffffffff1663bdf666a48260017fe83da96c058c118d61c20dba7a15f44fa0a4c079eff4ca94932f2baf31135e017fe83da96c058c118d61c20dba7a15f44fa0a4c079eff4ca94932f2baf31135e026040518563ffffffff1660e01b815260040162001f079493929190620061c1565b602060405180830381600087803b15801562001f2257600080fd5b505af115801562001f37573d6000803e3d6000fd5b505050506040513d601f19601f8201168201806040525081019062001f5d9190620057a9565b506000600167ffffffffffffffff81111562001f7e5762001f7d620072ea565b5b60405190808252806020026020018201604052801562001fad5781602001602082028036833780820191505090505b509050600260009054906101000a900473ffffffffffffffffffffffffffffffffffffffff168160008151811062001fea5762001fe9620072bb565b5b602002602001019073ffffffffffffffffffffffffffffffffffffffff16908173ffffffffffffffffffffffffffffffffffffffff1681525050600160009054906101000a900473ffffffffffffffffffffffffffffffffffffffff1673ffffffffffffffffffffffffffffffffffffffff16634956219b836001846040518463ffffffff1660e01b815260040162002086939291906200609f565b600060405180830381600087803b158015620020a157600080fd5b505af1925050508015620020b3575060015b6200218e57620020c262007319565b806308c379a014156200217c5750620020da62007724565b80620020e757506200217e565b73__$acbfb1c35000d78352310b16a054a6b106$__63e8c2cb16826040518263ffffffff1660e01b81526004016200212091906200663f565b60206040518083038186803b1580156200213957600080fd5b505af41580156200214e573d6000803e3d6000fd5b505050506040513d601f19601f82011682018060405250810190620021749190620057a9565b505062002188565b505b3d6000803e3d6000fd5b6200221e565b73__$acbfb1c35000d78352310b16a054a6b106$__6339df137f60006040518263ffffffff1660e01b8152600401620021c8919062005f2c565b60206040518083038186803b158015620021e157600080fd5b505af4158015620021f6573d6000803e3d6000fd5b505050506040513d601f19601f820116820180604052508101906200221c9190620057a9565b505b600160009054906101000a900473ffffffffffffffffffffffffffffffffffffffff1673ffffffffffffffffffffffffffffffffffffffff166341e865cb836001846040518463ffffffff1660e01b815260040162002280939291906200609f565b600060405180830381600087803b1580156200229b57600080fd5b505af1158015620022b0573d6000803e3d6000fd5b50505050600360009054906101000a900473ffffffffffffffffffffffffffffffffffffffff1681600081518110620022ee57620022ed620072bb565b5b602002602001019073ffffffffffffffffffffffffffffffffffffffff16908173ffffffffffffffffffffffffffffffffffffffff1681525050600160009054906101000a900473ffffffffffffffffffffffffffffffffffffffff1673ffffffffffffffffffffffffffffffffffffffff16634956219b836001846040518463ffffffff1660e01b81526004016200238a939291906200609f565b600060405180830381600087803b158015620023a557600080fd5b505af1925050508015620023b7575060015b6200249257620023c662007319565b806308c379a01415620024805750620023de62007724565b80620023eb575062002482565b73__$acbfb1c35000d78352310b16a054a6b106$__63e8c2cb16826040518263ffffffff1660e01b81526004016200242491906200668d565b60206040518083038186803b1580156200243d57600080fd5b505af415801562002452573d6000803e3d6000fd5b505050506040513d601f19601f82011682018060405250810190620024789190620057a9565b50506200248c565b505b3d6000803e3d6000fd5b62002522565b73__$acbfb1c35000d78352310b16a054a6b106$__6339df137f60006040518263ffffffff1660e01b8152600401620024cc919062005f2c565b60206040518083038186803b158015620024e557600080fd5b505af4158015620024fa573d6000803e3d6000fd5b505050506040513d601f19601f82011682018060405250810190620025209190620057a9565b505b600260009054906101000a900473ffffffffffffffffffffffffffffffffffffffff16816000815181106200255c576200255b620072bb565b5b602002602001019073ffffffffffffffffffffffffffffffffffffffff16908173ffffffffffffffffffffffffffffffffffffffff1681525050600160009054906101000a900473ffffffffffffffffffffffffffffffffffffffff1673ffffffffffffffffffffffffffffffffffffffff16634956219b836001846040518463ffffffff1660e01b8152600401620025f8939291906200609f565b600060405180830381600087803b1580156200261357600080fd5b505af115801562002628573d6000803e3d6000fd5b505050505050565b565b565b600160009054906101000a900473ffffffffffffffffffffffffffffffffffffffff1673ffffffffffffffffffffffffffffffffffffffff166375cb2a0e7fa83da95c058c118d61c20dba7a15f44fa0a4c079eff4ca94932f2baf31135e096040518263ffffffff1660e01b8152600401620026b1919062006993565b602060405180830381600087803b158015620026cc57600080fd5b505af1158015620026e1573d6000803e3d6000fd5b505050506040513d601f19601f82011682018060405250810190620027079190620057db565b600681905550600160009054906101000a900473ffffffffffffffffffffffffffffffffffffffff1673ffffffffffffffffffffffffffffffffffffffff166357c91b956006546001610bb861012c602060016040518763ffffffff1660e01b81526004016200277d96959493929190620062c8565b600060405180830381600087803b1580156200279857600080fd5b505af1158015620027ad573d6000803e3d6000fd5b50505050600260009054906101000a900473ffffffffffffffffffffffffffffffffffffffff1673ffffffffffffffffffffffffffffffffffffffff1663bdf666a460065460017fe83da96c058c118d61c20dba7a15f44fa0a4c079eff4ca94932f2baf31135e017fe83da96c058c118d61c20dba7a15f44fa0a4c079eff4ca94932f2baf31135e026040518563ffffffff1660e01b8152600401620028579493929190620061c1565b602060405180830381600087803b1580156200287257600080fd5b505af115801562002887573d6000803e3d6000fd5b505050506040513d601f19601f82011682018060405250810190620028ad9190620057a9565b506000600167ffffffffffffffff811115620028ce57620028cd620072ea565b5b604051908082528060200260200182016040528015620028fd5781602001602082028036833780820191505090505b509050600260009054906101000a900473ffffffffffffffffffffffffffffffffffffffff16816000815181106200293a5762002939620072bb565b5b602002602001019073ffffffffffffffffffffffffffffffffffffffff16908173ffffffffffffffffffffffffffffffffffffffff1681525050600160009054906101000a900473ffffffffffffffffffffffffffffffffffffffff1673ffffffffffffffffffffffffffffffffffffffff166341e865cb6006546001846040518463ffffffff1660e01b8152600401620029d8939291906200609f565b600060405180830381600087803b158015620029f357600080fd5b505af115801562002a08573d6000803e3d6000fd5b5050505050565b6000600160009054906101000a900473ffffffffffffffffffffffffffffffffffffffff1673ffffffffffffffffffffffffffffffffffffffff166375cb2a0e7fd83da95c058c118d61c20dba7a15f44fa0a4c079eff4ca94932f2baf31135e026040518263ffffffff1660e01b815260040162002a8e919062006a29565b602060405180830381600087803b15801562002aa957600080fd5b505af115801562002abe573d6000803e3d6000fd5b505050506040513d601f19601f8201168201806040525081019062002ae49190620057db565b9050600160009054906101000a900473ffffffffffffffffffffffffffffffffffffffff1673ffffffffffffffffffffffffffffffffffffffff166357c91b95826001610bb861012c6020806040518763ffffffff1660e01b815260040162002b539695949392919062006335565b600060405180830381600087803b15801562002b6e57600080fd5b505af115801562002b83573d6000803e3d6000fd5b50505050600260009054906101000a900473ffffffffffffffffffffffffffffffffffffffff1673ffffffffffffffffffffffffffffffffffffffff1663bdf666a47fd83da95c058c118d61c20dba7a15f44fa0a4c079eff4ca94932f2baf31135e0060017fd83da95c058c118d61c20dba7a15f44fa0a4c079eff4ca94932f2baf31135e007fd83da95c058c118d61c20dba7a15f44fa0a4c079eff4ca94932f2baf31135e026040518563ffffffff1660e01b815260040162002c4b949392919062006508565b602060405180830381600087803b15801562002c6657600080fd5b505af192505050801562002c9a57506040513d601f19601f8201168201806040525081019062002c979190620057a9565b60015b62002d755762002ca962007319565b806308c379a0141562002d63575062002cc162007724565b8062002cce575062002d65565b73__$acbfb1c35000d78352310b16a054a6b106$__63e8c2cb16826040518263ffffffff1660e01b815260040162002d07919062006861565b60206040518083038186803b15801562002d2057600080fd5b505af415801562002d35573d6000803e3d6000fd5b505050506040513d601f19601f8201168201806040525081019062002d5b9190620057a9565b505062002d6f565b505b3d6000803e3d6000fd5b62002e06565b5073__$acbfb1c35000d78352310b16a054a6b106$__6339df137f60006040518263ffffffff1660e01b815260040162002db0919062005f2c565b60206040518083038186803b15801562002dc957600080fd5b505af415801562002dde573d6000803e3d6000fd5b505050506040513d601f19601f8201168201806040525081019062002e049190620057a9565b505b600260009054906101000a900473ffffffffffffffffffffffffffffffffffffffff1673ffffffffffffffffffffffffffffffffffffffff1663bdf666a48260007fd83da95c058c118d61c20dba7a15f44fa0a4c079eff4ca94932f2baf31135e007fd83da95c058c118d61c20dba7a15f44fa0a4c079eff4ca94932f2baf31135e026040518563ffffffff1660e01b815260040162002eaa949392919062006025565b602060405180830381600087803b15801562002ec557600080fd5b505af192505050801562002ef957506040513d601f19601f8201168201806040525081019062002ef69190620057a9565b60015b62002fd45762002f0862007319565b806308c379a0141562002fc2575062002f2062007724565b8062002f2d575062002fc4565b73__$acbfb1c35000d78352310b16a054a6b106$__63e8c2cb16826040518263ffffffff1660e01b815260040162002f669190620067c5565b60206040518083038186803b15801562002f7f57600080fd5b505af415801562002f94573d6000803e3d6000fd5b505050506040513d601f19601f8201168201806040525081019062002fba9190620057a9565b505062002fce565b505b3d6000803e3d6000fd5b62003065565b5073__$acbfb1c35000d78352310b16a054a6b106$__6339df137f60006040518263ffffffff1660e01b81526004016200300f919062005f2c565b60206040518083038186803b1580156200302857600080fd5b505af41580156200303d573d6000803e3d6000fd5b505050506040513d601f19601f82011682018060405250810190620030639190620057a9565b505b600260009054906101000a900473ffffffffffffffffffffffffffffffffffffffff1673ffffffffffffffffffffffffffffffffffffffff1663bdf666a48260017fd83da95c058c118d61c20dba7a15f44fa0a4c079eff4ca94932f2baf31135e007fd83da95c058c118d61c20dba7a15f44fa0a4c079eff4ca94932f2baf31135e026040518563ffffffff1660e01b8152600401620031099493929190620063a2565b602060405180830381600087803b1580156200312457600080fd5b505af115801562003139573d6000803e3d6000fd5b505050506040513d601f19601f820116820180604052508101906200315f9190620057a9565b50600260009054906101000a900473ffffffffffffffffffffffffffffffffffffffff1673ffffffffffffffffffffffffffffffffffffffff1663bdf666a48260017fe83da95c058c118d61c20dba7a15f44fa0a4c079eff4ca94932f2baf31135e007fe83da95c058c118d61c20dba7a15f44fa0a4c079eff4ca94932f2baf31135e026040518563ffffffff1660e01b815260040162003204949392919062006127565b602060405180830381600087803b1580156200321f57600080fd5b505af19250505080156200325357506040513d601f19601f82011682018060405250810190620032509190620057a9565b60015b6200332e576200326262007319565b806308c379a014156200331c57506200327a62007724565b806200328757506200331e565b73__$acbfb1c35000d78352310b16a054a6b106$__63e8c2cb16826040518263ffffffff1660e01b8152600401620032c09190620066db565b60206040518083038186803b158015620032d957600080fd5b505af4158015620032ee573d6000803e3d6000fd5b505050506040513d601f19601f82011682018060405250810190620033149190620057a9565b505062003328565b505b3d6000803e3d6000fd5b620033bf565b5073__$acbfb1c35000d78352310b16a054a6b106$__6339df137f60006040518263ffffffff1660e01b815260040162003369919062005f2c565b60206040518083038186803b1580156200338257600080fd5b505af415801562003397573d6000803e3d6000fd5b505050506040513d601f19601f82011682018060405250810190620033bd9190620057a9565b505b50565b604051620033d090620053a1565b604051809103906000f080158015620033ed573d6000803e3d6000fd5b506000806101000a81548173ffffffffffffffffffffffffffffffffffffffff021916908373ffffffffffffffffffffffffffffffffffffffff16021790555060008054906101000a900473ffffffffffffffffffffffffffffffffffffffff166040516200345c90620053af565b6200346891906200647e565b604051809103906000f08015801562003485573d6000803e3d6000fd5b50600160006101000a81548173ffffffffffffffffffffffffffffffffffffffff021916908373ffffffffffffffffffffffffffffffffffffffff16021790555060008054906101000a900473ffffffffffffffffffffffffffffffffffffffff16604051620034f590620053af565b6200350191906200647e565b604051809103906000f0801580156200351e573d6000803e3d6000fd5b50600260006101000a81548173ffffffffffffffffffffffffffffffffffffffff021916908373ffffffffffffffffffffffffffffffffffffffff16021790555060008054906101000a900473ffffffffffffffffffffffffffffffffffffffff166040516200358e90620053af565b6200359a91906200647e565b604051809103906000f080158015620035b7573d6000803e3d6000fd5b50600360006101000a81548173ffffffffffffffffffffffffffffffffffffffff021916908373ffffffffffffffffffffffffffffffffffffffff16021790555060008054906101000a900473ffffffffffffffffffffffffffffffffffffffff166040516200362790620053af565b6200363391906200647e565b604051809103906000f08015801562003650573d6000803e3d6000fd5b50600460006101000a81548173ffffffffffffffffffffffffffffffffffffffff021916908373ffffffffffffffffffffffffffffffffffffffff160217905550565b6000600160009054906101000a900473ffffffffffffffffffffffffffffffffffffffff1673ffffffffffffffffffffffffffffffffffffffff166375cb2a0e7f183da95c058c118d61c20dba7a15f44fa0a4c079eff4ca94932f2baf31135e096040518263ffffffff1660e01b8152600401620037129190620068fd565b602060405180830381600087803b1580156200372d57600080fd5b505af115801562003742573d6000803e3d6000fd5b505050506040513d601f19601f82011682018060405250810190620037689190620057db565b9050600160009054906101000a900473ffffffffffffffffffffffffffffffffffffffff1673ffffffffffffffffffffffffffffffffffffffff166357c91b95826001610bb861012c6020806040518763ffffffff1660e01b8152600401620037d79695949392919062006335565b600060405180830381600087803b158015620037f257600080fd5b505af115801562003807573d6000803e3d6000fd5b50505050600260009054906101000a900473ffffffffffffffffffffffffffffffffffffffff1673ffffffffffffffffffffffffffffffffffffffff1663bdf666a48260017fe83da96c058c118d61c20dba7a15f44fa0a4c079eff4ca94932f2baf31135e017fe83da96c058c118d61c20dba7a15f44fa0a4c079eff4ca94932f2baf31135e026040518563ffffffff1660e01b8152600401620038af9493929190620061c1565b602060405180830381600087803b158015620038ca57600080fd5b505af1158015620038df573d6000803e3d6000fd5b505050506040513d601f19601f82011682018060405250810190620039059190620057a9565b506000600167ffffffffffffffff811115620039265762003925620072ea565b5b604051908082528060200260200182016040528015620039555781602001602082028036833780820191505090505b509050600260009054906101000a900473ffffffffffffffffffffffffffffffffffffffff1681600081518110620039925762003991620072bb565b5b602002602001019073ffffffffffffffffffffffffffffffffffffffff16908173ffffffffffffffffffffffffffffffffffffffff1681525050600160009054906101000a900473ffffffffffffffffffffffffffffffffffffffff1673ffffffffffffffffffffffffffffffffffffffff166341e865cb836001846040518463ffffffff1660e01b815260040162003a2e939291906200609f565b600060405180830381600087803b15801562003a4957600080fd5b505af115801562003a5e573d6000803e3d6000fd5b505050506000600167ffffffffffffffff81111562003a825762003a81620072ea565b5b6040519080825280601f01601f19166020018201604052801562003ab55781602001600182028036833780820191505090505b509050600160f81b8160008151811062003ad45762003ad3620072bb565b5b60200101907effffffffffffffffffffffffffffffffffffffffffffffffffffffffffffff1916908160001a905350600260009054906101000a900473ffffffffffffffffffffffffffffffffffffffff1673ffffffffffffffffffffffffffffffffffffffff1663456523e2846001846040518463ffffffff1660e01b815260040162003b6593929190620060e3565b600060405180830381600087803b15801562003b8057600080fd5b505af115801562003b95573d6000803e3d6000fd5b505050506000600160009054906101000a900473ffffffffffffffffffffffffffffffffffffffff1673ffffffffffffffffffffffffffffffffffffffff16638750745e85600260009054906101000a900473ffffffffffffffffffffffffffffffffffffffff1660016040518463ffffffff1660e01b815260040162003c1f9392919062005f7b565b60006040518083038186803b15801562003c3857600080fd5b505afa15801562003c4d573d6000803e3d6000fd5b505050506040513d6000823e3d601f19601f8201168201806040525081019062003c7891906200580d565b90506000816020015190506000602082015160001a905073__$acbfb1c35000d78352310b16a054a6b106$__63abcd796084602001515160016040518363ffffffff1660e01b815260040162003cd092919062006acf565b60206040518083038186803b15801562003ce957600080fd5b505af415801562003cfe573d6000803e3d6000fd5b505050506040513d601f19601f8201168201806040525081019062003d249190620057a9565b5073__$acbfb1c35000d78352310b16a054a6b106$__63abcd79608260016040518363ffffffff1660e01b815260040162003d6192919062006c9d565b60206040518083038186803b15801562003d7a57600080fd5b505af415801562003d8f573d6000803e3d6000fd5b505050506040513d601f19601f8201168201806040525081019062003db59190620057a9565b50505050505050565b600160009054906101000a900473ffffffffffffffffffffffffffffffffffffffff1673ffffffffffffffffffffffffffffffffffffffff166375cb2a0e7fd83da95c058c118d61c20dba7a15f44fa0a4c079eff4ca94932f2baf31135e036040518263ffffffff1660e01b815260040162003e3b919062006a5b565b602060405180830381600087803b15801562003e5657600080fd5b505af115801562003e6b573d6000803e3d6000fd5b505050506040513d601f19601f8201168201806040525081019062003e919190620057db565b600581905550600160009054906101000a900473ffffffffffffffffffffffffffffffffffffffff1673ffffffffffffffffffffffffffffffffffffffff166357c91b956005546001610bb861012c6001806040518763ffffffff1660e01b815260040162003f06969594939291906200625b565b600060405180830381600087803b15801562003f2157600080fd5b505af115801562003f36573d6000803e3d6000fd5b50505050565b6000600160009054906101000a900473ffffffffffffffffffffffffffffffffffffffff1673ffffffffffffffffffffffffffffffffffffffff166375cb2a0e7f683da95c058c118d61c20dba7a15f44fa0a4c079eff4ca94932f2baf31135e096040518263ffffffff1660e01b815260040162003fbb91906200692f565b602060405180830381600087803b15801562003fd657600080fd5b505af115801562003feb573d6000803e3d6000fd5b505050506040513d601f19601f82011682018060405250810190620040119190620057db565b9050600160009054906101000a900473ffffffffffffffffffffffffffffffffffffffff1673ffffffffffffffffffffffffffffffffffffffff166357c91b95826001610bb861012c6020806040518763ffffffff1660e01b8152600401620040809695949392919062006335565b600060405180830381600087803b1580156200409b57600080fd5b505af1158015620040b0573d6000803e3d6000fd5b50505050600260009054906101000a900473ffffffffffffffffffffffffffffffffffffffff1673ffffffffffffffffffffffffffffffffffffffff1663bdf666a48260017fe83da96c058c118d61c20dba7a15f44fa0a4c079eff4ca94932f2baf31135e017fe83da96c058c118d61c20dba7a15f44fa0a4c079eff4ca94932f2baf31135e026040518563ffffffff1660e01b8152600401620041589493929190620061c1565b602060405180830381600087803b1580156200417357600080fd5b505af115801562004188573d6000803e3d6000fd5b505050506040513d601f19601f82011682018060405250810190620041ae9190620057a9565b506000600167ffffffffffffffff811115620041cf57620041ce620072ea565b5b604051908082528060200260200182016040528015620041fe5781602001602082028036833780820191505090505b509050600260009054906101000a900473ffffffffffffffffffffffffffffffffffffffff16816000815181106200423b576200423a620072bb565b5b602002602001019073ffffffffffffffffffffffffffffffffffffffff16908173ffffffffffffffffffffffffffffffffffffffff1681525050600160009054906101000a900473ffffffffffffffffffffffffffffffffffffffff1673ffffffffffffffffffffffffffffffffffffffff166341e865cb836001846040518463ffffffff1660e01b8152600401620042d7939291906200609f565b600060405180830381600087803b158015620042f257600080fd5b505af115801562004307573d6000803e3d6000fd5b505050506000600167ffffffffffffffff8111156200432b576200432a620072ea565b5b6040519080825280601f01601f1916602001820160405280156200435e5781602001600182028036833780820191505090505b509050600160f81b816000815181106200437d576200437c620072bb565b5b60200101907effffffffffffffffffffffffffffffffffffffffffffffffffffffffffffff1916908160001a905350600260009054906101000a900473ffffffffffffffffffffffffffffffffffffffff1673ffffffffffffffffffffffffffffffffffffffff166368f14acf846001846040518463ffffffff1660e01b81526004016200440e93929190620060e3565b600060405180830381600087803b1580156200442957600080fd5b505af11580156200443e573d6000803e3d6000fd5b505050506000600160009054906101000a900473ffffffffffffffffffffffffffffffffffffffff1673ffffffffffffffffffffffffffffffffffffffff16638750745e85600260009054906101000a900473ffffffffffffffffffffffffffffffffffffffff1660016040518463ffffffff1660e01b8152600401620044c89392919062005f7b565b60006040518083038186803b158015620044e157600080fd5b505afa158015620044f6573d6000803e3d6000fd5b505050506040513d6000823e3d601f19601f820116820180604052508101906200452191906200580d565b90506000816000015190506000602082015160001a905073__$acbfb1c35000d78352310b16a054a6b106$__63abcd796084600001515160016040518363ffffffff1660e01b81526004016200457992919062006acf565b60206040518083038186803b1580156200459257600080fd5b505af4158015620045a7573d6000803e3d6000fd5b505050506040513d601f19601f82011682018060405250810190620045cd9190620057a9565b5073__$acbfb1c35000d78352310b16a054a6b106$__63abcd79608260016040518363ffffffff1660e01b81526004016200460a92919062006c9d565b60206040518083038186803b1580156200462357600080fd5b505af415801562004638573d6000803e3d6000fd5b505050506040513d601f19601f820116820180604052508101906200465e9190620057a9565b50505050505050565b6000600167ffffffffffffffff811115620046875762004686620072ea565b5b6040519080825280601f01601f191660200182016040528015620046ba5781602001600182028036833780820191505090505b509050600160f81b81600081518110620046d957620046d8620072bb565b5b60200101907effffffffffffffffffffffffffffffffffffffffffffffffffffffffffffff1916908160001a905350600260009054906101000a900473ffffffffffffffffffffffffffffffffffffffff1673ffffffffffffffffffffffffffffffffffffffff166368f14acf6006546001846040518463ffffffff1660e01b81526004016200476c93929190620060e3565b600060405180830381600087803b1580156200478757600080fd5b505af192505050801562004799575060015b6200487457620047a862007319565b806308c379a01415620048625750620047c062007724565b80620047cd575062004864565b73__$acbfb1c35000d78352310b16a054a6b106$__63e8c2cb16826040518263ffffffff1660e01b815260040162004806919062006813565b60206040518083038186803b1580156200481f57600080fd5b505af415801562004834573d6000803e3d6000fd5b505050506040513d601f19601f820116820180604052508101906200485a9190620057a9565b50506200486e565b505b3d6000803e3d6000fd5b62004904565b73__$acbfb1c35000d78352310b16a054a6b106$__6339df137f60006040518263ffffffff1660e01b8152600401620048ae919062005f2c565b60206040518083038186803b158015620048c757600080fd5b505af4158015620048dc573d6000803e3d6000fd5b505050506040513d601f19601f82011682018060405250810190620049029190620057a9565b505b50565b6000600160009054906101000a900473ffffffffffffffffffffffffffffffffffffffff1673ffffffffffffffffffffffffffffffffffffffff166375cb2a0e7f183da95c058c118d61c20dba7a15f44fa0a4c079eff4ca94932f2baf31135e096040518263ffffffff1660e01b8152600401620049869190620068fd565b602060405180830381600087803b158015620049a157600080fd5b505af1158015620049b6573d6000803e3d6000fd5b505050506040513d601f19601f82011682018060405250810190620049dc9190620057db565b9050600160009054906101000a900473ffffffffffffffffffffffffffffffffffffffff1673ffffffffffffffffffffffffffffffffffffffff166357c91b95826001610bb861012c6020806040518763ffffffff1660e01b815260040162004a4b9695949392919062006335565b600060405180830381600087803b15801562004a6657600080fd5b505af115801562004a7b573d6000803e3d6000fd5b50505050600260009054906101000a900473ffffffffffffffffffffffffffffffffffffffff1673ffffffffffffffffffffffffffffffffffffffff1663bdf666a48260017fe83da96c058c118d61c20dba7a15f44fa0a4c079eff4ca94932f2baf31135e017fe83da96c058c118d61c20dba7a15f44fa0a4c079eff4ca94932f2baf31135e026040518563ffffffff1660e01b815260040162004b239493929190620061c1565b602060405180830381600087803b15801562004b3e57600080fd5b505af115801562004b53573d6000803e3d6000fd5b505050506040513d601f19601f8201168201806040525081019062004b799190620057a9565b506000600167ffffffffffffffff81111562004b9a5762004b99620072ea565b5b60405190808252806020026020018201604052801562004bc95781602001602082028036833780820191505090505b509050600260009054906101000a900473ffffffffffffffffffffffffffffffffffffffff168160008151811062004c065762004c05620072bb565b5b602002602001019073ffffffffffffffffffffffffffffffffffffffff16908173ffffffffffffffffffffffffffffffffffffffff1681525050600160009054906101000a900473ffffffffffffffffffffffffffffffffffffffff1673ffffffffffffffffffffffffffffffffffffffff166341e865cb836001846040518463ffffffff1660e01b815260040162004ca2939291906200609f565b600060405180830381600087803b15801562004cbd57600080fd5b505af115801562004cd2573d6000803e3d6000fd5b505050506000600167ffffffffffffffff81111562004cf65762004cf5620072ea565b5b6040519080825280601f01601f19166020018201604052801562004d295781602001600182028036833780820191505090505b509050600160f81b8160008151811062004d485762004d47620072bb565b5b60200101907effffffffffffffffffffffffffffffffffffffffffffffffffffffffffffff1916908160001a905350600260009054906101000a900473ffffffffffffffffffffffffffffffffffffffff1673ffffffffffffffffffffffffffffffffffffffff166320f0672c846001846040518463ffffffff1660e01b815260040162004dd993929190620060e3565b600060405180830381600087803b15801562004df457600080fd5b505af115801562004e09573d6000803e3d6000fd5b505050506000600160009054906101000a900473ffffffffffffffffffffffffffffffffffffffff1673ffffffffffffffffffffffffffffffffffffffff16638750745e85600260009054906101000a900473ffffffffffffffffffffffffffffffffffffffff1660016040518463ffffffff1660e01b815260040162004e939392919062005f7b565b60006040518083038186803b15801562004eac57600080fd5b505afa15801562004ec1573d6000803e3d6000fd5b505050506040513d6000823e3d601f19601f8201168201806040525081019062004eec91906200580d565b90506000816040015190506000602082015160001a905073__$acbfb1c35000d78352310b16a054a6b106$__63abcd796084604001515160016040518363ffffffff1660e01b815260040162004f4492919062006acf565b60206040518083038186803b15801562004f5d57600080fd5b505af415801562004f72573d6000803e3d6000fd5b505050506040513d601f19601f8201168201806040525081019062004f989190620057a9565b5073__$acbfb1c35000d78352310b16a054a6b106$__63abcd79608260016040518363ffffffff1660e01b815260040162004fd592919062006c9d565b60206040518083038186803b15801562004fee57600080fd5b505af415801562005003573d6000803e3d6000fd5b505050506040513d601f19601f82011682018060405250810190620050299190620057a9565b50505050505050565b6000600160009054906101000a900473ffffffffffffffffffffffffffffffffffffffff1673ffffffffffffffffffffffffffffffffffffffff166375cb2a0e7fd83da95c058c118d61c20dba7a15f44fa0a4c079eff4ca94932f2baf31135e006040518263ffffffff1660e01b8152600401620050b19190620069c5565b602060405180830381600087803b158015620050cc57600080fd5b505af1158015620050e1573d6000803e3d6000fd5b505050506040513d601f19601f82011682018060405250810190620051079190620057db565b905060008060009054906101000a900473ffffffffffffffffffffffffffffffffffffffff1673ffffffffffffffffffffffffffffffffffffffff166358af9f73836040518263ffffffff1660e01b815260040162005167919062005f5e565b60006040518083038186803b1580156200518057600080fd5b505afa15801562005195573d6000803e3d6000fd5b505050506040513d6000823e3d601f19601f82011682018060405250810190620051c0919062005891565b905073__$acbfb1c35000d78352310b16a054a6b106$__63e8c2cb1682602001516040518263ffffffff1660e01b8152600401620051ff919062006555565b60206040518083038186803b1580156200521857600080fd5b505af41580156200522d573d6000803e3d6000fd5b505050506040513d601f19601f82011682018060405250810190620052539190620057a9565b5073__$acbfb1c35000d78352310b16a054a6b106$__63ea79dd7982604001517fd83da95c058c118d61c20dba7a15f44fa0a4c079eff4ca94932f2baf31135e006040518363ffffffff1660e01b8152600401620052b39291906200643c565b60206040518083038186803b158015620052cc57600080fd5b505af4158015620052e1573d6000803e3d6000fd5b505050506040513d601f19601f82011682018060405250810190620053079190620057a9565b5073__$acbfb1c35000d78352310b16a054a6b106$__63abcd7960826060015160006040518363ffffffff1660e01b81526004016200534892919062006c19565b60206040518083038186803b1580156200536157600080fd5b505af415801562005376573d6000803e3d6000fd5b505050506040513d601f19601f820116820180604052508101906200539c9190620057a9565b505050565b613c38806200787483390190565b6115d9806200b4ac83390190565b6000620053d4620053ce8462006d08565b62006cdf565b905082815260208101848484011115620053f357620053f26200734d565b5b620054008482856200724f565b509392505050565b60006200541f620054198462006d3e565b62006cdf565b9050828152602081018484840111156200543e576200543d6200734d565b5b6200544b8482856200724f565b509392505050565b6000815190506200546481620077c6565b92915050565b6000815190506200547b81620077e0565b92915050565b6000815190506200549281620077fa565b92915050565b600082601f830112620054b057620054af6200733e565b5b8151620054c2848260208601620053bd565b91505092915050565b600081519050620054dc8162007814565b92915050565b600082601f830112620054fa57620054f96200733e565b5b81516200550c84826020860162005408565b91505092915050565b6000606082840312156200552e576200552d62007343565b5b6200553a606062006cdf565b9050600082015167ffffffffffffffff8111156200555d576200555c62007348565b5b6200556b8482850162005498565b600083015250602082015167ffffffffffffffff81111562005592576200559162007348565b5b620055a08482850162005498565b602083015250604082015167ffffffffffffffff811115620055c757620055c662007348565b5b620055d58482850162005498565b60408301525092915050565b60006101008284031215620055fb57620055fa62007343565b5b6200560861010062006cdf565b905060006200561a8482850162005792565b600083015250602062005630848285016200577b565b602083015250604062005646848285016200577b565b60408301525060606200565c84828501620054cb565b6060830152506080620056728482850162005764565b60808301525060a0620056888482850162005764565b60a08301525060c06200569e848285016200577b565b60c08301525060e0620056b4848285016200577b565b60e08301525092915050565b600060808284031215620056d957620056d862007343565b5b620056e5608062006cdf565b90506000620056f78482850162005453565b600083015250602082015167ffffffffffffffff8111156200571e576200571d62007348565b5b6200572c84828501620054e2565b6020830152506040620057428482850162005481565b6040830152506060620057588482850162005792565b60608301525092915050565b600081519050620057758162007825565b92915050565b6000815190506200578c816200783f565b92915050565b600081519050620057a38162007859565b92915050565b600060208284031215620057c257620057c162007357565b5b6000620057d2848285016200546a565b91505092915050565b600060208284031215620057f457620057f362007357565b5b6000620058048482850162005481565b91505092915050565b60006020828403121562005826576200582562007357565b5b600082015167ffffffffffffffff81111562005847576200584662007352565b5b620058558482850162005515565b91505092915050565b6000610100828403121562005878576200587762007357565b5b60006200588884828501620055e1565b91505092915050565b600060208284031215620058aa57620058a962007357565b5b600082015167ffffffffffffffff811115620058cb57620058ca62007352565b5b620058d984828501620056c0565b91505092915050565b6000620058f08383620058fc565b60208301905092915050565b620059078162006df6565b82525050565b620059188162006df6565b82525050565b60006200592b8262006d84565b62005937818562006db2565b9350620059448362006d74565b8060005b838110156200597b5781516200595f8882620058e2565b97506200596c8362006da5565b92505060018101905062005948565b5085935050505092915050565b620059938162006e0a565b82525050565b620059a48162006e16565b82525050565b620059b58162006e16565b82525050565b6000620059c88262006d8f565b620059d4818562006dc3565b9350620059e68185602086016200724f565b620059f1816200735c565b840191505092915050565b62005a078162006f1b565b82525050565b62005a188162006f2f565b82525050565b62005a298162006f43565b82525050565b62005a3a8162006f57565b82525050565b62005a4b8162006f75565b82525050565b62005a5c8162006f93565b82525050565b62005a6d8162006fb1565b82525050565b62005a7e8162006fcf565b82525050565b62005a8f8162006fed565b82525050565b62005aa0816200700b565b82525050565b62005ab18162007029565b82525050565b62005ac28162007047565b82525050565b62005ad3816200705b565b82525050565b62005ae4816200706f565b82525050565b62005af58162007083565b82525050565b62005b068162007097565b82525050565b62005b1781620070ab565b82525050565b62005b2881620070bf565b82525050565b62005b3981620070d3565b82525050565b62005b4a81620070e7565b82525050565b62005b5b81620070fb565b82525050565b62005b6c8162007119565b82525050565b62005b7d8162007137565b82525050565b62005b8e8162007155565b82525050565b62005b9f8162007155565b82525050565b62005bb08162007173565b82525050565b62005bc18162007191565b82525050565b62005bd281620071af565b82525050565b62005be381620071cd565b82525050565b600062005bf68262006d9a565b62005c02818562006de5565b935062005c148185602086016200724f565b62005c1f816200735c565b840191505092915050565b600062005c3960098362006dd4565b915062005c468262007387565b602082019050919050565b600062005c6060098362006de5565b915062005c6d8262007387565b602082019050919050565b600062005c87602a8362006de5565b915062005c9482620073b0565b604082019050919050565b600062005cae602a8362006de5565b915062005cbb82620073ff565b604082019050919050565b600062005cd560188362006de5565b915062005ce2826200744e565b602082019050919050565b600062005cfc60428362006de5565b915062005d098262007477565b606082019050919050565b600062005d23601d8362006de5565b915062005d3082620074ec565b602082019050919050565b600062005d4a60158362006de5565b915062005d578262007515565b602082019050919050565b600062005d7160148362006de5565b915062005d7e826200753e565b602082019050919050565b600062005d98601b8362006de5565b915062005da58262007567565b602082019050919050565b600062005dbf60168362006de5565b915062005dcc8262007590565b602082019050919050565b600062005de660298362006de5565b915062005df382620075b9565b604082019050919050565b600062005e0d601d8362006de5565b915062005e1a8262007608565b602082019050919050565b600062005e3460368362006de5565b915062005e418262007631565b604082019050919050565b600062005e5b60188362006de5565b915062005e688262007680565b602082019050919050565b600062005e8260108362006de5565b915062005e8f82620076a9565b602082019050919050565b600062005ea9601a8362006de5565b915062005eb682620076d2565b602082019050919050565b600062005ed0600f8362006de5565b915062005edd82620076fb565b602082019050919050565b62005ef38162006ee0565b82525050565b62005f048162007213565b82525050565b62005f158162007227565b82525050565b62005f26816200723b565b82525050565b600060408201905062005f43600083018462005988565b818103602083015262005f568162005db0565b905092915050565b600060208201905062005f75600083018462005999565b92915050565b600060608201905062005f92600083018662005999565b62005fa160208301856200590d565b62005fb0604083018462005ad9565b949350505050565b600060c08201905062005fcf600083018962005999565b62005fde602083018862005a1e565b62005fed604083018762005afb565b62005ffc606083018662005b1d565b6200600b608083018562005b3f565b6200601a60a083018462005b3f565b979650505050505050565b60006080820190506200603c600083018762005999565b6200604b602083018662005a1e565b6200605a604083018562005b83565b62006069606083018462005bb6565b95945050505050565b600060408201905062006089600083018562005999565b62006098602083018462005ad9565b9392505050565b6000606082019050620060b6600083018662005999565b620060c5602083018562005ad9565b8181036040830152620060d981846200591e565b9050949350505050565b6000606082019050620060fa600083018662005999565b62006109602083018562005ad9565b81810360408301526200611d8184620059bb565b9050949350505050565b60006080820190506200613e600083018762005999565b6200614d602083018662005ad9565b6200615c604083018562005a2f565b6200616b606083018462005a51565b95945050505050565b60006080820190506200618b600083018762005999565b6200619a602083018662005ad9565b620061a9604083018562005a40565b620061b8606083018462005a51565b95945050505050565b6000608082019050620061d8600083018762005999565b620061e7602083018662005ad9565b620061f6604083018562005a62565b62006205606083018462005a73565b95945050505050565b600060808201905062006225600083018762005999565b62006234602083018662005ad9565b62006243604083018562005a95565b62006252606083018462005aa6565b95945050505050565b600060c08201905062006272600083018962005999565b62006281602083018862005ad9565b62006290604083018762005afb565b6200629f606083018662005b1d565b620062ae608083018562005ac8565b620062bd60a083018462005ac8565b979650505050505050565b600060c082019050620062df600083018962005999565b620062ee602083018862005ad9565b620062fd604083018762005afb565b6200630c606083018662005b1d565b6200631b608083018562005b3f565b6200632a60a083018462005ac8565b979650505050505050565b600060c0820190506200634c600083018962005999565b6200635b602083018862005ad9565b6200636a604083018762005afb565b62006379606083018662005b1d565b62006388608083018562005b3f565b6200639760a083018462005b3f565b979650505050505050565b6000608082019050620063b9600083018762005999565b620063c8602083018662005ad9565b620063d7604083018562005b83565b620063e6606083018462005bb6565b95945050505050565b600060808201905062006406600083018762005999565b62006415602083018662005ad9565b62006424604083018562005bc7565b62006433606083018462005bd8565b95945050505050565b6000606082019050620064536000830185620059aa565b62006462602083018462005b94565b8181036040830152620064758162005e73565b90509392505050565b6000602082019050620064956000830184620059fc565b92915050565b600060c082019050620064b2600083018962005b83565b620064c1602083018862005a1e565b620064d0604083018762005afb565b620064df606083018662005b1d565b620064ee608083018562005b3f565b620064fd60a083018462005b3f565b979650505050505050565b60006080820190506200651f600083018762005b83565b6200652e602083018662005ad9565b6200653d604083018562005b83565b6200654c606083018462005bb6565b95945050505050565b6000606082019050818103600083015262006571818462005be9565b90508181036020830152620065868162005c51565b905081810360408301526200659b8162005e73565b905092915050565b60006060820190508181036000830152620065bf818462005be9565b90508181036020830152620065d48162005cc6565b90508181036040830152620065e98162005d3b565b905092915050565b600060608201905081810360008301526200660d818462005be9565b90508181036020830152620066228162005ced565b90508181036040830152620066378162005e4c565b905092915050565b600060608201905081810360008301526200665b818462005be9565b90508181036020830152620066708162005d14565b90508181036040830152620066858162005d89565b905092915050565b60006060820190508181036000830152620066a9818462005be9565b90508181036020830152620066be8162005d62565b90508181036040830152620066d38162005d89565b905092915050565b60006060820190508181036000830152620066f7818462005be9565b905081810360208301526200670c8162005dd7565b90508181036040830152620067218162005d3b565b905092915050565b6000606082019050818103600083015262006745818462005be9565b905081810360208301526200675a8162005dfe565b905081810360408301526200676f8162005d89565b905092915050565b6000606082019050818103600083015262006793818462005be9565b90508181036020830152620067a88162005dfe565b90508181036040830152620067bd8162005e4c565b905092915050565b60006060820190508181036000830152620067e1818462005be9565b90508181036020830152620067f68162005e25565b905081810360408301526200680b8162005d3b565b905092915050565b600060608201905081810360008301526200682f818462005be9565b90508181036020830152620068448162005e9a565b90508181036040830152620068598162005c9f565b905092915050565b600060608201905081810360008301526200687d818462005be9565b90508181036020830152620068928162005ec1565b90508181036040830152620068a78162005d3b565b905092915050565b60006060820190508181036000830152620068cb818462005be9565b90508181036020830152620068e08162005ec1565b90508181036040830152620068f58162005e4c565b905092915050565b60006040820190508181036000830152620069188162005c2a565b905062006929602083018462005a84565b92915050565b600060408201905081810360008301526200694a8162005c2a565b90506200695b602083018462005b50565b92915050565b600060408201905081810360008301526200697c8162005c2a565b90506200698d602083018462005b61565b92915050565b60006040820190508181036000830152620069ae8162005c2a565b9050620069bf602083018462005b72565b92915050565b60006040820190508181036000830152620069e08162005c2a565b9050620069f1602083018462005b83565b92915050565b6000604082019050818103600083015262006a128162005c2a565b905062006a23602083018462005ba5565b92915050565b6000604082019050818103600083015262006a448162005c2a565b905062006a55602083018462005bb6565b92915050565b6000604082019050818103600083015262006a768162005c2a565b905062006a87602083018462005bc7565b92915050565b600060608201905062006aa4600083018562005ee8565b62006ab3602083018462005a0d565b818103604083015262006ac68162005e4c565b90509392505050565b600060608201905062006ae6600083018562005ee8565b62006af5602083018462005ab7565b818103604083015262006b088162005c78565b90509392505050565b600060608201905062006b28600083018562005ee8565b62006b37602083018462005ee8565b818103604083015262006b4a8162005e4c565b90509392505050565b600060608201905062006b6a600083018562005ef9565b62006b79602083018462005aea565b818103604083015262006b8c8162005e4c565b90509392505050565b600060608201905062006bac600083018562005ef9565b62006bbb602083018462005b0c565b818103604083015262006bce8162005e4c565b90509392505050565b600060608201905062006bee600083018562005ef9565b62006bfd602083018462005b2e565b818103604083015262006c108162005e4c565b90509392505050565b600060608201905062006c30600083018562005f0a565b62006c3f602083018462005a0d565b818103604083015262006c528162005e73565b90509392505050565b600060608201905062006c72600083018562005f0a565b62006c81602083018462005ab7565b818103604083015262006c948162005e4c565b90509392505050565b600060608201905062006cb4600083018562005f1b565b62006cc3602083018462005ab7565b818103604083015262006cd68162005c78565b90509392505050565b600062006ceb62006cfe565b905062006cf9828262007285565b919050565b6000604051905090565b600067ffffffffffffffff82111562006d265762006d25620072ea565b5b62006d31826200735c565b9050602081019050919050565b600067ffffffffffffffff82111562006d5c5762006d5b620072ea565b5b62006d67826200735c565b9050602081019050919050565b6000819050602082019050919050565b600081519050919050565b600081519050919050565b600081519050919050565b6000602082019050919050565b600082825260208201905092915050565b600082825260208201905092915050565b600082825260208201905092915050565b600082825260208201905092915050565b600062006e038262006ec0565b9050919050565b60008115159050919050565b6000819050919050565b6000819050919050565b6000819050919050565b6000819050919050565b6000819050919050565b6000819050919050565b6000819050919050565b6000819050919050565b6000819050919050565b6000819050919050565b6000819050919050565b6000819050919050565b6000819050919050565b6000819050919050565b6000819050919050565b6000819050919050565b6000819050919050565b600073ffffffffffffffffffffffffffffffffffffffff82169050919050565b6000819050919050565b600063ffffffff82169050919050565b600067ffffffffffffffff82169050919050565b600060ff82169050919050565b600062006f2882620071eb565b9050919050565b600062006f3c8262006ee0565b9050919050565b600062006f508262006efa565b9050919050565b600062006f6e62006f688362006e20565b6200736d565b9050919050565b600062006f8c62006f868362006e2a565b6200736d565b9050919050565b600062006faa62006fa48362006e34565b6200736d565b9050919050565b600062006fc862006fc28362006e3e565b6200736d565b9050919050565b600062006fe662006fe08362006e48565b6200736d565b9050919050565b60006200700462006ffe8362006e52565b6200736d565b9050919050565b6000620070226200701c8362006e5c565b6200736d565b9050919050565b6000620070406200703a8362006e66565b6200736d565b9050919050565b6000620070548262006ee0565b9050919050565b6000620070688262006eea565b9050919050565b60006200707c8262006efa565b9050919050565b6000620070908262006ee0565b9050919050565b6000620070a48262006eea565b9050919050565b6000620070b88262006ee0565b9050919050565b6000620070cc8262006eea565b9050919050565b6000620070e08262006ee0565b9050919050565b6000620070f48262006eea565b9050919050565b6000620071126200710c8362006e70565b6200736d565b9050919050565b6000620071306200712a8362006e7a565b6200736d565b9050919050565b60006200714e620071488362006e84565b6200736d565b9050919050565b60006200716c620071668362006e8e565b6200736d565b9050919050565b60006200718a620071848362006e98565b6200736d565b9050919050565b6000620071a8620071a28362006ea2565b6200736d565b9050919050565b6000620071c6620071c08362006eac565b6200736d565b9050919050565b6000620071e4620071de8362006eb6565b6200736d565b9050919050565b6000620071f882620071ff565b9050919050565b60006200720c8262006ec0565b9050919050565b6000620072208262006eea565b9050919050565b6000620072348262006efa565b9050919050565b6000620072488262006f0e565b9050919050565b60005b838110156200726f57808201518184015260208101905062007252565b838111156200727f576000848401525b50505050565b62007290826200735c565b810181811067ffffffffffffffff82111715620072b257620072b1620072ea565b5b80604052505050565b7f4e487b7100000000000000000000000000000000000000000000000000000000600052603260045260246000fd5b7f4e487b7100000000000000000000000000000000000000000000000000000000600052604160045260246000fd5b600060033d11156200733b5760046000803e620073386000516200737a565b90505b90565b600080fd5b600080fd5b600080fd5b600080fd5b600080fd5b600080fd5b6000601f19601f8301169050919050565b60008160001b9050919050565b60008160e01c9050919050565b7f6d79446174615365740000000000000000000000000000000000000000000000600082015250565b7f75706c6f6164576569676874436f6d6d69746d656e7453686f756c645375636360008201527f657373204661696c656400000000000000000000000000000000000000000000602082015250565b7f75706c6f6164576569676874436f6d6d69746d656e7453686f756c6454696d6560008201527f6f7574206661696c656400000000000000000000000000000000000000000000602082015250565b7f4a6f696e20646561646c696e6520686173207061737365640000000000000000600082015250565b7f74686520726f756e6420686173206265656e20616c726561647920737461727460008201527f6564206f72207468652070726520726f756e6420646f6573206e6f742065786960208201527f7374000000000000000000000000000000000000000000000000000000000000604082015250565b7f5468697320726f756e64206973206e6f742072756e6e696e67206e6f77000000600082015250565b7f6a6f696e526f756e645465737473206661696c65640000000000000000000000600082015250565b7f43616e646964617465206d757374206578697374000000000000000000000000600082015250565b7f73656c65637443616e6469646174657354657374206661696c65640000000000600082015250565b7f73686f756c64207468726f7720657863657074696f6e00000000000000000000600082015250565b7f43616e6e6f74206a6f696e207468652073616d6520726f756e64206d756c746960008201527f706c652074696d65730000000000000000000000000000000000000000000000602082015250565b7f4d7573742063616c6c656420627920746865207461736b206f776e6572000000600082015250565b7f7468697320726f756e64206861732066696e6973686564206f7220697420686160008201527f736e2774206265656e2073746172746564207965742e00000000000000000000602082015250565b7f5374617274526f756e6442617463686573206661696c65640000000000000000600082015250565b7f4372656174655461736b4661696c656400000000000000000000000000000000600082015250565b7f75706c6f616420646561646c696e652068617320706173736564000000000000600082015250565b7f5461736b206e6f74206578697374730000000000000000000000000000000000600082015250565b600060443d10156200773657620077c3565b6200774062006cfe565b60043d036004823e80513d602482011167ffffffffffffffff821117156200776a575050620077c3565b808201805167ffffffffffffffff8111156200778a5750505050620077c3565b80602083010160043d038501811115620077a9575050505050620077c3565b620077ba8260200185018662007285565b82955050505050505b90565b620077d18162006df6565b8114620077dd57600080fd5b50565b620077eb8162006e0a565b8114620077f757600080fd5b50565b620078058162006e16565b81146200781157600080fd5b50565b600481106200782257600080fd5b50565b620078308162006ee0565b81146200783c57600080fd5b50565b6200784a8162006eea565b81146200785657600080fd5b50565b620078648162006efa565b81146200787057600080fd5b5056fe608060405234801561001057600080fd5b50336000806101000a81548173ffffffffffffffffffffffffffffffffffffffff021916908373ffffffffffffffffffffffffffffffffffffffff16021790555060008054906101000a900473ffffffffffffffffffffffffffffffffffffffff1673ffffffffffffffffffffffffffffffffffffffff16600073ffffffffffffffffffffffffffffffffffffffff167f342827c97908e5e2f71151c08502a66d44b6f758e3ac2f1de95f02eb95f0a73560405160405180910390a3613b5d806100db6000396000f3fe6080604052600436106100f35760003560e01c806357c91b951161008a5780638750745e116100595780638750745e14610329578063893d20e814610366578063a6f9dae114610391578063bdf666a4146103ba576100f3565b806357c91b951461026a57806358af9f731461029357806368f14acf146102d057806375cb2a0e146102f9576100f3565b806341e865cb116100c657806341e865cb146101b2578063456523e2146101db5780634893b362146102045780634956219b14610241576100f3565b806301bd7269146100f857806312ab8b87146101215780631449f4de1461014c57806320f0672c14610189575b600080fd5b34801561010457600080fd5b5061011f600480360381019061011a9190612998565b6103f7565b005b34801561012d57600080fd5b50610136610598565b604051610143919061344b565b60405180910390f35b34801561015857600080fd5b50610173600480360381019061016e91906129d8565b6105f3565b60405161018091906133d0565b60405180910390f35b34801561019557600080fd5b506101b060048036038101906101ab9190612b06565b610728565b005b3480156101be57600080fd5b506101d960048036038101906101d49190612a2b565b610893565b005b3480156101e757600080fd5b5061020260048036038101906101fd9190612b06565b610b95565b005b34801561021057600080fd5b5061022b60048036038101906102269190612998565b610d00565b604051610238919061340d565b60405180910390f35b34801561024d57600080fd5b5061026860048036038101906102639190612a2b565b610ec9565b005b34801561027657600080fd5b50610291600480360381019061028c9190612b7a565b6111f4565b005b34801561029f57600080fd5b506102ba60048036038101906102b59190612918565b6116c6565b6040516102c79190613429565b60405180910390f35b3480156102dc57600080fd5b506102f760048036038101906102f29190612b06565b6118bf565b005b610313600480360381019061030e9190612c07565b611b50565b604051610320919061318c565b60405180910390f35b34801561033557600080fd5b50610350600480360381019061034b9190612945565b611d51565b60405161035d91906133eb565b60405180910390f35b34801561037257600080fd5b5061037b6120ed565b6040516103889190613156565b60405180910390f35b34801561039d57600080fd5b506103b860048036038101906103b391906128eb565b612116565b005b3480156103c657600080fd5b506103e160048036038101906103dc9190612a9f565b612261565b6040516103ee9190613171565b60405180910390f35b813373ffffffffffffffffffffffffffffffffffffffff166001600083815260200190815260200160002060000160009054906101000a900473ffffffffffffffffffffffffffffffffffffffff1673ffffffffffffffffffffffffffffffffffffffff161461049c576040517f08c379a000000000000000000000000000000000000000000000000000000000815260040161049390613330565b60405180910390fd5b82826000600260008481526020019081526020016000209050600181805490501180156104e257508167ffffffffffffffff16600182805490506104e09190613592565b145b610521576040517f08c379a000000000000000000000000000000000000000000000000000000000815260040161051890613350565b60405180910390fd5b6000600260008881526020019081526020016000208667ffffffffffffffff1681548110610552576105516137ab565b5b9060005260206000209060050201905060038160000160106101000a81548160ff0219169083600381111561058a5761058961374d565b5b021790555050505050505050565b600080600167ffffffffffffffff8111156105b6576105b56137da565b5b6040519080825280601f01601f1916602001820160405280156105e85781602001600182028036833780820191505090505b509050805191505090565b6105fb612567565b838360006002600084815260200190815260200160002090506001818054905011801561064157508167ffffffffffffffff166001828054905061063f9190613592565b145b610680576040517f08c379a000000000000000000000000000000000000000000000000000000000815260040161067790613350565b60405180910390fd5b600260008881526020019081526020016000208667ffffffffffffffff16815481106106af576106ae6137ab565b5b906000526020600020906005020160010160008673ffffffffffffffffffffffffffffffffffffffff1673ffffffffffffffffffffffffffffffffffffffff1681526020019081526020016000206040518060400160405290816000820154815260200160018201548152505093505050509392505050565b838360006002600084815260200190815260200160002090506001818054905011801561076e57508167ffffffffffffffff166001828054905061076c9190613592565b145b6107ad576040517f08c379a00000000000000000000000000000000000000000000000000000000081526004016107a490613350565b60405180910390fd5b6101008585905011156107bf57600080fd5b60006003600089815260200190815260200160002090508667ffffffffffffffff168180549050141561080957806001816001815401808255809150500390600052602060002050505b6000818867ffffffffffffffff1681548110610828576108276137ab565b5b90600052602060002001905086868260000160003373ffffffffffffffffffffffffffffffffffffffff1673ffffffffffffffffffffffffffffffffffffffff1681526020019081526020016000206002019190610887929190612587565b50505050505050505050565b833373ffffffffffffffffffffffffffffffffffffffff166001600083815260200190815260200160002060000160009054906101000a900473ffffffffffffffffffffffffffffffffffffffff1673ffffffffffffffffffffffffffffffffffffffff1614610938576040517f08c379a000000000000000000000000000000000000000000000000000000000815260040161092f90613330565b60405180910390fd5b848460006002600084815260200190815260200160002090506001818054905011801561097e57508167ffffffffffffffff166001828054905061097c9190613592565b145b6109bd576040517f08c379a00000000000000000000000000000000000000000000000000000000081526004016109b490613350565b60405180910390fd5b60008686905011610a03576040517f08c379a00000000000000000000000000000000000000000000000000000000081526004016109fa906133b0565b60405180910390fd5b6000600260008a81526020019081526020016000208867ffffffffffffffff1681548110610a3457610a336137ab565b5b9060005260206000209060050201905060005b87879050811015610b16576000801b8260010160008a8a85818110610a6f57610a6e6137ab565b5b9050602002016020810190610a8491906128eb565b73ffffffffffffffffffffffffffffffffffffffff1673ffffffffffffffffffffffffffffffffffffffff168152602001908152602001600020600001541415610b03576040517f08c379a0000000000000000000000000000000000000000000000000000000008152600401610afa906132f0565b60405180910390fd5b8080610b0e906136d5565b915050610a47565b5043816003018190555060018160000160106101000a81548160ff02191690836003811115610b4857610b4761374d565b5b02179055507f25b2b0a6205a2793a55299d05c21fb9163d38054d6966d101c156acdc2d7c92f89898989604051610b829493929190613210565b60405180910390a1505050505050505050565b8383600060026000848152602001908152602001600020905060018180549050118015610bdb57508167ffffffffffffffff1660018280549050610bd99190613592565b145b610c1a576040517f08c379a0000000000000000000000000000000000000000000000000000000008152600401610c1190613350565b60405180910390fd5b610100858590501115610c2c57600080fd5b60006003600089815260200190815260200160002090508667ffffffffffffffff1681805490501415610c7657806001816001815401808255809150500390600052602060002050505b6000818867ffffffffffffffff1681548110610c9557610c946137ab565b5b90600052602060002001905086868260000160003373ffffffffffffffffffffffffffffffffffffffff1673ffffffffffffffffffffffffffffffffffffffff1681526020019081526020016000206001019190610cf4929190612587565b50505050505050505050565b610d0861260d565b8282600060026000848152602001908152602001600020905060018180549050118015610d4e57508167ffffffffffffffff1660018280549050610d4c9190613592565b145b610d8d576040517f08c379a0000000000000000000000000000000000000000000000000000000008152600401610d8490613350565b60405180910390fd5b6000600260008881526020019081526020016000208667ffffffffffffffff1681548110610dbe57610dbd6137ab565b5b906000526020600020906005020190506040518061010001604052808260000160009054906101000a900467ffffffffffffffff1667ffffffffffffffff1681526020018260000160089054906101000a900463ffffffff1663ffffffff16815260200182600001600c9054906101000a900463ffffffff1663ffffffff1681526020018260000160109054906101000a900460ff166003811115610e6657610e6561374d565b5b815260200182600201548152602001826003015481526020018260040160009054906101000a900463ffffffff1663ffffffff1681526020018260040160049054906101000a900463ffffffff1663ffffffff1681525094505050505092915050565b833373ffffffffffffffffffffffffffffffffffffffff166001600083815260200190815260200160002060000160009054906101000a900473ffffffffffffffffffffffffffffffffffffffff1673ffffffffffffffffffffffffffffffffffffffff1614610f6e576040517f08c379a0000000000000000000000000000000000000000000000000000000008152600401610f6590613330565b60405180910390fd5b8484600060026000848152602001908152602001600020905060018180549050118015610fb457508167ffffffffffffffff1660018280549050610fb29190613592565b145b610ff3576040517f08c379a0000000000000000000000000000000000000000000000000000000008152600401610fea90613350565b60405180910390fd5b6000600260008a81526020019081526020016000208867ffffffffffffffff1681548110611024576110236137ab565b5b90600052602060002090600502019050600160038111156110485761104761374d565b5b8160000160109054906101000a900460ff16600381111561106c5761106b61374d565b5b146110ac576040517f08c379a00000000000000000000000000000000000000000000000000000000081526004016110a3906132d0565b60405180910390fd5b60028160000160106101000a81548160ff021916908360038111156110d4576110d361374d565b5b021790555060005b878790508110156111ab576000801b8260010160008a8a85818110611104576111036137ab565b5b905060200201602081019061111991906128eb565b73ffffffffffffffffffffffffffffffffffffffff1673ffffffffffffffffffffffffffffffffffffffff168152602001908152602001600020600001541415611198576040517f08c379a000000000000000000000000000000000000000000000000000000000815260040161118f906132f0565b60405180910390fd5b80806111a3906136d5565b9150506110dc565b507f0e9b6e97e583a9f4137be5009bedbe0cdcaf72235c0be7f89471b9a02e27b821898989896040516111e19493929190613210565b60405180910390a1505050505050505050565b85600073ffffffffffffffffffffffffffffffffffffffff166001600083815260200190815260200160002060000160009054906101000a900473ffffffffffffffffffffffffffffffffffffffff1673ffffffffffffffffffffffffffffffffffffffff16141561129b576040517f08c379a000000000000000000000000000000000000000000000000000000000815260040161129290613390565b60405180910390fd5b863373ffffffffffffffffffffffffffffffffffffffff166001600083815260200190815260200160002060000160009054906101000a900473ffffffffffffffffffffffffffffffffffffffff1673ffffffffffffffffffffffffffffffffffffffff1614611340576040517f08c379a000000000000000000000000000000000000000000000000000000000815260040161133790613330565b60405180910390fd5b6000600260008a815260200190815260200160002090508767ffffffffffffffff168180549050146113a7576040517f08c379a000000000000000000000000000000000000000000000000000000000815260040161139e906132b0565b60405180910390fd5b6000600160008b81526020019081526020016000209050888160030160006101000a81548167ffffffffffffffff021916908367ffffffffffffffff160217905550816001816001815401808255809150500390600052602060002090505088828a67ffffffffffffffff1681548110611424576114236137ab565b5b906000526020600020906005020160000160006101000a81548167ffffffffffffffff021916908367ffffffffffffffff16021790555087828a67ffffffffffffffff1681548110611479576114786137ab565b5b906000526020600020906005020160000160086101000a81548163ffffffff021916908363ffffffff16021790555086828a67ffffffffffffffff16815481106114c6576114c56137ab565b5b9060005260206000209060050201600001600c6101000a81548163ffffffff021916908363ffffffff1602179055506000828a67ffffffffffffffff1681548110611514576115136137ab565b5b906000526020600020906005020160000160106101000a81548160ff021916908360038111156115475761154661374d565b5b021790555043828a67ffffffffffffffff168154811061156a576115696137ab565b5b9060005260206000209060050201600201819055506000828a67ffffffffffffffff168154811061159e5761159d6137ab565b5b90600052602060002090600502016003018190555085828a67ffffffffffffffff16815481106115d1576115d06137ab565b5b906000526020600020906005020160040160006101000a81548163ffffffff021916908363ffffffff16021790555084828a67ffffffffffffffff168154811061161e5761161d6137ab565b5b906000526020600020906005020160040160046101000a81548163ffffffff021916908363ffffffff1602179055506000600360008c81526020019081526020016000209050806001816001815401808255809150500390600052602060002050507f442bd58918c05fbba21640a63d950e0ada0c085917a5c785fe24d66608972bd98b8b6040516116b19291906131e7565b60405180910390a15050505050505050505050565b6116ce612686565b81600073ffffffffffffffffffffffffffffffffffffffff166001600083815260200190815260200160002060000160009054906101000a900473ffffffffffffffffffffffffffffffffffffffff1673ffffffffffffffffffffffffffffffffffffffff161415611775576040517f08c379a000000000000000000000000000000000000000000000000000000000815260040161176c90613390565b60405180910390fd5b600160008481526020019081526020016000206040518060800160405290816000820160009054906101000a900473ffffffffffffffffffffffffffffffffffffffff1673ffffffffffffffffffffffffffffffffffffffff1673ffffffffffffffffffffffffffffffffffffffff1681526020016001820180546117f9906136a3565b80601f0160208091040260200160405190810160405280929190818152602001828054611825906136a3565b80156118725780601f1061184757610100808354040283529160200191611872565b820191906000526020600020905b81548152906001019060200180831161185557829003601f168201915b50505050508152602001600282015481526020016003820160009054906101000a900467ffffffffffffffff1667ffffffffffffffff1667ffffffffffffffff1681525050915050919050565b838360006002600084815260200190815260200160002090506001818054905011801561190557508167ffffffffffffffff16600182805490506119039190613592565b145b611944576040517f08c379a000000000000000000000000000000000000000000000000000000000815260040161193b90613350565b60405180910390fd5b62a00000858590501061195657600080fd5b6000600260008981526020019081526020016000208767ffffffffffffffff1681548110611987576119866137ab565b5b90600052602060002090600502019050600160038111156119ab576119aa61374d565b5b8160000160109054906101000a900460ff1660038111156119cf576119ce61374d565b5b14611a0f576040517f08c379a0000000000000000000000000000000000000000000000000000000008152600401611a06906132d0565b60405180910390fd5b438160040160049054906101000a900463ffffffff1663ffffffff168260030154611a3a919061353c565b1015611a7b576040517f08c379a0000000000000000000000000000000000000000000000000000000008152600401611a7290613370565b60405180910390fd5b6000600360008a815260200190815260200160002090508767ffffffffffffffff1681805490501415611ac557806001816001815401808255809150500390600052602060002050505b6000818967ffffffffffffffff1681548110611ae457611ae36137ab565b5b90600052602060002001905087878260000160003373ffffffffffffffffffffffffffffffffffffffff1673ffffffffffffffffffffffffffffffffffffffff1681526020019081526020016000206000019190611b43929190612587565b5050505050505050505050565b6000804233868686604051602001611b6c959493929190613466565b60405160208183030381529060405280519060200120905060405180608001604052803373ffffffffffffffffffffffffffffffffffffffff16815260200186868080601f016020809104026020016040519081016040528093929190818152602001838380828437600081840152601f19601f820116905080830192505050505050508152602001848152602001600067ffffffffffffffff168152506001600083815260200190815260200160002060008201518160000160006101000a81548173ffffffffffffffffffffffffffffffffffffffff021916908373ffffffffffffffffffffffffffffffffffffffff1602179055506020820151816001019080519060200190611c809291906126d1565b506040820151816002015560608201518160030160006101000a81548167ffffffffffffffff021916908367ffffffffffffffff160217905550905050809150600060026000848152602001908152602001600020905080600181600181540180825580915050039060005260206000209050503373ffffffffffffffffffffffffffffffffffffffff167f1a64b92f645be2ae2d4de1a08511156f5d99c785ae1b03a6636a7ee0c1cabd2a83888888604051611d4094939291906131a7565b60405180910390a250509392505050565b611d59612757565b8382600060026000848152602001908152602001600020905060018180549050118015611d9f57508167ffffffffffffffff1660018280549050611d9d9190613592565b145b611dde576040517f08c379a0000000000000000000000000000000000000000000000000000000008152600401611dd590613350565b60405180910390fd5b868560006003600084815260200190815260200160002090508167ffffffffffffffff16818054905011611e47576040517f08c379a0000000000000000000000000000000000000000000000000000000008152600401611e3e90613290565b60405180910390fd5b6000600360008c815260200190815260200160002090508867ffffffffffffffff1681805490501015611eaf576040517f08c379a0000000000000000000000000000000000000000000000000000000008152600401611ea690613290565b60405180910390fd5b6000818a67ffffffffffffffff1681548110611ece57611ecd6137ab565b5b9060005260206000200190508060000160008c73ffffffffffffffffffffffffffffffffffffffff1673ffffffffffffffffffffffffffffffffffffffff168152602001908152602001600020604051806060016040529081600082018054611f36906136a3565b80601f0160208091040260200160405190810160405280929190818152602001828054611f62906136a3565b8015611faf5780601f10611f8457610100808354040283529160200191611faf565b820191906000526020600020905b815481529060010190602001808311611f9257829003601f168201915b50505050508152602001600182018054611fc8906136a3565b80601f0160208091040260200160405190810160405280929190818152602001828054611ff4906136a3565b80156120415780601f1061201657610100808354040283529160200191612041565b820191906000526020600020905b81548152906001019060200180831161202457829003601f168201915b5050505050815260200160028201805461205a906136a3565b80601f0160208091040260200160405190810160405280929190818152602001828054612086906136a3565b80156120d35780601f106120a8576101008083540402835291602001916120d3565b820191906000526020600020905b8154815290600101906020018083116120b657829003601f168201915b505050505081525050985050505050505050509392505050565b60008060009054906101000a900473ffffffffffffffffffffffffffffffffffffffff16905090565b60008054906101000a900473ffffffffffffffffffffffffffffffffffffffff1673ffffffffffffffffffffffffffffffffffffffff163373ffffffffffffffffffffffffffffffffffffffff16146121a4576040517f08c379a000000000000000000000000000000000000000000000000000000000815260040161219b90613250565b60405180910390fd5b8073ffffffffffffffffffffffffffffffffffffffff1660008054906101000a900473ffffffffffffffffffffffffffffffffffffffff1673ffffffffffffffffffffffffffffffffffffffff167f342827c97908e5e2f71151c08502a66d44b6f758e3ac2f1de95f02eb95f0a73560405160405180910390a3806000806101000a81548173ffffffffffffffffffffffffffffffffffffffff021916908373ffffffffffffffffffffffffffffffffffffffff16021790555050565b600084600073ffffffffffffffffffffffffffffffffffffffff166001600083815260200190815260200160002060000160009054906101000a900473ffffffffffffffffffffffffffffffffffffffff1673ffffffffffffffffffffffffffffffffffffffff16141561230a576040517f08c379a000000000000000000000000000000000000000000000000000000000815260040161230190613390565b60405180910390fd5b858560006002600084815260200190815260200160002090506001818054905011801561235057508167ffffffffffffffff166001828054905061234e9190613592565b145b61238f576040517f08c379a000000000000000000000000000000000000000000000000000000000815260040161238690613350565b60405180910390fd5b6000600260008b81526020019081526020016000209050600081600183805490506123ba9190613592565b815481106123cb576123ca6137ab565b5b906000526020600020906005020190506000600160008d81526020019081526020016000209050438260040160009054906101000a900463ffffffff1663ffffffff16836002015461241d919061353c565b101561245e576040517f08c379a000000000000000000000000000000000000000000000000000000000815260040161245590613270565b60405180910390fd5b6000801b8260010160003373ffffffffffffffffffffffffffffffffffffffff1673ffffffffffffffffffffffffffffffffffffffff16815260200190815260200160002060000154146124e7576040517f08c379a00000000000000000000000000000000000000000000000000000000081526004016124de90613310565b60405180910390fd5b60405180604001604052808b81526020018a8152508260010160003373ffffffffffffffffffffffffffffffffffffffff1673ffffffffffffffffffffffffffffffffffffffff16815260200190815260200160002060008201518160000155602082015181600101559050506001975050505050505050949350505050565b604051806040016040528060008019168152602001600080191681525090565b828054612593906136a3565b90600052602060002090601f0160209004810192826125b557600085556125fc565b82601f106125ce57803560ff19168380011785556125fc565b828001600101855582156125fc579182015b828111156125fb5782358255916020019190600101906125e0565b5b5090506126099190612778565b5090565b604051806101000160405280600067ffffffffffffffff168152602001600063ffffffff168152602001600063ffffffff168152602001600060038111156126585761265761374d565b5b81526020016000815260200160008152602001600063ffffffff168152602001600063ffffffff1681525090565b6040518060800160405280600073ffffffffffffffffffffffffffffffffffffffff1681526020016060815260200160008019168152602001600067ffffffffffffffff1681525090565b8280546126dd906136a3565b90600052602060002090601f0160209004810192826126ff5760008555612746565b82601f1061271857805160ff1916838001178555612746565b82800160010185558215612746579182015b8281111561274557825182559160200191906001019061272a565b5b5090506127539190612778565b5090565b60405180606001604052806060815260200160608152602001606081525090565b5b80821115612791576000816000905550600101612779565b5090565b6000813590506127a481613acb565b92915050565b60008083601f8401126127c0576127bf61380e565b5b8235905067ffffffffffffffff8111156127dd576127dc613809565b5b6020830191508360208202830111156127f9576127f8613813565b5b9250929050565b60008135905061280f81613ae2565b92915050565b60008083601f84011261282b5761282a61380e565b5b8235905067ffffffffffffffff81111561284857612847613809565b5b60208301915083600182028301111561286457612863613813565b5b9250929050565b60008083601f8401126128815761288061380e565b5b8235905067ffffffffffffffff81111561289e5761289d613809565b5b6020830191508360018202830111156128ba576128b9613813565b5b9250929050565b6000813590506128d081613af9565b92915050565b6000813590506128e581613b10565b92915050565b6000602082840312156129015761290061381d565b5b600061290f84828501612795565b91505092915050565b60006020828403121561292e5761292d61381d565b5b600061293c84828501612800565b91505092915050565b60008060006060848603121561295e5761295d61381d565b5b600061296c86828701612800565b935050602061297d86828701612795565b925050604061298e868287016128d6565b9150509250925092565b600080604083850312156129af576129ae61381d565b5b60006129bd85828601612800565b92505060206129ce858286016128d6565b9150509250929050565b6000806000606084860312156129f1576129f061381d565b5b60006129ff86828701612800565b9350506020612a10868287016128d6565b9250506040612a2186828701612795565b9150509250925092565b60008060008060608587031215612a4557612a4461381d565b5b6000612a5387828801612800565b9450506020612a64878288016128d6565b935050604085013567ffffffffffffffff811115612a8557612a84613818565b5b612a91878288016127aa565b925092505092959194509250565b60008060008060808587031215612ab957612ab861381d565b5b6000612ac787828801612800565b9450506020612ad8878288016128d6565b9350506040612ae987828801612800565b9250506060612afa87828801612800565b91505092959194509250565b60008060008060608587031215612b2057612b1f61381d565b5b6000612b2e87828801612800565b9450506020612b3f878288016128d6565b935050604085013567ffffffffffffffff811115612b6057612b5f613818565b5b612b6c87828801612815565b925092505092959194509250565b60008060008060008060c08789031215612b9757612b9661381d565b5b6000612ba589828a01612800565b9650506020612bb689828a016128d6565b9550506040612bc789828a016128c1565b9450506060612bd889828a016128c1565b9350506080612be989828a016128c1565b92505060a0612bfa89828a016128c1565b9150509295509295509295565b600080600060408486031215612c2057612c1f61381d565b5b600084013567ffffffffffffffff811115612c3e57612c3d613818565b5b612c4a8682870161286b565b93509350506020612c5d86828701612800565b9150509250925092565b6000612c738383612c7f565b60208301905092915050565b612c88816135c6565b82525050565b612c97816135c6565b82525050565b6000612ca983856134e1565b9350612cb4826134b4565b8060005b85811015612ced57612cca8284613525565b612cd48882612c67565b9750612cdf836134d4565b925050600181019050612cb8565b5085925050509392505050565b612d03816135d8565b82525050565b612d12816135e4565b82525050565b612d21816135e4565b82525050565b6000612d32826134be565b612d3c81856134f2565b9350612d4c818560208601613670565b612d5581613822565b840191505092915050565b612d698161364f565b82525050565b6000612d7b8385613514565b9350612d88838584613661565b612d9183613822565b840190509392505050565b6000612da7826134c9565b612db18185613503565b9350612dc1818560208601613670565b612dca81613822565b840191505092915050565b6000612de2601383613514565b9150612ded82613833565b602082019050919050565b6000612e05601883613514565b9150612e108261385c565b602082019050919050565b6000612e28601a83613514565b9150612e3382613885565b602082019050919050565b6000612e4b604283613514565b9150612e56826138ae565b606082019050919050565b6000612e6e601d83613514565b9150612e7982613923565b602082019050919050565b6000612e91601483613514565b9150612e9c8261394c565b602082019050919050565b6000612eb4602983613514565b9150612ebf82613975565b604082019050919050565b6000612ed7601d83613514565b9150612ee2826139c4565b602082019050919050565b6000612efa603683613514565b9150612f05826139ed565b604082019050919050565b6000612f1d601a83613514565b9150612f2882613a3c565b602082019050919050565b6000612f40600f83613514565b9150612f4b82613a65565b602082019050919050565b6000612f63601683613514565b9150612f6e82613a8e565b602082019050919050565b604082016000820151612f8f6000850182612d09565b506020820151612fa26020850182612d09565b50505050565b60006060830160008301518482036000860152612fc58282612d27565b91505060208301518482036020860152612fdf8282612d27565b91505060408301518482036040860152612ff98282612d27565b9150508091505092915050565b6101008201600082015161301d6000850182613138565b5060208201516130306020850182613129565b5060408201516130436040850182613129565b5060608201516130566060850182612d60565b506080820151613069608085018261310b565b5060a082015161307c60a085018261310b565b5060c082015161308f60c0850182613129565b5060e08201516130a260e0850182613129565b50505050565b60006080830160008301516130c06000860182612c7f565b50602083015184820360208601526130d88282612d9c565b91505060408301516130ed6040860182612d09565b5060608301516131006060860182613138565b508091505092915050565b61311481613621565b82525050565b61312381613621565b82525050565b6131328161362b565b82525050565b6131418161363b565b82525050565b6131508161363b565b82525050565b600060208201905061316b6000830184612c8e565b92915050565b60006020820190506131866000830184612cfa565b92915050565b60006020820190506131a16000830184612d18565b92915050565b60006060820190506131bc6000830187612d18565b81810360208301526131cf818587612d6f565b90506131de6040830184612d18565b95945050505050565b60006040820190506131fc6000830185612d18565b6132096020830184613147565b9392505050565b60006060820190506132256000830187612d18565b6132326020830186613147565b8181036040830152613245818486612c9d565b905095945050505050565b6000602082019050818103600083015261326981612dd5565b9050919050565b6000602082019050818103600083015261328981612df8565b9050919050565b600060208201905081810360008301526132a981612e1b565b9050919050565b600060208201905081810360008301526132c981612e3e565b9050919050565b600060208201905081810360008301526132e981612e61565b9050919050565b6000602082019050818103600083015261330981612e84565b9050919050565b6000602082019050818103600083015261332981612ea7565b9050919050565b6000602082019050818103600083015261334981612eca565b9050919050565b6000602082019050818103600083015261336981612eed565b9050919050565b6000602082019050818103600083015261338981612f10565b9050919050565b600060208201905081810360008301526133a981612f33565b9050919050565b600060208201905081810360008301526133c981612f56565b9050919050565b60006040820190506133e56000830184612f79565b92915050565b600060208201905081810360008301526134058184612fa8565b905092915050565b6000610100820190506134236000830184613006565b92915050565b6000602082019050818103600083015261344381846130a8565b905092915050565b6000602082019050613460600083018461311a565b92915050565b600060808201905061347b600083018861311a565b6134886020830187612c8e565b818103604083015261349b818587612d6f565b90506134aa6060830184612d18565b9695505050505050565b6000819050919050565b600081519050919050565b600081519050919050565b6000602082019050919050565b600082825260208201905092915050565b600082825260208201905092915050565b600082825260208201905092915050565b600082825260208201905092915050565b60006135346020840184612795565b905092915050565b600061354782613621565b915061355283613621565b9250827fffffffffffffffffffffffffffffffffffffffffffffffffffffffffffffffff038211156135875761358661371e565b5b828201905092915050565b600061359d82613621565b91506135a883613621565b9250828210156135bb576135ba61371e565b5b828203905092915050565b60006135d182613601565b9050919050565b60008115159050919050565b6000819050919050565b60008190506135fc82613ab7565b919050565b600073ffffffffffffffffffffffffffffffffffffffff82169050919050565b6000819050919050565b600063ffffffff82169050919050565b600067ffffffffffffffff82169050919050565b600061365a826135ee565b9050919050565b82818337600083830152505050565b60005b8381101561368e578082015181840152602081019050613673565b8381111561369d576000848401525b50505050565b600060028204905060018216806136bb57607f821691505b602082108114156136cf576136ce61377c565b5b50919050565b60006136e082613621565b91507fffffffffffffffffffffffffffffffffffffffffffffffffffffffffffffffff8214156137135761371261371e565b5b600182019050919050565b7f4e487b7100000000000000000000000000000000000000000000000000000000600052601160045260246000fd5b7f4e487b7100000000000000000000000000000000000000000000000000000000600052602160045260246000fd5b7f4e487b7100000000000000000000000000000000000000000000000000000000600052602260045260246000fd5b7f4e487b7100000000000000000000000000000000000000000000000000000000600052603260045260246000fd5b7f4e487b7100000000000000000000000000000000000000000000000000000000600052604160045260246000fd5b600080fd5b600080fd5b600080fd5b600080fd5b600080fd5b6000601f19601f8301169050919050565b7f43616c6c6572206973206e6f74206f776e657200000000000000000000000000600082015250565b7f4a6f696e20646561646c696e6520686173207061737365640000000000000000600082015250565b7f546865205461736b20526f756e64204d75737420657869737473000000000000600082015250565b7f74686520726f756e6420686173206265656e20616c726561647920737461727460008201527f6564206f72207468652070726520726f756e6420646f6573206e6f742065786960208201527f7374000000000000000000000000000000000000000000000000000000000000604082015250565b7f5468697320726f756e64206973206e6f742072756e6e696e67206e6f77000000600082015250565b7f43616e646964617465206d757374206578697374000000000000000000000000600082015250565b7f43616e6e6f74206a6f696e207468652073616d6520726f756e64206d756c746960008201527f706c652074696d65730000000000000000000000000000000000000000000000602082015250565b7f4d7573742063616c6c656420627920746865207461736b206f776e6572000000600082015250565b7f7468697320726f756e64206861732066696e6973686564206f7220697420686160008201527f736e2774206265656e2073746172746564207965742e00000000000000000000602082015250565b7f75706c6f616420646561646c696e652068617320706173736564000000000000600082015250565b7f5461736b206e6f74206578697374730000000000000000000000000000000000600082015250565b7f4d7573742070726f766964652061646472657373657300000000000000000000600082015250565b60048110613ac857613ac761374d565b5b50565b613ad4816135c6565b8114613adf57600080fd5b50565b613aeb816135e4565b8114613af657600080fd5b50565b613b028161362b565b8114613b0d57600080fd5b50565b613b198161363b565b8114613b2457600080fd5b5056fea26469706673582212209a1e1772c7697658af17b19b52f6491a02a951cf51c1c87a66a0a6c718f9260764736f6c6343000807003360806040523480156200001157600080fd5b50604051620015d9380380620015d9833981810160405281019062000037919062000095565b806000806101000a81548173ffffffffffffffffffffffffffffffffffffffff021916908373ffffffffffffffffffffffffffffffffffffffff160217905550506200012e565b6000815190506200008f8162000114565b92915050565b600060208284031215620000ae57620000ad6200010f565b5b6000620000be848285016200007e565b91505092915050565b6000620000d482620000ef565b9050919050565b6000620000e882620000c7565b9050919050565b600073ffffffffffffffffffffffffffffffffffffffff82169050919050565b600080fd5b6200011f81620000db565b81146200012b57600080fd5b50565b61149b806200013e6000396000f3fe6080604052600436106100915760003560e01c806357c91b951161005957806357c91b951461016557806368f14acf1461018e57806375cb2a0e146101b75780638750745e146101e7578063bdf666a41461022457610091565b806320f0672c146100965780632e9c58bb146100bf57806341e865cb146100ea578063456523e2146101135780634956219b1461013c575b600080fd5b3480156100a257600080fd5b506100bd60048036038101906100b89190610c87565b610261565b005b3480156100cb57600080fd5b506100d46102f8565b6040516100e19190610ff1565b60405180910390f35b3480156100f657600080fd5b50610111600480360381019061010c9190610bac565b610301565b005b34801561011f57600080fd5b5061013a60048036038101906101359190610c87565b610398565b005b34801561014857600080fd5b50610163600480360381019061015e9190610bac565b61042f565b005b34801561017157600080fd5b5061018c60048036038101906101879190610cfb565b6104c6565b005b34801561019a57600080fd5b506101b560048036038101906101b09190610c87565b610563565b005b6101d160048036038101906101cc9190610d88565b6105fa565b6040516101de919061100c565b60405180910390f35b3480156101f357600080fd5b5061020e60048036038101906102099190610b59565b6106b5565b60405161021b91906111b6565b60405180910390f35b34801561023057600080fd5b5061024b60048036038101906102469190610c20565b610778565b6040516102589190610ff1565b60405180910390f35b60008054906101000a900473ffffffffffffffffffffffffffffffffffffffff1673ffffffffffffffffffffffffffffffffffffffff166320f0672c858585856040518563ffffffff1660e01b81526004016102c094939291906110e3565b600060405180830381600087803b1580156102da57600080fd5b505af11580156102ee573d6000803e3d6000fd5b5050505050505050565b60006001905090565b60008054906101000a900473ffffffffffffffffffffffffffffffffffffffff1673ffffffffffffffffffffffffffffffffffffffff166341e865cb858585856040518563ffffffff1660e01b8152600401610360949392919061105e565b600060405180830381600087803b15801561037a57600080fd5b505af115801561038e573d6000803e3d6000fd5b5050505050505050565b60008054906101000a900473ffffffffffffffffffffffffffffffffffffffff1673ffffffffffffffffffffffffffffffffffffffff1663456523e2858585856040518563ffffffff1660e01b81526004016103f794939291906110e3565b600060405180830381600087803b15801561041157600080fd5b505af1158015610425573d6000803e3d6000fd5b5050505050505050565b60008054906101000a900473ffffffffffffffffffffffffffffffffffffffff1673ffffffffffffffffffffffffffffffffffffffff16634956219b858585856040518563ffffffff1660e01b815260040161048e949392919061105e565b600060405180830381600087803b1580156104a857600080fd5b505af11580156104bc573d6000803e3d6000fd5b5050505050505050565b60008054906101000a900473ffffffffffffffffffffffffffffffffffffffff1673ffffffffffffffffffffffffffffffffffffffff166357c91b958787878787876040518763ffffffff1660e01b815260040161052996959493929190611123565b600060405180830381600087803b15801561054357600080fd5b505af1158015610557573d6000803e3d6000fd5b50505050505050505050565b60008054906101000a900473ffffffffffffffffffffffffffffffffffffffff1673ffffffffffffffffffffffffffffffffffffffff166368f14acf858585856040518563ffffffff1660e01b81526004016105c294939291906110e3565b600060405180830381600087803b1580156105dc57600080fd5b505af11580156105f0573d6000803e3d6000fd5b5050505050505050565b60008060009054906101000a900473ffffffffffffffffffffffffffffffffffffffff1673ffffffffffffffffffffffffffffffffffffffff166375cb2a0e8585856040518463ffffffff1660e01b815260040161065a93929190611184565b602060405180830381600087803b15801561067457600080fd5b505af1158015610688573d6000803e3d6000fd5b505050506040513d601f19601f820116820180604052508101906106ac9190610b2c565b90509392505050565b6106bd610836565b60008054906101000a900473ffffffffffffffffffffffffffffffffffffffff1673ffffffffffffffffffffffffffffffffffffffff16638750745e8585856040518463ffffffff1660e01b815260040161071a93929190611027565b60006040518083038186803b15801561073257600080fd5b505afa158015610746573d6000803e3d6000fd5b505050506040513d6000823e3d601f19601f8201168201806040525081019061076f9190610de8565b90509392505050565b60008060009054906101000a900473ffffffffffffffffffffffffffffffffffffffff1673ffffffffffffffffffffffffffffffffffffffff1663bdf666a4868686866040518563ffffffff1660e01b81526004016107da949392919061109e565b602060405180830381600087803b1580156107f457600080fd5b505af1158015610808573d6000803e3d6000fd5b505050506040513d601f19601f8201168201806040525081019061082c9190610aff565b9050949350505050565b60405180606001604052806060815260200160608152602001606081525090565b600061086a610865846111fd565b6111d8565b905082815260208101848484011115610886576108856113d2565b5b610891848285611326565b509392505050565b6000813590506108a8816113f2565b92915050565b60008083601f8401126108c4576108c36113be565b5b8235905067ffffffffffffffff8111156108e1576108e06113b9565b5b6020830191508360208202830111156108fd576108fc6113cd565b5b9250929050565b60008151905061091381611409565b92915050565b60008135905061092881611420565b92915050565b60008151905061093d81611420565b92915050565b60008083601f840112610959576109586113be565b5b8235905067ffffffffffffffff811115610976576109756113b9565b5b602083019150836001820283011115610992576109916113cd565b5b9250929050565b600082601f8301126109ae576109ad6113be565b5b81516109be848260208601610857565b91505092915050565b60008083601f8401126109dd576109dc6113be565b5b8235905067ffffffffffffffff8111156109fa576109f96113b9565b5b602083019150836001820283011115610a1657610a156113cd565b5b9250929050565b600060608284031215610a3357610a326113c3565b5b610a3d60606111d8565b9050600082015167ffffffffffffffff811115610a5d57610a5c6113c8565b5b610a6984828501610999565b600083015250602082015167ffffffffffffffff811115610a8d57610a8c6113c8565b5b610a9984828501610999565b602083015250604082015167ffffffffffffffff811115610abd57610abc6113c8565b5b610ac984828501610999565b60408301525092915050565b600081359050610ae481611437565b92915050565b600081359050610af98161144e565b92915050565b600060208284031215610b1557610b146113dc565b5b6000610b2384828501610904565b91505092915050565b600060208284031215610b4257610b416113dc565b5b6000610b508482850161092e565b91505092915050565b600080600060608486031215610b7257610b716113dc565b5b6000610b8086828701610919565b9350506020610b9186828701610899565b9250506040610ba286828701610aea565b9150509250925092565b60008060008060608587031215610bc657610bc56113dc565b5b6000610bd487828801610919565b9450506020610be587828801610aea565b935050604085013567ffffffffffffffff811115610c0657610c056113d7565b5b610c12878288016108ae565b925092505092959194509250565b60008060008060808587031215610c3a57610c396113dc565b5b6000610c4887828801610919565b9450506020610c5987828801610aea565b9350506040610c6a87828801610919565b9250506060610c7b87828801610919565b91505092959194509250565b60008060008060608587031215610ca157610ca06113dc565b5b6000610caf87828801610919565b9450506020610cc087828801610aea565b935050604085013567ffffffffffffffff811115610ce157610ce06113d7565b5b610ced87828801610943565b925092505092959194509250565b60008060008060008060c08789031215610d1857610d176113dc565b5b6000610d2689828a01610919565b9650506020610d3789828a01610aea565b9550506040610d4889828a01610ad5565b9450506060610d5989828a01610ad5565b9350506080610d6a89828a01610ad5565b92505060a0610d7b89828a01610ad5565b9150509295509295509295565b600080600060408486031215610da157610da06113dc565b5b600084013567ffffffffffffffff811115610dbf57610dbe6113d7565b5b610dcb868287016109c7565b93509350506020610dde86828701610919565b9150509250925092565b600060208284031215610dfe57610dfd6113dc565b5b600082015167ffffffffffffffff811115610e1c57610e1b6113d7565b5b610e2884828501610a1d565b91505092915050565b6000610e3d8383610e49565b60208301905092915050565b610e52816112ab565b82525050565b610e61816112ab565b82525050565b6000610e738385611250565b9350610e7e8261122e565b8060005b85811015610eb757610e948284611294565b610e9e8882610e31565b9750610ea983611243565b925050600181019050610e82565b5085925050509392505050565b610ecd816112bd565b82525050565b610edc816112c9565b82525050565b6000610eee8385611272565b9350610efb838584611317565b610f04836113e1565b840190509392505050565b6000610f1a82611238565b610f248185611261565b9350610f34818560208601611326565b610f3d816113e1565b840191505092915050565b6000610f548385611283565b9350610f61838584611317565b610f6a836113e1565b840190509392505050565b60006060830160008301518482036000860152610f928282610f0f565b91505060208301518482036020860152610fac8282610f0f565b91505060408301518482036040860152610fc68282610f0f565b9150508091505092915050565b610fdc816112f3565b82525050565b610feb81611303565b82525050565b60006020820190506110066000830184610ec4565b92915050565b60006020820190506110216000830184610ed3565b92915050565b600060608201905061103c6000830186610ed3565b6110496020830185610e58565b6110566040830184610fe2565b949350505050565b60006060820190506110736000830187610ed3565b6110806020830186610fe2565b8181036040830152611093818486610e67565b905095945050505050565b60006080820190506110b36000830187610ed3565b6110c06020830186610fe2565b6110cd6040830185610ed3565b6110da6060830184610ed3565b95945050505050565b60006060820190506110f86000830187610ed3565b6111056020830186610fe2565b8181036040830152611118818486610ee2565b905095945050505050565b600060c0820190506111386000830189610ed3565b6111456020830188610fe2565b6111526040830187610fd3565b61115f6060830186610fd3565b61116c6080830185610fd3565b61117960a0830184610fd3565b979650505050505050565b6000604082019050818103600083015261119f818587610f48565b90506111ae6020830184610ed3565b949350505050565b600060208201905081810360008301526111d08184610f75565b905092915050565b60006111e26111f3565b90506111ee8282611359565b919050565b6000604051905090565b600067ffffffffffffffff8211156112185761121761138a565b5b611221826113e1565b9050602081019050919050565b6000819050919050565b600081519050919050565b6000602082019050919050565b600082825260208201905092915050565b600082825260208201905092915050565b600082825260208201905092915050565b600082825260208201905092915050565b60006112a36020840184610899565b905092915050565b60006112b6826112d3565b9050919050565b60008115159050919050565b6000819050919050565b600073ffffffffffffffffffffffffffffffffffffffff82169050919050565b600063ffffffff82169050919050565b600067ffffffffffffffff82169050919050565b82818337600083830152505050565b60005b83811015611344578082015181840152602081019050611329565b83811115611353576000848401525b50505050565b611362826113e1565b810181811067ffffffffffffffff821117156113815761138061138a565b5b80604052505050565b7f4e487b7100000000000000000000000000000000000000000000000000000000600052604160045260246000fd5b600080fd5b600080fd5b600080fd5b600080fd5b600080fd5b600080fd5b600080fd5b600080fd5b6000601f19601f8301169050919050565b6113fb816112ab565b811461140657600080fd5b50565b611412816112bd565b811461141d57600080fd5b50565b611429816112c9565b811461143457600080fd5b50565b611440816112f3565b811461144b57600080fd5b50565b61145781611303565b811461146257600080fd5b5056fea2646970667358221220f07a6a21a29bef25172e977623144e2bc9fac43b76b9bb63bcfccd4d8767e0ef64736f6c63430008070033a26469706673582212201ae572aa3e044cb7c93bc8573a6e6536510147ae386470d3a52ee8724bbfdc3964736f6c63430008070033",
			"opcodes": "PUSH1 0x80 PUSH1 0x40 MSTORE CALLVALUE DUP1 ISZERO PUSH2 0x10 JUMPI PUSH1 0x0 DUP1 REVERT JUMPDEST POP PUSH2 0xCABA DUP1 PUSH3 0x21 PUSH1 0x0 CODECOPY PUSH1 0x0 RETURN INVALID PUSH1 0x80 PUSH1 0x40 MSTORE CALLVALUE DUP1 ISZERO PUSH3 0x11 JUMPI PUSH1 0x0 DUP1 REVERT JUMPDEST POP PUSH1 0x4 CALLDATASIZE LT PUSH3 0x10B JUMPI PUSH1 0x0 CALLDATALOAD PUSH1 0xE0 SHR DUP1 PUSH4 0x61150D14 GT PUSH3 0xA5 JUMPI DUP1 PUSH4 0xDF81360C GT PUSH3 0x6F JUMPI DUP1 PUSH4 0xDF81360C EQ PUSH3 0x194 JUMPI DUP1 PUSH4 0xF1D69BF0 EQ PUSH3 0x1A0 JUMPI DUP1 PUSH4 0xF84073D3 EQ PUSH3 0x1AC JUMPI DUP1 PUSH4 0xFB235A68 EQ PUSH3 0x1B8 JUMPI PUSH3 0x10B JUMP JUMPDEST DUP1 PUSH4 0x61150D14 EQ PUSH3 0x164 JUMPI DUP1 PUSH4 0x7FEA0D4B EQ PUSH3 0x170 JUMPI DUP1 PUSH4 0x85E042A9 EQ PUSH3 0x17C JUMPI DUP1 PUSH4 0xD845E050 EQ PUSH3 0x188 JUMPI PUSH3 0x10B JUMP JUMPDEST DUP1 PUSH4 0x50988B11 GT PUSH3 0xE7 JUMPI DUP1 PUSH4 0x50988B11 EQ PUSH3 0x134 JUMPI DUP1 PUSH4 0x528572EB EQ PUSH3 0x140 JUMPI DUP1 PUSH4 0x581D7B6F EQ PUSH3 0x14C JUMPI DUP1 PUSH4 0x58B1B81E EQ PUSH3 0x158 JUMPI PUSH3 0x10B JUMP JUMPDEST DUP1 PUSH3 0xC71ACD EQ PUSH3 0x110 JUMPI DUP1 PUSH4 0x1AE3C34B EQ PUSH3 0x11C JUMPI DUP1 PUSH4 0x345ADF2F EQ PUSH3 0x128 JUMPI JUMPDEST PUSH1 0x0 DUP1 REVERT JUMPDEST PUSH3 0x11A PUSH3 0x1C4 JUMP JUMPDEST STOP JUMPDEST PUSH3 0x126 PUSH3 0x4CE JUMP JUMPDEST STOP JUMPDEST PUSH3 0x132 PUSH3 0x1074 JUMP JUMPDEST STOP JUMPDEST PUSH3 0x13E PUSH3 0x1CEB JUMP JUMPDEST STOP JUMPDEST PUSH3 0x14A PUSH3 0x2630 JUMP JUMPDEST STOP JUMPDEST PUSH3 0x156 PUSH3 0x2632 JUMP JUMPDEST STOP JUMPDEST PUSH3 0x162 PUSH3 0x2634 JUMP JUMPDEST STOP JUMPDEST PUSH3 0x16E PUSH3 0x2A0F JUMP JUMPDEST STOP JUMPDEST PUSH3 0x17A PUSH3 0x33C2 JUMP JUMPDEST STOP JUMPDEST PUSH3 0x186 PUSH3 0x3693 JUMP JUMPDEST STOP JUMPDEST PUSH3 0x192 PUSH3 0x3DBE JUMP JUMPDEST STOP JUMPDEST PUSH3 0x19E PUSH3 0x3F3C JUMP JUMPDEST STOP JUMPDEST PUSH3 0x1AA PUSH3 0x4667 JUMP JUMPDEST STOP JUMPDEST PUSH3 0x1B6 PUSH3 0x4907 JUMP JUMPDEST STOP JUMPDEST PUSH3 0x1C2 PUSH3 0x5032 JUMP JUMPDEST STOP JUMPDEST PUSH1 0x2 PUSH1 0x0 SWAP1 SLOAD SWAP1 PUSH2 0x100 EXP SWAP1 DIV PUSH20 0xFFFFFFFFFFFFFFFFFFFFFFFFFFFFFFFFFFFFFFFF AND PUSH20 0xFFFFFFFFFFFFFFFFFFFFFFFFFFFFFFFFFFFFFFFF AND PUSH4 0x2E9C58BB PUSH1 0x40 MLOAD DUP2 PUSH4 0xFFFFFFFF AND PUSH1 0xE0 SHL DUP2 MSTORE PUSH1 0x4 ADD PUSH1 0x20 PUSH1 0x40 MLOAD DUP1 DUP4 SUB DUP2 PUSH1 0x0 DUP8 DUP1 EXTCODESIZE ISZERO DUP1 ISZERO PUSH3 0x22F JUMPI PUSH1 0x0 DUP1 REVERT JUMPDEST POP GAS CALL ISZERO DUP1 ISZERO PUSH3 0x244 JUMPI RETURNDATASIZE PUSH1 0x0 DUP1 RETURNDATACOPY RETURNDATASIZE PUSH1 0x0 REVERT JUMPDEST POP POP POP POP PUSH1 0x40 MLOAD RETURNDATASIZE PUSH1 0x1F NOT PUSH1 0x1F DUP3 ADD AND DUP3 ADD DUP1 PUSH1 0x40 MSTORE POP DUP2 ADD SWAP1 PUSH3 0x26A SWAP2 SWAP1 PUSH3 0x57A9 JUMP JUMPDEST POP PUSH1 0x2 PUSH1 0x0 SWAP1 SLOAD SWAP1 PUSH2 0x100 EXP SWAP1 DIV PUSH20 0xFFFFFFFFFFFFFFFFFFFFFFFFFFFFFFFFFFFFFFFF AND PUSH20 0xFFFFFFFFFFFFFFFFFFFFFFFFFFFFFFFFFFFFFFFF AND PUSH4 0xBDF666A4 PUSH1 0x5 SLOAD PUSH1 0x1 PUSH32 0xD83DA95C058C118D61C20DBA7A15F44FA0A4C079EFF4CA94932F2BAF31135E03 PUSH32 0xD83DA95C058C118D61C20DBA7A15F44FA0A4C079EFF4CA94932F2BAF31135E04 PUSH1 0x40 MLOAD DUP6 PUSH4 0xFFFFFFFF AND PUSH1 0xE0 SHL DUP2 MSTORE PUSH1 0x4 ADD PUSH3 0x311 SWAP5 SWAP4 SWAP3 SWAP2 SWAP1 PUSH3 0x63EF JUMP JUMPDEST PUSH1 0x20 PUSH1 0x40 MLOAD DUP1 DUP4 SUB DUP2 PUSH1 0x0 DUP8 DUP1 EXTCODESIZE ISZERO DUP1 ISZERO PUSH3 0x32C JUMPI PUSH1 0x0 DUP1 REVERT JUMPDEST POP GAS CALL SWAP3 POP POP POP DUP1 ISZERO PUSH3 0x360 JUMPI POP PUSH1 0x40 MLOAD RETURNDATASIZE PUSH1 0x1F NOT PUSH1 0x1F DUP3 ADD AND DUP3 ADD DUP1 PUSH1 0x40 MSTORE POP DUP2 ADD SWAP1 PUSH3 0x35D SWAP2 SWAP1 PUSH3 0x57A9 JUMP JUMPDEST PUSH1 0x1 JUMPDEST PUSH3 0x43B JUMPI PUSH3 0x36F PUSH3 0x7319 JUMP JUMPDEST DUP1 PUSH4 0x8C379A0 EQ ISZERO PUSH3 0x429 JUMPI POP PUSH3 0x387 PUSH3 0x7724 JUMP JUMPDEST DUP1 PUSH3 0x394 JUMPI POP PUSH3 0x42B JUMP JUMPDEST PUSH20 0x0 PUSH4 0xE8C2CB16 DUP3 PUSH1 0x40 MLOAD DUP3 PUSH4 0xFFFFFFFF AND PUSH1 0xE0 SHL DUP2 MSTORE PUSH1 0x4 ADD PUSH3 0x3CD SWAP2 SWAP1 PUSH3 0x65A3 JUMP JUMPDEST PUSH1 0x20 PUSH1 0x40 MLOAD DUP1 DUP4 SUB DUP2 DUP7 DUP1 EXTCODESIZE ISZERO DUP1 ISZERO PUSH3 0x3E6 JUMPI PUSH1 0x0 DUP1 REVERT JUMPDEST POP GAS DELEGATECALL ISZERO DUP1 ISZERO PUSH3 0x3FB JUMPI RETURNDATASIZE PUSH1 0x0 DUP1 RETURNDATACOPY RETURNDATASIZE PUSH1 0x0 REVERT JUMPDEST POP POP POP POP PUSH1 0x40 MLOAD RETURNDATASIZE PUSH1 0x1F NOT PUSH1 0x1F DUP3 ADD AND DUP3 ADD DUP1 PUSH1 0x40 MSTORE POP DUP2 ADD SWAP1 PUSH3 0x421 SWAP2 SWAP1 PUSH3 0x57A9 JUMP JUMPDEST POP POP PUSH3 0x435 JUMP JUMPDEST POP JUMPDEST RETURNDATASIZE PUSH1 0x0 DUP1 RETURNDATACOPY RETURNDATASIZE PUSH1 0x0 REVERT JUMPDEST PUSH3 0x4CC JUMP JUMPDEST POP PUSH20 0x0 PUSH4 0x39DF137F PUSH1 0x0 PUSH1 0x40 MLOAD DUP3 PUSH4 0xFFFFFFFF AND PUSH1 0xE0 SHL DUP2 MSTORE PUSH1 0x4 ADD PUSH3 0x476 SWAP2 SWAP1 PUSH3 0x5F2C JUMP JUMPDEST PUSH1 0x20 PUSH1 0x40 MLOAD DUP1 DUP4 SUB DUP2 DUP7 DUP1 EXTCODESIZE ISZERO DUP1 ISZERO PUSH3 0x48F JUMPI PUSH1 0x0 DUP1 REVERT JUMPDEST POP GAS DELEGATECALL ISZERO DUP1 ISZERO PUSH3 0x4A4 JUMPI RETURNDATASIZE PUSH1 0x0 DUP1 RETURNDATACOPY RETURNDATASIZE PUSH1 0x0 REVERT JUMPDEST POP POP POP POP PUSH1 0x40 MLOAD RETURNDATASIZE PUSH1 0x1F NOT PUSH1 0x1F DUP3 ADD AND DUP3 ADD DUP1 PUSH1 0x40 MSTORE POP DUP2 ADD SWAP1 PUSH3 0x4CA SWAP2 SWAP1 PUSH3 0x57A9 JUMP JUMPDEST POP JUMPDEST JUMP JUMPDEST PUSH1 0x0 PUSH1 0x1 PUSH1 0x0 SWAP1 SLOAD SWAP1 PUSH2 0x100 EXP SWAP1 DIV PUSH20 0xFFFFFFFFFFFFFFFFFFFFFFFFFFFFFFFFFFFFFFFF AND PUSH20 0xFFFFFFFFFFFFFFFFFFFFFFFFFFFFFFFFFFFFFFFF AND PUSH4 0x75CB2A0E PUSH32 0xA83DA95C058C118D61C20DBA7A15F44FA0A4C079EFF4CA94932F2BAF31135E02 PUSH1 0x40 MLOAD DUP3 PUSH4 0xFFFFFFFF AND PUSH1 0xE0 SHL DUP2 MSTORE PUSH1 0x4 ADD PUSH3 0x54D SWAP2 SWAP1 PUSH3 0x6961 JUMP JUMPDEST PUSH1 0x20 PUSH1 0x40 MLOAD DUP1 DUP4 SUB DUP2 PUSH1 0x0 DUP8 DUP1 EXTCODESIZE ISZERO DUP1 ISZERO PUSH3 0x568 JUMPI PUSH1 0x0 DUP1 REVERT JUMPDEST POP GAS CALL ISZERO DUP1 ISZERO PUSH3 0x57D JUMPI RETURNDATASIZE PUSH1 0x0 DUP1 RETURNDATACOPY RETURNDATASIZE PUSH1 0x0 REVERT JUMPDEST POP POP POP POP PUSH1 0x40 MLOAD RETURNDATASIZE PUSH1 0x1F NOT PUSH1 0x1F DUP3 ADD AND DUP3 ADD DUP1 PUSH1 0x40 MSTORE POP DUP2 ADD SWAP1 PUSH3 0x5A3 SWAP2 SWAP1 PUSH3 0x57DB JUMP JUMPDEST SWAP1 POP PUSH1 0x1 PUSH1 0x0 SWAP1 SLOAD SWAP1 PUSH2 0x100 EXP SWAP1 DIV PUSH20 0xFFFFFFFFFFFFFFFFFFFFFFFFFFFFFFFFFFFFFFFF AND PUSH20 0xFFFFFFFFFFFFFFFFFFFFFFFFFFFFFFFFFFFFFFFF AND PUSH4 0x57C91B95 DUP3 PUSH1 0x1 PUSH2 0xBB8 PUSH2 0x12C PUSH1 0x20 DUP1 PUSH1 0x40 MLOAD DUP8 PUSH4 0xFFFFFFFF AND PUSH1 0xE0 SHL DUP2 MSTORE PUSH1 0x4 ADD PUSH3 0x612 SWAP7 SWAP6 SWAP5 SWAP4 SWAP3 SWAP2 SWAP1 PUSH3 0x6335 JUMP JUMPDEST PUSH1 0x0 PUSH1 0x40 MLOAD DUP1 DUP4 SUB DUP2 PUSH1 0x0 DUP8 DUP1 EXTCODESIZE ISZERO DUP1 ISZERO PUSH3 0x62D JUMPI PUSH1 0x0 DUP1 REVERT JUMPDEST POP GAS CALL ISZERO DUP1 ISZERO PUSH3 0x642 JUMPI RETURNDATASIZE PUSH1 0x0 DUP1 RETURNDATACOPY RETURNDATASIZE PUSH1 0x0 REVERT JUMPDEST POP POP POP POP PUSH1 0x2 PUSH1 0x0 SWAP1 SLOAD SWAP1 PUSH2 0x100 EXP SWAP1 DIV PUSH20 0xFFFFFFFFFFFFFFFFFFFFFFFFFFFFFFFFFFFFFFFF AND PUSH20 0xFFFFFFFFFFFFFFFFFFFFFFFFFFFFFFFFFFFFFFFF AND PUSH4 0xBDF666A4 DUP3 PUSH1 0x1 PUSH32 0xE83DA95C058C118D61C20DBA7A15F44FA0A4C079EFF4CA94932F2BAF31135E01 PUSH32 0xE83DA95C058C118D61C20DBA7A15F44FA0A4C079EFF4CA94932F2BAF31135E02 PUSH1 0x40 MLOAD DUP6 PUSH4 0xFFFFFFFF AND PUSH1 0xE0 SHL DUP2 MSTORE PUSH1 0x4 ADD PUSH3 0x6EA SWAP5 SWAP4 SWAP3 SWAP2 SWAP1 PUSH3 0x6174 JUMP JUMPDEST PUSH1 0x20 PUSH1 0x40 MLOAD DUP1 DUP4 SUB DUP2 PUSH1 0x0 DUP8 DUP1 EXTCODESIZE ISZERO DUP1 ISZERO PUSH3 0x705 JUMPI PUSH1 0x0 DUP1 REVERT JUMPDEST POP GAS CALL ISZERO DUP1 ISZERO PUSH3 0x71A JUMPI RETURNDATASIZE PUSH1 0x0 DUP1 RETURNDATACOPY RETURNDATASIZE PUSH1 0x0 REVERT JUMPDEST POP POP POP POP PUSH1 0x40 MLOAD RETURNDATASIZE PUSH1 0x1F NOT PUSH1 0x1F DUP3 ADD AND DUP3 ADD DUP1 PUSH1 0x40 MSTORE POP DUP2 ADD SWAP1 PUSH3 0x740 SWAP2 SWAP1 PUSH3 0x57A9 JUMP JUMPDEST POP PUSH1 0x3 PUSH1 0x0 SWAP1 SLOAD SWAP1 PUSH2 0x100 EXP SWAP1 DIV PUSH20 0xFFFFFFFFFFFFFFFFFFFFFFFFFFFFFFFFFFFFFFFF AND PUSH20 0xFFFFFFFFFFFFFFFFFFFFFFFFFFFFFFFFFFFFFFFF AND PUSH4 0xBDF666A4 DUP3 PUSH1 0x1 PUSH32 0xF83DA95C058C118D61C20DBA7A15F44FA0A4C079EFF4CA94932F2BAF31135E08 PUSH32 0xF83DA95C058C118D61C20DBA7A15F44FA0A4C079EFF4CA94932F2BAF31135E09 PUSH1 0x40 MLOAD DUP6 PUSH4 0xFFFFFFFF AND PUSH1 0xE0 SHL DUP2 MSTORE PUSH1 0x4 ADD PUSH3 0x7E5 SWAP5 SWAP4 SWAP3 SWAP2 SWAP1 PUSH3 0x620E JUMP JUMPDEST PUSH1 0x20 PUSH1 0x40 MLOAD DUP1 DUP4 SUB DUP2 PUSH1 0x0 DUP8 DUP1 EXTCODESIZE ISZERO DUP1 ISZERO PUSH3 0x800 JUMPI PUSH1 0x0 DUP1 REVERT JUMPDEST POP GAS CALL ISZERO DUP1 ISZERO PUSH3 0x815 JUMPI RETURNDATASIZE PUSH1 0x0 DUP1 RETURNDATACOPY RETURNDATASIZE PUSH1 0x0 REVERT JUMPDEST POP POP POP POP PUSH1 0x40 MLOAD RETURNDATASIZE PUSH1 0x1F NOT PUSH1 0x1F DUP3 ADD AND DUP3 ADD DUP1 PUSH1 0x40 MSTORE POP DUP2 ADD SWAP1 PUSH3 0x83B SWAP2 SWAP1 PUSH3 0x57A9 JUMP JUMPDEST POP PUSH1 0x0 PUSH1 0x2 PUSH8 0xFFFFFFFFFFFFFFFF DUP2 GT ISZERO PUSH3 0x85C JUMPI PUSH3 0x85B PUSH3 0x72EA JUMP JUMPDEST JUMPDEST PUSH1 0x40 MLOAD SWAP1 DUP1 DUP3 MSTORE DUP1 PUSH1 0x20 MUL PUSH1 0x20 ADD DUP3 ADD PUSH1 0x40 MSTORE DUP1 ISZERO PUSH3 0x88B JUMPI DUP2 PUSH1 0x20 ADD PUSH1 0x20 DUP3 MUL DUP1 CALLDATASIZE DUP4 CALLDATACOPY DUP1 DUP3 ADD SWAP2 POP POP SWAP1 POP JUMPDEST POP SWAP1 POP PUSH1 0x2 PUSH1 0x0 SWAP1 SLOAD SWAP1 PUSH2 0x100 EXP SWAP1 DIV PUSH20 0xFFFFFFFFFFFFFFFFFFFFFFFFFFFFFFFFFFFFFFFF AND DUP2 PUSH1 0x0 DUP2 MLOAD DUP2 LT PUSH3 0x8C8 JUMPI PUSH3 0x8C7 PUSH3 0x72BB JUMP JUMPDEST JUMPDEST PUSH1 0x20 MUL PUSH1 0x20 ADD ADD SWAP1 PUSH20 0xFFFFFFFFFFFFFFFFFFFFFFFFFFFFFFFFFFFFFFFF AND SWAP1 DUP2 PUSH20 0xFFFFFFFFFFFFFFFFFFFFFFFFFFFFFFFFFFFFFFFF AND DUP2 MSTORE POP POP PUSH1 0x3 PUSH1 0x0 SWAP1 SLOAD SWAP1 PUSH2 0x100 EXP SWAP1 DIV PUSH20 0xFFFFFFFFFFFFFFFFFFFFFFFFFFFFFFFFFFFFFFFF AND DUP2 PUSH1 0x1 DUP2 MLOAD DUP2 LT PUSH3 0x93C JUMPI PUSH3 0x93B PUSH3 0x72BB JUMP JUMPDEST JUMPDEST PUSH1 0x20 MUL PUSH1 0x20 ADD ADD SWAP1 PUSH20 0xFFFFFFFFFFFFFFFFFFFFFFFFFFFFFFFFFFFFFFFF AND SWAP1 DUP2 PUSH20 0xFFFFFFFFFFFFFFFFFFFFFFFFFFFFFFFFFFFFFFFF AND DUP2 MSTORE POP POP PUSH1 0x2 PUSH1 0x0 SWAP1 SLOAD SWAP1 PUSH2 0x100 EXP SWAP1 DIV PUSH20 0xFFFFFFFFFFFFFFFFFFFFFFFFFFFFFFFFFFFFFFFF AND PUSH20 0xFFFFFFFFFFFFFFFFFFFFFFFFFFFFFFFFFFFFFFFF AND PUSH4 0x41E865CB DUP4 PUSH1 0x1 DUP5 PUSH1 0x40 MLOAD DUP5 PUSH4 0xFFFFFFFF AND PUSH1 0xE0 SHL DUP2 MSTORE PUSH1 0x4 ADD PUSH3 0x9D8 SWAP4 SWAP3 SWAP2 SWAP1 PUSH3 0x609F JUMP JUMPDEST PUSH1 0x0 PUSH1 0x40 MLOAD DUP1 DUP4 SUB DUP2 PUSH1 0x0 DUP8 DUP1 EXTCODESIZE ISZERO DUP1 ISZERO PUSH3 0x9F3 JUMPI PUSH1 0x0 DUP1 REVERT JUMPDEST POP GAS CALL SWAP3 POP POP POP DUP1 ISZERO PUSH3 0xA05 JUMPI POP PUSH1 0x1 JUMPDEST PUSH3 0xAE0 JUMPI PUSH3 0xA14 PUSH3 0x7319 JUMP JUMPDEST DUP1 PUSH4 0x8C379A0 EQ ISZERO PUSH3 0xACE JUMPI POP PUSH3 0xA2C PUSH3 0x7724 JUMP JUMPDEST DUP1 PUSH3 0xA39 JUMPI POP PUSH3 0xAD0 JUMP JUMPDEST PUSH20 0x0 PUSH4 0xE8C2CB16 DUP3 PUSH1 0x40 MLOAD DUP3 PUSH4 0xFFFFFFFF AND PUSH1 0xE0 SHL DUP2 MSTORE PUSH1 0x4 ADD PUSH3 0xA72 SWAP2 SWAP1 PUSH3 0x6729 JUMP JUMPDEST PUSH1 0x20 PUSH1 0x40 MLOAD DUP1 DUP4 SUB DUP2 DUP7 DUP1 EXTCODESIZE ISZERO DUP1 ISZERO PUSH3 0xA8B JUMPI PUSH1 0x0 DUP1 REVERT JUMPDEST POP GAS DELEGATECALL ISZERO DUP1 ISZERO PUSH3 0xAA0 JUMPI RETURNDATASIZE PUSH1 0x0 DUP1 RETURNDATACOPY RETURNDATASIZE PUSH1 0x0 REVERT JUMPDEST POP POP POP POP PUSH1 0x40 MLOAD RETURNDATASIZE PUSH1 0x1F NOT PUSH1 0x1F DUP3 ADD AND DUP3 ADD DUP1 PUSH1 0x40 MSTORE POP DUP2 ADD SWAP1 PUSH3 0xAC6 SWAP2 SWAP1 PUSH3 0x57A9 JUMP JUMPDEST POP POP PUSH3 0xADA JUMP JUMPDEST POP JUMPDEST RETURNDATASIZE PUSH1 0x0 DUP1 RETURNDATACOPY RETURNDATASIZE PUSH1 0x0 REVERT JUMPDEST PUSH3 0xB70 JUMP JUMPDEST PUSH20 0x0 PUSH4 0x39DF137F PUSH1 0x0 PUSH1 0x40 MLOAD DUP3 PUSH4 0xFFFFFFFF AND PUSH1 0xE0 SHL DUP2 MSTORE PUSH1 0x4 ADD PUSH3 0xB1A SWAP2 SWAP1 PUSH3 0x5F2C JUMP JUMPDEST PUSH1 0x20 PUSH1 0x40 MLOAD DUP1 DUP4 SUB DUP2 DUP7 DUP1 EXTCODESIZE ISZERO DUP1 ISZERO PUSH3 0xB33 JUMPI PUSH1 0x0 DUP1 REVERT JUMPDEST POP GAS DELEGATECALL ISZERO DUP1 ISZERO PUSH3 0xB48 JUMPI RETURNDATASIZE PUSH1 0x0 DUP1 RETURNDATACOPY RETURNDATASIZE PUSH1 0x0 REVERT JUMPDEST POP POP POP POP PUSH1 0x40 MLOAD RETURNDATASIZE PUSH1 0x1F NOT PUSH1 0x1F DUP3 ADD AND DUP3 ADD DUP1 PUSH1 0x40 MSTORE POP DUP2 ADD SWAP1 PUSH3 0xB6E SWAP2 SWAP1 PUSH3 0x57A9 JUMP JUMPDEST POP JUMPDEST PUSH1 0x2 PUSH8 0xFFFFFFFFFFFFFFFF DUP2 GT ISZERO PUSH3 0xB8E JUMPI PUSH3 0xB8D PUSH3 0x72EA JUMP JUMPDEST JUMPDEST PUSH1 0x40 MLOAD SWAP1 DUP1 DUP3 MSTORE DUP1 PUSH1 0x20 MUL PUSH1 0x20 ADD DUP3 ADD PUSH1 0x40 MSTORE DUP1 ISZERO PUSH3 0xBBD JUMPI DUP2 PUSH1 0x20 ADD PUSH1 0x20 DUP3 MUL DUP1 CALLDATASIZE DUP4 CALLDATACOPY DUP1 DUP3 ADD SWAP2 POP POP SWAP1 POP JUMPDEST POP SWAP1 POP PUSH1 0x2 PUSH1 0x0 SWAP1 SLOAD SWAP1 PUSH2 0x100 EXP SWAP1 DIV PUSH20 0xFFFFFFFFFFFFFFFFFFFFFFFFFFFFFFFFFFFFFFFF AND DUP2 PUSH1 0x0 DUP2 MLOAD DUP2 LT PUSH3 0xBFA JUMPI PUSH3 0xBF9 PUSH3 0x72BB JUMP JUMPDEST JUMPDEST PUSH1 0x20 MUL PUSH1 0x20 ADD ADD SWAP1 PUSH20 0xFFFFFFFFFFFFFFFFFFFFFFFFFFFFFFFFFFFFFFFF AND SWAP1 DUP2 PUSH20 0xFFFFFFFFFFFFFFFFFFFFFFFFFFFFFFFFFFFFFFFF AND DUP2 MSTORE POP POP PUSH1 0x4 PUSH1 0x0 SWAP1 SLOAD SWAP1 PUSH2 0x100 EXP SWAP1 DIV PUSH20 0xFFFFFFFFFFFFFFFFFFFFFFFFFFFFFFFFFFFFFFFF AND DUP2 PUSH1 0x1 DUP2 MLOAD DUP2 LT PUSH3 0xC6E JUMPI PUSH3 0xC6D PUSH3 0x72BB JUMP JUMPDEST JUMPDEST PUSH1 0x20 MUL PUSH1 0x20 ADD ADD SWAP1 PUSH20 0xFFFFFFFFFFFFFFFFFFFFFFFFFFFFFFFFFFFFFFFF AND SWAP1 DUP2 PUSH20 0xFFFFFFFFFFFFFFFFFFFFFFFFFFFFFFFFFFFFFFFF AND DUP2 MSTORE POP POP PUSH1 0x1 PUSH1 0x0 SWAP1 SLOAD SWAP1 PUSH2 0x100 EXP SWAP1 DIV PUSH20 0xFFFFFFFFFFFFFFFFFFFFFFFFFFFFFFFFFFFFFFFF AND PUSH20 0xFFFFFFFFFFFFFFFFFFFFFFFFFFFFFFFFFFFFFFFF AND PUSH4 0x41E865CB DUP4 PUSH1 0x1 DUP5 PUSH1 0x40 MLOAD DUP5 PUSH4 0xFFFFFFFF AND PUSH1 0xE0 SHL DUP2 MSTORE PUSH1 0x4 ADD PUSH3 0xD0A SWAP4 SWAP3 SWAP2 SWAP1 PUSH3 0x609F JUMP JUMPDEST PUSH1 0x0 PUSH1 0x40 MLOAD DUP1 DUP4 SUB DUP2 PUSH1 0x0 DUP8 DUP1 EXTCODESIZE ISZERO DUP1 ISZERO PUSH3 0xD25 JUMPI PUSH1 0x0 DUP1 REVERT JUMPDEST POP GAS CALL SWAP3 POP POP POP DUP1 ISZERO PUSH3 0xD37 JUMPI POP PUSH1 0x1 JUMPDEST PUSH3 0xE12 JUMPI PUSH3 0xD46 PUSH3 0x7319 JUMP JUMPDEST DUP1 PUSH4 0x8C379A0 EQ ISZERO PUSH3 0xE00 JUMPI POP PUSH3 0xD5E PUSH3 0x7724 JUMP JUMPDEST DUP1 PUSH3 0xD6B JUMPI POP PUSH3 0xE02 JUMP JUMPDEST PUSH20 0x0 PUSH4 0xE8C2CB16 DUP3 PUSH1 0x40 MLOAD DUP3 PUSH4 0xFFFFFFFF AND PUSH1 0xE0 SHL DUP2 MSTORE PUSH1 0x4 ADD PUSH3 0xDA4 SWAP2 SWAP1 PUSH3 0x668D JUMP JUMPDEST PUSH1 0x20 PUSH1 0x40 MLOAD DUP1 DUP4 SUB DUP2 DUP7 DUP1 EXTCODESIZE ISZERO DUP1 ISZERO PUSH3 0xDBD JUMPI PUSH1 0x0 DUP1 REVERT JUMPDEST POP GAS DELEGATECALL ISZERO DUP1 ISZERO PUSH3 0xDD2 JUMPI RETURNDATASIZE PUSH1 0x0 DUP1 RETURNDATACOPY RETURNDATASIZE PUSH1 0x0 REVERT JUMPDEST POP POP POP POP PUSH1 0x40 MLOAD RETURNDATASIZE PUSH1 0x1F NOT PUSH1 0x1F DUP3 ADD AND DUP3 ADD DUP1 PUSH1 0x40 MSTORE POP DUP2 ADD SWAP1 PUSH3 0xDF8 SWAP2 SWAP1 PUSH3 0x57A9 JUMP JUMPDEST POP POP PUSH3 0xE0C JUMP JUMPDEST POP JUMPDEST RETURNDATASIZE PUSH1 0x0 DUP1 RETURNDATACOPY RETURNDATASIZE PUSH1 0x0 REVERT JUMPDEST PUSH3 0xEA2 JUMP JUMPDEST PUSH20 0x0 PUSH4 0x39DF137F PUSH1 0x0 PUSH1 0x40 MLOAD DUP3 PUSH4 0xFFFFFFFF AND PUSH1 0xE0 SHL DUP2 MSTORE PUSH1 0x4 ADD PUSH3 0xE4C SWAP2 SWAP1 PUSH3 0x5F2C JUMP JUMPDEST PUSH1 0x20 PUSH1 0x40 MLOAD DUP1 DUP4 SUB DUP2 DUP7 DUP1 EXTCODESIZE ISZERO DUP1 ISZERO PUSH3 0xE65 JUMPI PUSH1 0x0 DUP1 REVERT JUMPDEST POP GAS DELEGATECALL ISZERO DUP1 ISZERO PUSH3 0xE7A JUMPI RETURNDATASIZE PUSH1 0x0 DUP1 RETURNDATACOPY RETURNDATASIZE PUSH1 0x0 REVERT JUMPDEST POP POP POP POP PUSH1 0x40 MLOAD RETURNDATASIZE PUSH1 0x1F NOT PUSH1 0x1F DUP3 ADD AND DUP3 ADD DUP1 PUSH1 0x40 MSTORE POP DUP2 ADD SWAP1 PUSH3 0xEA0 SWAP2 SWAP1 PUSH3 0x57A9 JUMP JUMPDEST POP JUMPDEST PUSH1 0x2 PUSH8 0xFFFFFFFFFFFFFFFF DUP2 GT ISZERO PUSH3 0xEC0 JUMPI PUSH3 0xEBF PUSH3 0x72EA JUMP JUMPDEST JUMPDEST PUSH1 0x40 MLOAD SWAP1 DUP1 DUP3 MSTORE DUP1 PUSH1 0x20 MUL PUSH1 0x20 ADD DUP3 ADD PUSH1 0x40 MSTORE DUP1 ISZERO PUSH3 0xEEF JUMPI DUP2 PUSH1 0x20 ADD PUSH1 0x20 DUP3 MUL DUP1 CALLDATASIZE DUP4 CALLDATACOPY DUP1 DUP3 ADD SWAP2 POP POP SWAP1 POP JUMPDEST POP SWAP1 POP PUSH1 0x2 PUSH1 0x0 SWAP1 SLOAD SWAP1 PUSH2 0x100 EXP SWAP1 DIV PUSH20 0xFFFFFFFFFFFFFFFFFFFFFFFFFFFFFFFFFFFFFFFF AND DUP2 PUSH1 0x0 DUP2 MLOAD DUP2 LT PUSH3 0xF2C JUMPI PUSH3 0xF2B PUSH3 0x72BB JUMP JUMPDEST JUMPDEST PUSH1 0x20 MUL PUSH1 0x20 ADD ADD SWAP1 PUSH20 0xFFFFFFFFFFFFFFFFFFFFFFFFFFFFFFFFFFFFFFFF AND SWAP1 DUP2 PUSH20 0xFFFFFFFFFFFFFFFFFFFFFFFFFFFFFFFFFFFFFFFF AND DUP2 MSTORE POP POP PUSH1 0x3 PUSH1 0x0 SWAP1 SLOAD SWAP1 PUSH2 0x100 EXP SWAP1 DIV PUSH20 0xFFFFFFFFFFFFFFFFFFFFFFFFFFFFFFFFFFFFFFFF AND DUP2 PUSH1 0x1 DUP2 MLOAD DUP2 LT PUSH3 0xFA0 JUMPI PUSH3 0xF9F PUSH3 0x72BB JUMP JUMPDEST JUMPDEST PUSH1 0x20 MUL PUSH1 0x20 ADD ADD SWAP1 PUSH20 0xFFFFFFFFFFFFFFFFFFFFFFFFFFFFFFFFFFFFFFFF AND SWAP1 DUP2 PUSH20 0xFFFFFFFFFFFFFFFFFFFFFFFFFFFFFFFFFFFFFFFF AND DUP2 MSTORE POP POP PUSH1 0x1 PUSH1 0x0 SWAP1 SLOAD SWAP1 PUSH2 0x100 EXP SWAP1 DIV PUSH20 0xFFFFFFFFFFFFFFFFFFFFFFFFFFFFFFFFFFFFFFFF AND PUSH20 0xFFFFFFFFFFFFFFFFFFFFFFFFFFFFFFFFFFFFFFFF AND PUSH4 0x41E865CB DUP4 PUSH1 0x1 DUP5 PUSH1 0x40 MLOAD DUP5 PUSH4 0xFFFFFFFF AND PUSH1 0xE0 SHL DUP2 MSTORE PUSH1 0x4 ADD PUSH3 0x103C SWAP4 SWAP3 SWAP2 SWAP1 PUSH3 0x609F JUMP JUMPDEST PUSH1 0x0 PUSH1 0x40 MLOAD DUP1 DUP4 SUB DUP2 PUSH1 0x0 DUP8 DUP1 EXTCODESIZE ISZERO DUP1 ISZERO PUSH3 0x1057 JUMPI PUSH1 0x0 DUP1 REVERT JUMPDEST POP GAS CALL ISZERO DUP1 ISZERO PUSH3 0x106C JUMPI RETURNDATASIZE PUSH1 0x0 DUP1 RETURNDATACOPY RETURNDATASIZE PUSH1 0x0 REVERT JUMPDEST POP POP POP POP POP POP JUMP JUMPDEST PUSH1 0x0 PUSH1 0x1 PUSH1 0x0 SWAP1 SLOAD SWAP1 PUSH2 0x100 EXP SWAP1 DIV PUSH20 0xFFFFFFFFFFFFFFFFFFFFFFFFFFFFFFFFFFFFFFFF AND PUSH20 0xFFFFFFFFFFFFFFFFFFFFFFFFFFFFFFFFFFFFFFFF AND PUSH4 0x75CB2A0E PUSH32 0xD83DA95C058C118D61C20DBA7A15F44FA0A4C079EFF4CA94932F2BAF31135E01 PUSH1 0x40 MLOAD DUP3 PUSH4 0xFFFFFFFF AND PUSH1 0xE0 SHL DUP2 MSTORE PUSH1 0x4 ADD PUSH3 0x10F3 SWAP2 SWAP1 PUSH3 0x69F7 JUMP JUMPDEST PUSH1 0x20 PUSH1 0x40 MLOAD DUP1 DUP4 SUB DUP2 PUSH1 0x0 DUP8 DUP1 EXTCODESIZE ISZERO DUP1 ISZERO PUSH3 0x110E JUMPI PUSH1 0x0 DUP1 REVERT JUMPDEST POP GAS CALL ISZERO DUP1 ISZERO PUSH3 0x1123 JUMPI RETURNDATASIZE PUSH1 0x0 DUP1 RETURNDATACOPY RETURNDATASIZE PUSH1 0x0 REVERT JUMPDEST POP POP POP POP PUSH1 0x40 MLOAD RETURNDATASIZE PUSH1 0x1F NOT PUSH1 0x1F DUP3 ADD AND DUP3 ADD DUP1 PUSH1 0x40 MSTORE POP DUP2 ADD SWAP1 PUSH3 0x1149 SWAP2 SWAP1 PUSH3 0x57DB JUMP JUMPDEST SWAP1 POP PUSH1 0x1 PUSH1 0x0 SWAP1 SLOAD SWAP1 PUSH2 0x100 EXP SWAP1 DIV PUSH20 0xFFFFFFFFFFFFFFFFFFFFFFFFFFFFFFFFFFFFFFFF AND PUSH20 0xFFFFFFFFFFFFFFFFFFFFFFFFFFFFFFFFFFFFFFFF AND PUSH4 0x57C91B95 PUSH32 0xD83DA95C058C118D61C20DBA7A15F44FA0A4C079EFF4CA94932F2BAF31135E00 PUSH1 0x0 PUSH2 0xBB8 PUSH2 0x12C PUSH1 0x20 DUP1 PUSH1 0x40 MLOAD DUP8 PUSH4 0xFFFFFFFF AND PUSH1 0xE0 SHL DUP2 MSTORE PUSH1 0x4 ADD PUSH3 0x11D8 SWAP7 SWAP6 SWAP5 SWAP4 SWAP3 SWAP2 SWAP1 PUSH3 0x649B JUMP JUMPDEST PUSH1 0x0 PUSH1 0x40 MLOAD DUP1 DUP4 SUB DUP2 PUSH1 0x0 DUP8 DUP1 EXTCODESIZE ISZERO DUP1 ISZERO PUSH3 0x11F3 JUMPI PUSH1 0x0 DUP1 REVERT JUMPDEST POP GAS CALL SWAP3 POP POP POP DUP1 ISZERO PUSH3 0x1205 JUMPI POP PUSH1 0x1 JUMPDEST PUSH3 0x12E0 JUMPI PUSH3 0x1214 PUSH3 0x7319 JUMP JUMPDEST DUP1 PUSH4 0x8C379A0 EQ ISZERO PUSH3 0x12CE JUMPI POP PUSH3 0x122C PUSH3 0x7724 JUMP JUMPDEST DUP1 PUSH3 0x1239 JUMPI POP PUSH3 0x12D0 JUMP JUMPDEST PUSH20 0x0 PUSH4 0xE8C2CB16 DUP3 PUSH1 0x40 MLOAD DUP3 PUSH4 0xFFFFFFFF AND PUSH1 0xE0 SHL DUP2 MSTORE PUSH1 0x4 ADD PUSH3 0x1272 SWAP2 SWAP1 PUSH3 0x68AF JUMP JUMPDEST PUSH1 0x20 PUSH1 0x40 MLOAD DUP1 DUP4 SUB DUP2 DUP7 DUP1 EXTCODESIZE ISZERO DUP1 ISZERO PUSH3 0x128B JUMPI PUSH1 0x0 DUP1 REVERT JUMPDEST POP GAS DELEGATECALL ISZERO DUP1 ISZERO PUSH3 0x12A0 JUMPI RETURNDATASIZE PUSH1 0x0 DUP1 RETURNDATACOPY RETURNDATASIZE PUSH1 0x0 REVERT JUMPDEST POP POP POP POP PUSH1 0x40 MLOAD RETURNDATASIZE PUSH1 0x1F NOT PUSH1 0x1F DUP3 ADD AND DUP3 ADD DUP1 PUSH1 0x40 MSTORE POP DUP2 ADD SWAP1 PUSH3 0x12C6 SWAP2 SWAP1 PUSH3 0x57A9 JUMP JUMPDEST POP POP PUSH3 0x12DA JUMP JUMPDEST POP JUMPDEST RETURNDATASIZE PUSH1 0x0 DUP1 RETURNDATACOPY RETURNDATASIZE PUSH1 0x0 REVERT JUMPDEST PUSH3 0x1370 JUMP JUMPDEST PUSH20 0x0 PUSH4 0x39DF137F PUSH1 0x0 PUSH1 0x40 MLOAD DUP3 PUSH4 0xFFFFFFFF AND PUSH1 0xE0 SHL DUP2 MSTORE PUSH1 0x4 ADD PUSH3 0x131A SWAP2 SWAP1 PUSH3 0x5F2C JUMP JUMPDEST PUSH1 0x20 PUSH1 0x40 MLOAD DUP1 DUP4 SUB DUP2 DUP7 DUP1 EXTCODESIZE ISZERO DUP1 ISZERO PUSH3 0x1333 JUMPI PUSH1 0x0 DUP1 REVERT JUMPDEST POP GAS DELEGATECALL ISZERO DUP1 ISZERO PUSH3 0x1348 JUMPI RETURNDATASIZE PUSH1 0x0 DUP1 RETURNDATACOPY RETURNDATASIZE PUSH1 0x0 REVERT JUMPDEST POP POP POP POP PUSH1 0x40 MLOAD RETURNDATASIZE PUSH1 0x1F NOT PUSH1 0x1F DUP3 ADD AND DUP3 ADD DUP1 PUSH1 0x40 MSTORE POP DUP2 ADD SWAP1 PUSH3 0x136E SWAP2 SWAP1 PUSH3 0x57A9 JUMP JUMPDEST POP JUMPDEST PUSH1 0x2 PUSH1 0x0 SWAP1 SLOAD SWAP1 PUSH2 0x100 EXP SWAP1 DIV PUSH20 0xFFFFFFFFFFFFFFFFFFFFFFFFFFFFFFFFFFFFFFFF AND PUSH20 0xFFFFFFFFFFFFFFFFFFFFFFFFFFFFFFFFFFFFFFFF AND PUSH4 0x57C91B95 DUP3 PUSH1 0x1 PUSH2 0xBB8 PUSH2 0x12C PUSH1 0x20 DUP1 PUSH1 0x40 MLOAD DUP8 PUSH4 0xFFFFFFFF AND PUSH1 0xE0 SHL DUP2 MSTORE PUSH1 0x4 ADD PUSH3 0x13DD SWAP7 SWAP6 SWAP5 SWAP4 SWAP3 SWAP2 SWAP1 PUSH3 0x6335 JUMP JUMPDEST PUSH1 0x0 PUSH1 0x40 MLOAD DUP1 DUP4 SUB DUP2 PUSH1 0x0 DUP8 DUP1 EXTCODESIZE ISZERO DUP1 ISZERO PUSH3 0x13F8 JUMPI PUSH1 0x0 DUP1 REVERT JUMPDEST POP GAS CALL SWAP3 POP POP POP DUP1 ISZERO PUSH3 0x140A JUMPI POP PUSH1 0x1 JUMPDEST PUSH3 0x14E5 JUMPI PUSH3 0x1419 PUSH3 0x7319 JUMP JUMPDEST DUP1 PUSH4 0x8C379A0 EQ ISZERO PUSH3 0x14D3 JUMPI POP PUSH3 0x1431 PUSH3 0x7724 JUMP JUMPDEST DUP1 PUSH3 0x143E JUMPI POP PUSH3 0x14D5 JUMP JUMPDEST PUSH20 0x0 PUSH4 0xE8C2CB16 DUP3 PUSH1 0x40 MLOAD DUP3 PUSH4 0xFFFFFFFF AND PUSH1 0xE0 SHL DUP2 MSTORE PUSH1 0x4 ADD PUSH3 0x1477 SWAP2 SWAP1 PUSH3 0x6777 JUMP JUMPDEST PUSH1 0x20 PUSH1 0x40 MLOAD DUP1 DUP4 SUB DUP2 DUP7 DUP1 EXTCODESIZE ISZERO DUP1 ISZERO PUSH3 0x1490 JUMPI PUSH1 0x0 DUP1 REVERT JUMPDEST POP GAS DELEGATECALL ISZERO DUP1 ISZERO PUSH3 0x14A5 JUMPI RETURNDATASIZE PUSH1 0x0 DUP1 RETURNDATACOPY RETURNDATASIZE PUSH1 0x0 REVERT JUMPDEST POP POP POP POP PUSH1 0x40 MLOAD RETURNDATASIZE PUSH1 0x1F NOT PUSH1 0x1F DUP3 ADD AND DUP3 ADD DUP1 PUSH1 0x40 MSTORE POP DUP2 ADD SWAP1 PUSH3 0x14CB SWAP2 SWAP1 PUSH3 0x57A9 JUMP JUMPDEST POP POP PUSH3 0x14DF JUMP JUMPDEST POP JUMPDEST RETURNDATASIZE PUSH1 0x0 DUP1 RETURNDATACOPY RETURNDATASIZE PUSH1 0x0 REVERT JUMPDEST PUSH3 0x1575 JUMP JUMPDEST PUSH20 0x0 PUSH4 0x39DF137F PUSH1 0x0 PUSH1 0x40 MLOAD DUP3 PUSH4 0xFFFFFFFF AND PUSH1 0xE0 SHL DUP2 MSTORE PUSH1 0x4 ADD PUSH3 0x151F SWAP2 SWAP1 PUSH3 0x5F2C JUMP JUMPDEST PUSH1 0x20 PUSH1 0x40 MLOAD DUP1 DUP4 SUB DUP2 DUP7 DUP1 EXTCODESIZE ISZERO DUP1 ISZERO PUSH3 0x1538 JUMPI PUSH1 0x0 DUP1 REVERT JUMPDEST POP GAS DELEGATECALL ISZERO DUP1 ISZERO PUSH3 0x154D JUMPI RETURNDATASIZE PUSH1 0x0 DUP1 RETURNDATACOPY RETURNDATASIZE PUSH1 0x0 REVERT JUMPDEST POP POP POP POP PUSH1 0x40 MLOAD RETURNDATASIZE PUSH1 0x1F NOT PUSH1 0x1F DUP3 ADD AND DUP3 ADD DUP1 PUSH1 0x40 MSTORE POP DUP2 ADD SWAP1 PUSH3 0x1573 SWAP2 SWAP1 PUSH3 0x57A9 JUMP JUMPDEST POP JUMPDEST PUSH1 0x1 PUSH1 0x0 SWAP1 SLOAD SWAP1 PUSH2 0x100 EXP SWAP1 DIV PUSH20 0xFFFFFFFFFFFFFFFFFFFFFFFFFFFFFFFFFFFFFFFF AND PUSH20 0xFFFFFFFFFFFFFFFFFFFFFFFFFFFFFFFFFFFFFFFF AND PUSH4 0x57C91B95 DUP3 PUSH1 0x0 PUSH2 0xBB8 PUSH2 0x12C PUSH1 0x20 DUP1 PUSH1 0x40 MLOAD DUP8 PUSH4 0xFFFFFFFF AND PUSH1 0xE0 SHL DUP2 MSTORE PUSH1 0x4 ADD PUSH3 0x15E2 SWAP7 SWAP6 SWAP5 SWAP4 SWAP3 SWAP2 SWAP1 PUSH3 0x5FB8 JUMP JUMPDEST PUSH1 0x0 PUSH1 0x40 MLOAD DUP1 DUP4 SUB DUP2 PUSH1 0x0 DUP8 DUP1 EXTCODESIZE ISZERO DUP1 ISZERO PUSH3 0x15FD JUMPI PUSH1 0x0 DUP1 REVERT JUMPDEST POP GAS CALL SWAP3 POP POP POP DUP1 ISZERO PUSH3 0x160F JUMPI POP PUSH1 0x1 JUMPDEST PUSH3 0x16EA JUMPI PUSH3 0x161E PUSH3 0x7319 JUMP JUMPDEST DUP1 PUSH4 0x8C379A0 EQ ISZERO PUSH3 0x16D8 JUMPI POP PUSH3 0x1636 PUSH3 0x7724 JUMP JUMPDEST DUP1 PUSH3 0x1643 JUMPI POP PUSH3 0x16DA JUMP JUMPDEST PUSH20 0x0 PUSH4 0xE8C2CB16 DUP3 PUSH1 0x40 MLOAD DUP3 PUSH4 0xFFFFFFFF AND PUSH1 0xE0 SHL DUP2 MSTORE PUSH1 0x4 ADD PUSH3 0x167C SWAP2 SWAP1 PUSH3 0x65F1 JUMP JUMPDEST PUSH1 0x20 PUSH1 0x40 MLOAD DUP1 DUP4 SUB DUP2 DUP7 DUP1 EXTCODESIZE ISZERO DUP1 ISZERO PUSH3 0x1695 JUMPI PUSH1 0x0 DUP1 REVERT JUMPDEST POP GAS DELEGATECALL ISZERO DUP1 ISZERO PUSH3 0x16AA JUMPI RETURNDATASIZE PUSH1 0x0 DUP1 RETURNDATACOPY RETURNDATASIZE PUSH1 0x0 REVERT JUMPDEST POP POP POP POP PUSH1 0x40 MLOAD RETURNDATASIZE PUSH1 0x1F NOT PUSH1 0x1F DUP3 ADD AND DUP3 ADD DUP1 PUSH1 0x40 MSTORE POP DUP2 ADD SWAP1 PUSH3 0x16D0 SWAP2 SWAP1 PUSH3 0x57A9 JUMP JUMPDEST POP POP PUSH3 0x16E4 JUMP JUMPDEST POP JUMPDEST RETURNDATASIZE PUSH1 0x0 DUP1 RETURNDATACOPY RETURNDATASIZE PUSH1 0x0 REVERT JUMPDEST PUSH3 0x177A JUMP JUMPDEST PUSH20 0x0 PUSH4 0x39DF137F PUSH1 0x0 PUSH1 0x40 MLOAD DUP3 PUSH4 0xFFFFFFFF AND PUSH1 0xE0 SHL DUP2 MSTORE PUSH1 0x4 ADD PUSH3 0x1724 SWAP2 SWAP1 PUSH3 0x5F2C JUMP JUMPDEST PUSH1 0x20 PUSH1 0x40 MLOAD DUP1 DUP4 SUB DUP2 DUP7 DUP1 EXTCODESIZE ISZERO DUP1 ISZERO PUSH3 0x173D JUMPI PUSH1 0x0 DUP1 REVERT JUMPDEST POP GAS DELEGATECALL ISZERO DUP1 ISZERO PUSH3 0x1752 JUMPI RETURNDATASIZE PUSH1 0x0 DUP1 RETURNDATACOPY RETURNDATASIZE PUSH1 0x0 REVERT JUMPDEST POP POP POP POP PUSH1 0x40 MLOAD RETURNDATASIZE PUSH1 0x1F NOT PUSH1 0x1F DUP3 ADD AND DUP3 ADD DUP1 PUSH1 0x40 MSTORE POP DUP2 ADD SWAP1 PUSH3 0x1778 SWAP2 SWAP1 PUSH3 0x57A9 JUMP JUMPDEST POP JUMPDEST PUSH1 0x1 PUSH1 0x0 SWAP1 SLOAD SWAP1 PUSH2 0x100 EXP SWAP1 DIV PUSH20 0xFFFFFFFFFFFFFFFFFFFFFFFFFFFFFFFFFFFFFFFF AND PUSH20 0xFFFFFFFFFFFFFFFFFFFFFFFFFFFFFFFFFFFFFFFF AND PUSH4 0x57C91B95 DUP3 PUSH1 0x1 PUSH2 0xBB8 PUSH2 0x12C PUSH1 0x20 DUP1 PUSH1 0x40 MLOAD DUP8 PUSH4 0xFFFFFFFF AND PUSH1 0xE0 SHL DUP2 MSTORE PUSH1 0x4 ADD PUSH3 0x17E7 SWAP7 SWAP6 SWAP5 SWAP4 SWAP3 SWAP2 SWAP1 PUSH3 0x6335 JUMP JUMPDEST PUSH1 0x0 PUSH1 0x40 MLOAD DUP1 DUP4 SUB DUP2 PUSH1 0x0 DUP8 DUP1 EXTCODESIZE ISZERO DUP1 ISZERO PUSH3 0x1802 JUMPI PUSH1 0x0 DUP1 REVERT JUMPDEST POP GAS CALL ISZERO DUP1 ISZERO PUSH3 0x1817 JUMPI RETURNDATASIZE PUSH1 0x0 DUP1 RETURNDATACOPY RETURNDATASIZE PUSH1 0x0 REVERT JUMPDEST POP POP POP POP PUSH1 0x0 DUP1 PUSH1 0x0 SWAP1 SLOAD SWAP1 PUSH2 0x100 EXP SWAP1 DIV PUSH20 0xFFFFFFFFFFFFFFFFFFFFFFFFFFFFFFFFFFFFFFFF AND PUSH20 0xFFFFFFFFFFFFFFFFFFFFFFFFFFFFFFFFFFFFFFFF AND PUSH4 0x4893B362 DUP4 PUSH1 0x1 PUSH1 0x40 MLOAD DUP4 PUSH4 0xFFFFFFFF AND PUSH1 0xE0 SHL DUP2 MSTORE PUSH1 0x4 ADD PUSH3 0x187C SWAP3 SWAP2 SWAP1 PUSH3 0x6072 JUMP JUMPDEST PUSH2 0x100 PUSH1 0x40 MLOAD DUP1 DUP4 SUB DUP2 DUP7 DUP1 EXTCODESIZE ISZERO DUP1 ISZERO PUSH3 0x1896 JUMPI PUSH1 0x0 DUP1 REVERT JUMPDEST POP GAS STATICCALL ISZERO DUP1 ISZERO PUSH3 0x18AB JUMPI RETURNDATASIZE PUSH1 0x0 DUP1 RETURNDATACOPY RETURNDATASIZE PUSH1 0x0 REVERT JUMPDEST POP POP POP POP PUSH1 0x40 MLOAD RETURNDATASIZE PUSH1 0x1F NOT PUSH1 0x1F DUP3 ADD AND DUP3 ADD DUP1 PUSH1 0x40 MSTORE POP DUP2 ADD SWAP1 PUSH3 0x18D1 SWAP2 SWAP1 PUSH3 0x585E JUMP JUMPDEST SWAP1 POP PUSH20 0x0 PUSH4 0xABCD7960 DUP3 PUSH1 0x0 ADD MLOAD PUSH1 0x1 PUSH1 0x40 MLOAD DUP4 PUSH4 0xFFFFFFFF AND PUSH1 0xE0 SHL DUP2 MSTORE PUSH1 0x4 ADD PUSH3 0x1913 SWAP3 SWAP2 SWAP1 PUSH3 0x6C5B JUMP JUMPDEST PUSH1 0x20 PUSH1 0x40 MLOAD DUP1 DUP4 SUB DUP2 DUP7 DUP1 EXTCODESIZE ISZERO DUP1 ISZERO PUSH3 0x192C JUMPI PUSH1 0x0 DUP1 REVERT JUMPDEST POP GAS DELEGATECALL ISZERO DUP1 ISZERO PUSH3 0x1941 JUMPI RETURNDATASIZE PUSH1 0x0 DUP1 RETURNDATACOPY RETURNDATASIZE PUSH1 0x0 REVERT JUMPDEST POP POP POP POP PUSH1 0x40 MLOAD RETURNDATASIZE PUSH1 0x1F NOT PUSH1 0x1F DUP3 ADD AND DUP3 ADD DUP1 PUSH1 0x40 MSTORE POP DUP2 ADD SWAP1 PUSH3 0x1967 SWAP2 SWAP1 PUSH3 0x57A9 JUMP JUMPDEST POP PUSH20 0x0 PUSH4 0xABCD7960 DUP3 PUSH1 0x20 ADD MLOAD PUSH2 0xBB8 PUSH1 0x40 MLOAD DUP4 PUSH4 0xFFFFFFFF AND PUSH1 0xE0 SHL DUP2 MSTORE PUSH1 0x4 ADD PUSH3 0x19A9 SWAP3 SWAP2 SWAP1 PUSH3 0x6B53 JUMP JUMPDEST PUSH1 0x20 PUSH1 0x40 MLOAD DUP1 DUP4 SUB DUP2 DUP7 DUP1 EXTCODESIZE ISZERO DUP1 ISZERO PUSH3 0x19C2 JUMPI PUSH1 0x0 DUP1 REVERT JUMPDEST POP GAS DELEGATECALL ISZERO DUP1 ISZERO PUSH3 0x19D7 JUMPI RETURNDATASIZE PUSH1 0x0 DUP1 RETURNDATACOPY RETURNDATASIZE PUSH1 0x0 REVERT JUMPDEST POP POP POP POP PUSH1 0x40 MLOAD RETURNDATASIZE PUSH1 0x1F NOT PUSH1 0x1F DUP3 ADD AND DUP3 ADD DUP1 PUSH1 0x40 MSTORE POP DUP2 ADD SWAP1 PUSH3 0x19FD SWAP2 SWAP1 PUSH3 0x57A9 JUMP JUMPDEST POP PUSH20 0x0 PUSH4 0xABCD7960 DUP3 PUSH1 0x40 ADD MLOAD PUSH2 0x12C PUSH1 0x40 MLOAD DUP4 PUSH4 0xFFFFFFFF AND PUSH1 0xE0 SHL DUP2 MSTORE PUSH1 0x4 ADD PUSH3 0x1A3F SWAP3 SWAP2 SWAP1 PUSH3 0x6B95 JUMP JUMPDEST PUSH1 0x20 PUSH1 0x40 MLOAD DUP1 DUP4 SUB DUP2 DUP7 DUP1 EXTCODESIZE ISZERO DUP1 ISZERO PUSH3 0x1A58 JUMPI PUSH1 0x0 DUP1 REVERT JUMPDEST POP GAS DELEGATECALL ISZERO DUP1 ISZERO PUSH3 0x1A6D JUMPI RETURNDATASIZE PUSH1 0x0 DUP1 RETURNDATACOPY RETURNDATASIZE PUSH1 0x0 REVERT JUMPDEST POP POP POP POP PUSH1 0x40 MLOAD RETURNDATASIZE PUSH1 0x1F NOT PUSH1 0x1F DUP3 ADD AND DUP3 ADD DUP1 PUSH1 0x40 MSTORE POP DUP2 ADD SWAP1 PUSH3 0x1A93 SWAP2 SWAP1 PUSH3 0x57A9 JUMP JUMPDEST POP PUSH20 0x0 PUSH4 0xABCD7960 DUP3 PUSH1 0x80 ADD MLOAD NUMBER PUSH1 0x40 MLOAD DUP4 PUSH4 0xFFFFFFFF AND PUSH1 0xE0 SHL DUP2 MSTORE PUSH1 0x4 ADD PUSH3 0x1AD3 SWAP3 SWAP2 SWAP1 PUSH3 0x6B11 JUMP JUMPDEST PUSH1 0x20 PUSH1 0x40 MLOAD DUP1 DUP4 SUB DUP2 DUP7 DUP1 EXTCODESIZE ISZERO DUP1 ISZERO PUSH3 0x1AEC JUMPI PUSH1 0x0 DUP1 REVERT JUMPDEST POP GAS DELEGATECALL ISZERO DUP1 ISZERO PUSH3 0x1B01 JUMPI RETURNDATASIZE PUSH1 0x0 DUP1 RETURNDATACOPY RETURNDATASIZE PUSH1 0x0 REVERT JUMPDEST POP POP POP POP PUSH1 0x40 MLOAD RETURNDATASIZE PUSH1 0x1F NOT PUSH1 0x1F DUP3 ADD AND DUP3 ADD DUP1 PUSH1 0x40 MSTORE POP DUP2 ADD SWAP1 PUSH3 0x1B27 SWAP2 SWAP1 PUSH3 0x57A9 JUMP JUMPDEST POP PUSH20 0x0 PUSH4 0xABCD7960 DUP3 PUSH1 0xA0 ADD MLOAD PUSH1 0x0 PUSH1 0x40 MLOAD DUP4 PUSH4 0xFFFFFFFF AND PUSH1 0xE0 SHL DUP2 MSTORE PUSH1 0x4 ADD PUSH3 0x1B68 SWAP3 SWAP2 SWAP1 PUSH3 0x6A8D JUMP JUMPDEST PUSH1 0x20 PUSH1 0x40 MLOAD DUP1 DUP4 SUB DUP2 DUP7 DUP1 EXTCODESIZE ISZERO DUP1 ISZERO PUSH3 0x1B81 JUMPI PUSH1 0x0 DUP1 REVERT JUMPDEST POP GAS DELEGATECALL ISZERO DUP1 ISZERO PUSH3 0x1B96 JUMPI RETURNDATASIZE PUSH1 0x0 DUP1 RETURNDATACOPY RETURNDATASIZE PUSH1 0x0 REVERT JUMPDEST POP POP POP POP PUSH1 0x40 MLOAD RETURNDATASIZE PUSH1 0x1F NOT PUSH1 0x1F DUP3 ADD AND DUP3 ADD DUP1 PUSH1 0x40 MSTORE POP DUP2 ADD SWAP1 PUSH3 0x1BBC SWAP2 SWAP1 PUSH3 0x57A9 JUMP JUMPDEST POP PUSH20 0x0 PUSH4 0xABCD7960 DUP3 PUSH1 0xC0 ADD MLOAD PUSH1 0x20 PUSH1 0x40 MLOAD DUP4 PUSH4 0xFFFFFFFF AND PUSH1 0xE0 SHL DUP2 MSTORE PUSH1 0x4 ADD PUSH3 0x1BFD SWAP3 SWAP2 SWAP1 PUSH3 0x6BD7 JUMP JUMPDEST PUSH1 0x20 PUSH1 0x40 MLOAD DUP1 DUP4 SUB DUP2 DUP7 DUP1 EXTCODESIZE ISZERO DUP1 ISZERO PUSH3 0x1C16 JUMPI PUSH1 0x0 DUP1 REVERT JUMPDEST POP GAS DELEGATECALL ISZERO DUP1 ISZERO PUSH3 0x1C2B JUMPI RETURNDATASIZE PUSH1 0x0 DUP1 RETURNDATACOPY RETURNDATASIZE PUSH1 0x0 REVERT JUMPDEST POP POP POP POP PUSH1 0x40 MLOAD RETURNDATASIZE PUSH1 0x1F NOT PUSH1 0x1F DUP3 ADD AND DUP3 ADD DUP1 PUSH1 0x40 MSTORE POP DUP2 ADD SWAP1 PUSH3 0x1C51 SWAP2 SWAP1 PUSH3 0x57A9 JUMP JUMPDEST POP PUSH20 0x0 PUSH4 0xABCD7960 DUP3 PUSH1 0xE0 ADD MLOAD PUSH1 0x20 PUSH1 0x40 MLOAD DUP4 PUSH4 0xFFFFFFFF AND PUSH1 0xE0 SHL DUP2 MSTORE PUSH1 0x4 ADD PUSH3 0x1C92 SWAP3 SWAP2 SWAP1 PUSH3 0x6BD7 JUMP JUMPDEST PUSH1 0x20 PUSH1 0x40 MLOAD DUP1 DUP4 SUB DUP2 DUP7 DUP1 EXTCODESIZE ISZERO DUP1 ISZERO PUSH3 0x1CAB JUMPI PUSH1 0x0 DUP1 REVERT JUMPDEST POP GAS DELEGATECALL ISZERO DUP1 ISZERO PUSH3 0x1CC0 JUMPI RETURNDATASIZE PUSH1 0x0 DUP1 RETURNDATACOPY RETURNDATASIZE PUSH1 0x0 REVERT JUMPDEST POP POP POP POP PUSH1 0x40 MLOAD RETURNDATASIZE PUSH1 0x1F NOT PUSH1 0x1F DUP3 ADD AND DUP3 ADD DUP1 PUSH1 0x40 MSTORE POP DUP2 ADD SWAP1 PUSH3 0x1CE6 SWAP2 SWAP1 PUSH3 0x57A9 JUMP JUMPDEST POP POP POP JUMP JUMPDEST PUSH1 0x0 PUSH1 0x1 PUSH1 0x0 SWAP1 SLOAD SWAP1 PUSH2 0x100 EXP SWAP1 DIV PUSH20 0xFFFFFFFFFFFFFFFFFFFFFFFFFFFFFFFFFFFFFFFF AND PUSH20 0xFFFFFFFFFFFFFFFFFFFFFFFFFFFFFFFFFFFFFFFF AND PUSH4 0x75CB2A0E PUSH32 0xA83DA95C058C118D61C20DBA7A15F44FA0A4C079EFF4CA94932F2BAF31135E09 PUSH1 0x40 MLOAD DUP3 PUSH4 0xFFFFFFFF AND PUSH1 0xE0 SHL DUP2 MSTORE PUSH1 0x4 ADD PUSH3 0x1D6A SWAP2 SWAP1 PUSH3 0x6993 JUMP JUMPDEST PUSH1 0x20 PUSH1 0x40 MLOAD DUP1 DUP4 SUB DUP2 PUSH1 0x0 DUP8 DUP1 EXTCODESIZE ISZERO DUP1 ISZERO PUSH3 0x1D85 JUMPI PUSH1 0x0 DUP1 REVERT JUMPDEST POP GAS CALL ISZERO DUP1 ISZERO PUSH3 0x1D9A JUMPI RETURNDATASIZE PUSH1 0x0 DUP1 RETURNDATACOPY RETURNDATASIZE PUSH1 0x0 REVERT JUMPDEST POP POP POP POP PUSH1 0x40 MLOAD RETURNDATASIZE PUSH1 0x1F NOT PUSH1 0x1F DUP3 ADD AND DUP3 ADD DUP1 PUSH1 0x40 MSTORE POP DUP2 ADD SWAP1 PUSH3 0x1DC0 SWAP2 SWAP1 PUSH3 0x57DB JUMP JUMPDEST SWAP1 POP PUSH1 0x1 PUSH1 0x0 SWAP1 SLOAD SWAP1 PUSH2 0x100 EXP SWAP1 DIV PUSH20 0xFFFFFFFFFFFFFFFFFFFFFFFFFFFFFFFFFFFFFFFF AND PUSH20 0xFFFFFFFFFFFFFFFFFFFFFFFFFFFFFFFFFFFFFFFF AND PUSH4 0x57C91B95 DUP3 PUSH1 0x1 PUSH2 0xBB8 PUSH2 0x12C PUSH1 0x20 DUP1 PUSH1 0x40 MLOAD DUP8 PUSH4 0xFFFFFFFF AND PUSH1 0xE0 SHL DUP2 MSTORE PUSH1 0x4 ADD PUSH3 0x1E2F SWAP7 SWAP6 SWAP5 SWAP4 SWAP3 SWAP2 SWAP1 PUSH3 0x6335 JUMP JUMPDEST PUSH1 0x0 PUSH1 0x40 MLOAD DUP1 DUP4 SUB DUP2 PUSH1 0x0 DUP8 DUP1 EXTCODESIZE ISZERO DUP1 ISZERO PUSH3 0x1E4A JUMPI PUSH1 0x0 DUP1 REVERT JUMPDEST POP GAS CALL ISZERO DUP1 ISZERO PUSH3 0x1E5F JUMPI RETURNDATASIZE PUSH1 0x0 DUP1 RETURNDATACOPY RETURNDATASIZE PUSH1 0x0 REVERT JUMPDEST POP POP POP POP PUSH1 0x2 PUSH1 0x0 SWAP1 SLOAD SWAP1 PUSH2 0x100 EXP SWAP1 DIV PUSH20 0xFFFFFFFFFFFFFFFFFFFFFFFFFFFFFFFFFFFFFFFF AND PUSH20 0xFFFFFFFFFFFFFFFFFFFFFFFFFFFFFFFFFFFFFFFF AND PUSH4 0xBDF666A4 DUP3 PUSH1 0x1 PUSH32 0xE83DA96C058C118D61C20DBA7A15F44FA0A4C079EFF4CA94932F2BAF31135E01 PUSH32 0xE83DA96C058C118D61C20DBA7A15F44FA0A4C079EFF4CA94932F2BAF31135E02 PUSH1 0x40 MLOAD DUP6 PUSH4 0xFFFFFFFF AND PUSH1 0xE0 SHL DUP2 MSTORE PUSH1 0x4 ADD PUSH3 0x1F07 SWAP5 SWAP4 SWAP3 SWAP2 SWAP1 PUSH3 0x61C1 JUMP JUMPDEST PUSH1 0x20 PUSH1 0x40 MLOAD DUP1 DUP4 SUB DUP2 PUSH1 0x0 DUP8 DUP1 EXTCODESIZE ISZERO DUP1 ISZERO PUSH3 0x1F22 JUMPI PUSH1 0x0 DUP1 REVERT JUMPDEST POP GAS CALL ISZERO DUP1 ISZERO PUSH3 0x1F37 JUMPI RETURNDATASIZE PUSH1 0x0 DUP1 RETURNDATACOPY RETURNDATASIZE PUSH1 0x0 REVERT JUMPDEST POP POP POP POP PUSH1 0x40 MLOAD RETURNDATASIZE PUSH1 0x1F NOT PUSH1 0x1F DUP3 ADD AND DUP3 ADD DUP1 PUSH1 0x40 MSTORE POP DUP2 ADD SWAP1 PUSH3 0x1F5D SWAP2 SWAP1 PUSH3 0x57A9 JUMP JUMPDEST POP PUSH1 0x0 PUSH1 0x1 PUSH8 0xFFFFFFFFFFFFFFFF DUP2 GT ISZERO PUSH3 0x1F7E JUMPI PUSH3 0x1F7D PUSH3 0x72EA JUMP JUMPDEST JUMPDEST PUSH1 0x40 MLOAD SWAP1 DUP1 DUP3 MSTORE DUP1 PUSH1 0x20 MUL PUSH1 0x20 ADD DUP3 ADD PUSH1 0x40 MSTORE DUP1 ISZERO PUSH3 0x1FAD JUMPI DUP2 PUSH1 0x20 ADD PUSH1 0x20 DUP3 MUL DUP1 CALLDATASIZE DUP4 CALLDATACOPY DUP1 DUP3 ADD SWAP2 POP POP SWAP1 POP JUMPDEST POP SWAP1 POP PUSH1 0x2 PUSH1 0x0 SWAP1 SLOAD SWAP1 PUSH2 0x100 EXP SWAP1 DIV PUSH20 0xFFFFFFFFFFFFFFFFFFFFFFFFFFFFFFFFFFFFFFFF AND DUP2 PUSH1 0x0 DUP2 MLOAD DUP2 LT PUSH3 0x1FEA JUMPI PUSH3 0x1FE9 PUSH3 0x72BB JUMP JUMPDEST JUMPDEST PUSH1 0x20 MUL PUSH1 0x20 ADD ADD SWAP1 PUSH20 0xFFFFFFFFFFFFFFFFFFFFFFFFFFFFFFFFFFFFFFFF AND SWAP1 DUP2 PUSH20 0xFFFFFFFFFFFFFFFFFFFFFFFFFFFFFFFFFFFFFFFF AND DUP2 MSTORE POP POP PUSH1 0x1 PUSH1 0x0 SWAP1 SLOAD SWAP1 PUSH2 0x100 EXP SWAP1 DIV PUSH20 0xFFFFFFFFFFFFFFFFFFFFFFFFFFFFFFFFFFFFFFFF AND PUSH20 0xFFFFFFFFFFFFFFFFFFFFFFFFFFFFFFFFFFFFFFFF AND PUSH4 0x4956219B DUP4 PUSH1 0x1 DUP5 PUSH1 0x40 MLOAD DUP5 PUSH4 0xFFFFFFFF AND PUSH1 0xE0 SHL DUP2 MSTORE PUSH1 0x4 ADD PUSH3 0x2086 SWAP4 SWAP3 SWAP2 SWAP1 PUSH3 0x609F JUMP JUMPDEST PUSH1 0x0 PUSH1 0x40 MLOAD DUP1 DUP4 SUB DUP2 PUSH1 0x0 DUP8 DUP1 EXTCODESIZE ISZERO DUP1 ISZERO PUSH3 0x20A1 JUMPI PUSH1 0x0 DUP1 REVERT JUMPDEST POP GAS CALL SWAP3 POP POP POP DUP1 ISZERO PUSH3 0x20B3 JUMPI POP PUSH1 0x1 JUMPDEST PUSH3 0x218E JUMPI PUSH3 0x20C2 PUSH3 0x7319 JUMP JUMPDEST DUP1 PUSH4 0x8C379A0 EQ ISZERO PUSH3 0x217C JUMPI POP PUSH3 0x20DA PUSH3 0x7724 JUMP JUMPDEST DUP1 PUSH3 0x20E7 JUMPI POP PUSH3 0x217E JUMP JUMPDEST PUSH20 0x0 PUSH4 0xE8C2CB16 DUP3 PUSH1 0x40 MLOAD DUP3 PUSH4 0xFFFFFFFF AND PUSH1 0xE0 SHL DUP2 MSTORE PUSH1 0x4 ADD PUSH3 0x2120 SWAP2 SWAP1 PUSH3 0x663F JUMP JUMPDEST PUSH1 0x20 PUSH1 0x40 MLOAD DUP1 DUP4 SUB DUP2 DUP7 DUP1 EXTCODESIZE ISZERO DUP1 ISZERO PUSH3 0x2139 JUMPI PUSH1 0x0 DUP1 REVERT JUMPDEST POP GAS DELEGATECALL ISZERO DUP1 ISZERO PUSH3 0x214E JUMPI RETURNDATASIZE PUSH1 0x0 DUP1 RETURNDATACOPY RETURNDATASIZE PUSH1 0x0 REVERT JUMPDEST POP POP POP POP PUSH1 0x40 MLOAD RETURNDATASIZE PUSH1 0x1F NOT PUSH1 0x1F DUP3 ADD AND DUP3 ADD DUP1 PUSH1 0x40 MSTORE POP DUP2 ADD SWAP1 PUSH3 0x2174 SWAP2 SWAP1 PUSH3 0x57A9 JUMP JUMPDEST POP POP PUSH3 0x2188 JUMP JUMPDEST POP JUMPDEST RETURNDATASIZE PUSH1 0x0 DUP1 RETURNDATACOPY RETURNDATASIZE PUSH1 0x0 REVERT JUMPDEST PUSH3 0x221E JUMP JUMPDEST PUSH20 0x0 PUSH4 0x39DF137F PUSH1 0x0 PUSH1 0x40 MLOAD DUP3 PUSH4 0xFFFFFFFF AND PUSH1 0xE0 SHL DUP2 MSTORE PUSH1 0x4 ADD PUSH3 0x21C8 SWAP2 SWAP1 PUSH3 0x5F2C JUMP JUMPDEST PUSH1 0x20 PUSH1 0x40 MLOAD DUP1 DUP4 SUB DUP2 DUP7 DUP1 EXTCODESIZE ISZERO DUP1 ISZERO PUSH3 0x21E1 JUMPI PUSH1 0x0 DUP1 REVERT JUMPDEST POP GAS DELEGATECALL ISZERO DUP1 ISZERO PUSH3 0x21F6 JUMPI RETURNDATASIZE PUSH1 0x0 DUP1 RETURNDATACOPY RETURNDATASIZE PUSH1 0x0 REVERT JUMPDEST POP POP POP POP PUSH1 0x40 MLOAD RETURNDATASIZE PUSH1 0x1F NOT PUSH1 0x1F DUP3 ADD AND DUP3 ADD DUP1 PUSH1 0x40 MSTORE POP DUP2 ADD SWAP1 PUSH3 0x221C SWAP2 SWAP1 PUSH3 0x57A9 JUMP JUMPDEST POP JUMPDEST PUSH1 0x1 PUSH1 0x0 SWAP1 SLOAD SWAP1 PUSH2 0x100 EXP SWAP1 DIV PUSH20 0xFFFFFFFFFFFFFFFFFFFFFFFFFFFFFFFFFFFFFFFF AND PUSH20 0xFFFFFFFFFFFFFFFFFFFFFFFFFFFFFFFFFFFFFFFF AND PUSH4 0x41E865CB DUP4 PUSH1 0x1 DUP5 PUSH1 0x40 MLOAD DUP5 PUSH4 0xFFFFFFFF AND PUSH1 0xE0 SHL DUP2 MSTORE PUSH1 0x4 ADD PUSH3 0x2280 SWAP4 SWAP3 SWAP2 SWAP1 PUSH3 0x609F JUMP JUMPDEST PUSH1 0x0 PUSH1 0x40 MLOAD DUP1 DUP4 SUB DUP2 PUSH1 0x0 DUP8 DUP1 EXTCODESIZE ISZERO DUP1 ISZERO PUSH3 0x229B JUMPI PUSH1 0x0 DUP1 REVERT JUMPDEST POP GAS CALL ISZERO DUP1 ISZERO PUSH3 0x22B0 JUMPI RETURNDATASIZE PUSH1 0x0 DUP1 RETURNDATACOPY RETURNDATASIZE PUSH1 0x0 REVERT JUMPDEST POP POP POP POP PUSH1 0x3 PUSH1 0x0 SWAP1 SLOAD SWAP1 PUSH2 0x100 EXP SWAP1 DIV PUSH20 0xFFFFFFFFFFFFFFFFFFFFFFFFFFFFFFFFFFFFFFFF AND DUP2 PUSH1 0x0 DUP2 MLOAD DUP2 LT PUSH3 0x22EE JUMPI PUSH3 0x22ED PUSH3 0x72BB JUMP JUMPDEST JUMPDEST PUSH1 0x20 MUL PUSH1 0x20 ADD ADD SWAP1 PUSH20 0xFFFFFFFFFFFFFFFFFFFFFFFFFFFFFFFFFFFFFFFF AND SWAP1 DUP2 PUSH20 0xFFFFFFFFFFFFFFFFFFFFFFFFFFFFFFFFFFFFFFFF AND DUP2 MSTORE POP POP PUSH1 0x1 PUSH1 0x0 SWAP1 SLOAD SWAP1 PUSH2 0x100 EXP SWAP1 DIV PUSH20 0xFFFFFFFFFFFFFFFFFFFFFFFFFFFFFFFFFFFFFFFF AND PUSH20 0xFFFFFFFFFFFFFFFFFFFFFFFFFFFFFFFFFFFFFFFF AND PUSH4 0x4956219B DUP4 PUSH1 0x1 DUP5 PUSH1 0x40 MLOAD DUP5 PUSH4 0xFFFFFFFF AND PUSH1 0xE0 SHL DUP2 MSTORE PUSH1 0x4 ADD PUSH3 0x238A SWAP4 SWAP3 SWAP2 SWAP1 PUSH3 0x609F JUMP JUMPDEST PUSH1 0x0 PUSH1 0x40 MLOAD DUP1 DUP4 SUB DUP2 PUSH1 0x0 DUP8 DUP1 EXTCODESIZE ISZERO DUP1 ISZERO PUSH3 0x23A5 JUMPI PUSH1 0x0 DUP1 REVERT JUMPDEST POP GAS CALL SWAP3 POP POP POP DUP1 ISZERO PUSH3 0x23B7 JUMPI POP PUSH1 0x1 JUMPDEST PUSH3 0x2492 JUMPI PUSH3 0x23C6 PUSH3 0x7319 JUMP JUMPDEST DUP1 PUSH4 0x8C379A0 EQ ISZERO PUSH3 0x2480 JUMPI POP PUSH3 0x23DE PUSH3 0x7724 JUMP JUMPDEST DUP1 PUSH3 0x23EB JUMPI POP PUSH3 0x2482 JUMP JUMPDEST PUSH20 0x0 PUSH4 0xE8C2CB16 DUP3 PUSH1 0x40 MLOAD DUP3 PUSH4 0xFFFFFFFF AND PUSH1 0xE0 SHL DUP2 MSTORE PUSH1 0x4 ADD PUSH3 0x2424 SWAP2 SWAP1 PUSH3 0x668D JUMP JUMPDEST PUSH1 0x20 PUSH1 0x40 MLOAD DUP1 DUP4 SUB DUP2 DUP7 DUP1 EXTCODESIZE ISZERO DUP1 ISZERO PUSH3 0x243D JUMPI PUSH1 0x0 DUP1 REVERT JUMPDEST POP GAS DELEGATECALL ISZERO DUP1 ISZERO PUSH3 0x2452 JUMPI RETURNDATASIZE PUSH1 0x0 DUP1 RETURNDATACOPY RETURNDATASIZE PUSH1 0x0 REVERT JUMPDEST POP POP POP POP PUSH1 0x40 MLOAD RETURNDATASIZE PUSH1 0x1F NOT PUSH1 0x1F DUP3 ADD AND DUP3 ADD DUP1 PUSH1 0x40 MSTORE POP DUP2 ADD SWAP1 PUSH3 0x2478 SWAP2 SWAP1 PUSH3 0x57A9 JUMP JUMPDEST POP POP PUSH3 0x248C JUMP JUMPDEST POP JUMPDEST RETURNDATASIZE PUSH1 0x0 DUP1 RETURNDATACOPY RETURNDATASIZE PUSH1 0x0 REVERT JUMPDEST PUSH3 0x2522 JUMP JUMPDEST PUSH20 0x0 PUSH4 0x39DF137F PUSH1 0x0 PUSH1 0x40 MLOAD DUP3 PUSH4 0xFFFFFFFF AND PUSH1 0xE0 SHL DUP2 MSTORE PUSH1 0x4 ADD PUSH3 0x24CC SWAP2 SWAP1 PUSH3 0x5F2C JUMP JUMPDEST PUSH1 0x20 PUSH1 0x40 MLOAD DUP1 DUP4 SUB DUP2 DUP7 DUP1 EXTCODESIZE ISZERO DUP1 ISZERO PUSH3 0x24E5 JUMPI PUSH1 0x0 DUP1 REVERT JUMPDEST POP GAS DELEGATECALL ISZERO DUP1 ISZERO PUSH3 0x24FA JUMPI RETURNDATASIZE PUSH1 0x0 DUP1 RETURNDATACOPY RETURNDATASIZE PUSH1 0x0 REVERT JUMPDEST POP POP POP POP PUSH1 0x40 MLOAD RETURNDATASIZE PUSH1 0x1F NOT PUSH1 0x1F DUP3 ADD AND DUP3 ADD DUP1 PUSH1 0x40 MSTORE POP DUP2 ADD SWAP1 PUSH3 0x2520 SWAP2 SWAP1 PUSH3 0x57A9 JUMP JUMPDEST POP JUMPDEST PUSH1 0x2 PUSH1 0x0 SWAP1 SLOAD SWAP1 PUSH2 0x100 EXP SWAP1 DIV PUSH20 0xFFFFFFFFFFFFFFFFFFFFFFFFFFFFFFFFFFFFFFFF AND DUP2 PUSH1 0x0 DUP2 MLOAD DUP2 LT PUSH3 0x255C JUMPI PUSH3 0x255B PUSH3 0x72BB JUMP JUMPDEST JUMPDEST PUSH1 0x20 MUL PUSH1 0x20 ADD ADD SWAP1 PUSH20 0xFFFFFFFFFFFFFFFFFFFFFFFFFFFFFFFFFFFFFFFF AND SWAP1 DUP2 PUSH20 0xFFFFFFFFFFFFFFFFFFFFFFFFFFFFFFFFFFFFFFFF AND DUP2 MSTORE POP POP PUSH1 0x1 PUSH1 0x0 SWAP1 SLOAD SWAP1 PUSH2 0x100 EXP SWAP1 DIV PUSH20 0xFFFFFFFFFFFFFFFFFFFFFFFFFFFFFFFFFFFFFFFF AND PUSH20 0xFFFFFFFFFFFFFFFFFFFFFFFFFFFFFFFFFFFFFFFF AND PUSH4 0x4956219B DUP4 PUSH1 0x1 DUP5 PUSH1 0x40 MLOAD DUP5 PUSH4 0xFFFFFFFF AND PUSH1 0xE0 SHL DUP2 MSTORE PUSH1 0x4 ADD PUSH3 0x25F8 SWAP4 SWAP3 SWAP2 SWAP1 PUSH3 0x609F JUMP JUMPDEST PUSH1 0x0 PUSH1 0x40 MLOAD DUP1 DUP4 SUB DUP2 PUSH1 0x0 DUP8 DUP1 EXTCODESIZE ISZERO DUP1 ISZERO PUSH3 0x2613 JUMPI PUSH1 0x0 DUP1 REVERT JUMPDEST POP GAS CALL ISZERO DUP1 ISZERO PUSH3 0x2628 JUMPI RETURNDATASIZE PUSH1 0x0 DUP1 RETURNDATACOPY RETURNDATASIZE PUSH1 0x0 REVERT JUMPDEST POP POP POP POP POP POP JUMP JUMPDEST JUMP JUMPDEST JUMP JUMPDEST PUSH1 0x1 PUSH1 0x0 SWAP1 SLOAD SWAP1 PUSH2 0x100 EXP SWAP1 DIV PUSH20 0xFFFFFFFFFFFFFFFFFFFFFFFFFFFFFFFFFFFFFFFF AND PUSH20 0xFFFFFFFFFFFFFFFFFFFFFFFFFFFFFFFFFFFFFFFF AND PUSH4 0x75CB2A0E PUSH32 0xA83DA95C058C118D61C20DBA7A15F44FA0A4C079EFF4CA94932F2BAF31135E09 PUSH1 0x40 MLOAD DUP3 PUSH4 0xFFFFFFFF AND PUSH1 0xE0 SHL DUP2 MSTORE PUSH1 0x4 ADD PUSH3 0x26B1 SWAP2 SWAP1 PUSH3 0x6993 JUMP JUMPDEST PUSH1 0x20 PUSH1 0x40 MLOAD DUP1 DUP4 SUB DUP2 PUSH1 0x0 DUP8 DUP1 EXTCODESIZE ISZERO DUP1 ISZERO PUSH3 0x26CC JUMPI PUSH1 0x0 DUP1 REVERT JUMPDEST POP GAS CALL ISZERO DUP1 ISZERO PUSH3 0x26E1 JUMPI RETURNDATASIZE PUSH1 0x0 DUP1 RETURNDATACOPY RETURNDATASIZE PUSH1 0x0 REVERT JUMPDEST POP POP POP POP PUSH1 0x40 MLOAD RETURNDATASIZE PUSH1 0x1F NOT PUSH1 0x1F DUP3 ADD AND DUP3 ADD DUP1 PUSH1 0x40 MSTORE POP DUP2 ADD SWAP1 PUSH3 0x2707 SWAP2 SWAP1 PUSH3 0x57DB JUMP JUMPDEST PUSH1 0x6 DUP2 SWAP1 SSTORE POP PUSH1 0x1 PUSH1 0x0 SWAP1 SLOAD SWAP1 PUSH2 0x100 EXP SWAP1 DIV PUSH20 0xFFFFFFFFFFFFFFFFFFFFFFFFFFFFFFFFFFFFFFFF AND PUSH20 0xFFFFFFFFFFFFFFFFFFFFFFFFFFFFFFFFFFFFFFFF AND PUSH4 0x57C91B95 PUSH1 0x6 SLOAD PUSH1 0x1 PUSH2 0xBB8 PUSH2 0x12C PUSH1 0x20 PUSH1 0x1 PUSH1 0x40 MLOAD DUP8 PUSH4 0xFFFFFFFF AND PUSH1 0xE0 SHL DUP2 MSTORE PUSH1 0x4 ADD PUSH3 0x277D SWAP7 SWAP6 SWAP5 SWAP4 SWAP3 SWAP2 SWAP1 PUSH3 0x62C8 JUMP JUMPDEST PUSH1 0x0 PUSH1 0x40 MLOAD DUP1 DUP4 SUB DUP2 PUSH1 0x0 DUP8 DUP1 EXTCODESIZE ISZERO DUP1 ISZERO PUSH3 0x2798 JUMPI PUSH1 0x0 DUP1 REVERT JUMPDEST POP GAS CALL ISZERO DUP1 ISZERO PUSH3 0x27AD JUMPI RETURNDATASIZE PUSH1 0x0 DUP1 RETURNDATACOPY RETURNDATASIZE PUSH1 0x0 REVERT JUMPDEST POP POP POP POP PUSH1 0x2 PUSH1 0x0 SWAP1 SLOAD SWAP1 PUSH2 0x100 EXP SWAP1 DIV PUSH20 0xFFFFFFFFFFFFFFFFFFFFFFFFFFFFFFFFFFFFFFFF AND PUSH20 0xFFFFFFFFFFFFFFFFFFFFFFFFFFFFFFFFFFFFFFFF AND PUSH4 0xBDF666A4 PUSH1 0x6 SLOAD PUSH1 0x1 PUSH32 0xE83DA96C058C118D61C20DBA7A15F44FA0A4C079EFF4CA94932F2BAF31135E01 PUSH32 0xE83DA96C058C118D61C20DBA7A15F44FA0A4C079EFF4CA94932F2BAF31135E02 PUSH1 0x40 MLOAD DUP6 PUSH4 0xFFFFFFFF AND PUSH1 0xE0 SHL DUP2 MSTORE PUSH1 0x4 ADD PUSH3 0x2857 SWAP5 SWAP4 SWAP3 SWAP2 SWAP1 PUSH3 0x61C1 JUMP JUMPDEST PUSH1 0x20 PUSH1 0x40 MLOAD DUP1 DUP4 SUB DUP2 PUSH1 0x0 DUP8 DUP1 EXTCODESIZE ISZERO DUP1 ISZERO PUSH3 0x2872 JUMPI PUSH1 0x0 DUP1 REVERT JUMPDEST POP GAS CALL ISZERO DUP1 ISZERO PUSH3 0x2887 JUMPI RETURNDATASIZE PUSH1 0x0 DUP1 RETURNDATACOPY RETURNDATASIZE PUSH1 0x0 REVERT JUMPDEST POP POP POP POP PUSH1 0x40 MLOAD RETURNDATASIZE PUSH1 0x1F NOT PUSH1 0x1F DUP3 ADD AND DUP3 ADD DUP1 PUSH1 0x40 MSTORE POP DUP2 ADD SWAP1 PUSH3 0x28AD SWAP2 SWAP1 PUSH3 0x57A9 JUMP JUMPDEST POP PUSH1 0x0 PUSH1 0x1 PUSH8 0xFFFFFFFFFFFFFFFF DUP2 GT ISZERO PUSH3 0x28CE JUMPI PUSH3 0x28CD PUSH3 0x72EA JUMP JUMPDEST JUMPDEST PUSH1 0x40 MLOAD SWAP1 DUP1 DUP3 MSTORE DUP1 PUSH1 0x20 MUL PUSH1 0x20 ADD DUP3 ADD PUSH1 0x40 MSTORE DUP1 ISZERO PUSH3 0x28FD JUMPI DUP2 PUSH1 0x20 ADD PUSH1 0x20 DUP3 MUL DUP1 CALLDATASIZE DUP4 CALLDATACOPY DUP1 DUP3 ADD SWAP2 POP POP SWAP1 POP JUMPDEST POP SWAP1 POP PUSH1 0x2 PUSH1 0x0 SWAP1 SLOAD SWAP1 PUSH2 0x100 EXP SWAP1 DIV PUSH20 0xFFFFFFFFFFFFFFFFFFFFFFFFFFFFFFFFFFFFFFFF AND DUP2 PUSH1 0x0 DUP2 MLOAD DUP2 LT PUSH3 0x293A JUMPI PUSH3 0x2939 PUSH3 0x72BB JUMP JUMPDEST JUMPDEST PUSH1 0x20 MUL PUSH1 0x20 ADD ADD SWAP1 PUSH20 0xFFFFFFFFFFFFFFFFFFFFFFFFFFFFFFFFFFFFFFFF AND SWAP1 DUP2 PUSH20 0xFFFFFFFFFFFFFFFFFFFFFFFFFFFFFFFFFFFFFFFF AND DUP2 MSTORE POP POP PUSH1 0x1 PUSH1 0x0 SWAP1 SLOAD SWAP1 PUSH2 0x100 EXP SWAP1 DIV PUSH20 0xFFFFFFFFFFFFFFFFFFFFFFFFFFFFFFFFFFFFFFFF AND PUSH20 0xFFFFFFFFFFFFFFFFFFFFFFFFFFFFFFFFFFFFFFFF AND PUSH4 0x41E865CB PUSH1 0x6 SLOAD PUSH1 0x1 DUP5 PUSH1 0x40 MLOAD DUP5 PUSH4 0xFFFFFFFF AND PUSH1 0xE0 SHL DUP2 MSTORE PUSH1 0x4 ADD PUSH3 0x29D8 SWAP4 SWAP3 SWAP2 SWAP1 PUSH3 0x609F JUMP JUMPDEST PUSH1 0x0 PUSH1 0x40 MLOAD DUP1 DUP4 SUB DUP2 PUSH1 0x0 DUP8 DUP1 EXTCODESIZE ISZERO DUP1 ISZERO PUSH3 0x29F3 JUMPI PUSH1 0x0 DUP1 REVERT JUMPDEST POP GAS CALL ISZERO DUP1 ISZERO PUSH3 0x2A08 JUMPI RETURNDATASIZE PUSH1 0x0 DUP1 RETURNDATACOPY RETURNDATASIZE PUSH1 0x0 REVERT JUMPDEST POP POP POP POP POP JUMP JUMPDEST PUSH1 0x0 PUSH1 0x1 PUSH1 0x0 SWAP1 SLOAD SWAP1 PUSH2 0x100 EXP SWAP1 DIV PUSH20 0xFFFFFFFFFFFFFFFFFFFFFFFFFFFFFFFFFFFFFFFF AND PUSH20 0xFFFFFFFFFFFFFFFFFFFFFFFFFFFFFFFFFFFFFFFF AND PUSH4 0x75CB2A0E PUSH32 0xD83DA95C058C118D61C20DBA7A15F44FA0A4C079EFF4CA94932F2BAF31135E02 PUSH1 0x40 MLOAD DUP3 PUSH4 0xFFFFFFFF AND PUSH1 0xE0 SHL DUP2 MSTORE PUSH1 0x4 ADD PUSH3 0x2A8E SWAP2 SWAP1 PUSH3 0x6A29 JUMP JUMPDEST PUSH1 0x20 PUSH1 0x40 MLOAD DUP1 DUP4 SUB DUP2 PUSH1 0x0 DUP8 DUP1 EXTCODESIZE ISZERO DUP1 ISZERO PUSH3 0x2AA9 JUMPI PUSH1 0x0 DUP1 REVERT JUMPDEST POP GAS CALL ISZERO DUP1 ISZERO PUSH3 0x2ABE JUMPI RETURNDATASIZE PUSH1 0x0 DUP1 RETURNDATACOPY RETURNDATASIZE PUSH1 0x0 REVERT JUMPDEST POP POP POP POP PUSH1 0x40 MLOAD RETURNDATASIZE PUSH1 0x1F NOT PUSH1 0x1F DUP3 ADD AND DUP3 ADD DUP1 PUSH1 0x40 MSTORE POP DUP2 ADD SWAP1 PUSH3 0x2AE4 SWAP2 SWAP1 PUSH3 0x57DB JUMP JUMPDEST SWAP1 POP PUSH1 0x1 PUSH1 0x0 SWAP1 SLOAD SWAP1 PUSH2 0x100 EXP SWAP1 DIV PUSH20 0xFFFFFFFFFFFFFFFFFFFFFFFFFFFFFFFFFFFFFFFF AND PUSH20 0xFFFFFFFFFFFFFFFFFFFFFFFFFFFFFFFFFFFFFFFF AND PUSH4 0x57C91B95 DUP3 PUSH1 0x1 PUSH2 0xBB8 PUSH2 0x12C PUSH1 0x20 DUP1 PUSH1 0x40 MLOAD DUP8 PUSH4 0xFFFFFFFF AND PUSH1 0xE0 SHL DUP2 MSTORE PUSH1 0x4 ADD PUSH3 0x2B53 SWAP7 SWAP6 SWAP5 SWAP4 SWAP3 SWAP2 SWAP1 PUSH3 0x6335 JUMP JUMPDEST PUSH1 0x0 PUSH1 0x40 MLOAD DUP1 DUP4 SUB DUP2 PUSH1 0x0 DUP8 DUP1 EXTCODESIZE ISZERO DUP1 ISZERO PUSH3 0x2B6E JUMPI PUSH1 0x0 DUP1 REVERT JUMPDEST POP GAS CALL ISZERO DUP1 ISZERO PUSH3 0x2B83 JUMPI RETURNDATASIZE PUSH1 0x0 DUP1 RETURNDATACOPY RETURNDATASIZE PUSH1 0x0 REVERT JUMPDEST POP POP POP POP PUSH1 0x2 PUSH1 0x0 SWAP1 SLOAD SWAP1 PUSH2 0x100 EXP SWAP1 DIV PUSH20 0xFFFFFFFFFFFFFFFFFFFFFFFFFFFFFFFFFFFFFFFF AND PUSH20 0xFFFFFFFFFFFFFFFFFFFFFFFFFFFFFFFFFFFFFFFF AND PUSH4 0xBDF666A4 PUSH32 0xD83DA95C058C118D61C20DBA7A15F44FA0A4C079EFF4CA94932F2BAF31135E00 PUSH1 0x1 PUSH32 0xD83DA95C058C118D61C20DBA7A15F44FA0A4C079EFF4CA94932F2BAF31135E00 PUSH32 0xD83DA95C058C118D61C20DBA7A15F44FA0A4C079EFF4CA94932F2BAF31135E02 PUSH1 0x40 MLOAD DUP6 PUSH4 0xFFFFFFFF AND PUSH1 0xE0 SHL DUP2 MSTORE PUSH1 0x4 ADD PUSH3 0x2C4B SWAP5 SWAP4 SWAP3 SWAP2 SWAP1 PUSH3 0x6508 JUMP JUMPDEST PUSH1 0x20 PUSH1 0x40 MLOAD DUP1 DUP4 SUB DUP2 PUSH1 0x0 DUP8 DUP1 EXTCODESIZE ISZERO DUP1 ISZERO PUSH3 0x2C66 JUMPI PUSH1 0x0 DUP1 REVERT JUMPDEST POP GAS CALL SWAP3 POP POP POP DUP1 ISZERO PUSH3 0x2C9A JUMPI POP PUSH1 0x40 MLOAD RETURNDATASIZE PUSH1 0x1F NOT PUSH1 0x1F DUP3 ADD AND DUP3 ADD DUP1 PUSH1 0x40 MSTORE POP DUP2 ADD SWAP1 PUSH3 0x2C97 SWAP2 SWAP1 PUSH3 0x57A9 JUMP JUMPDEST PUSH1 0x1 JUMPDEST PUSH3 0x2D75 JUMPI PUSH3 0x2CA9 PUSH3 0x7319 JUMP JUMPDEST DUP1 PUSH4 0x8C379A0 EQ ISZERO PUSH3 0x2D63 JUMPI POP PUSH3 0x2CC1 PUSH3 0x7724 JUMP JUMPDEST DUP1 PUSH3 0x2CCE JUMPI POP PUSH3 0x2D65 JUMP JUMPDEST PUSH20 0x0 PUSH4 0xE8C2CB16 DUP3 PUSH1 0x40 MLOAD DUP3 PUSH4 0xFFFFFFFF AND PUSH1 0xE0 SHL DUP2 MSTORE PUSH1 0x4 ADD PUSH3 0x2D07 SWAP2 SWAP1 PUSH3 0x6861 JUMP JUMPDEST PUSH1 0x20 PUSH1 0x40 MLOAD DUP1 DUP4 SUB DUP2 DUP7 DUP1 EXTCODESIZE ISZERO DUP1 ISZERO PUSH3 0x2D20 JUMPI PUSH1 0x0 DUP1 REVERT JUMPDEST POP GAS DELEGATECALL ISZERO DUP1 ISZERO PUSH3 0x2D35 JUMPI RETURNDATASIZE PUSH1 0x0 DUP1 RETURNDATACOPY RETURNDATASIZE PUSH1 0x0 REVERT JUMPDEST POP POP POP POP PUSH1 0x40 MLOAD RETURNDATASIZE PUSH1 0x1F NOT PUSH1 0x1F DUP3 ADD AND DUP3 ADD DUP1 PUSH1 0x40 MSTORE POP DUP2 ADD SWAP1 PUSH3 0x2D5B SWAP2 SWAP1 PUSH3 0x57A9 JUMP JUMPDEST POP POP PUSH3 0x2D6F JUMP JUMPDEST POP JUMPDEST RETURNDATASIZE PUSH1 0x0 DUP1 RETURNDATACOPY RETURNDATASIZE PUSH1 0x0 REVERT JUMPDEST PUSH3 0x2E06 JUMP JUMPDEST POP PUSH20 0x0 PUSH4 0x39DF137F PUSH1 0x0 PUSH1 0x40 MLOAD DUP3 PUSH4 0xFFFFFFFF AND PUSH1 0xE0 SHL DUP2 MSTORE PUSH1 0x4 ADD PUSH3 0x2DB0 SWAP2 SWAP1 PUSH3 0x5F2C JUMP JUMPDEST PUSH1 0x20 PUSH1 0x40 MLOAD DUP1 DUP4 SUB DUP2 DUP7 DUP1 EXTCODESIZE ISZERO DUP1 ISZERO PUSH3 0x2DC9 JUMPI PUSH1 0x0 DUP1 REVERT JUMPDEST POP GAS DELEGATECALL ISZERO DUP1 ISZERO PUSH3 0x2DDE JUMPI RETURNDATASIZE PUSH1 0x0 DUP1 RETURNDATACOPY RETURNDATASIZE PUSH1 0x0 REVERT JUMPDEST POP POP POP POP PUSH1 0x40 MLOAD RETURNDATASIZE PUSH1 0x1F NOT PUSH1 0x1F DUP3 ADD AND DUP3 ADD DUP1 PUSH1 0x40 MSTORE POP DUP2 ADD SWAP1 PUSH3 0x2E04 SWAP2 SWAP1 PUSH3 0x57A9 JUMP JUMPDEST POP JUMPDEST PUSH1 0x2 PUSH1 0x0 SWAP1 SLOAD SWAP1 PUSH2 0x100 EXP SWAP1 DIV PUSH20 0xFFFFFFFFFFFFFFFFFFFFFFFFFFFFFFFFFFFFFFFF AND PUSH20 0xFFFFFFFFFFFFFFFFFFFFFFFFFFFFFFFFFFFFFFFF AND PUSH4 0xBDF666A4 DUP3 PUSH1 0x0 PUSH32 0xD83DA95C058C118D61C20DBA7A15F44FA0A4C079EFF4CA94932F2BAF31135E00 PUSH32 0xD83DA95C058C118D61C20DBA7A15F44FA0A4C079EFF4CA94932F2BAF31135E02 PUSH1 0x40 MLOAD DUP6 PUSH4 0xFFFFFFFF AND PUSH1 0xE0 SHL DUP2 MSTORE PUSH1 0x4 ADD PUSH3 0x2EAA SWAP5 SWAP4 SWAP3 SWAP2 SWAP1 PUSH3 0x6025 JUMP JUMPDEST PUSH1 0x20 PUSH1 0x40 MLOAD DUP1 DUP4 SUB DUP2 PUSH1 0x0 DUP8 DUP1 EXTCODESIZE ISZERO DUP1 ISZERO PUSH3 0x2EC5 JUMPI PUSH1 0x0 DUP1 REVERT JUMPDEST POP GAS CALL SWAP3 POP POP POP DUP1 ISZERO PUSH3 0x2EF9 JUMPI POP PUSH1 0x40 MLOAD RETURNDATASIZE PUSH1 0x1F NOT PUSH1 0x1F DUP3 ADD AND DUP3 ADD DUP1 PUSH1 0x40 MSTORE POP DUP2 ADD SWAP1 PUSH3 0x2EF6 SWAP2 SWAP1 PUSH3 0x57A9 JUMP JUMPDEST PUSH1 0x1 JUMPDEST PUSH3 0x2FD4 JUMPI PUSH3 0x2F08 PUSH3 0x7319 JUMP JUMPDEST DUP1 PUSH4 0x8C379A0 EQ ISZERO PUSH3 0x2FC2 JUMPI POP PUSH3 0x2F20 PUSH3 0x7724 JUMP JUMPDEST DUP1 PUSH3 0x2F2D JUMPI POP PUSH3 0x2FC4 JUMP JUMPDEST PUSH20 0x0 PUSH4 0xE8C2CB16 DUP3 PUSH1 0x40 MLOAD DUP3 PUSH4 0xFFFFFFFF AND PUSH1 0xE0 SHL DUP2 MSTORE PUSH1 0x4 ADD PUSH3 0x2F66 SWAP2 SWAP1 PUSH3 0x67C5 JUMP JUMPDEST PUSH1 0x20 PUSH1 0x40 MLOAD DUP1 DUP4 SUB DUP2 DUP7 DUP1 EXTCODESIZE ISZERO DUP1 ISZERO PUSH3 0x2F7F JUMPI PUSH1 0x0 DUP1 REVERT JUMPDEST POP GAS DELEGATECALL ISZERO DUP1 ISZERO PUSH3 0x2F94 JUMPI RETURNDATASIZE PUSH1 0x0 DUP1 RETURNDATACOPY RETURNDATASIZE PUSH1 0x0 REVERT JUMPDEST POP POP POP POP PUSH1 0x40 MLOAD RETURNDATASIZE PUSH1 0x1F NOT PUSH1 0x1F DUP3 ADD AND DUP3 ADD DUP1 PUSH1 0x40 MSTORE POP DUP2 ADD SWAP1 PUSH3 0x2FBA SWAP2 SWAP1 PUSH3 0x57A9 JUMP JUMPDEST POP POP PUSH3 0x2FCE JUMP JUMPDEST POP JUMPDEST RETURNDATASIZE PUSH1 0x0 DUP1 RETURNDATACOPY RETURNDATASIZE PUSH1 0x0 REVERT JUMPDEST PUSH3 0x3065 JUMP JUMPDEST POP PUSH20 0x0 PUSH4 0x39DF137F PUSH1 0x0 PUSH1 0x40 MLOAD DUP3 PUSH4 0xFFFFFFFF AND PUSH1 0xE0 SHL DUP2 MSTORE PUSH1 0x4 ADD PUSH3 0x300F SWAP2 SWAP1 PUSH3 0x5F2C JUMP JUMPDEST PUSH1 0x20 PUSH1 0x40 MLOAD DUP1 DUP4 SUB DUP2 DUP7 DUP1 EXTCODESIZE ISZERO DUP1 ISZERO PUSH3 0x3028 JUMPI PUSH1 0x0 DUP1 REVERT JUMPDEST POP GAS DELEGATECALL ISZERO DUP1 ISZERO PUSH3 0x303D JUMPI RETURNDATASIZE PUSH1 0x0 DUP1 RETURNDATACOPY RETURNDATASIZE PUSH1 0x0 REVERT JUMPDEST POP POP POP POP PUSH1 0x40 MLOAD RETURNDATASIZE PUSH1 0x1F NOT PUSH1 0x1F DUP3 ADD AND DUP3 ADD DUP1 PUSH1 0x40 MSTORE POP DUP2 ADD SWAP1 PUSH3 0x3063 SWAP2 SWAP1 PUSH3 0x57A9 JUMP JUMPDEST POP JUMPDEST PUSH1 0x2 PUSH1 0x0 SWAP1 SLOAD SWAP1 PUSH2 0x100 EXP SWAP1 DIV PUSH20 0xFFFFFFFFFFFFFFFFFFFFFFFFFFFFFFFFFFFFFFFF AND PUSH20 0xFFFFFFFFFFFFFFFFFFFFFFFFFFFFFFFFFFFFFFFF AND PUSH4 0xBDF666A4 DUP3 PUSH1 0x1 PUSH32 0xD83DA95C058C118D61C20DBA7A15F44FA0A4C079EFF4CA94932F2BAF31135E00 PUSH32 0xD83DA95C058C118D61C20DBA7A15F44FA0A4C079EFF4CA94932F2BAF31135E02 PUSH1 0x40 MLOAD DUP6 PUSH4 0xFFFFFFFF AND PUSH1 0xE0 SHL DUP2 MSTORE PUSH1 0x4 ADD PUSH3 0x3109 SWAP5 SWAP4 SWAP3 SWAP2 SWAP1 PUSH3 0x63A2 JUMP JUMPDEST PUSH1 0x20 PUSH1 0x40 MLOAD DUP1 DUP4 SUB DUP2 PUSH1 0x0 DUP8 DUP1 EXTCODESIZE ISZERO DUP1 ISZERO PUSH3 0x3124 JUMPI PUSH1 0x0 DUP1 REVERT JUMPDEST POP GAS CALL ISZERO DUP1 ISZERO PUSH3 0x3139 JUMPI RETURNDATASIZE PUSH1 0x0 DUP1 RETURNDATACOPY RETURNDATASIZE PUSH1 0x0 REVERT JUMPDEST POP POP POP POP PUSH1 0x40 MLOAD RETURNDATASIZE PUSH1 0x1F NOT PUSH1 0x1F DUP3 ADD AND DUP3 ADD DUP1 PUSH1 0x40 MSTORE POP DUP2 ADD SWAP1 PUSH3 0x315F SWAP2 SWAP1 PUSH3 0x57A9 JUMP JUMPDEST POP PUSH1 0x2 PUSH1 0x0 SWAP1 SLOAD SWAP1 PUSH2 0x100 EXP SWAP1 DIV PUSH20 0xFFFFFFFFFFFFFFFFFFFFFFFFFFFFFFFFFFFFFFFF AND PUSH20 0xFFFFFFFFFFFFFFFFFFFFFFFFFFFFFFFFFFFFFFFF AND PUSH4 0xBDF666A4 DUP3 PUSH1 0x1 PUSH32 0xE83DA95C058C118D61C20DBA7A15F44FA0A4C079EFF4CA94932F2BAF31135E00 PUSH32 0xE83DA95C058C118D61C20DBA7A15F44FA0A4C079EFF4CA94932F2BAF31135E02 PUSH1 0x40 MLOAD DUP6 PUSH4 0xFFFFFFFF AND PUSH1 0xE0 SHL DUP2 MSTORE PUSH1 0x4 ADD PUSH3 0x3204 SWAP5 SWAP4 SWAP3 SWAP2 SWAP1 PUSH3 0x6127 JUMP JUMPDEST PUSH1 0x20 PUSH1 0x40 MLOAD DUP1 DUP4 SUB DUP2 PUSH1 0x0 DUP8 DUP1 EXTCODESIZE ISZERO DUP1 ISZERO PUSH3 0x321F JUMPI PUSH1 0x0 DUP1 REVERT JUMPDEST POP GAS CALL SWAP3 POP POP POP DUP1 ISZERO PUSH3 0x3253 JUMPI POP PUSH1 0x40 MLOAD RETURNDATASIZE PUSH1 0x1F NOT PUSH1 0x1F DUP3 ADD AND DUP3 ADD DUP1 PUSH1 0x40 MSTORE POP DUP2 ADD SWAP1 PUSH3 0x3250 SWAP2 SWAP1 PUSH3 0x57A9 JUMP JUMPDEST PUSH1 0x1 JUMPDEST PUSH3 0x332E JUMPI PUSH3 0x3262 PUSH3 0x7319 JUMP JUMPDEST DUP1 PUSH4 0x8C379A0 EQ ISZERO PUSH3 0x331C JUMPI POP PUSH3 0x327A PUSH3 0x7724 JUMP JUMPDEST DUP1 PUSH3 0x3287 JUMPI POP PUSH3 0x331E JUMP JUMPDEST PUSH20 0x0 PUSH4 0xE8C2CB16 DUP3 PUSH1 0x40 MLOAD DUP3 PUSH4 0xFFFFFFFF AND PUSH1 0xE0 SHL DUP2 MSTORE PUSH1 0x4 ADD PUSH3 0x32C0 SWAP2 SWAP1 PUSH3 0x66DB JUMP JUMPDEST PUSH1 0x20 PUSH1 0x40 MLOAD DUP1 DUP4 SUB DUP2 DUP7 DUP1 EXTCODESIZE ISZERO DUP1 ISZERO PUSH3 0x32D9 JUMPI PUSH1 0x0 DUP1 REVERT JUMPDEST POP GAS DELEGATECALL ISZERO DUP1 ISZERO PUSH3 0x32EE JUMPI RETURNDATASIZE PUSH1 0x0 DUP1 RETURNDATACOPY RETURNDATASIZE PUSH1 0x0 REVERT JUMPDEST POP POP POP POP PUSH1 0x40 MLOAD RETURNDATASIZE PUSH1 0x1F NOT PUSH1 0x1F DUP3 ADD AND DUP3 ADD DUP1 PUSH1 0x40 MSTORE POP DUP2 ADD SWAP1 PUSH3 0x3314 SWAP2 SWAP1 PUSH3 0x57A9 JUMP JUMPDEST POP POP PUSH3 0x3328 JUMP JUMPDEST POP JUMPDEST RETURNDATASIZE PUSH1 0x0 DUP1 RETURNDATACOPY RETURNDATASIZE PUSH1 0x0 REVERT JUMPDEST PUSH3 0x33BF JUMP JUMPDEST POP PUSH20 0x0 PUSH4 0x39DF137F PUSH1 0x0 PUSH1 0x40 MLOAD DUP3 PUSH4 0xFFFFFFFF AND PUSH1 0xE0 SHL DUP2 MSTORE PUSH1 0x4 ADD PUSH3 0x3369 SWAP2 SWAP1 PUSH3 0x5F2C JUMP JUMPDEST PUSH1 0x20 PUSH1 0x40 MLOAD DUP1 DUP4 SUB DUP2 DUP7 DUP1 EXTCODESIZE ISZERO DUP1 ISZERO PUSH3 0x3382 JUMPI PUSH1 0x0 DUP1 REVERT JUMPDEST POP GAS DELEGATECALL ISZERO DUP1 ISZERO PUSH3 0x3397 JUMPI RETURNDATASIZE PUSH1 0x0 DUP1 RETURNDATACOPY RETURNDATASIZE PUSH1 0x0 REVERT JUMPDEST POP POP POP POP PUSH1 0x40 MLOAD RETURNDATASIZE PUSH1 0x1F NOT PUSH1 0x1F DUP3 ADD AND DUP3 ADD DUP1 PUSH1 0x40 MSTORE POP DUP2 ADD SWAP1 PUSH3 0x33BD SWAP2 SWAP1 PUSH3 0x57A9 JUMP JUMPDEST POP JUMPDEST POP JUMP JUMPDEST PUSH1 0x40 MLOAD PUSH3 0x33D0 SWAP1 PUSH3 0x53A1 JUMP JUMPDEST PUSH1 0x40 MLOAD DUP1 SWAP2 SUB SWAP1 PUSH1 0x0 CREATE DUP1 ISZERO DUP1 ISZERO PUSH3 0x33ED JUMPI RETURNDATASIZE PUSH1 0x0 DUP1 RETURNDATACOPY RETURNDATASIZE PUSH1 0x0 REVERT JUMPDEST POP PUSH1 0x0 DUP1 PUSH2 0x100 EXP DUP2 SLOAD DUP2 PUSH20 0xFFFFFFFFFFFFFFFFFFFFFFFFFFFFFFFFFFFFFFFF MUL NOT AND SWAP1 DUP4 PUSH20 0xFFFFFFFFFFFFFFFFFFFFFFFFFFFFFFFFFFFFFFFF AND MUL OR SWAP1 SSTORE POP PUSH1 0x0 DUP1 SLOAD SWAP1 PUSH2 0x100 EXP SWAP1 DIV PUSH20 0xFFFFFFFFFFFFFFFFFFFFFFFFFFFFFFFFFFFFFFFF AND PUSH1 0x40 MLOAD PUSH3 0x345C SWAP1 PUSH3 0x53AF JUMP JUMPDEST PUSH3 0x3468 SWAP2 SWAP1 PUSH3 0x647E JUMP JUMPDEST PUSH1 0x40 MLOAD DUP1 SWAP2 SUB SWAP1 PUSH1 0x0 CREATE DUP1 ISZERO DUP1 ISZERO PUSH3 0x3485 JUMPI RETURNDATASIZE PUSH1 0x0 DUP1 RETURNDATACOPY RETURNDATASIZE PUSH1 0x0 REVERT JUMPDEST POP PUSH1 0x1 PUSH1 0x0 PUSH2 0x100 EXP DUP2 SLOAD DUP2 PUSH20 0xFFFFFFFFFFFFFFFFFFFFFFFFFFFFFFFFFFFFFFFF MUL NOT AND SWAP1 DUP4 PUSH20 0xFFFFFFFFFFFFFFFFFFFFFFFFFFFFFFFFFFFFFFFF AND MUL OR SWAP1 SSTORE POP PUSH1 0x0 DUP1 SLOAD SWAP1 PUSH2 0x100 EXP SWAP1 DIV PUSH20 0xFFFFFFFFFFFFFFFFFFFFFFFFFFFFFFFFFFFFFFFF AND PUSH1 0x40 MLOAD PUSH3 0x34F5 SWAP1 PUSH3 0x53AF JUMP JUMPDEST PUSH3 0x3501 SWAP2 SWAP1 PUSH3 0x647E JUMP JUMPDEST PUSH1 0x40 MLOAD DUP1 SWAP2 SUB SWAP1 PUSH1 0x0 CREATE DUP1 ISZERO DUP1 ISZERO PUSH3 0x351E JUMPI RETURNDATASIZE PUSH1 0x0 DUP1 RETURNDATACOPY RETURNDATASIZE PUSH1 0x0 REVERT JUMPDEST POP PUSH1 0x2 PUSH1 0x0 PUSH2 0x100 EXP DUP2 SLOAD DUP2 PUSH20 0xFFFFFFFFFFFFFFFFFFFFFFFFFFFFFFFFFFFFFFFF MUL NOT AND SWAP1 DUP4 PUSH20 0xFFFFFFFFFFFFFFFFFFFFFFFFFFFFFFFFFFFFFFFF AND MUL OR SWAP1 SSTORE POP PUSH1 0x0 DUP1 SLOAD SWAP1 PUSH2 0x100 EXP SWAP1 DIV PUSH20 0xFFFFFFFFFFFFFFFFFFFFFFFFFFFFFFFFFFFFFFFF AND PUSH1 0x40 MLOAD PUSH3 0x358E SWAP1 PUSH3 0x53AF JUMP JUMPDEST PUSH3 0x359A SWAP2 SWAP1 PUSH3 0x647E JUMP JUMPDEST PUSH1 0x40 MLOAD DUP1 SWAP2 SUB SWAP1 PUSH1 0x0 CREATE DUP1 ISZERO DUP1 ISZERO PUSH3 0x35B7 JUMPI RETURNDATASIZE PUSH1 0x0 DUP1 RETURNDATACOPY RETURNDATASIZE PUSH1 0x0 REVERT JUMPDEST POP PUSH1 0x3 PUSH1 0x0 PUSH2 0x100 EXP DUP2 SLOAD DUP2 PUSH20 0xFFFFFFFFFFFFFFFFFFFFFFFFFFFFFFFFFFFFFFFF MUL NOT AND SWAP1 DUP4 PUSH20 0xFFFFFFFFFFFFFFFFFFFFFFFFFFFFFFFFFFFFFFFF AND MUL OR SWAP1 SSTORE POP PUSH1 0x0 DUP1 SLOAD SWAP1 PUSH2 0x100 EXP SWAP1 DIV PUSH20 0xFFFFFFFFFFFFFFFFFFFFFFFFFFFFFFFFFFFFFFFF AND PUSH1 0x40 MLOAD PUSH3 0x3627 SWAP1 PUSH3 0x53AF JUMP JUMPDEST PUSH3 0x3633 SWAP2 SWAP1 PUSH3 0x647E JUMP JUMPDEST PUSH1 0x40 MLOAD DUP1 SWAP2 SUB SWAP1 PUSH1 0x0 CREATE DUP1 ISZERO DUP1 ISZERO PUSH3 0x3650 JUMPI RETURNDATASIZE PUSH1 0x0 DUP1 RETURNDATACOPY RETURNDATASIZE PUSH1 0x0 REVERT JUMPDEST POP PUSH1 0x4 PUSH1 0x0 PUSH2 0x100 EXP DUP2 SLOAD DUP2 PUSH20 0xFFFFFFFFFFFFFFFFFFFFFFFFFFFFFFFFFFFFFFFF MUL NOT AND SWAP1 DUP4 PUSH20 0xFFFFFFFFFFFFFFFFFFFFFFFFFFFFFFFFFFFFFFFF AND MUL OR SWAP1 SSTORE POP JUMP JUMPDEST PUSH1 0x0 PUSH1 0x1 PUSH1 0x0 SWAP1 SLOAD SWAP1 PUSH2 0x100 EXP SWAP1 DIV PUSH20 0xFFFFFFFFFFFFFFFFFFFFFFFFFFFFFFFFFFFFFFFF AND PUSH20 0xFFFFFFFFFFFFFFFFFFFFFFFFFFFFFFFFFFFFFFFF AND PUSH4 0x75CB2A0E PUSH32 0x183DA95C058C118D61C20DBA7A15F44FA0A4C079EFF4CA94932F2BAF31135E09 PUSH1 0x40 MLOAD DUP3 PUSH4 0xFFFFFFFF AND PUSH1 0xE0 SHL DUP2 MSTORE PUSH1 0x4 ADD PUSH3 0x3712 SWAP2 SWAP1 PUSH3 0x68FD JUMP JUMPDEST PUSH1 0x20 PUSH1 0x40 MLOAD DUP1 DUP4 SUB DUP2 PUSH1 0x0 DUP8 DUP1 EXTCODESIZE ISZERO DUP1 ISZERO PUSH3 0x372D JUMPI PUSH1 0x0 DUP1 REVERT JUMPDEST POP GAS CALL ISZERO DUP1 ISZERO PUSH3 0x3742 JUMPI RETURNDATASIZE PUSH1 0x0 DUP1 RETURNDATACOPY RETURNDATASIZE PUSH1 0x0 REVERT JUMPDEST POP POP POP POP PUSH1 0x40 MLOAD RETURNDATASIZE PUSH1 0x1F NOT PUSH1 0x1F DUP3 ADD AND DUP3 ADD DUP1 PUSH1 0x40 MSTORE POP DUP2 ADD SWAP1 PUSH3 0x3768 SWAP2 SWAP1 PUSH3 0x57DB JUMP JUMPDEST SWAP1 POP PUSH1 0x1 PUSH1 0x0 SWAP1 SLOAD SWAP1 PUSH2 0x100 EXP SWAP1 DIV PUSH20 0xFFFFFFFFFFFFFFFFFFFFFFFFFFFFFFFFFFFFFFFF AND PUSH20 0xFFFFFFFFFFFFFFFFFFFFFFFFFFFFFFFFFFFFFFFF AND PUSH4 0x57C91B95 DUP3 PUSH1 0x1 PUSH2 0xBB8 PUSH2 0x12C PUSH1 0x20 DUP1 PUSH1 0x40 MLOAD DUP8 PUSH4 0xFFFFFFFF AND PUSH1 0xE0 SHL DUP2 MSTORE PUSH1 0x4 ADD PUSH3 0x37D7 SWAP7 SWAP6 SWAP5 SWAP4 SWAP3 SWAP2 SWAP1 PUSH3 0x6335 JUMP JUMPDEST PUSH1 0x0 PUSH1 0x40 MLOAD DUP1 DUP4 SUB DUP2 PUSH1 0x0 DUP8 DUP1 EXTCODESIZE ISZERO DUP1 ISZERO PUSH3 0x37F2 JUMPI PUSH1 0x0 DUP1 REVERT JUMPDEST POP GAS CALL ISZERO DUP1 ISZERO PUSH3 0x3807 JUMPI RETURNDATASIZE PUSH1 0x0 DUP1 RETURNDATACOPY RETURNDATASIZE PUSH1 0x0 REVERT JUMPDEST POP POP POP POP PUSH1 0x2 PUSH1 0x0 SWAP1 SLOAD SWAP1 PUSH2 0x100 EXP SWAP1 DIV PUSH20 0xFFFFFFFFFFFFFFFFFFFFFFFFFFFFFFFFFFFFFFFF AND PUSH20 0xFFFFFFFFFFFFFFFFFFFFFFFFFFFFFFFFFFFFFFFF AND PUSH4 0xBDF666A4 DUP3 PUSH1 0x1 PUSH32 0xE83DA96C058C118D61C20DBA7A15F44FA0A4C079EFF4CA94932F2BAF31135E01 PUSH32 0xE83DA96C058C118D61C20DBA7A15F44FA0A4C079EFF4CA94932F2BAF31135E02 PUSH1 0x40 MLOAD DUP6 PUSH4 0xFFFFFFFF AND PUSH1 0xE0 SHL DUP2 MSTORE PUSH1 0x4 ADD PUSH3 0x38AF SWAP5 SWAP4 SWAP3 SWAP2 SWAP1 PUSH3 0x61C1 JUMP JUMPDEST PUSH1 0x20 PUSH1 0x40 MLOAD DUP1 DUP4 SUB DUP2 PUSH1 0x0 DUP8 DUP1 EXTCODESIZE ISZERO DUP1 ISZERO PUSH3 0x38CA JUMPI PUSH1 0x0 DUP1 REVERT JUMPDEST POP GAS CALL ISZERO DUP1 ISZERO PUSH3 0x38DF JUMPI RETURNDATASIZE PUSH1 0x0 DUP1 RETURNDATACOPY RETURNDATASIZE PUSH1 0x0 REVERT JUMPDEST POP POP POP POP PUSH1 0x40 MLOAD RETURNDATASIZE PUSH1 0x1F NOT PUSH1 0x1F DUP3 ADD AND DUP3 ADD DUP1 PUSH1 0x40 MSTORE POP DUP2 ADD SWAP1 PUSH3 0x3905 SWAP2 SWAP1 PUSH3 0x57A9 JUMP JUMPDEST POP PUSH1 0x0 PUSH1 0x1 PUSH8 0xFFFFFFFFFFFFFFFF DUP2 GT ISZERO PUSH3 0x3926 JUMPI PUSH3 0x3925 PUSH3 0x72EA JUMP JUMPDEST JUMPDEST PUSH1 0x40 MLOAD SWAP1 DUP1 DUP3 MSTORE DUP1 PUSH1 0x20 MUL PUSH1 0x20 ADD DUP3 ADD PUSH1 0x40 MSTORE DUP1 ISZERO PUSH3 0x3955 JUMPI DUP2 PUSH1 0x20 ADD PUSH1 0x20 DUP3 MUL DUP1 CALLDATASIZE DUP4 CALLDATACOPY DUP1 DUP3 ADD SWAP2 POP POP SWAP1 POP JUMPDEST POP SWAP1 POP PUSH1 0x2 PUSH1 0x0 SWAP1 SLOAD SWAP1 PUSH2 0x100 EXP SWAP1 DIV PUSH20 0xFFFFFFFFFFFFFFFFFFFFFFFFFFFFFFFFFFFFFFFF AND DUP2 PUSH1 0x0 DUP2 MLOAD DUP2 LT PUSH3 0x3992 JUMPI PUSH3 0x3991 PUSH3 0x72BB JUMP JUMPDEST JUMPDEST PUSH1 0x20 MUL PUSH1 0x20 ADD ADD SWAP1 PUSH20 0xFFFFFFFFFFFFFFFFFFFFFFFFFFFFFFFFFFFFFFFF AND SWAP1 DUP2 PUSH20 0xFFFFFFFFFFFFFFFFFFFFFFFFFFFFFFFFFFFFFFFF AND DUP2 MSTORE POP POP PUSH1 0x1 PUSH1 0x0 SWAP1 SLOAD SWAP1 PUSH2 0x100 EXP SWAP1 DIV PUSH20 0xFFFFFFFFFFFFFFFFFFFFFFFFFFFFFFFFFFFFFFFF AND PUSH20 0xFFFFFFFFFFFFFFFFFFFFFFFFFFFFFFFFFFFFFFFF AND PUSH4 0x41E865CB DUP4 PUSH1 0x1 DUP5 PUSH1 0x40 MLOAD DUP5 PUSH4 0xFFFFFFFF AND PUSH1 0xE0 SHL DUP2 MSTORE PUSH1 0x4 ADD PUSH3 0x3A2E SWAP4 SWAP3 SWAP2 SWAP1 PUSH3 0x609F JUMP JUMPDEST PUSH1 0x0 PUSH1 0x40 MLOAD DUP1 DUP4 SUB DUP2 PUSH1 0x0 DUP8 DUP1 EXTCODESIZE ISZERO DUP1 ISZERO PUSH3 0x3A49 JUMPI PUSH1 0x0 DUP1 REVERT JUMPDEST POP GAS CALL ISZERO DUP1 ISZERO PUSH3 0x3A5E JUMPI RETURNDATASIZE PUSH1 0x0 DUP1 RETURNDATACOPY RETURNDATASIZE PUSH1 0x0 REVERT JUMPDEST POP POP POP POP PUSH1 0x0 PUSH1 0x1 PUSH8 0xFFFFFFFFFFFFFFFF DUP2 GT ISZERO PUSH3 0x3A82 JUMPI PUSH3 0x3A81 PUSH3 0x72EA JUMP JUMPDEST JUMPDEST PUSH1 0x40 MLOAD SWAP1 DUP1 DUP3 MSTORE DUP1 PUSH1 0x1F ADD PUSH1 0x1F NOT AND PUSH1 0x20 ADD DUP3 ADD PUSH1 0x40 MSTORE DUP1 ISZERO PUSH3 0x3AB5 JUMPI DUP2 PUSH1 0x20 ADD PUSH1 0x1 DUP3 MUL DUP1 CALLDATASIZE DUP4 CALLDATACOPY DUP1 DUP3 ADD SWAP2 POP POP SWAP1 POP JUMPDEST POP SWAP1 POP PUSH1 0x1 PUSH1 0xF8 SHL DUP2 PUSH1 0x0 DUP2 MLOAD DUP2 LT PUSH3 0x3AD4 JUMPI PUSH3 0x3AD3 PUSH3 0x72BB JUMP JUMPDEST JUMPDEST PUSH1 0x20 ADD ADD SWAP1 PUSH31 0xFFFFFFFFFFFFFFFFFFFFFFFFFFFFFFFFFFFFFFFFFFFFFFFFFFFFFFFFFFFFFF NOT AND SWAP1 DUP2 PUSH1 0x0 BYTE SWAP1 MSTORE8 POP PUSH1 0x2 PUSH1 0x0 SWAP1 SLOAD SWAP1 PUSH2 0x100 EXP SWAP1 DIV PUSH20 0xFFFFFFFFFFFFFFFFFFFFFFFFFFFFFFFFFFFFFFFF AND PUSH20 0xFFFFFFFFFFFFFFFFFFFFFFFFFFFFFFFFFFFFFFFF AND PUSH4 0x456523E2 DUP5 PUSH1 0x1 DUP5 PUSH1 0x40 MLOAD DUP5 PUSH4 0xFFFFFFFF AND PUSH1 0xE0 SHL DUP2 MSTORE PUSH1 0x4 ADD PUSH3 0x3B65 SWAP4 SWAP3 SWAP2 SWAP1 PUSH3 0x60E3 JUMP JUMPDEST PUSH1 0x0 PUSH1 0x40 MLOAD DUP1 DUP4 SUB DUP2 PUSH1 0x0 DUP8 DUP1 EXTCODESIZE ISZERO DUP1 ISZERO PUSH3 0x3B80 JUMPI PUSH1 0x0 DUP1 REVERT JUMPDEST POP GAS CALL ISZERO DUP1 ISZERO PUSH3 0x3B95 JUMPI RETURNDATASIZE PUSH1 0x0 DUP1 RETURNDATACOPY RETURNDATASIZE PUSH1 0x0 REVERT JUMPDEST POP POP POP POP PUSH1 0x0 PUSH1 0x1 PUSH1 0x0 SWAP1 SLOAD SWAP1 PUSH2 0x100 EXP SWAP1 DIV PUSH20 0xFFFFFFFFFFFFFFFFFFFFFFFFFFFFFFFFFFFFFFFF AND PUSH20 0xFFFFFFFFFFFFFFFFFFFFFFFFFFFFFFFFFFFFFFFF AND PUSH4 0x8750745E DUP6 PUSH1 0x2 PUSH1 0x0 SWAP1 SLOAD SWAP1 PUSH2 0x100 EXP SWAP1 DIV PUSH20 0xFFFFFFFFFFFFFFFFFFFFFFFFFFFFFFFFFFFFFFFF AND PUSH1 0x1 PUSH1 0x40 MLOAD DUP5 PUSH4 0xFFFFFFFF AND PUSH1 0xE0 SHL DUP2 MSTORE PUSH1 0x4 ADD PUSH3 0x3C1F SWAP4 SWAP3 SWAP2 SWAP1 PUSH3 0x5F7B JUMP JUMPDEST PUSH1 0x0 PUSH1 0x40 MLOAD DUP1 DUP4 SUB DUP2 DUP7 DUP1 EXTCODESIZE ISZERO DUP1 ISZERO PUSH3 0x3C38 JUMPI PUSH1 0x0 DUP1 REVERT JUMPDEST POP GAS STATICCALL ISZERO DUP1 ISZERO PUSH3 0x3C4D JUMPI RETURNDATASIZE PUSH1 0x0 DUP1 RETURNDATACOPY RETURNDATASIZE PUSH1 0x0 REVERT JUMPDEST POP POP POP POP PUSH1 0x40 MLOAD RETURNDATASIZE PUSH1 0x0 DUP3 RETURNDATACOPY RETURNDATASIZE PUSH1 0x1F NOT PUSH1 0x1F DUP3 ADD AND DUP3 ADD DUP1 PUSH1 0x40 MSTORE POP DUP2 ADD SWAP1 PUSH3 0x3C78 SWAP2 SWAP1 PUSH3 0x580D JUMP JUMPDEST SWAP1 POP PUSH1 0x0 DUP2 PUSH1 0x20 ADD MLOAD SWAP1 POP PUSH1 0x0 PUSH1 0x20 DUP3 ADD MLOAD PUSH1 0x0 BYTE SWAP1 POP PUSH20 0x0 PUSH4 0xABCD7960 DUP5 PUSH1 0x20 ADD MLOAD MLOAD PUSH1 0x1 PUSH1 0x40 MLOAD DUP4 PUSH4 0xFFFFFFFF AND PUSH1 0xE0 SHL DUP2 MSTORE PUSH1 0x4 ADD PUSH3 0x3CD0 SWAP3 SWAP2 SWAP1 PUSH3 0x6ACF JUMP JUMPDEST PUSH1 0x20 PUSH1 0x40 MLOAD DUP1 DUP4 SUB DUP2 DUP7 DUP1 EXTCODESIZE ISZERO DUP1 ISZERO PUSH3 0x3CE9 JUMPI PUSH1 0x0 DUP1 REVERT JUMPDEST POP GAS DELEGATECALL ISZERO DUP1 ISZERO PUSH3 0x3CFE JUMPI RETURNDATASIZE PUSH1 0x0 DUP1 RETURNDATACOPY RETURNDATASIZE PUSH1 0x0 REVERT JUMPDEST POP POP POP POP PUSH1 0x40 MLOAD RETURNDATASIZE PUSH1 0x1F NOT PUSH1 0x1F DUP3 ADD AND DUP3 ADD DUP1 PUSH1 0x40 MSTORE POP DUP2 ADD SWAP1 PUSH3 0x3D24 SWAP2 SWAP1 PUSH3 0x57A9 JUMP JUMPDEST POP PUSH20 0x0 PUSH4 0xABCD7960 DUP3 PUSH1 0x1 PUSH1 0x40 MLOAD DUP4 PUSH4 0xFFFFFFFF AND PUSH1 0xE0 SHL DUP2 MSTORE PUSH1 0x4 ADD PUSH3 0x3D61 SWAP3 SWAP2 SWAP1 PUSH3 0x6C9D JUMP JUMPDEST PUSH1 0x20 PUSH1 0x40 MLOAD DUP1 DUP4 SUB DUP2 DUP7 DUP1 EXTCODESIZE ISZERO DUP1 ISZERO PUSH3 0x3D7A JUMPI PUSH1 0x0 DUP1 REVERT JUMPDEST POP GAS DELEGATECALL ISZERO DUP1 ISZERO PUSH3 0x3D8F JUMPI RETURNDATASIZE PUSH1 0x0 DUP1 RETURNDATACOPY RETURNDATASIZE PUSH1 0x0 REVERT JUMPDEST POP POP POP POP PUSH1 0x40 MLOAD RETURNDATASIZE PUSH1 0x1F NOT PUSH1 0x1F DUP3 ADD AND DUP3 ADD DUP1 PUSH1 0x40 MSTORE POP DUP2 ADD SWAP1 PUSH3 0x3DB5 SWAP2 SWAP1 PUSH3 0x57A9 JUMP JUMPDEST POP POP POP POP POP POP POP JUMP JUMPDEST PUSH1 0x1 PUSH1 0x0 SWAP1 SLOAD SWAP1 PUSH2 0x100 EXP SWAP1 DIV PUSH20 0xFFFFFFFFFFFFFFFFFFFFFFFFFFFFFFFFFFFFFFFF AND PUSH20 0xFFFFFFFFFFFFFFFFFFFFFFFFFFFFFFFFFFFFFFFF AND PUSH4 0x75CB2A0E PUSH32 0xD83DA95C058C118D61C20DBA7A15F44FA0A4C079EFF4CA94932F2BAF31135E03 PUSH1 0x40 MLOAD DUP3 PUSH4 0xFFFFFFFF AND PUSH1 0xE0 SHL DUP2 MSTORE PUSH1 0x4 ADD PUSH3 0x3E3B SWAP2 SWAP1 PUSH3 0x6A5B JUMP JUMPDEST PUSH1 0x20 PUSH1 0x40 MLOAD DUP1 DUP4 SUB DUP2 PUSH1 0x0 DUP8 DUP1 EXTCODESIZE ISZERO DUP1 ISZERO PUSH3 0x3E56 JUMPI PUSH1 0x0 DUP1 REVERT JUMPDEST POP GAS CALL ISZERO DUP1 ISZERO PUSH3 0x3E6B JUMPI RETURNDATASIZE PUSH1 0x0 DUP1 RETURNDATACOPY RETURNDATASIZE PUSH1 0x0 REVERT JUMPDEST POP POP POP POP PUSH1 0x40 MLOAD RETURNDATASIZE PUSH1 0x1F NOT PUSH1 0x1F DUP3 ADD AND DUP3 ADD DUP1 PUSH1 0x40 MSTORE POP DUP2 ADD SWAP1 PUSH3 0x3E91 SWAP2 SWAP1 PUSH3 0x57DB JUMP JUMPDEST PUSH1 0x5 DUP2 SWAP1 SSTORE POP PUSH1 0x1 PUSH1 0x0 SWAP1 SLOAD SWAP1 PUSH2 0x100 EXP SWAP1 DIV PUSH20 0xFFFFFFFFFFFFFFFFFFFFFFFFFFFFFFFFFFFFFFFF AND PUSH20 0xFFFFFFFFFFFFFFFFFFFFFFFFFFFFFFFFFFFFFFFF AND PUSH4 0x57C91B95 PUSH1 0x5 SLOAD PUSH1 0x1 PUSH2 0xBB8 PUSH2 0x12C PUSH1 0x1 DUP1 PUSH1 0x40 MLOAD DUP8 PUSH4 0xFFFFFFFF AND PUSH1 0xE0 SHL DUP2 MSTORE PUSH1 0x4 ADD PUSH3 0x3F06 SWAP7 SWAP6 SWAP5 SWAP4 SWAP3 SWAP2 SWAP1 PUSH3 0x625B JUMP JUMPDEST PUSH1 0x0 PUSH1 0x40 MLOAD DUP1 DUP4 SUB DUP2 PUSH1 0x0 DUP8 DUP1 EXTCODESIZE ISZERO DUP1 ISZERO PUSH3 0x3F21 JUMPI PUSH1 0x0 DUP1 REVERT JUMPDEST POP GAS CALL ISZERO DUP1 ISZERO PUSH3 0x3F36 JUMPI RETURNDATASIZE PUSH1 0x0 DUP1 RETURNDATACOPY RETURNDATASIZE PUSH1 0x0 REVERT JUMPDEST POP POP POP POP JUMP JUMPDEST PUSH1 0x0 PUSH1 0x1 PUSH1 0x0 SWAP1 SLOAD SWAP1 PUSH2 0x100 EXP SWAP1 DIV PUSH20 0xFFFFFFFFFFFFFFFFFFFFFFFFFFFFFFFFFFFFFFFF AND PUSH20 0xFFFFFFFFFFFFFFFFFFFFFFFFFFFFFFFFFFFFFFFF AND PUSH4 0x75CB2A0E PUSH32 0x683DA95C058C118D61C20DBA7A15F44FA0A4C079EFF4CA94932F2BAF31135E09 PUSH1 0x40 MLOAD DUP3 PUSH4 0xFFFFFFFF AND PUSH1 0xE0 SHL DUP2 MSTORE PUSH1 0x4 ADD PUSH3 0x3FBB SWAP2 SWAP1 PUSH3 0x692F JUMP JUMPDEST PUSH1 0x20 PUSH1 0x40 MLOAD DUP1 DUP4 SUB DUP2 PUSH1 0x0 DUP8 DUP1 EXTCODESIZE ISZERO DUP1 ISZERO PUSH3 0x3FD6 JUMPI PUSH1 0x0 DUP1 REVERT JUMPDEST POP GAS CALL ISZERO DUP1 ISZERO PUSH3 0x3FEB JUMPI RETURNDATASIZE PUSH1 0x0 DUP1 RETURNDATACOPY RETURNDATASIZE PUSH1 0x0 REVERT JUMPDEST POP POP POP POP PUSH1 0x40 MLOAD RETURNDATASIZE PUSH1 0x1F NOT PUSH1 0x1F DUP3 ADD AND DUP3 ADD DUP1 PUSH1 0x40 MSTORE POP DUP2 ADD SWAP1 PUSH3 0x4011 SWAP2 SWAP1 PUSH3 0x57DB JUMP JUMPDEST SWAP1 POP PUSH1 0x1 PUSH1 0x0 SWAP1 SLOAD SWAP1 PUSH2 0x100 EXP SWAP1 DIV PUSH20 0xFFFFFFFFFFFFFFFFFFFFFFFFFFFFFFFFFFFFFFFF AND PUSH20 0xFFFFFFFFFFFFFFFFFFFFFFFFFFFFFFFFFFFFFFFF AND PUSH4 0x57C91B95 DUP3 PUSH1 0x1 PUSH2 0xBB8 PUSH2 0x12C PUSH1 0x20 DUP1 PUSH1 0x40 MLOAD DUP8 PUSH4 0xFFFFFFFF AND PUSH1 0xE0 SHL DUP2 MSTORE PUSH1 0x4 ADD PUSH3 0x4080 SWAP7 SWAP6 SWAP5 SWAP4 SWAP3 SWAP2 SWAP1 PUSH3 0x6335 JUMP JUMPDEST PUSH1 0x0 PUSH1 0x40 MLOAD DUP1 DUP4 SUB DUP2 PUSH1 0x0 DUP8 DUP1 EXTCODESIZE ISZERO DUP1 ISZERO PUSH3 0x409B JUMPI PUSH1 0x0 DUP1 REVERT JUMPDEST POP GAS CALL ISZERO DUP1 ISZERO PUSH3 0x40B0 JUMPI RETURNDATASIZE PUSH1 0x0 DUP1 RETURNDATACOPY RETURNDATASIZE PUSH1 0x0 REVERT JUMPDEST POP POP POP POP PUSH1 0x2 PUSH1 0x0 SWAP1 SLOAD SWAP1 PUSH2 0x100 EXP SWAP1 DIV PUSH20 0xFFFFFFFFFFFFFFFFFFFFFFFFFFFFFFFFFFFFFFFF AND PUSH20 0xFFFFFFFFFFFFFFFFFFFFFFFFFFFFFFFFFFFFFFFF AND PUSH4 0xBDF666A4 DUP3 PUSH1 0x1 PUSH32 0xE83DA96C058C118D61C20DBA7A15F44FA0A4C079EFF4CA94932F2BAF31135E01 PUSH32 0xE83DA96C058C118D61C20DBA7A15F44FA0A4C079EFF4CA94932F2BAF31135E02 PUSH1 0x40 MLOAD DUP6 PUSH4 0xFFFFFFFF AND PUSH1 0xE0 SHL DUP2 MSTORE PUSH1 0x4 ADD PUSH3 0x4158 SWAP5 SWAP4 SWAP3 SWAP2 SWAP1 PUSH3 0x61C1 JUMP JUMPDEST PUSH1 0x20 PUSH1 0x40 MLOAD DUP1 DUP4 SUB DUP2 PUSH1 0x0 DUP8 DUP1 EXTCODESIZE ISZERO DUP1 ISZERO PUSH3 0x4173 JUMPI PUSH1 0x0 DUP1 REVERT JUMPDEST POP GAS CALL ISZERO DUP1 ISZERO PUSH3 0x4188 JUMPI RETURNDATASIZE PUSH1 0x0 DUP1 RETURNDATACOPY RETURNDATASIZE PUSH1 0x0 REVERT JUMPDEST POP POP POP POP PUSH1 0x40 MLOAD RETURNDATASIZE PUSH1 0x1F NOT PUSH1 0x1F DUP3 ADD AND DUP3 ADD DUP1 PUSH1 0x40 MSTORE POP DUP2 ADD SWAP1 PUSH3 0x41AE SWAP2 SWAP1 PUSH3 0x57A9 JUMP JUMPDEST POP PUSH1 0x0 PUSH1 0x1 PUSH8 0xFFFFFFFFFFFFFFFF DUP2 GT ISZERO PUSH3 0x41CF JUMPI PUSH3 0x41CE PUSH3 0x72EA JUMP JUMPDEST JUMPDEST PUSH1 0x40 MLOAD SWAP1 DUP1 DUP3 MSTORE DUP1 PUSH1 0x20 MUL PUSH1 0x20 ADD DUP3 ADD PUSH1 0x40 MSTORE DUP1 ISZERO PUSH3 0x41FE JUMPI DUP2 PUSH1 0x20 ADD PUSH1 0x20 DUP3 MUL DUP1 CALLDATASIZE DUP4 CALLDATACOPY DUP1 DUP3 ADD SWAP2 POP POP SWAP1 POP JUMPDEST POP SWAP1 POP PUSH1 0x2 PUSH1 0x0 SWAP1 SLOAD SWAP1 PUSH2 0x100 EXP SWAP1 DIV PUSH20 0xFFFFFFFFFFFFFFFFFFFFFFFFFFFFFFFFFFFFFFFF AND DUP2 PUSH1 0x0 DUP2 MLOAD DUP2 LT PUSH3 0x423B JUMPI PUSH3 0x423A PUSH3 0x72BB JUMP JUMPDEST JUMPDEST PUSH1 0x20 MUL PUSH1 0x20 ADD ADD SWAP1 PUSH20 0xFFFFFFFFFFFFFFFFFFFFFFFFFFFFFFFFFFFFFFFF AND SWAP1 DUP2 PUSH20 0xFFFFFFFFFFFFFFFFFFFFFFFFFFFFFFFFFFFFFFFF AND DUP2 MSTORE POP POP PUSH1 0x1 PUSH1 0x0 SWAP1 SLOAD SWAP1 PUSH2 0x100 EXP SWAP1 DIV PUSH20 0xFFFFFFFFFFFFFFFFFFFFFFFFFFFFFFFFFFFFFFFF AND PUSH20 0xFFFFFFFFFFFFFFFFFFFFFFFFFFFFFFFFFFFFFFFF AND PUSH4 0x41E865CB DUP4 PUSH1 0x1 DUP5 PUSH1 0x40 MLOAD DUP5 PUSH4 0xFFFFFFFF AND PUSH1 0xE0 SHL DUP2 MSTORE PUSH1 0x4 ADD PUSH3 0x42D7 SWAP4 SWAP3 SWAP2 SWAP1 PUSH3 0x609F JUMP JUMPDEST PUSH1 0x0 PUSH1 0x40 MLOAD DUP1 DUP4 SUB DUP2 PUSH1 0x0 DUP8 DUP1 EXTCODESIZE ISZERO DUP1 ISZERO PUSH3 0x42F2 JUMPI PUSH1 0x0 DUP1 REVERT JUMPDEST POP GAS CALL ISZERO DUP1 ISZERO PUSH3 0x4307 JUMPI RETURNDATASIZE PUSH1 0x0 DUP1 RETURNDATACOPY RETURNDATASIZE PUSH1 0x0 REVERT JUMPDEST POP POP POP POP PUSH1 0x0 PUSH1 0x1 PUSH8 0xFFFFFFFFFFFFFFFF DUP2 GT ISZERO PUSH3 0x432B JUMPI PUSH3 0x432A PUSH3 0x72EA JUMP JUMPDEST JUMPDEST PUSH1 0x40 MLOAD SWAP1 DUP1 DUP3 MSTORE DUP1 PUSH1 0x1F ADD PUSH1 0x1F NOT AND PUSH1 0x20 ADD DUP3 ADD PUSH1 0x40 MSTORE DUP1 ISZERO PUSH3 0x435E JUMPI DUP2 PUSH1 0x20 ADD PUSH1 0x1 DUP3 MUL DUP1 CALLDATASIZE DUP4 CALLDATACOPY DUP1 DUP3 ADD SWAP2 POP POP SWAP1 POP JUMPDEST POP SWAP1 POP PUSH1 0x1 PUSH1 0xF8 SHL DUP2 PUSH1 0x0 DUP2 MLOAD DUP2 LT PUSH3 0x437D JUMPI PUSH3 0x437C PUSH3 0x72BB JUMP JUMPDEST JUMPDEST PUSH1 0x20 ADD ADD SWAP1 PUSH31 0xFFFFFFFFFFFFFFFFFFFFFFFFFFFFFFFFFFFFFFFFFFFFFFFFFFFFFFFFFFFFFF NOT AND SWAP1 DUP2 PUSH1 0x0 BYTE SWAP1 MSTORE8 POP PUSH1 0x2 PUSH1 0x0 SWAP1 SLOAD SWAP1 PUSH2 0x100 EXP SWAP1 DIV PUSH20 0xFFFFFFFFFFFFFFFFFFFFFFFFFFFFFFFFFFFFFFFF AND PUSH20 0xFFFFFFFFFFFFFFFFFFFFFFFFFFFFFFFFFFFFFFFF AND PUSH4 0x68F14ACF DUP5 PUSH1 0x1 DUP5 PUSH1 0x40 MLOAD DUP5 PUSH4 0xFFFFFFFF AND PUSH1 0xE0 SHL DUP2 MSTORE PUSH1 0x4 ADD PUSH3 0x440E SWAP4 SWAP3 SWAP2 SWAP1 PUSH3 0x60E3 JUMP JUMPDEST PUSH1 0x0 PUSH1 0x40 MLOAD DUP1 DUP4 SUB DUP2 PUSH1 0x0 DUP8 DUP1 EXTCODESIZE ISZERO DUP1 ISZERO PUSH3 0x4429 JUMPI PUSH1 0x0 DUP1 REVERT JUMPDEST POP GAS CALL ISZERO DUP1 ISZERO PUSH3 0x443E JUMPI RETURNDATASIZE PUSH1 0x0 DUP1 RETURNDATACOPY RETURNDATASIZE PUSH1 0x0 REVERT JUMPDEST POP POP POP POP PUSH1 0x0 PUSH1 0x1 PUSH1 0x0 SWAP1 SLOAD SWAP1 PUSH2 0x100 EXP SWAP1 DIV PUSH20 0xFFFFFFFFFFFFFFFFFFFFFFFFFFFFFFFFFFFFFFFF AND PUSH20 0xFFFFFFFFFFFFFFFFFFFFFFFFFFFFFFFFFFFFFFFF AND PUSH4 0x8750745E DUP6 PUSH1 0x2 PUSH1 0x0 SWAP1 SLOAD SWAP1 PUSH2 0x100 EXP SWAP1 DIV PUSH20 0xFFFFFFFFFFFFFFFFFFFFFFFFFFFFFFFFFFFFFFFF AND PUSH1 0x1 PUSH1 0x40 MLOAD DUP5 PUSH4 0xFFFFFFFF AND PUSH1 0xE0 SHL DUP2 MSTORE PUSH1 0x4 ADD PUSH3 0x44C8 SWAP4 SWAP3 SWAP2 SWAP1 PUSH3 0x5F7B JUMP JUMPDEST PUSH1 0x0 PUSH1 0x40 MLOAD DUP1 DUP4 SUB DUP2 DUP7 DUP1 EXTCODESIZE ISZERO DUP1 ISZERO PUSH3 0x44E1 JUMPI PUSH1 0x0 DUP1 REVERT JUMPDEST POP GAS STATICCALL ISZERO DUP1 ISZERO PUSH3 0x44F6 JUMPI RETURNDATASIZE PUSH1 0x0 DUP1 RETURNDATACOPY RETURNDATASIZE PUSH1 0x0 REVERT JUMPDEST POP POP POP POP PUSH1 0x40 MLOAD RETURNDATASIZE PUSH1 0x0 DUP3 RETURNDATACOPY RETURNDATASIZE PUSH1 0x1F NOT PUSH1 0x1F DUP3 ADD AND DUP3 ADD DUP1 PUSH1 0x40 MSTORE POP DUP2 ADD SWAP1 PUSH3 0x4521 SWAP2 SWAP1 PUSH3 0x580D JUMP JUMPDEST SWAP1 POP PUSH1 0x0 DUP2 PUSH1 0x0 ADD MLOAD SWAP1 POP PUSH1 0x0 PUSH1 0x20 DUP3 ADD MLOAD PUSH1 0x0 BYTE SWAP1 POP PUSH20 0x0 PUSH4 0xABCD7960 DUP5 PUSH1 0x0 ADD MLOAD MLOAD PUSH1 0x1 PUSH1 0x40 MLOAD DUP4 PUSH4 0xFFFFFFFF AND PUSH1 0xE0 SHL DUP2 MSTORE PUSH1 0x4 ADD PUSH3 0x4579 SWAP3 SWAP2 SWAP1 PUSH3 0x6ACF JUMP JUMPDEST PUSH1 0x20 PUSH1 0x40 MLOAD DUP1 DUP4 SUB DUP2 DUP7 DUP1 EXTCODESIZE ISZERO DUP1 ISZERO PUSH3 0x4592 JUMPI PUSH1 0x0 DUP1 REVERT JUMPDEST POP GAS DELEGATECALL ISZERO DUP1 ISZERO PUSH3 0x45A7 JUMPI RETURNDATASIZE PUSH1 0x0 DUP1 RETURNDATACOPY RETURNDATASIZE PUSH1 0x0 REVERT JUMPDEST POP POP POP POP PUSH1 0x40 MLOAD RETURNDATASIZE PUSH1 0x1F NOT PUSH1 0x1F DUP3 ADD AND DUP3 ADD DUP1 PUSH1 0x40 MSTORE POP DUP2 ADD SWAP1 PUSH3 0x45CD SWAP2 SWAP1 PUSH3 0x57A9 JUMP JUMPDEST POP PUSH20 0x0 PUSH4 0xABCD7960 DUP3 PUSH1 0x1 PUSH1 0x40 MLOAD DUP4 PUSH4 0xFFFFFFFF AND PUSH1 0xE0 SHL DUP2 MSTORE PUSH1 0x4 ADD PUSH3 0x460A SWAP3 SWAP2 SWAP1 PUSH3 0x6C9D JUMP JUMPDEST PUSH1 0x20 PUSH1 0x40 MLOAD DUP1 DUP4 SUB DUP2 DUP7 DUP1 EXTCODESIZE ISZERO DUP1 ISZERO PUSH3 0x4623 JUMPI PUSH1 0x0 DUP1 REVERT JUMPDEST POP GAS DELEGATECALL ISZERO DUP1 ISZERO PUSH3 0x4638 JUMPI RETURNDATASIZE PUSH1 0x0 DUP1 RETURNDATACOPY RETURNDATASIZE PUSH1 0x0 REVERT JUMPDEST POP POP POP POP PUSH1 0x40 MLOAD RETURNDATASIZE PUSH1 0x1F NOT PUSH1 0x1F DUP3 ADD AND DUP3 ADD DUP1 PUSH1 0x40 MSTORE POP DUP2 ADD SWAP1 PUSH3 0x465E SWAP2 SWAP1 PUSH3 0x57A9 JUMP JUMPDEST POP POP POP POP POP POP POP JUMP JUMPDEST PUSH1 0x0 PUSH1 0x1 PUSH8 0xFFFFFFFFFFFFFFFF DUP2 GT ISZERO PUSH3 0x4687 JUMPI PUSH3 0x4686 PUSH3 0x72EA JUMP JUMPDEST JUMPDEST PUSH1 0x40 MLOAD SWAP1 DUP1 DUP3 MSTORE DUP1 PUSH1 0x1F ADD PUSH1 0x1F NOT AND PUSH1 0x20 ADD DUP3 ADD PUSH1 0x40 MSTORE DUP1 ISZERO PUSH3 0x46BA JUMPI DUP2 PUSH1 0x20 ADD PUSH1 0x1 DUP3 MUL DUP1 CALLDATASIZE DUP4 CALLDATACOPY DUP1 DUP3 ADD SWAP2 POP POP SWAP1 POP JUMPDEST POP SWAP1 POP PUSH1 0x1 PUSH1 0xF8 SHL DUP2 PUSH1 0x0 DUP2 MLOAD DUP2 LT PUSH3 0x46D9 JUMPI PUSH3 0x46D8 PUSH3 0x72BB JUMP JUMPDEST JUMPDEST PUSH1 0x20 ADD ADD SWAP1 PUSH31 0xFFFFFFFFFFFFFFFFFFFFFFFFFFFFFFFFFFFFFFFFFFFFFFFFFFFFFFFFFFFFFF NOT AND SWAP1 DUP2 PUSH1 0x0 BYTE SWAP1 MSTORE8 POP PUSH1 0x2 PUSH1 0x0 SWAP1 SLOAD SWAP1 PUSH2 0x100 EXP SWAP1 DIV PUSH20 0xFFFFFFFFFFFFFFFFFFFFFFFFFFFFFFFFFFFFFFFF AND PUSH20 0xFFFFFFFFFFFFFFFFFFFFFFFFFFFFFFFFFFFFFFFF AND PUSH4 0x68F14ACF PUSH1 0x6 SLOAD PUSH1 0x1 DUP5 PUSH1 0x40 MLOAD DUP5 PUSH4 0xFFFFFFFF AND PUSH1 0xE0 SHL DUP2 MSTORE PUSH1 0x4 ADD PUSH3 0x476C SWAP4 SWAP3 SWAP2 SWAP1 PUSH3 0x60E3 JUMP JUMPDEST PUSH1 0x0 PUSH1 0x40 MLOAD DUP1 DUP4 SUB DUP2 PUSH1 0x0 DUP8 DUP1 EXTCODESIZE ISZERO DUP1 ISZERO PUSH3 0x4787 JUMPI PUSH1 0x0 DUP1 REVERT JUMPDEST POP GAS CALL SWAP3 POP POP POP DUP1 ISZERO PUSH3 0x4799 JUMPI POP PUSH1 0x1 JUMPDEST PUSH3 0x4874 JUMPI PUSH3 0x47A8 PUSH3 0x7319 JUMP JUMPDEST DUP1 PUSH4 0x8C379A0 EQ ISZERO PUSH3 0x4862 JUMPI POP PUSH3 0x47C0 PUSH3 0x7724 JUMP JUMPDEST DUP1 PUSH3 0x47CD JUMPI POP PUSH3 0x4864 JUMP JUMPDEST PUSH20 0x0 PUSH4 0xE8C2CB16 DUP3 PUSH1 0x40 MLOAD DUP3 PUSH4 0xFFFFFFFF AND PUSH1 0xE0 SHL DUP2 MSTORE PUSH1 0x4 ADD PUSH3 0x4806 SWAP2 SWAP1 PUSH3 0x6813 JUMP JUMPDEST PUSH1 0x20 PUSH1 0x40 MLOAD DUP1 DUP4 SUB DUP2 DUP7 DUP1 EXTCODESIZE ISZERO DUP1 ISZERO PUSH3 0x481F JUMPI PUSH1 0x0 DUP1 REVERT JUMPDEST POP GAS DELEGATECALL ISZERO DUP1 ISZERO PUSH3 0x4834 JUMPI RETURNDATASIZE PUSH1 0x0 DUP1 RETURNDATACOPY RETURNDATASIZE PUSH1 0x0 REVERT JUMPDEST POP POP POP POP PUSH1 0x40 MLOAD RETURNDATASIZE PUSH1 0x1F NOT PUSH1 0x1F DUP3 ADD AND DUP3 ADD DUP1 PUSH1 0x40 MSTORE POP DUP2 ADD SWAP1 PUSH3 0x485A SWAP2 SWAP1 PUSH3 0x57A9 JUMP JUMPDEST POP POP PUSH3 0x486E JUMP JUMPDEST POP JUMPDEST RETURNDATASIZE PUSH1 0x0 DUP1 RETURNDATACOPY RETURNDATASIZE PUSH1 0x0 REVERT JUMPDEST PUSH3 0x4904 JUMP JUMPDEST PUSH20 0x0 PUSH4 0x39DF137F PUSH1 0x0 PUSH1 0x40 MLOAD DUP3 PUSH4 0xFFFFFFFF AND PUSH1 0xE0 SHL DUP2 MSTORE PUSH1 0x4 ADD PUSH3 0x48AE SWAP2 SWAP1 PUSH3 0x5F2C JUMP JUMPDEST PUSH1 0x20 PUSH1 0x40 MLOAD DUP1 DUP4 SUB DUP2 DUP7 DUP1 EXTCODESIZE ISZERO DUP1 ISZERO PUSH3 0x48C7 JUMPI PUSH1 0x0 DUP1 REVERT JUMPDEST POP GAS DELEGATECALL ISZERO DUP1 ISZERO PUSH3 0x48DC JUMPI RETURNDATASIZE PUSH1 0x0 DUP1 RETURNDATACOPY RETURNDATASIZE PUSH1 0x0 REVERT JUMPDEST POP POP POP POP PUSH1 0x40 MLOAD RETURNDATASIZE PUSH1 0x1F NOT PUSH1 0x1F DUP3 ADD AND DUP3 ADD DUP1 PUSH1 0x40 MSTORE POP DUP2 ADD SWAP1 PUSH3 0x4902 SWAP2 SWAP1 PUSH3 0x57A9 JUMP JUMPDEST POP JUMPDEST POP JUMP JUMPDEST PUSH1 0x0 PUSH1 0x1 PUSH1 0x0 SWAP1 SLOAD SWAP1 PUSH2 0x100 EXP SWAP1 DIV PUSH20 0xFFFFFFFFFFFFFFFFFFFFFFFFFFFFFFFFFFFFFFFF AND PUSH20 0xFFFFFFFFFFFFFFFFFFFFFFFFFFFFFFFFFFFFFFFF AND PUSH4 0x75CB2A0E PUSH32 0x183DA95C058C118D61C20DBA7A15F44FA0A4C079EFF4CA94932F2BAF31135E09 PUSH1 0x40 MLOAD DUP3 PUSH4 0xFFFFFFFF AND PUSH1 0xE0 SHL DUP2 MSTORE PUSH1 0x4 ADD PUSH3 0x4986 SWAP2 SWAP1 PUSH3 0x68FD JUMP JUMPDEST PUSH1 0x20 PUSH1 0x40 MLOAD DUP1 DUP4 SUB DUP2 PUSH1 0x0 DUP8 DUP1 EXTCODESIZE ISZERO DUP1 ISZERO PUSH3 0x49A1 JUMPI PUSH1 0x0 DUP1 REVERT JUMPDEST POP GAS CALL ISZERO DUP1 ISZERO PUSH3 0x49B6 JUMPI RETURNDATASIZE PUSH1 0x0 DUP1 RETURNDATACOPY RETURNDATASIZE PUSH1 0x0 REVERT JUMPDEST POP POP POP POP PUSH1 0x40 MLOAD RETURNDATASIZE PUSH1 0x1F NOT PUSH1 0x1F DUP3 ADD AND DUP3 ADD DUP1 PUSH1 0x40 MSTORE POP DUP2 ADD SWAP1 PUSH3 0x49DC SWAP2 SWAP1 PUSH3 0x57DB JUMP JUMPDEST SWAP1 POP PUSH1 0x1 PUSH1 0x0 SWAP1 SLOAD SWAP1 PUSH2 0x100 EXP SWAP1 DIV PUSH20 0xFFFFFFFFFFFFFFFFFFFFFFFFFFFFFFFFFFFFFFFF AND PUSH20 0xFFFFFFFFFFFFFFFFFFFFFFFFFFFFFFFFFFFFFFFF AND PUSH4 0x57C91B95 DUP3 PUSH1 0x1 PUSH2 0xBB8 PUSH2 0x12C PUSH1 0x20 DUP1 PUSH1 0x40 MLOAD DUP8 PUSH4 0xFFFFFFFF AND PUSH1 0xE0 SHL DUP2 MSTORE PUSH1 0x4 ADD PUSH3 0x4A4B SWAP7 SWAP6 SWAP5 SWAP4 SWAP3 SWAP2 SWAP1 PUSH3 0x6335 JUMP JUMPDEST PUSH1 0x0 PUSH1 0x40 MLOAD DUP1 DUP4 SUB DUP2 PUSH1 0x0 DUP8 DUP1 EXTCODESIZE ISZERO DUP1 ISZERO PUSH3 0x4A66 JUMPI PUSH1 0x0 DUP1 REVERT JUMPDEST POP GAS CALL ISZERO DUP1 ISZERO PUSH3 0x4A7B JUMPI RETURNDATASIZE PUSH1 0x0 DUP1 RETURNDATACOPY RETURNDATASIZE PUSH1 0x0 REVERT JUMPDEST POP POP POP POP PUSH1 0x2 PUSH1 0x0 SWAP1 SLOAD SWAP1 PUSH2 0x100 EXP SWAP1 DIV PUSH20 0xFFFFFFFFFFFFFFFFFFFFFFFFFFFFFFFFFFFFFFFF AND PUSH20 0xFFFFFFFFFFFFFFFFFFFFFFFFFFFFFFFFFFFFFFFF AND PUSH4 0xBDF666A4 DUP3 PUSH1 0x1 PUSH32 0xE83DA96C058C118D61C20DBA7A15F44FA0A4C079EFF4CA94932F2BAF31135E01 PUSH32 0xE83DA96C058C118D61C20DBA7A15F44FA0A4C079EFF4CA94932F2BAF31135E02 PUSH1 0x40 MLOAD DUP6 PUSH4 0xFFFFFFFF AND PUSH1 0xE0 SHL DUP2 MSTORE PUSH1 0x4 ADD PUSH3 0x4B23 SWAP5 SWAP4 SWAP3 SWAP2 SWAP1 PUSH3 0x61C1 JUMP JUMPDEST PUSH1 0x20 PUSH1 0x40 MLOAD DUP1 DUP4 SUB DUP2 PUSH1 0x0 DUP8 DUP1 EXTCODESIZE ISZERO DUP1 ISZERO PUSH3 0x4B3E JUMPI PUSH1 0x0 DUP1 REVERT JUMPDEST POP GAS CALL ISZERO DUP1 ISZERO PUSH3 0x4B53 JUMPI RETURNDATASIZE PUSH1 0x0 DUP1 RETURNDATACOPY RETURNDATASIZE PUSH1 0x0 REVERT JUMPDEST POP POP POP POP PUSH1 0x40 MLOAD RETURNDATASIZE PUSH1 0x1F NOT PUSH1 0x1F DUP3 ADD AND DUP3 ADD DUP1 PUSH1 0x40 MSTORE POP DUP2 ADD SWAP1 PUSH3 0x4B79 SWAP2 SWAP1 PUSH3 0x57A9 JUMP JUMPDEST POP PUSH1 0x0 PUSH1 0x1 PUSH8 0xFFFFFFFFFFFFFFFF DUP2 GT ISZERO PUSH3 0x4B9A JUMPI PUSH3 0x4B99 PUSH3 0x72EA JUMP JUMPDEST JUMPDEST PUSH1 0x40 MLOAD SWAP1 DUP1 DUP3 MSTORE DUP1 PUSH1 0x20 MUL PUSH1 0x20 ADD DUP3 ADD PUSH1 0x40 MSTORE DUP1 ISZERO PUSH3 0x4BC9 JUMPI DUP2 PUSH1 0x20 ADD PUSH1 0x20 DUP3 MUL DUP1 CALLDATASIZE DUP4 CALLDATACOPY DUP1 DUP3 ADD SWAP2 POP POP SWAP1 POP JUMPDEST POP SWAP1 POP PUSH1 0x2 PUSH1 0x0 SWAP1 SLOAD SWAP1 PUSH2 0x100 EXP SWAP1 DIV PUSH20 0xFFFFFFFFFFFFFFFFFFFFFFFFFFFFFFFFFFFFFFFF AND DUP2 PUSH1 0x0 DUP2 MLOAD DUP2 LT PUSH3 0x4C06 JUMPI PUSH3 0x4C05 PUSH3 0x72BB JUMP JUMPDEST JUMPDEST PUSH1 0x20 MUL PUSH1 0x20 ADD ADD SWAP1 PUSH20 0xFFFFFFFFFFFFFFFFFFFFFFFFFFFFFFFFFFFFFFFF AND SWAP1 DUP2 PUSH20 0xFFFFFFFFFFFFFFFFFFFFFFFFFFFFFFFFFFFFFFFF AND DUP2 MSTORE POP POP PUSH1 0x1 PUSH1 0x0 SWAP1 SLOAD SWAP1 PUSH2 0x100 EXP SWAP1 DIV PUSH20 0xFFFFFFFFFFFFFFFFFFFFFFFFFFFFFFFFFFFFFFFF AND PUSH20 0xFFFFFFFFFFFFFFFFFFFFFFFFFFFFFFFFFFFFFFFF AND PUSH4 0x41E865CB DUP4 PUSH1 0x1 DUP5 PUSH1 0x40 MLOAD DUP5 PUSH4 0xFFFFFFFF AND PUSH1 0xE0 SHL DUP2 MSTORE PUSH1 0x4 ADD PUSH3 0x4CA2 SWAP4 SWAP3 SWAP2 SWAP1 PUSH3 0x609F JUMP JUMPDEST PUSH1 0x0 PUSH1 0x40 MLOAD DUP1 DUP4 SUB DUP2 PUSH1 0x0 DUP8 DUP1 EXTCODESIZE ISZERO DUP1 ISZERO PUSH3 0x4CBD JUMPI PUSH1 0x0 DUP1 REVERT JUMPDEST POP GAS CALL ISZERO DUP1 ISZERO PUSH3 0x4CD2 JUMPI RETURNDATASIZE PUSH1 0x0 DUP1 RETURNDATACOPY RETURNDATASIZE PUSH1 0x0 REVERT JUMPDEST POP POP POP POP PUSH1 0x0 PUSH1 0x1 PUSH8 0xFFFFFFFFFFFFFFFF DUP2 GT ISZERO PUSH3 0x4CF6 JUMPI PUSH3 0x4CF5 PUSH3 0x72EA JUMP JUMPDEST JUMPDEST PUSH1 0x40 MLOAD SWAP1 DUP1 DUP3 MSTORE DUP1 PUSH1 0x1F ADD PUSH1 0x1F NOT AND PUSH1 0x20 ADD DUP3 ADD PUSH1 0x40 MSTORE DUP1 ISZERO PUSH3 0x4D29 JUMPI DUP2 PUSH1 0x20 ADD PUSH1 0x1 DUP3 MUL DUP1 CALLDATASIZE DUP4 CALLDATACOPY DUP1 DUP3 ADD SWAP2 POP POP SWAP1 POP JUMPDEST POP SWAP1 POP PUSH1 0x1 PUSH1 0xF8 SHL DUP2 PUSH1 0x0 DUP2 MLOAD DUP2 LT PUSH3 0x4D48 JUMPI PUSH3 0x4D47 PUSH3 0x72BB JUMP JUMPDEST JUMPDEST PUSH1 0x20 ADD ADD SWAP1 PUSH31 0xFFFFFFFFFFFFFFFFFFFFFFFFFFFFFFFFFFFFFFFFFFFFFFFFFFFFFFFFFFFFFF NOT AND SWAP1 DUP2 PUSH1 0x0 BYTE SWAP1 MSTORE8 POP PUSH1 0x2 PUSH1 0x0 SWAP1 SLOAD SWAP1 PUSH2 0x100 EXP SWAP1 DIV PUSH20 0xFFFFFFFFFFFFFFFFFFFFFFFFFFFFFFFFFFFFFFFF AND PUSH20 0xFFFFFFFFFFFFFFFFFFFFFFFFFFFFFFFFFFFFFFFF AND PUSH4 0x20F0672C DUP5 PUSH1 0x1 DUP5 PUSH1 0x40 MLOAD DUP5 PUSH4 0xFFFFFFFF AND PUSH1 0xE0 SHL DUP2 MSTORE PUSH1 0x4 ADD PUSH3 0x4DD9 SWAP4 SWAP3 SWAP2 SWAP1 PUSH3 0x60E3 JUMP JUMPDEST PUSH1 0x0 PUSH1 0x40 MLOAD DUP1 DUP4 SUB DUP2 PUSH1 0x0 DUP8 DUP1 EXTCODESIZE ISZERO DUP1 ISZERO PUSH3 0x4DF4 JUMPI PUSH1 0x0 DUP1 REVERT JUMPDEST POP GAS CALL ISZERO DUP1 ISZERO PUSH3 0x4E09 JUMPI RETURNDATASIZE PUSH1 0x0 DUP1 RETURNDATACOPY RETURNDATASIZE PUSH1 0x0 REVERT JUMPDEST POP POP POP POP PUSH1 0x0 PUSH1 0x1 PUSH1 0x0 SWAP1 SLOAD SWAP1 PUSH2 0x100 EXP SWAP1 DIV PUSH20 0xFFFFFFFFFFFFFFFFFFFFFFFFFFFFFFFFFFFFFFFF AND PUSH20 0xFFFFFFFFFFFFFFFFFFFFFFFFFFFFFFFFFFFFFFFF AND PUSH4 0x8750745E DUP6 PUSH1 0x2 PUSH1 0x0 SWAP1 SLOAD SWAP1 PUSH2 0x100 EXP SWAP1 DIV PUSH20 0xFFFFFFFFFFFFFFFFFFFFFFFFFFFFFFFFFFFFFFFF AND PUSH1 0x1 PUSH1 0x40 MLOAD DUP5 PUSH4 0xFFFFFFFF AND PUSH1 0xE0 SHL DUP2 MSTORE PUSH1 0x4 ADD PUSH3 0x4E93 SWAP4 SWAP3 SWAP2 SWAP1 PUSH3 0x5F7B JUMP JUMPDEST PUSH1 0x0 PUSH1 0x40 MLOAD DUP1 DUP4 SUB DUP2 DUP7 DUP1 EXTCODESIZE ISZERO DUP1 ISZERO PUSH3 0x4EAC JUMPI PUSH1 0x0 DUP1 REVERT JUMPDEST POP GAS STATICCALL ISZERO DUP1 ISZERO PUSH3 0x4EC1 JUMPI RETURNDATASIZE PUSH1 0x0 DUP1 RETURNDATACOPY RETURNDATASIZE PUSH1 0x0 REVERT JUMPDEST POP POP POP POP PUSH1 0x40 MLOAD RETURNDATASIZE PUSH1 0x0 DUP3 RETURNDATACOPY RETURNDATASIZE PUSH1 0x1F NOT PUSH1 0x1F DUP3 ADD AND DUP3 ADD DUP1 PUSH1 0x40 MSTORE POP DUP2 ADD SWAP1 PUSH3 0x4EEC SWAP2 SWAP1 PUSH3 0x580D JUMP JUMPDEST SWAP1 POP PUSH1 0x0 DUP2 PUSH1 0x40 ADD MLOAD SWAP1 POP PUSH1 0x0 PUSH1 0x20 DUP3 ADD MLOAD PUSH1 0x0 BYTE SWAP1 POP PUSH20 0x0 PUSH4 0xABCD7960 DUP5 PUSH1 0x40 ADD MLOAD MLOAD PUSH1 0x1 PUSH1 0x40 MLOAD DUP4 PUSH4 0xFFFFFFFF AND PUSH1 0xE0 SHL DUP2 MSTORE PUSH1 0x4 ADD PUSH3 0x4F44 SWAP3 SWAP2 SWAP1 PUSH3 0x6ACF JUMP JUMPDEST PUSH1 0x20 PUSH1 0x40 MLOAD DUP1 DUP4 SUB DUP2 DUP7 DUP1 EXTCODESIZE ISZERO DUP1 ISZERO PUSH3 0x4F5D JUMPI PUSH1 0x0 DUP1 REVERT JUMPDEST POP GAS DELEGATECALL ISZERO DUP1 ISZERO PUSH3 0x4F72 JUMPI RETURNDATASIZE PUSH1 0x0 DUP1 RETURNDATACOPY RETURNDATASIZE PUSH1 0x0 REVERT JUMPDEST POP POP POP POP PUSH1 0x40 MLOAD RETURNDATASIZE PUSH1 0x1F NOT PUSH1 0x1F DUP3 ADD AND DUP3 ADD DUP1 PUSH1 0x40 MSTORE POP DUP2 ADD SWAP1 PUSH3 0x4F98 SWAP2 SWAP1 PUSH3 0x57A9 JUMP JUMPDEST POP PUSH20 0x0 PUSH4 0xABCD7960 DUP3 PUSH1 0x1 PUSH1 0x40 MLOAD DUP4 PUSH4 0xFFFFFFFF AND PUSH1 0xE0 SHL DUP2 MSTORE PUSH1 0x4 ADD PUSH3 0x4FD5 SWAP3 SWAP2 SWAP1 PUSH3 0x6C9D JUMP JUMPDEST PUSH1 0x20 PUSH1 0x40 MLOAD DUP1 DUP4 SUB DUP2 DUP7 DUP1 EXTCODESIZE ISZERO DUP1 ISZERO PUSH3 0x4FEE JUMPI PUSH1 0x0 DUP1 REVERT JUMPDEST POP GAS DELEGATECALL ISZERO DUP1 ISZERO PUSH3 0x5003 JUMPI RETURNDATASIZE PUSH1 0x0 DUP1 RETURNDATACOPY RETURNDATASIZE PUSH1 0x0 REVERT JUMPDEST POP POP POP POP PUSH1 0x40 MLOAD RETURNDATASIZE PUSH1 0x1F NOT PUSH1 0x1F DUP3 ADD AND DUP3 ADD DUP1 PUSH1 0x40 MSTORE POP DUP2 ADD SWAP1 PUSH3 0x5029 SWAP2 SWAP1 PUSH3 0x57A9 JUMP JUMPDEST POP POP POP POP POP POP POP JUMP JUMPDEST PUSH1 0x0 PUSH1 0x1 PUSH1 0x0 SWAP1 SLOAD SWAP1 PUSH2 0x100 EXP SWAP1 DIV PUSH20 0xFFFFFFFFFFFFFFFFFFFFFFFFFFFFFFFFFFFFFFFF AND PUSH20 0xFFFFFFFFFFFFFFFFFFFFFFFFFFFFFFFFFFFFFFFF AND PUSH4 0x75CB2A0E PUSH32 0xD83DA95C058C118D61C20DBA7A15F44FA0A4C079EFF4CA94932F2BAF31135E00 PUSH1 0x40 MLOAD DUP3 PUSH4 0xFFFFFFFF AND PUSH1 0xE0 SHL DUP2 MSTORE PUSH1 0x4 ADD PUSH3 0x50B1 SWAP2 SWAP1 PUSH3 0x69C5 JUMP JUMPDEST PUSH1 0x20 PUSH1 0x40 MLOAD DUP1 DUP4 SUB DUP2 PUSH1 0x0 DUP8 DUP1 EXTCODESIZE ISZERO DUP1 ISZERO PUSH3 0x50CC JUMPI PUSH1 0x0 DUP1 REVERT JUMPDEST POP GAS CALL ISZERO DUP1 ISZERO PUSH3 0x50E1 JUMPI RETURNDATASIZE PUSH1 0x0 DUP1 RETURNDATACOPY RETURNDATASIZE PUSH1 0x0 REVERT JUMPDEST POP POP POP POP PUSH1 0x40 MLOAD RETURNDATASIZE PUSH1 0x1F NOT PUSH1 0x1F DUP3 ADD AND DUP3 ADD DUP1 PUSH1 0x40 MSTORE POP DUP2 ADD SWAP1 PUSH3 0x5107 SWAP2 SWAP1 PUSH3 0x57DB JUMP JUMPDEST SWAP1 POP PUSH1 0x0 DUP1 PUSH1 0x0 SWAP1 SLOAD SWAP1 PUSH2 0x100 EXP SWAP1 DIV PUSH20 0xFFFFFFFFFFFFFFFFFFFFFFFFFFFFFFFFFFFFFFFF AND PUSH20 0xFFFFFFFFFFFFFFFFFFFFFFFFFFFFFFFFFFFFFFFF AND PUSH4 0x58AF9F73 DUP4 PUSH1 0x40 MLOAD DUP3 PUSH4 0xFFFFFFFF AND PUSH1 0xE0 SHL DUP2 MSTORE PUSH1 0x4 ADD PUSH3 0x5167 SWAP2 SWAP1 PUSH3 0x5F5E JUMP JUMPDEST PUSH1 0x0 PUSH1 0x40 MLOAD DUP1 DUP4 SUB DUP2 DUP7 DUP1 EXTCODESIZE ISZERO DUP1 ISZERO PUSH3 0x5180 JUMPI PUSH1 0x0 DUP1 REVERT JUMPDEST POP GAS STATICCALL ISZERO DUP1 ISZERO PUSH3 0x5195 JUMPI RETURNDATASIZE PUSH1 0x0 DUP1 RETURNDATACOPY RETURNDATASIZE PUSH1 0x0 REVERT JUMPDEST POP POP POP POP PUSH1 0x40 MLOAD RETURNDATASIZE PUSH1 0x0 DUP3 RETURNDATACOPY RETURNDATASIZE PUSH1 0x1F NOT PUSH1 0x1F DUP3 ADD AND DUP3 ADD DUP1 PUSH1 0x40 MSTORE POP DUP2 ADD SWAP1 PUSH3 0x51C0 SWAP2 SWAP1 PUSH3 0x5891 JUMP JUMPDEST SWAP1 POP PUSH20 0x0 PUSH4 0xE8C2CB16 DUP3 PUSH1 0x20 ADD MLOAD PUSH1 0x40 MLOAD DUP3 PUSH4 0xFFFFFFFF AND PUSH1 0xE0 SHL DUP2 MSTORE PUSH1 0x4 ADD PUSH3 0x51FF SWAP2 SWAP1 PUSH3 0x6555 JUMP JUMPDEST PUSH1 0x20 PUSH1 0x40 MLOAD DUP1 DUP4 SUB DUP2 DUP7 DUP1 EXTCODESIZE ISZERO DUP1 ISZERO PUSH3 0x5218 JUMPI PUSH1 0x0 DUP1 REVERT JUMPDEST POP GAS DELEGATECALL ISZERO DUP1 ISZERO PUSH3 0x522D JUMPI RETURNDATASIZE PUSH1 0x0 DUP1 RETURNDATACOPY RETURNDATASIZE PUSH1 0x0 REVERT JUMPDEST POP POP POP POP PUSH1 0x40 MLOAD RETURNDATASIZE PUSH1 0x1F NOT PUSH1 0x1F DUP3 ADD AND DUP3 ADD DUP1 PUSH1 0x40 MSTORE POP DUP2 ADD SWAP1 PUSH3 0x5253 SWAP2 SWAP1 PUSH3 0x57A9 JUMP JUMPDEST POP PUSH20 0x0 PUSH4 0xEA79DD79 DUP3 PUSH1 0x40 ADD MLOAD PUSH32 0xD83DA95C058C118D61C20DBA7A15F44FA0A4C079EFF4CA94932F2BAF31135E00 PUSH1 0x40 MLOAD DUP4 PUSH4 0xFFFFFFFF AND PUSH1 0xE0 SHL DUP2 MSTORE PUSH1 0x4 ADD PUSH3 0x52B3 SWAP3 SWAP2 SWAP1 PUSH3 0x643C JUMP JUMPDEST PUSH1 0x20 PUSH1 0x40 MLOAD DUP1 DUP4 SUB DUP2 DUP7 DUP1 EXTCODESIZE ISZERO DUP1 ISZERO PUSH3 0x52CC JUMPI PUSH1 0x0 DUP1 REVERT JUMPDEST POP GAS DELEGATECALL ISZERO DUP1 ISZERO PUSH3 0x52E1 JUMPI RETURNDATASIZE PUSH1 0x0 DUP1 RETURNDATACOPY RETURNDATASIZE PUSH1 0x0 REVERT JUMPDEST POP POP POP POP PUSH1 0x40 MLOAD RETURNDATASIZE PUSH1 0x1F NOT PUSH1 0x1F DUP3 ADD AND DUP3 ADD DUP1 PUSH1 0x40 MSTORE POP DUP2 ADD SWAP1 PUSH3 0x5307 SWAP2 SWAP1 PUSH3 0x57A9 JUMP JUMPDEST POP PUSH20 0x0 PUSH4 0xABCD7960 DUP3 PUSH1 0x60 ADD MLOAD PUSH1 0x0 PUSH1 0x40 MLOAD DUP4 PUSH4 0xFFFFFFFF AND PUSH1 0xE0 SHL DUP2 MSTORE PUSH1 0x4 ADD PUSH3 0x5348 SWAP3 SWAP2 SWAP1 PUSH3 0x6C19 JUMP JUMPDEST PUSH1 0x20 PUSH1 0x40 MLOAD DUP1 DUP4 SUB DUP2 DUP7 DUP1 EXTCODESIZE ISZERO DUP1 ISZERO PUSH3 0x5361 JUMPI PUSH1 0x0 DUP1 REVERT JUMPDEST POP GAS DELEGATECALL ISZERO DUP1 ISZERO PUSH3 0x5376 JUMPI RETURNDATASIZE PUSH1 0x0 DUP1 RETURNDATACOPY RETURNDATASIZE PUSH1 0x0 REVERT JUMPDEST POP POP POP POP PUSH1 0x40 MLOAD RETURNDATASIZE PUSH1 0x1F NOT PUSH1 0x1F DUP3 ADD AND DUP3 ADD DUP1 PUSH1 0x40 MSTORE POP DUP2 ADD SWAP1 PUSH3 0x539C SWAP2 SWAP1 PUSH3 0x57A9 JUMP JUMPDEST POP POP POP JUMP JUMPDEST PUSH2 0x3C38 DUP1 PUSH3 0x7874 DUP4 CODECOPY ADD SWAP1 JUMP JUMPDEST PUSH2 0x15D9 DUP1 PUSH3 0xB4AC DUP4 CODECOPY ADD SWAP1 JUMP JUMPDEST PUSH1 0x0 PUSH3 0x53D4 PUSH3 0x53CE DUP5 PUSH3 0x6D08 JUMP JUMPDEST PUSH3 0x6CDF JUMP JUMPDEST SWAP1 POP DUP3 DUP2 MSTORE PUSH1 0x20 DUP2 ADD DUP5 DUP5 DUP5 ADD GT ISZERO PUSH3 0x53F3 JUMPI PUSH3 0x53F2 PUSH3 0x734D JUMP JUMPDEST JUMPDEST PUSH3 0x5400 DUP5 DUP3 DUP6 PUSH3 0x724F JUMP JUMPDEST POP SWAP4 SWAP3 POP POP POP JUMP JUMPDEST PUSH1 0x0 PUSH3 0x541F PUSH3 0x5419 DUP5 PUSH3 0x6D3E JUMP JUMPDEST PUSH3 0x6CDF JUMP JUMPDEST SWAP1 POP DUP3 DUP2 MSTORE PUSH1 0x20 DUP2 ADD DUP5 DUP5 DUP5 ADD GT ISZERO PUSH3 0x543E JUMPI PUSH3 0x543D PUSH3 0x734D JUMP JUMPDEST JUMPDEST PUSH3 0x544B DUP5 DUP3 DUP6 PUSH3 0x724F JUMP JUMPDEST POP SWAP4 SWAP3 POP POP POP JUMP JUMPDEST PUSH1 0x0 DUP2 MLOAD SWAP1 POP PUSH3 0x5464 DUP2 PUSH3 0x77C6 JUMP JUMPDEST SWAP3 SWAP2 POP POP JUMP JUMPDEST PUSH1 0x0 DUP2 MLOAD SWAP1 POP PUSH3 0x547B DUP2 PUSH3 0x77E0 JUMP JUMPDEST SWAP3 SWAP2 POP POP JUMP JUMPDEST PUSH1 0x0 DUP2 MLOAD SWAP1 POP PUSH3 0x5492 DUP2 PUSH3 0x77FA JUMP JUMPDEST SWAP3 SWAP2 POP POP JUMP JUMPDEST PUSH1 0x0 DUP3 PUSH1 0x1F DUP4 ADD SLT PUSH3 0x54B0 JUMPI PUSH3 0x54AF PUSH3 0x733E JUMP JUMPDEST JUMPDEST DUP2 MLOAD PUSH3 0x54C2 DUP5 DUP3 PUSH1 0x20 DUP7 ADD PUSH3 0x53BD JUMP JUMPDEST SWAP2 POP POP SWAP3 SWAP2 POP POP JUMP JUMPDEST PUSH1 0x0 DUP2 MLOAD SWAP1 POP PUSH3 0x54DC DUP2 PUSH3 0x7814 JUMP JUMPDEST SWAP3 SWAP2 POP POP JUMP JUMPDEST PUSH1 0x0 DUP3 PUSH1 0x1F DUP4 ADD SLT PUSH3 0x54FA JUMPI PUSH3 0x54F9 PUSH3 0x733E JUMP JUMPDEST JUMPDEST DUP2 MLOAD PUSH3 0x550C DUP5 DUP3 PUSH1 0x20 DUP7 ADD PUSH3 0x5408 JUMP JUMPDEST SWAP2 POP POP SWAP3 SWAP2 POP POP JUMP JUMPDEST PUSH1 0x0 PUSH1 0x60 DUP3 DUP5 SUB SLT ISZERO PUSH3 0x552E JUMPI PUSH3 0x552D PUSH3 0x7343 JUMP JUMPDEST JUMPDEST PUSH3 0x553A PUSH1 0x60 PUSH3 0x6CDF JUMP JUMPDEST SWAP1 POP PUSH1 0x0 DUP3 ADD MLOAD PUSH8 0xFFFFFFFFFFFFFFFF DUP2 GT ISZERO PUSH3 0x555D JUMPI PUSH3 0x555C PUSH3 0x7348 JUMP JUMPDEST JUMPDEST PUSH3 0x556B DUP5 DUP3 DUP6 ADD PUSH3 0x5498 JUMP JUMPDEST PUSH1 0x0 DUP4 ADD MSTORE POP PUSH1 0x20 DUP3 ADD MLOAD PUSH8 0xFFFFFFFFFFFFFFFF DUP2 GT ISZERO PUSH3 0x5592 JUMPI PUSH3 0x5591 PUSH3 0x7348 JUMP JUMPDEST JUMPDEST PUSH3 0x55A0 DUP5 DUP3 DUP6 ADD PUSH3 0x5498 JUMP JUMPDEST PUSH1 0x20 DUP4 ADD MSTORE POP PUSH1 0x40 DUP3 ADD MLOAD PUSH8 0xFFFFFFFFFFFFFFFF DUP2 GT ISZERO PUSH3 0x55C7 JUMPI PUSH3 0x55C6 PUSH3 0x7348 JUMP JUMPDEST JUMPDEST PUSH3 0x55D5 DUP5 DUP3 DUP6 ADD PUSH3 0x5498 JUMP JUMPDEST PUSH1 0x40 DUP4 ADD MSTORE POP SWAP3 SWAP2 POP POP JUMP JUMPDEST PUSH1 0x0 PUSH2 0x100 DUP3 DUP5 SUB SLT ISZERO PUSH3 0x55FB JUMPI PUSH3 0x55FA PUSH3 0x7343 JUMP JUMPDEST JUMPDEST PUSH3 0x5608 PUSH2 0x100 PUSH3 0x6CDF JUMP JUMPDEST SWAP1 POP PUSH1 0x0 PUSH3 0x561A DUP5 DUP3 DUP6 ADD PUSH3 0x5792 JUMP JUMPDEST PUSH1 0x0 DUP4 ADD MSTORE POP PUSH1 0x20 PUSH3 0x5630 DUP5 DUP3 DUP6 ADD PUSH3 0x577B JUMP JUMPDEST PUSH1 0x20 DUP4 ADD MSTORE POP PUSH1 0x40 PUSH3 0x5646 DUP5 DUP3 DUP6 ADD PUSH3 0x577B JUMP JUMPDEST PUSH1 0x40 DUP4 ADD MSTORE POP PUSH1 0x60 PUSH3 0x565C DUP5 DUP3 DUP6 ADD PUSH3 0x54CB JUMP JUMPDEST PUSH1 0x60 DUP4 ADD MSTORE POP PUSH1 0x80 PUSH3 0x5672 DUP5 DUP3 DUP6 ADD PUSH3 0x5764 JUMP JUMPDEST PUSH1 0x80 DUP4 ADD MSTORE POP PUSH1 0xA0 PUSH3 0x5688 DUP5 DUP3 DUP6 ADD PUSH3 0x5764 JUMP JUMPDEST PUSH1 0xA0 DUP4 ADD MSTORE POP PUSH1 0xC0 PUSH3 0x569E DUP5 DUP3 DUP6 ADD PUSH3 0x577B JUMP JUMPDEST PUSH1 0xC0 DUP4 ADD MSTORE POP PUSH1 0xE0 PUSH3 0x56B4 DUP5 DUP3 DUP6 ADD PUSH3 0x577B JUMP JUMPDEST PUSH1 0xE0 DUP4 ADD MSTORE POP SWAP3 SWAP2 POP POP JUMP JUMPDEST PUSH1 0x0 PUSH1 0x80 DUP3 DUP5 SUB SLT ISZERO PUSH3 0x56D9 JUMPI PUSH3 0x56D8 PUSH3 0x7343 JUMP JUMPDEST JUMPDEST PUSH3 0x56E5 PUSH1 0x80 PUSH3 0x6CDF JUMP JUMPDEST SWAP1 POP PUSH1 0x0 PUSH3 0x56F7 DUP5 DUP3 DUP6 ADD PUSH3 0x5453 JUMP JUMPDEST PUSH1 0x0 DUP4 ADD MSTORE POP PUSH1 0x20 DUP3 ADD MLOAD PUSH8 0xFFFFFFFFFFFFFFFF DUP2 GT ISZERO PUSH3 0x571E JUMPI PUSH3 0x571D PUSH3 0x7348 JUMP JUMPDEST JUMPDEST PUSH3 0x572C DUP5 DUP3 DUP6 ADD PUSH3 0x54E2 JUMP JUMPDEST PUSH1 0x20 DUP4 ADD MSTORE POP PUSH1 0x40 PUSH3 0x5742 DUP5 DUP3 DUP6 ADD PUSH3 0x5481 JUMP JUMPDEST PUSH1 0x40 DUP4 ADD MSTORE POP PUSH1 0x60 PUSH3 0x5758 DUP5 DUP3 DUP6 ADD PUSH3 0x5792 JUMP JUMPDEST PUSH1 0x60 DUP4 ADD MSTORE POP SWAP3 SWAP2 POP POP JUMP JUMPDEST PUSH1 0x0 DUP2 MLOAD SWAP1 POP PUSH3 0x5775 DUP2 PUSH3 0x7825 JUMP JUMPDEST SWAP3 SWAP2 POP POP JUMP JUMPDEST PUSH1 0x0 DUP2 MLOAD SWAP1 POP PUSH3 0x578C DUP2 PUSH3 0x783F JUMP JUMPDEST SWAP3 SWAP2 POP POP JUMP JUMPDEST PUSH1 0x0 DUP2 MLOAD SWAP1 POP PUSH3 0x57A3 DUP2 PUSH3 0x7859 JUMP JUMPDEST SWAP3 SWAP2 POP POP JUMP JUMPDEST PUSH1 0x0 PUSH1 0x20 DUP3 DUP5 SUB SLT ISZERO PUSH3 0x57C2 JUMPI PUSH3 0x57C1 PUSH3 0x7357 JUMP JUMPDEST JUMPDEST PUSH1 0x0 PUSH3 0x57D2 DUP5 DUP3 DUP6 ADD PUSH3 0x546A JUMP JUMPDEST SWAP2 POP POP SWAP3 SWAP2 POP POP JUMP JUMPDEST PUSH1 0x0 PUSH1 0x20 DUP3 DUP5 SUB SLT ISZERO PUSH3 0x57F4 JUMPI PUSH3 0x57F3 PUSH3 0x7357 JUMP JUMPDEST JUMPDEST PUSH1 0x0 PUSH3 0x5804 DUP5 DUP3 DUP6 ADD PUSH3 0x5481 JUMP JUMPDEST SWAP2 POP POP SWAP3 SWAP2 POP POP JUMP JUMPDEST PUSH1 0x0 PUSH1 0x20 DUP3 DUP5 SUB SLT ISZERO PUSH3 0x5826 JUMPI PUSH3 0x5825 PUSH3 0x7357 JUMP JUMPDEST JUMPDEST PUSH1 0x0 DUP3 ADD MLOAD PUSH8 0xFFFFFFFFFFFFFFFF DUP2 GT ISZERO PUSH3 0x5847 JUMPI PUSH3 0x5846 PUSH3 0x7352 JUMP JUMPDEST JUMPDEST PUSH3 0x5855 DUP5 DUP3 DUP6 ADD PUSH3 0x5515 JUMP JUMPDEST SWAP2 POP POP SWAP3 SWAP2 POP POP JUMP JUMPDEST PUSH1 0x0 PUSH2 0x100 DUP3 DUP5 SUB SLT ISZERO PUSH3 0x5878 JUMPI PUSH3 0x5877 PUSH3 0x7357 JUMP JUMPDEST JUMPDEST PUSH1 0x0 PUSH3 0x5888 DUP5 DUP3 DUP6 ADD PUSH3 0x55E1 JUMP JUMPDEST SWAP2 POP POP SWAP3 SWAP2 POP POP JUMP JUMPDEST PUSH1 0x0 PUSH1 0x20 DUP3 DUP5 SUB SLT ISZERO PUSH3 0x58AA JUMPI PUSH3 0x58A9 PUSH3 0x7357 JUMP JUMPDEST JUMPDEST PUSH1 0x0 DUP3 ADD MLOAD PUSH8 0xFFFFFFFFFFFFFFFF DUP2 GT ISZERO PUSH3 0x58CB JUMPI PUSH3 0x58CA PUSH3 0x7352 JUMP JUMPDEST JUMPDEST PUSH3 0x58D9 DUP5 DUP3 DUP6 ADD PUSH3 0x56C0 JUMP JUMPDEST SWAP2 POP POP SWAP3 SWAP2 POP POP JUMP JUMPDEST PUSH1 0x0 PUSH3 0x58F0 DUP4 DUP4 PUSH3 0x58FC JUMP JUMPDEST PUSH1 0x20 DUP4 ADD SWAP1 POP SWAP3 SWAP2 POP POP JUMP JUMPDEST PUSH3 0x5907 DUP2 PUSH3 0x6DF6 JUMP JUMPDEST DUP3 MSTORE POP POP JUMP JUMPDEST PUSH3 0x5918 DUP2 PUSH3 0x6DF6 JUMP JUMPDEST DUP3 MSTORE POP POP JUMP JUMPDEST PUSH1 0x0 PUSH3 0x592B DUP3 PUSH3 0x6D84 JUMP JUMPDEST PUSH3 0x5937 DUP2 DUP6 PUSH3 0x6DB2 JUMP JUMPDEST SWAP4 POP PUSH3 0x5944 DUP4 PUSH3 0x6D74 JUMP JUMPDEST DUP1 PUSH1 0x0 JUMPDEST DUP4 DUP2 LT ISZERO PUSH3 0x597B JUMPI DUP2 MLOAD PUSH3 0x595F DUP9 DUP3 PUSH3 0x58E2 JUMP JUMPDEST SWAP8 POP PUSH3 0x596C DUP4 PUSH3 0x6DA5 JUMP JUMPDEST SWAP3 POP POP PUSH1 0x1 DUP2 ADD SWAP1 POP PUSH3 0x5948 JUMP JUMPDEST POP DUP6 SWAP4 POP POP POP POP SWAP3 SWAP2 POP POP JUMP JUMPDEST PUSH3 0x5993 DUP2 PUSH3 0x6E0A JUMP JUMPDEST DUP3 MSTORE POP POP JUMP JUMPDEST PUSH3 0x59A4 DUP2 PUSH3 0x6E16 JUMP JUMPDEST DUP3 MSTORE POP POP JUMP JUMPDEST PUSH3 0x59B5 DUP2 PUSH3 0x6E16 JUMP JUMPDEST DUP3 MSTORE POP POP JUMP JUMPDEST PUSH1 0x0 PUSH3 0x59C8 DUP3 PUSH3 0x6D8F JUMP JUMPDEST PUSH3 0x59D4 DUP2 DUP6 PUSH3 0x6DC3 JUMP JUMPDEST SWAP4 POP PUSH3 0x59E6 DUP2 DUP6 PUSH1 0x20 DUP7 ADD PUSH3 0x724F JUMP JUMPDEST PUSH3 0x59F1 DUP2 PUSH3 0x735C JUMP JUMPDEST DUP5 ADD SWAP2 POP POP SWAP3 SWAP2 POP POP JUMP JUMPDEST PUSH3 0x5A07 DUP2 PUSH3 0x6F1B JUMP JUMPDEST DUP3 MSTORE POP POP JUMP JUMPDEST PUSH3 0x5A18 DUP2 PUSH3 0x6F2F JUMP JUMPDEST DUP3 MSTORE POP POP JUMP JUMPDEST PUSH3 0x5A29 DUP2 PUSH3 0x6F43 JUMP JUMPDEST DUP3 MSTORE POP POP JUMP JUMPDEST PUSH3 0x5A3A DUP2 PUSH3 0x6F57 JUMP JUMPDEST DUP3 MSTORE POP POP JUMP JUMPDEST PUSH3 0x5A4B DUP2 PUSH3 0x6F75 JUMP JUMPDEST DUP3 MSTORE POP POP JUMP JUMPDEST PUSH3 0x5A5C DUP2 PUSH3 0x6F93 JUMP JUMPDEST DUP3 MSTORE POP POP JUMP JUMPDEST PUSH3 0x5A6D DUP2 PUSH3 0x6FB1 JUMP JUMPDEST DUP3 MSTORE POP POP JUMP JUMPDEST PUSH3 0x5A7E DUP2 PUSH3 0x6FCF JUMP JUMPDEST DUP3 MSTORE POP POP JUMP JUMPDEST PUSH3 0x5A8F DUP2 PUSH3 0x6FED JUMP JUMPDEST DUP3 MSTORE POP POP JUMP JUMPDEST PUSH3 0x5AA0 DUP2 PUSH3 0x700B JUMP JUMPDEST DUP3 MSTORE POP POP JUMP JUMPDEST PUSH3 0x5AB1 DUP2 PUSH3 0x7029 JUMP JUMPDEST DUP3 MSTORE POP POP JUMP JUMPDEST PUSH3 0x5AC2 DUP2 PUSH3 0x7047 JUMP JUMPDEST DUP3 MSTORE POP POP JUMP JUMPDEST PUSH3 0x5AD3 DUP2 PUSH3 0x705B JUMP JUMPDEST DUP3 MSTORE POP POP JUMP JUMPDEST PUSH3 0x5AE4 DUP2 PUSH3 0x706F JUMP JUMPDEST DUP3 MSTORE POP POP JUMP JUMPDEST PUSH3 0x5AF5 DUP2 PUSH3 0x7083 JUMP JUMPDEST DUP3 MSTORE POP POP JUMP JUMPDEST PUSH3 0x5B06 DUP2 PUSH3 0x7097 JUMP JUMPDEST DUP3 MSTORE POP POP JUMP JUMPDEST PUSH3 0x5B17 DUP2 PUSH3 0x70AB JUMP JUMPDEST DUP3 MSTORE POP POP JUMP JUMPDEST PUSH3 0x5B28 DUP2 PUSH3 0x70BF JUMP JUMPDEST DUP3 MSTORE POP POP JUMP JUMPDEST PUSH3 0x5B39 DUP2 PUSH3 0x70D3 JUMP JUMPDEST DUP3 MSTORE POP POP JUMP JUMPDEST PUSH3 0x5B4A DUP2 PUSH3 0x70E7 JUMP JUMPDEST DUP3 MSTORE POP POP JUMP JUMPDEST PUSH3 0x5B5B DUP2 PUSH3 0x70FB JUMP JUMPDEST DUP3 MSTORE POP POP JUMP JUMPDEST PUSH3 0x5B6C DUP2 PUSH3 0x7119 JUMP JUMPDEST DUP3 MSTORE POP POP JUMP JUMPDEST PUSH3 0x5B7D DUP2 PUSH3 0x7137 JUMP JUMPDEST DUP3 MSTORE POP POP JUMP JUMPDEST PUSH3 0x5B8E DUP2 PUSH3 0x7155 JUMP JUMPDEST DUP3 MSTORE POP POP JUMP JUMPDEST PUSH3 0x5B9F DUP2 PUSH3 0x7155 JUMP JUMPDEST DUP3 MSTORE POP POP JUMP JUMPDEST PUSH3 0x5BB0 DUP2 PUSH3 0x7173 JUMP JUMPDEST DUP3 MSTORE POP POP JUMP JUMPDEST PUSH3 0x5BC1 DUP2 PUSH3 0x7191 JUMP JUMPDEST DUP3 MSTORE POP POP JUMP JUMPDEST PUSH3 0x5BD2 DUP2 PUSH3 0x71AF JUMP JUMPDEST DUP3 MSTORE POP POP JUMP JUMPDEST PUSH3 0x5BE3 DUP2 PUSH3 0x71CD JUMP JUMPDEST DUP3 MSTORE POP POP JUMP JUMPDEST PUSH1 0x0 PUSH3 0x5BF6 DUP3 PUSH3 0x6D9A JUMP JUMPDEST PUSH3 0x5C02 DUP2 DUP6 PUSH3 0x6DE5 JUMP JUMPDEST SWAP4 POP PUSH3 0x5C14 DUP2 DUP6 PUSH1 0x20 DUP7 ADD PUSH3 0x724F JUMP JUMPDEST PUSH3 0x5C1F DUP2 PUSH3 0x735C JUMP JUMPDEST DUP5 ADD SWAP2 POP POP SWAP3 SWAP2 POP POP JUMP JUMPDEST PUSH1 0x0 PUSH3 0x5C39 PUSH1 0x9 DUP4 PUSH3 0x6DD4 JUMP JUMPDEST SWAP2 POP PUSH3 0x5C46 DUP3 PUSH3 0x7387 JUMP JUMPDEST PUSH1 0x20 DUP3 ADD SWAP1 POP SWAP2 SWAP1 POP JUMP JUMPDEST PUSH1 0x0 PUSH3 0x5C60 PUSH1 0x9 DUP4 PUSH3 0x6DE5 JUMP JUMPDEST SWAP2 POP PUSH3 0x5C6D DUP3 PUSH3 0x7387 JUMP JUMPDEST PUSH1 0x20 DUP3 ADD SWAP1 POP SWAP2 SWAP1 POP JUMP JUMPDEST PUSH1 0x0 PUSH3 0x5C87 PUSH1 0x2A DUP4 PUSH3 0x6DE5 JUMP JUMPDEST SWAP2 POP PUSH3 0x5C94 DUP3 PUSH3 0x73B0 JUMP JUMPDEST PUSH1 0x40 DUP3 ADD SWAP1 POP SWAP2 SWAP1 POP JUMP JUMPDEST PUSH1 0x0 PUSH3 0x5CAE PUSH1 0x2A DUP4 PUSH3 0x6DE5 JUMP JUMPDEST SWAP2 POP PUSH3 0x5CBB DUP3 PUSH3 0x73FF JUMP JUMPDEST PUSH1 0x40 DUP3 ADD SWAP1 POP SWAP2 SWAP1 POP JUMP JUMPDEST PUSH1 0x0 PUSH3 0x5CD5 PUSH1 0x18 DUP4 PUSH3 0x6DE5 JUMP JUMPDEST SWAP2 POP PUSH3 0x5CE2 DUP3 PUSH3 0x744E JUMP JUMPDEST PUSH1 0x20 DUP3 ADD SWAP1 POP SWAP2 SWAP1 POP JUMP JUMPDEST PUSH1 0x0 PUSH3 0x5CFC PUSH1 0x42 DUP4 PUSH3 0x6DE5 JUMP JUMPDEST SWAP2 POP PUSH3 0x5D09 DUP3 PUSH3 0x7477 JUMP JUMPDEST PUSH1 0x60 DUP3 ADD SWAP1 POP SWAP2 SWAP1 POP JUMP JUMPDEST PUSH1 0x0 PUSH3 0x5D23 PUSH1 0x1D DUP4 PUSH3 0x6DE5 JUMP JUMPDEST SWAP2 POP PUSH3 0x5D30 DUP3 PUSH3 0x74EC JUMP JUMPDEST PUSH1 0x20 DUP3 ADD SWAP1 POP SWAP2 SWAP1 POP JUMP JUMPDEST PUSH1 0x0 PUSH3 0x5D4A PUSH1 0x15 DUP4 PUSH3 0x6DE5 JUMP JUMPDEST SWAP2 POP PUSH3 0x5D57 DUP3 PUSH3 0x7515 JUMP JUMPDEST PUSH1 0x20 DUP3 ADD SWAP1 POP SWAP2 SWAP1 POP JUMP JUMPDEST PUSH1 0x0 PUSH3 0x5D71 PUSH1 0x14 DUP4 PUSH3 0x6DE5 JUMP JUMPDEST SWAP2 POP PUSH3 0x5D7E DUP3 PUSH3 0x753E JUMP JUMPDEST PUSH1 0x20 DUP3 ADD SWAP1 POP SWAP2 SWAP1 POP JUMP JUMPDEST PUSH1 0x0 PUSH3 0x5D98 PUSH1 0x1B DUP4 PUSH3 0x6DE5 JUMP JUMPDEST SWAP2 POP PUSH3 0x5DA5 DUP3 PUSH3 0x7567 JUMP JUMPDEST PUSH1 0x20 DUP3 ADD SWAP1 POP SWAP2 SWAP1 POP JUMP JUMPDEST PUSH1 0x0 PUSH3 0x5DBF PUSH1 0x16 DUP4 PUSH3 0x6DE5 JUMP JUMPDEST SWAP2 POP PUSH3 0x5DCC DUP3 PUSH3 0x7590 JUMP JUMPDEST PUSH1 0x20 DUP3 ADD SWAP1 POP SWAP2 SWAP1 POP JUMP JUMPDEST PUSH1 0x0 PUSH3 0x5DE6 PUSH1 0x29 DUP4 PUSH3 0x6DE5 JUMP JUMPDEST SWAP2 POP PUSH3 0x5DF3 DUP3 PUSH3 0x75B9 JUMP JUMPDEST PUSH1 0x40 DUP3 ADD SWAP1 POP SWAP2 SWAP1 POP JUMP JUMPDEST PUSH1 0x0 PUSH3 0x5E0D PUSH1 0x1D DUP4 PUSH3 0x6DE5 JUMP JUMPDEST SWAP2 POP PUSH3 0x5E1A DUP3 PUSH3 0x7608 JUMP JUMPDEST PUSH1 0x20 DUP3 ADD SWAP1 POP SWAP2 SWAP1 POP JUMP JUMPDEST PUSH1 0x0 PUSH3 0x5E34 PUSH1 0x36 DUP4 PUSH3 0x6DE5 JUMP JUMPDEST SWAP2 POP PUSH3 0x5E41 DUP3 PUSH3 0x7631 JUMP JUMPDEST PUSH1 0x40 DUP3 ADD SWAP1 POP SWAP2 SWAP1 POP JUMP JUMPDEST PUSH1 0x0 PUSH3 0x5E5B PUSH1 0x18 DUP4 PUSH3 0x6DE5 JUMP JUMPDEST SWAP2 POP PUSH3 0x5E68 DUP3 PUSH3 0x7680 JUMP JUMPDEST PUSH1 0x20 DUP3 ADD SWAP1 POP SWAP2 SWAP1 POP JUMP JUMPDEST PUSH1 0x0 PUSH3 0x5E82 PUSH1 0x10 DUP4 PUSH3 0x6DE5 JUMP JUMPDEST SWAP2 POP PUSH3 0x5E8F DUP3 PUSH3 0x76A9 JUMP JUMPDEST PUSH1 0x20 DUP3 ADD SWAP1 POP SWAP2 SWAP1 POP JUMP JUMPDEST PUSH1 0x0 PUSH3 0x5EA9 PUSH1 0x1A DUP4 PUSH3 0x6DE5 JUMP JUMPDEST SWAP2 POP PUSH3 0x5EB6 DUP3 PUSH3 0x76D2 JUMP JUMPDEST PUSH1 0x20 DUP3 ADD SWAP1 POP SWAP2 SWAP1 POP JUMP JUMPDEST PUSH1 0x0 PUSH3 0x5ED0 PUSH1 0xF DUP4 PUSH3 0x6DE5 JUMP JUMPDEST SWAP2 POP PUSH3 0x5EDD DUP3 PUSH3 0x76FB JUMP JUMPDEST PUSH1 0x20 DUP3 ADD SWAP1 POP SWAP2 SWAP1 POP JUMP JUMPDEST PUSH3 0x5EF3 DUP2 PUSH3 0x6EE0 JUMP JUMPDEST DUP3 MSTORE POP POP JUMP JUMPDEST PUSH3 0x5F04 DUP2 PUSH3 0x7213 JUMP JUMPDEST DUP3 MSTORE POP POP JUMP JUMPDEST PUSH3 0x5F15 DUP2 PUSH3 0x7227 JUMP JUMPDEST DUP3 MSTORE POP POP JUMP JUMPDEST PUSH3 0x5F26 DUP2 PUSH3 0x723B JUMP JUMPDEST DUP3 MSTORE POP POP JUMP JUMPDEST PUSH1 0x0 PUSH1 0x40 DUP3 ADD SWAP1 POP PUSH3 0x5F43 PUSH1 0x0 DUP4 ADD DUP5 PUSH3 0x5988 JUMP JUMPDEST DUP2 DUP2 SUB PUSH1 0x20 DUP4 ADD MSTORE PUSH3 0x5F56 DUP2 PUSH3 0x5DB0 JUMP JUMPDEST SWAP1 POP SWAP3 SWAP2 POP POP JUMP JUMPDEST PUSH1 0x0 PUSH1 0x20 DUP3 ADD SWAP1 POP PUSH3 0x5F75 PUSH1 0x0 DUP4 ADD DUP5 PUSH3 0x5999 JUMP JUMPDEST SWAP3 SWAP2 POP POP JUMP JUMPDEST PUSH1 0x0 PUSH1 0x60 DUP3 ADD SWAP1 POP PUSH3 0x5F92 PUSH1 0x0 DUP4 ADD DUP7 PUSH3 0x5999 JUMP JUMPDEST PUSH3 0x5FA1 PUSH1 0x20 DUP4 ADD DUP6 PUSH3 0x590D JUMP JUMPDEST PUSH3 0x5FB0 PUSH1 0x40 DUP4 ADD DUP5 PUSH3 0x5AD9 JUMP JUMPDEST SWAP5 SWAP4 POP POP POP POP JUMP JUMPDEST PUSH1 0x0 PUSH1 0xC0 DUP3 ADD SWAP1 POP PUSH3 0x5FCF PUSH1 0x0 DUP4 ADD DUP10 PUSH3 0x5999 JUMP JUMPDEST PUSH3 0x5FDE PUSH1 0x20 DUP4 ADD DUP9 PUSH3 0x5A1E JUMP JUMPDEST PUSH3 0x5FED PUSH1 0x40 DUP4 ADD DUP8 PUSH3 0x5AFB JUMP JUMPDEST PUSH3 0x5FFC PUSH1 0x60 DUP4 ADD DUP7 PUSH3 0x5B1D JUMP JUMPDEST PUSH3 0x600B PUSH1 0x80 DUP4 ADD DUP6 PUSH3 0x5B3F JUMP JUMPDEST PUSH3 0x601A PUSH1 0xA0 DUP4 ADD DUP5 PUSH3 0x5B3F JUMP JUMPDEST SWAP8 SWAP7 POP POP POP POP POP POP POP JUMP JUMPDEST PUSH1 0x0 PUSH1 0x80 DUP3 ADD SWAP1 POP PUSH3 0x603C PUSH1 0x0 DUP4 ADD DUP8 PUSH3 0x5999 JUMP JUMPDEST PUSH3 0x604B PUSH1 0x20 DUP4 ADD DUP7 PUSH3 0x5A1E JUMP JUMPDEST PUSH3 0x605A PUSH1 0x40 DUP4 ADD DUP6 PUSH3 0x5B83 JUMP JUMPDEST PUSH3 0x6069 PUSH1 0x60 DUP4 ADD DUP5 PUSH3 0x5BB6 JUMP JUMPDEST SWAP6 SWAP5 POP POP POP POP POP JUMP JUMPDEST PUSH1 0x0 PUSH1 0x40 DUP3 ADD SWAP1 POP PUSH3 0x6089 PUSH1 0x0 DUP4 ADD DUP6 PUSH3 0x5999 JUMP JUMPDEST PUSH3 0x6098 PUSH1 0x20 DUP4 ADD DUP5 PUSH3 0x5AD9 JUMP JUMPDEST SWAP4 SWAP3 POP POP POP JUMP JUMPDEST PUSH1 0x0 PUSH1 0x60 DUP3 ADD SWAP1 POP PUSH3 0x60B6 PUSH1 0x0 DUP4 ADD DUP7 PUSH3 0x5999 JUMP JUMPDEST PUSH3 0x60C5 PUSH1 0x20 DUP4 ADD DUP6 PUSH3 0x5AD9 JUMP JUMPDEST DUP2 DUP2 SUB PUSH1 0x40 DUP4 ADD MSTORE PUSH3 0x60D9 DUP2 DUP5 PUSH3 0x591E JUMP JUMPDEST SWAP1 POP SWAP5 SWAP4 POP POP POP POP JUMP JUMPDEST PUSH1 0x0 PUSH1 0x60 DUP3 ADD SWAP1 POP PUSH3 0x60FA PUSH1 0x0 DUP4 ADD DUP7 PUSH3 0x5999 JUMP JUMPDEST PUSH3 0x6109 PUSH1 0x20 DUP4 ADD DUP6 PUSH3 0x5AD9 JUMP JUMPDEST DUP2 DUP2 SUB PUSH1 0x40 DUP4 ADD MSTORE PUSH3 0x611D DUP2 DUP5 PUSH3 0x59BB JUMP JUMPDEST SWAP1 POP SWAP5 SWAP4 POP POP POP POP JUMP JUMPDEST PUSH1 0x0 PUSH1 0x80 DUP3 ADD SWAP1 POP PUSH3 0x613E PUSH1 0x0 DUP4 ADD DUP8 PUSH3 0x5999 JUMP JUMPDEST PUSH3 0x614D PUSH1 0x20 DUP4 ADD DUP7 PUSH3 0x5AD9 JUMP JUMPDEST PUSH3 0x615C PUSH1 0x40 DUP4 ADD DUP6 PUSH3 0x5A2F JUMP JUMPDEST PUSH3 0x616B PUSH1 0x60 DUP4 ADD DUP5 PUSH3 0x5A51 JUMP JUMPDEST SWAP6 SWAP5 POP POP POP POP POP JUMP JUMPDEST PUSH1 0x0 PUSH1 0x80 DUP3 ADD SWAP1 POP PUSH3 0x618B PUSH1 0x0 DUP4 ADD DUP8 PUSH3 0x5999 JUMP JUMPDEST PUSH3 0x619A PUSH1 0x20 DUP4 ADD DUP7 PUSH3 0x5AD9 JUMP JUMPDEST PUSH3 0x61A9 PUSH1 0x40 DUP4 ADD DUP6 PUSH3 0x5A40 JUMP JUMPDEST PUSH3 0x61B8 PUSH1 0x60 DUP4 ADD DUP5 PUSH3 0x5A51 JUMP JUMPDEST SWAP6 SWAP5 POP POP POP POP POP JUMP JUMPDEST PUSH1 0x0 PUSH1 0x80 DUP3 ADD SWAP1 POP PUSH3 0x61D8 PUSH1 0x0 DUP4 ADD DUP8 PUSH3 0x5999 JUMP JUMPDEST PUSH3 0x61E7 PUSH1 0x20 DUP4 ADD DUP7 PUSH3 0x5AD9 JUMP JUMPDEST PUSH3 0x61F6 PUSH1 0x40 DUP4 ADD DUP6 PUSH3 0x5A62 JUMP JUMPDEST PUSH3 0x6205 PUSH1 0x60 DUP4 ADD DUP5 PUSH3 0x5A73 JUMP JUMPDEST SWAP6 SWAP5 POP POP POP POP POP JUMP JUMPDEST PUSH1 0x0 PUSH1 0x80 DUP3 ADD SWAP1 POP PUSH3 0x6225 PUSH1 0x0 DUP4 ADD DUP8 PUSH3 0x5999 JUMP JUMPDEST PUSH3 0x6234 PUSH1 0x20 DUP4 ADD DUP7 PUSH3 0x5AD9 JUMP JUMPDEST PUSH3 0x6243 PUSH1 0x40 DUP4 ADD DUP6 PUSH3 0x5A95 JUMP JUMPDEST PUSH3 0x6252 PUSH1 0x60 DUP4 ADD DUP5 PUSH3 0x5AA6 JUMP JUMPDEST SWAP6 SWAP5 POP POP POP POP POP JUMP JUMPDEST PUSH1 0x0 PUSH1 0xC0 DUP3 ADD SWAP1 POP PUSH3 0x6272 PUSH1 0x0 DUP4 ADD DUP10 PUSH3 0x5999 JUMP JUMPDEST PUSH3 0x6281 PUSH1 0x20 DUP4 ADD DUP9 PUSH3 0x5AD9 JUMP JUMPDEST PUSH3 0x6290 PUSH1 0x40 DUP4 ADD DUP8 PUSH3 0x5AFB JUMP JUMPDEST PUSH3 0x629F PUSH1 0x60 DUP4 ADD DUP7 PUSH3 0x5B1D JUMP JUMPDEST PUSH3 0x62AE PUSH1 0x80 DUP4 ADD DUP6 PUSH3 0x5AC8 JUMP JUMPDEST PUSH3 0x62BD PUSH1 0xA0 DUP4 ADD DUP5 PUSH3 0x5AC8 JUMP JUMPDEST SWAP8 SWAP7 POP POP POP POP POP POP POP JUMP JUMPDEST PUSH1 0x0 PUSH1 0xC0 DUP3 ADD SWAP1 POP PUSH3 0x62DF PUSH1 0x0 DUP4 ADD DUP10 PUSH3 0x5999 JUMP JUMPDEST PUSH3 0x62EE PUSH1 0x20 DUP4 ADD DUP9 PUSH3 0x5AD9 JUMP JUMPDEST PUSH3 0x62FD PUSH1 0x40 DUP4 ADD DUP8 PUSH3 0x5AFB JUMP JUMPDEST PUSH3 0x630C PUSH1 0x60 DUP4 ADD DUP7 PUSH3 0x5B1D JUMP JUMPDEST PUSH3 0x631B PUSH1 0x80 DUP4 ADD DUP6 PUSH3 0x5B3F JUMP JUMPDEST PUSH3 0x632A PUSH1 0xA0 DUP4 ADD DUP5 PUSH3 0x5AC8 JUMP JUMPDEST SWAP8 SWAP7 POP POP POP POP POP POP POP JUMP JUMPDEST PUSH1 0x0 PUSH1 0xC0 DUP3 ADD SWAP1 POP PUSH3 0x634C PUSH1 0x0 DUP4 ADD DUP10 PUSH3 0x5999 JUMP JUMPDEST PUSH3 0x635B PUSH1 0x20 DUP4 ADD DUP9 PUSH3 0x5AD9 JUMP JUMPDEST PUSH3 0x636A PUSH1 0x40 DUP4 ADD DUP8 PUSH3 0x5AFB JUMP JUMPDEST PUSH3 0x6379 PUSH1 0x60 DUP4 ADD DUP7 PUSH3 0x5B1D JUMP JUMPDEST PUSH3 0x6388 PUSH1 0x80 DUP4 ADD DUP6 PUSH3 0x5B3F JUMP JUMPDEST PUSH3 0x6397 PUSH1 0xA0 DUP4 ADD DUP5 PUSH3 0x5B3F JUMP JUMPDEST SWAP8 SWAP7 POP POP POP POP POP POP POP JUMP JUMPDEST PUSH1 0x0 PUSH1 0x80 DUP3 ADD SWAP1 POP PUSH3 0x63B9 PUSH1 0x0 DUP4 ADD DUP8 PUSH3 0x5999 JUMP JUMPDEST PUSH3 0x63C8 PUSH1 0x20 DUP4 ADD DUP7 PUSH3 0x5AD9 JUMP JUMPDEST PUSH3 0x63D7 PUSH1 0x40 DUP4 ADD DUP6 PUSH3 0x5B83 JUMP JUMPDEST PUSH3 0x63E6 PUSH1 0x60 DUP4 ADD DUP5 PUSH3 0x5BB6 JUMP JUMPDEST SWAP6 SWAP5 POP POP POP POP POP JUMP JUMPDEST PUSH1 0x0 PUSH1 0x80 DUP3 ADD SWAP1 POP PUSH3 0x6406 PUSH1 0x0 DUP4 ADD DUP8 PUSH3 0x5999 JUMP JUMPDEST PUSH3 0x6415 PUSH1 0x20 DUP4 ADD DUP7 PUSH3 0x5AD9 JUMP JUMPDEST PUSH3 0x6424 PUSH1 0x40 DUP4 ADD DUP6 PUSH3 0x5BC7 JUMP JUMPDEST PUSH3 0x6433 PUSH1 0x60 DUP4 ADD DUP5 PUSH3 0x5BD8 JUMP JUMPDEST SWAP6 SWAP5 POP POP POP POP POP JUMP JUMPDEST PUSH1 0x0 PUSH1 0x60 DUP3 ADD SWAP1 POP PUSH3 0x6453 PUSH1 0x0 DUP4 ADD DUP6 PUSH3 0x59AA JUMP JUMPDEST PUSH3 0x6462 PUSH1 0x20 DUP4 ADD DUP5 PUSH3 0x5B94 JUMP JUMPDEST DUP2 DUP2 SUB PUSH1 0x40 DUP4 ADD MSTORE PUSH3 0x6475 DUP2 PUSH3 0x5E73 JUMP JUMPDEST SWAP1 POP SWAP4 SWAP3 POP POP POP JUMP JUMPDEST PUSH1 0x0 PUSH1 0x20 DUP3 ADD SWAP1 POP PUSH3 0x6495 PUSH1 0x0 DUP4 ADD DUP5 PUSH3 0x59FC JUMP JUMPDEST SWAP3 SWAP2 POP POP JUMP JUMPDEST PUSH1 0x0 PUSH1 0xC0 DUP3 ADD SWAP1 POP PUSH3 0x64B2 PUSH1 0x0 DUP4 ADD DUP10 PUSH3 0x5B83 JUMP JUMPDEST PUSH3 0x64C1 PUSH1 0x20 DUP4 ADD DUP9 PUSH3 0x5A1E JUMP JUMPDEST PUSH3 0x64D0 PUSH1 0x40 DUP4 ADD DUP8 PUSH3 0x5AFB JUMP JUMPDEST PUSH3 0x64DF PUSH1 0x60 DUP4 ADD DUP7 PUSH3 0x5B1D JUMP JUMPDEST PUSH3 0x64EE PUSH1 0x80 DUP4 ADD DUP6 PUSH3 0x5B3F JUMP JUMPDEST PUSH3 0x64FD PUSH1 0xA0 DUP4 ADD DUP5 PUSH3 0x5B3F JUMP JUMPDEST SWAP8 SWAP7 POP POP POP POP POP POP POP JUMP JUMPDEST PUSH1 0x0 PUSH1 0x80 DUP3 ADD SWAP1 POP PUSH3 0x651F PUSH1 0x0 DUP4 ADD DUP8 PUSH3 0x5B83 JUMP JUMPDEST PUSH3 0x652E PUSH1 0x20 DUP4 ADD DUP7 PUSH3 0x5AD9 JUMP JUMPDEST PUSH3 0x653D PUSH1 0x40 DUP4 ADD DUP6 PUSH3 0x5B83 JUMP JUMPDEST PUSH3 0x654C PUSH1 0x60 DUP4 ADD DUP5 PUSH3 0x5BB6 JUMP JUMPDEST SWAP6 SWAP5 POP POP POP POP POP JUMP JUMPDEST PUSH1 0x0 PUSH1 0x60 DUP3 ADD SWAP1 POP DUP2 DUP2 SUB PUSH1 0x0 DUP4 ADD MSTORE PUSH3 0x6571 DUP2 DUP5 PUSH3 0x5BE9 JUMP JUMPDEST SWAP1 POP DUP2 DUP2 SUB PUSH1 0x20 DUP4 ADD MSTORE PUSH3 0x6586 DUP2 PUSH3 0x5C51 JUMP JUMPDEST SWAP1 POP DUP2 DUP2 SUB PUSH1 0x40 DUP4 ADD MSTORE PUSH3 0x659B DUP2 PUSH3 0x5E73 JUMP JUMPDEST SWAP1 POP SWAP3 SWAP2 POP POP JUMP JUMPDEST PUSH1 0x0 PUSH1 0x60 DUP3 ADD SWAP1 POP DUP2 DUP2 SUB PUSH1 0x0 DUP4 ADD MSTORE PUSH3 0x65BF DUP2 DUP5 PUSH3 0x5BE9 JUMP JUMPDEST SWAP1 POP DUP2 DUP2 SUB PUSH1 0x20 DUP4 ADD MSTORE PUSH3 0x65D4 DUP2 PUSH3 0x5CC6 JUMP JUMPDEST SWAP1 POP DUP2 DUP2 SUB PUSH1 0x40 DUP4 ADD MSTORE PUSH3 0x65E9 DUP2 PUSH3 0x5D3B JUMP JUMPDEST SWAP1 POP SWAP3 SWAP2 POP POP JUMP JUMPDEST PUSH1 0x0 PUSH1 0x60 DUP3 ADD SWAP1 POP DUP2 DUP2 SUB PUSH1 0x0 DUP4 ADD MSTORE PUSH3 0x660D DUP2 DUP5 PUSH3 0x5BE9 JUMP JUMPDEST SWAP1 POP DUP2 DUP2 SUB PUSH1 0x20 DUP4 ADD MSTORE PUSH3 0x6622 DUP2 PUSH3 0x5CED JUMP JUMPDEST SWAP1 POP DUP2 DUP2 SUB PUSH1 0x40 DUP4 ADD MSTORE PUSH3 0x6637 DUP2 PUSH3 0x5E4C JUMP JUMPDEST SWAP1 POP SWAP3 SWAP2 POP POP JUMP JUMPDEST PUSH1 0x0 PUSH1 0x60 DUP3 ADD SWAP1 POP DUP2 DUP2 SUB PUSH1 0x0 DUP4 ADD MSTORE PUSH3 0x665B DUP2 DUP5 PUSH3 0x5BE9 JUMP JUMPDEST SWAP1 POP DUP2 DUP2 SUB PUSH1 0x20 DUP4 ADD MSTORE PUSH3 0x6670 DUP2 PUSH3 0x5D14 JUMP JUMPDEST SWAP1 POP DUP2 DUP2 SUB PUSH1 0x40 DUP4 ADD MSTORE PUSH3 0x6685 DUP2 PUSH3 0x5D89 JUMP JUMPDEST SWAP1 POP SWAP3 SWAP2 POP POP JUMP JUMPDEST PUSH1 0x0 PUSH1 0x60 DUP3 ADD SWAP1 POP DUP2 DUP2 SUB PUSH1 0x0 DUP4 ADD MSTORE PUSH3 0x66A9 DUP2 DUP5 PUSH3 0x5BE9 JUMP JUMPDEST SWAP1 POP DUP2 DUP2 SUB PUSH1 0x20 DUP4 ADD MSTORE PUSH3 0x66BE DUP2 PUSH3 0x5D62 JUMP JUMPDEST SWAP1 POP DUP2 DUP2 SUB PUSH1 0x40 DUP4 ADD MSTORE PUSH3 0x66D3 DUP2 PUSH3 0x5D89 JUMP JUMPDEST SWAP1 POP SWAP3 SWAP2 POP POP JUMP JUMPDEST PUSH1 0x0 PUSH1 0x60 DUP3 ADD SWAP1 POP DUP2 DUP2 SUB PUSH1 0x0 DUP4 ADD MSTORE PUSH3 0x66F7 DUP2 DUP5 PUSH3 0x5BE9 JUMP JUMPDEST SWAP1 POP DUP2 DUP2 SUB PUSH1 0x20 DUP4 ADD MSTORE PUSH3 0x670C DUP2 PUSH3 0x5DD7 JUMP JUMPDEST SWAP1 POP DUP2 DUP2 SUB PUSH1 0x40 DUP4 ADD MSTORE PUSH3 0x6721 DUP2 PUSH3 0x5D3B JUMP JUMPDEST SWAP1 POP SWAP3 SWAP2 POP POP JUMP JUMPDEST PUSH1 0x0 PUSH1 0x60 DUP3 ADD SWAP1 POP DUP2 DUP2 SUB PUSH1 0x0 DUP4 ADD MSTORE PUSH3 0x6745 DUP2 DUP5 PUSH3 0x5BE9 JUMP JUMPDEST SWAP1 POP DUP2 DUP2 SUB PUSH1 0x20 DUP4 ADD MSTORE PUSH3 0x675A DUP2 PUSH3 0x5DFE JUMP JUMPDEST SWAP1 POP DUP2 DUP2 SUB PUSH1 0x40 DUP4 ADD MSTORE PUSH3 0x676F DUP2 PUSH3 0x5D89 JUMP JUMPDEST SWAP1 POP SWAP3 SWAP2 POP POP JUMP JUMPDEST PUSH1 0x0 PUSH1 0x60 DUP3 ADD SWAP1 POP DUP2 DUP2 SUB PUSH1 0x0 DUP4 ADD MSTORE PUSH3 0x6793 DUP2 DUP5 PUSH3 0x5BE9 JUMP JUMPDEST SWAP1 POP DUP2 DUP2 SUB PUSH1 0x20 DUP4 ADD MSTORE PUSH3 0x67A8 DUP2 PUSH3 0x5DFE JUMP JUMPDEST SWAP1 POP DUP2 DUP2 SUB PUSH1 0x40 DUP4 ADD MSTORE PUSH3 0x67BD DUP2 PUSH3 0x5E4C JUMP JUMPDEST SWAP1 POP SWAP3 SWAP2 POP POP JUMP JUMPDEST PUSH1 0x0 PUSH1 0x60 DUP3 ADD SWAP1 POP DUP2 DUP2 SUB PUSH1 0x0 DUP4 ADD MSTORE PUSH3 0x67E1 DUP2 DUP5 PUSH3 0x5BE9 JUMP JUMPDEST SWAP1 POP DUP2 DUP2 SUB PUSH1 0x20 DUP4 ADD MSTORE PUSH3 0x67F6 DUP2 PUSH3 0x5E25 JUMP JUMPDEST SWAP1 POP DUP2 DUP2 SUB PUSH1 0x40 DUP4 ADD MSTORE PUSH3 0x680B DUP2 PUSH3 0x5D3B JUMP JUMPDEST SWAP1 POP SWAP3 SWAP2 POP POP JUMP JUMPDEST PUSH1 0x0 PUSH1 0x60 DUP3 ADD SWAP1 POP DUP2 DUP2 SUB PUSH1 0x0 DUP4 ADD MSTORE PUSH3 0x682F DUP2 DUP5 PUSH3 0x5BE9 JUMP JUMPDEST SWAP1 POP DUP2 DUP2 SUB PUSH1 0x20 DUP4 ADD MSTORE PUSH3 0x6844 DUP2 PUSH3 0x5E9A JUMP JUMPDEST SWAP1 POP DUP2 DUP2 SUB PUSH1 0x40 DUP4 ADD MSTORE PUSH3 0x6859 DUP2 PUSH3 0x5C9F JUMP JUMPDEST SWAP1 POP SWAP3 SWAP2 POP POP JUMP JUMPDEST PUSH1 0x0 PUSH1 0x60 DUP3 ADD SWAP1 POP DUP2 DUP2 SUB PUSH1 0x0 DUP4 ADD MSTORE PUSH3 0x687D DUP2 DUP5 PUSH3 0x5BE9 JUMP JUMPDEST SWAP1 POP DUP2 DUP2 SUB PUSH1 0x20 DUP4 ADD MSTORE PUSH3 0x6892 DUP2 PUSH3 0x5EC1 JUMP JUMPDEST SWAP1 POP DUP2 DUP2 SUB PUSH1 0x40 DUP4 ADD MSTORE PUSH3 0x68A7 DUP2 PUSH3 0x5D3B JUMP JUMPDEST SWAP1 POP SWAP3 SWAP2 POP POP JUMP JUMPDEST PUSH1 0x0 PUSH1 0x60 DUP3 ADD SWAP1 POP DUP2 DUP2 SUB PUSH1 0x0 DUP4 ADD MSTORE PUSH3 0x68CB DUP2 DUP5 PUSH3 0x5BE9 JUMP JUMPDEST SWAP1 POP DUP2 DUP2 SUB PUSH1 0x20 DUP4 ADD MSTORE PUSH3 0x68E0 DUP2 PUSH3 0x5EC1 JUMP JUMPDEST SWAP1 POP DUP2 DUP2 SUB PUSH1 0x40 DUP4 ADD MSTORE PUSH3 0x68F5 DUP2 PUSH3 0x5E4C JUMP JUMPDEST SWAP1 POP SWAP3 SWAP2 POP POP JUMP JUMPDEST PUSH1 0x0 PUSH1 0x40 DUP3 ADD SWAP1 POP DUP2 DUP2 SUB PUSH1 0x0 DUP4 ADD MSTORE PUSH3 0x6918 DUP2 PUSH3 0x5C2A JUMP JUMPDEST SWAP1 POP PUSH3 0x6929 PUSH1 0x20 DUP4 ADD DUP5 PUSH3 0x5A84 JUMP JUMPDEST SWAP3 SWAP2 POP POP JUMP JUMPDEST PUSH1 0x0 PUSH1 0x40 DUP3 ADD SWAP1 POP DUP2 DUP2 SUB PUSH1 0x0 DUP4 ADD MSTORE PUSH3 0x694A DUP2 PUSH3 0x5C2A JUMP JUMPDEST SWAP1 POP PUSH3 0x695B PUSH1 0x20 DUP4 ADD DUP5 PUSH3 0x5B50 JUMP JUMPDEST SWAP3 SWAP2 POP POP JUMP JUMPDEST PUSH1 0x0 PUSH1 0x40 DUP3 ADD SWAP1 POP DUP2 DUP2 SUB PUSH1 0x0 DUP4 ADD MSTORE PUSH3 0x697C DUP2 PUSH3 0x5C2A JUMP JUMPDEST SWAP1 POP PUSH3 0x698D PUSH1 0x20 DUP4 ADD DUP5 PUSH3 0x5B61 JUMP JUMPDEST SWAP3 SWAP2 POP POP JUMP JUMPDEST PUSH1 0x0 PUSH1 0x40 DUP3 ADD SWAP1 POP DUP2 DUP2 SUB PUSH1 0x0 DUP4 ADD MSTORE PUSH3 0x69AE DUP2 PUSH3 0x5C2A JUMP JUMPDEST SWAP1 POP PUSH3 0x69BF PUSH1 0x20 DUP4 ADD DUP5 PUSH3 0x5B72 JUMP JUMPDEST SWAP3 SWAP2 POP POP JUMP JUMPDEST PUSH1 0x0 PUSH1 0x40 DUP3 ADD SWAP1 POP DUP2 DUP2 SUB PUSH1 0x0 DUP4 ADD MSTORE PUSH3 0x69E0 DUP2 PUSH3 0x5C2A JUMP JUMPDEST SWAP1 POP PUSH3 0x69F1 PUSH1 0x20 DUP4 ADD DUP5 PUSH3 0x5B83 JUMP JUMPDEST SWAP3 SWAP2 POP POP JUMP JUMPDEST PUSH1 0x0 PUSH1 0x40 DUP3 ADD SWAP1 POP DUP2 DUP2 SUB PUSH1 0x0 DUP4 ADD MSTORE PUSH3 0x6A12 DUP2 PUSH3 0x5C2A JUMP JUMPDEST SWAP1 POP PUSH3 0x6A23 PUSH1 0x20 DUP4 ADD DUP5 PUSH3 0x5BA5 JUMP JUMPDEST SWAP3 SWAP2 POP POP JUMP JUMPDEST PUSH1 0x0 PUSH1 0x40 DUP3 ADD SWAP1 POP DUP2 DUP2 SUB PUSH1 0x0 DUP4 ADD MSTORE PUSH3 0x6A44 DUP2 PUSH3 0x5C2A JUMP JUMPDEST SWAP1 POP PUSH3 0x6A55 PUSH1 0x20 DUP4 ADD DUP5 PUSH3 0x5BB6 JUMP JUMPDEST SWAP3 SWAP2 POP POP JUMP JUMPDEST PUSH1 0x0 PUSH1 0x40 DUP3 ADD SWAP1 POP DUP2 DUP2 SUB PUSH1 0x0 DUP4 ADD MSTORE PUSH3 0x6A76 DUP2 PUSH3 0x5C2A JUMP JUMPDEST SWAP1 POP PUSH3 0x6A87 PUSH1 0x20 DUP4 ADD DUP5 PUSH3 0x5BC7 JUMP JUMPDEST SWAP3 SWAP2 POP POP JUMP JUMPDEST PUSH1 0x0 PUSH1 0x60 DUP3 ADD SWAP1 POP PUSH3 0x6AA4 PUSH1 0x0 DUP4 ADD DUP6 PUSH3 0x5EE8 JUMP JUMPDEST PUSH3 0x6AB3 PUSH1 0x20 DUP4 ADD DUP5 PUSH3 0x5A0D JUMP JUMPDEST DUP2 DUP2 SUB PUSH1 0x40 DUP4 ADD MSTORE PUSH3 0x6AC6 DUP2 PUSH3 0x5E4C JUMP JUMPDEST SWAP1 POP SWAP4 SWAP3 POP POP POP JUMP JUMPDEST PUSH1 0x0 PUSH1 0x60 DUP3 ADD SWAP1 POP PUSH3 0x6AE6 PUSH1 0x0 DUP4 ADD DUP6 PUSH3 0x5EE8 JUMP JUMPDEST PUSH3 0x6AF5 PUSH1 0x20 DUP4 ADD DUP5 PUSH3 0x5AB7 JUMP JUMPDEST DUP2 DUP2 SUB PUSH1 0x40 DUP4 ADD MSTORE PUSH3 0x6B08 DUP2 PUSH3 0x5C78 JUMP JUMPDEST SWAP1 POP SWAP4 SWAP3 POP POP POP JUMP JUMPDEST PUSH1 0x0 PUSH1 0x60 DUP3 ADD SWAP1 POP PUSH3 0x6B28 PUSH1 0x0 DUP4 ADD DUP6 PUSH3 0x5EE8 JUMP JUMPDEST PUSH3 0x6B37 PUSH1 0x20 DUP4 ADD DUP5 PUSH3 0x5EE8 JUMP JUMPDEST DUP2 DUP2 SUB PUSH1 0x40 DUP4 ADD MSTORE PUSH3 0x6B4A DUP2 PUSH3 0x5E4C JUMP JUMPDEST SWAP1 POP SWAP4 SWAP3 POP POP POP JUMP JUMPDEST PUSH1 0x0 PUSH1 0x60 DUP3 ADD SWAP1 POP PUSH3 0x6B6A PUSH1 0x0 DUP4 ADD DUP6 PUSH3 0x5EF9 JUMP JUMPDEST PUSH3 0x6B79 PUSH1 0x20 DUP4 ADD DUP5 PUSH3 0x5AEA JUMP JUMPDEST DUP2 DUP2 SUB PUSH1 0x40 DUP4 ADD MSTORE PUSH3 0x6B8C DUP2 PUSH3 0x5E4C JUMP JUMPDEST SWAP1 POP SWAP4 SWAP3 POP POP POP JUMP JUMPDEST PUSH1 0x0 PUSH1 0x60 DUP3 ADD SWAP1 POP PUSH3 0x6BAC PUSH1 0x0 DUP4 ADD DUP6 PUSH3 0x5EF9 JUMP JUMPDEST PUSH3 0x6BBB PUSH1 0x20 DUP4 ADD DUP5 PUSH3 0x5B0C JUMP JUMPDEST DUP2 DUP2 SUB PUSH1 0x40 DUP4 ADD MSTORE PUSH3 0x6BCE DUP2 PUSH3 0x5E4C JUMP JUMPDEST SWAP1 POP SWAP4 SWAP3 POP POP POP JUMP JUMPDEST PUSH1 0x0 PUSH1 0x60 DUP3 ADD SWAP1 POP PUSH3 0x6BEE PUSH1 0x0 DUP4 ADD DUP6 PUSH3 0x5EF9 JUMP JUMPDEST PUSH3 0x6BFD PUSH1 0x20 DUP4 ADD DUP5 PUSH3 0x5B2E JUMP JUMPDEST DUP2 DUP2 SUB PUSH1 0x40 DUP4 ADD MSTORE PUSH3 0x6C10 DUP2 PUSH3 0x5E4C JUMP JUMPDEST SWAP1 POP SWAP4 SWAP3 POP POP POP JUMP JUMPDEST PUSH1 0x0 PUSH1 0x60 DUP3 ADD SWAP1 POP PUSH3 0x6C30 PUSH1 0x0 DUP4 ADD DUP6 PUSH3 0x5F0A JUMP JUMPDEST PUSH3 0x6C3F PUSH1 0x20 DUP4 ADD DUP5 PUSH3 0x5A0D JUMP JUMPDEST DUP2 DUP2 SUB PUSH1 0x40 DUP4 ADD MSTORE PUSH3 0x6C52 DUP2 PUSH3 0x5E73 JUMP JUMPDEST SWAP1 POP SWAP4 SWAP3 POP POP POP JUMP JUMPDEST PUSH1 0x0 PUSH1 0x60 DUP3 ADD SWAP1 POP PUSH3 0x6C72 PUSH1 0x0 DUP4 ADD DUP6 PUSH3 0x5F0A JUMP JUMPDEST PUSH3 0x6C81 PUSH1 0x20 DUP4 ADD DUP5 PUSH3 0x5AB7 JUMP JUMPDEST DUP2 DUP2 SUB PUSH1 0x40 DUP4 ADD MSTORE PUSH3 0x6C94 DUP2 PUSH3 0x5E4C JUMP JUMPDEST SWAP1 POP SWAP4 SWAP3 POP POP POP JUMP JUMPDEST PUSH1 0x0 PUSH1 0x60 DUP3 ADD SWAP1 POP PUSH3 0x6CB4 PUSH1 0x0 DUP4 ADD DUP6 PUSH3 0x5F1B JUMP JUMPDEST PUSH3 0x6CC3 PUSH1 0x20 DUP4 ADD DUP5 PUSH3 0x5AB7 JUMP JUMPDEST DUP2 DUP2 SUB PUSH1 0x40 DUP4 ADD MSTORE PUSH3 0x6CD6 DUP2 PUSH3 0x5C78 JUMP JUMPDEST SWAP1 POP SWAP4 SWAP3 POP POP POP JUMP JUMPDEST PUSH1 0x0 PUSH3 0x6CEB PUSH3 0x6CFE JUMP JUMPDEST SWAP1 POP PUSH3 0x6CF9 DUP3 DUP3 PUSH3 0x7285 JUMP JUMPDEST SWAP2 SWAP1 POP JUMP JUMPDEST PUSH1 0x0 PUSH1 0x40 MLOAD SWAP1 POP SWAP1 JUMP JUMPDEST PUSH1 0x0 PUSH8 0xFFFFFFFFFFFFFFFF DUP3 GT ISZERO PUSH3 0x6D26 JUMPI PUSH3 0x6D25 PUSH3 0x72EA JUMP JUMPDEST JUMPDEST PUSH3 0x6D31 DUP3 PUSH3 0x735C JUMP JUMPDEST SWAP1 POP PUSH1 0x20 DUP2 ADD SWAP1 POP SWAP2 SWAP1 POP JUMP JUMPDEST PUSH1 0x0 PUSH8 0xFFFFFFFFFFFFFFFF DUP3 GT ISZERO PUSH3 0x6D5C JUMPI PUSH3 0x6D5B PUSH3 0x72EA JUMP JUMPDEST JUMPDEST PUSH3 0x6D67 DUP3 PUSH3 0x735C JUMP JUMPDEST SWAP1 POP PUSH1 0x20 DUP2 ADD SWAP1 POP SWAP2 SWAP1 POP JUMP JUMPDEST PUSH1 0x0 DUP2 SWAP1 POP PUSH1 0x20 DUP3 ADD SWAP1 POP SWAP2 SWAP1 POP JUMP JUMPDEST PUSH1 0x0 DUP2 MLOAD SWAP1 POP SWAP2 SWAP1 POP JUMP JUMPDEST PUSH1 0x0 DUP2 MLOAD SWAP1 POP SWAP2 SWAP1 POP JUMP JUMPDEST PUSH1 0x0 DUP2 MLOAD SWAP1 POP SWAP2 SWAP1 POP JUMP JUMPDEST PUSH1 0x0 PUSH1 0x20 DUP3 ADD SWAP1 POP SWAP2 SWAP1 POP JUMP JUMPDEST PUSH1 0x0 DUP3 DUP3 MSTORE PUSH1 0x20 DUP3 ADD SWAP1 POP SWAP3 SWAP2 POP POP JUMP JUMPDEST PUSH1 0x0 DUP3 DUP3 MSTORE PUSH1 0x20 DUP3 ADD SWAP1 POP SWAP3 SWAP2 POP POP JUMP JUMPDEST PUSH1 0x0 DUP3 DUP3 MSTORE PUSH1 0x20 DUP3 ADD SWAP1 POP SWAP3 SWAP2 POP POP JUMP JUMPDEST PUSH1 0x0 DUP3 DUP3 MSTORE PUSH1 0x20 DUP3 ADD SWAP1 POP SWAP3 SWAP2 POP POP JUMP JUMPDEST PUSH1 0x0 PUSH3 0x6E03 DUP3 PUSH3 0x6EC0 JUMP JUMPDEST SWAP1 POP SWAP2 SWAP1 POP JUMP JUMPDEST PUSH1 0x0 DUP2 ISZERO ISZERO SWAP1 POP SWAP2 SWAP1 POP JUMP JUMPDEST PUSH1 0x0 DUP2 SWAP1 POP SWAP2 SWAP1 POP JUMP JUMPDEST PUSH1 0x0 DUP2 SWAP1 POP SWAP2 SWAP1 POP JUMP JUMPDEST PUSH1 0x0 DUP2 SWAP1 POP SWAP2 SWAP1 POP JUMP JUMPDEST PUSH1 0x0 DUP2 SWAP1 POP SWAP2 SWAP1 POP JUMP JUMPDEST PUSH1 0x0 DUP2 SWAP1 POP SWAP2 SWAP1 POP JUMP JUMPDEST PUSH1 0x0 DUP2 SWAP1 POP SWAP2 SWAP1 POP JUMP JUMPDEST PUSH1 0x0 DUP2 SWAP1 POP SWAP2 SWAP1 POP JUMP JUMPDEST PUSH1 0x0 DUP2 SWAP1 POP SWAP2 SWAP1 POP JUMP JUMPDEST PUSH1 0x0 DUP2 SWAP1 POP SWAP2 SWAP1 POP JUMP JUMPDEST PUSH1 0x0 DUP2 SWAP1 POP SWAP2 SWAP1 POP JUMP JUMPDEST PUSH1 0x0 DUP2 SWAP1 POP SWAP2 SWAP1 POP JUMP JUMPDEST PUSH1 0x0 DUP2 SWAP1 POP SWAP2 SWAP1 POP JUMP JUMPDEST PUSH1 0x0 DUP2 SWAP1 POP SWAP2 SWAP1 POP JUMP JUMPDEST PUSH1 0x0 DUP2 SWAP1 POP SWAP2 SWAP1 POP JUMP JUMPDEST PUSH1 0x0 DUP2 SWAP1 POP SWAP2 SWAP1 POP JUMP JUMPDEST PUSH1 0x0 DUP2 SWAP1 POP SWAP2 SWAP1 POP JUMP JUMPDEST PUSH1 0x0 DUP2 SWAP1 POP SWAP2 SWAP1 POP JUMP JUMPDEST PUSH1 0x0 PUSH20 0xFFFFFFFFFFFFFFFFFFFFFFFFFFFFFFFFFFFFFFFF DUP3 AND SWAP1 POP SWAP2 SWAP1 POP JUMP JUMPDEST PUSH1 0x0 DUP2 SWAP1 POP SWAP2 SWAP1 POP JUMP JUMPDEST PUSH1 0x0 PUSH4 0xFFFFFFFF DUP3 AND SWAP1 POP SWAP2 SWAP1 POP JUMP JUMPDEST PUSH1 0x0 PUSH8 0xFFFFFFFFFFFFFFFF DUP3 AND SWAP1 POP SWAP2 SWAP1 POP JUMP JUMPDEST PUSH1 0x0 PUSH1 0xFF DUP3 AND SWAP1 POP SWAP2 SWAP1 POP JUMP JUMPDEST PUSH1 0x0 PUSH3 0x6F28 DUP3 PUSH3 0x71EB JUMP JUMPDEST SWAP1 POP SWAP2 SWAP1 POP JUMP JUMPDEST PUSH1 0x0 PUSH3 0x6F3C DUP3 PUSH3 0x6EE0 JUMP JUMPDEST SWAP1 POP SWAP2 SWAP1 POP JUMP JUMPDEST PUSH1 0x0 PUSH3 0x6F50 DUP3 PUSH3 0x6EFA JUMP JUMPDEST SWAP1 POP SWAP2 SWAP1 POP JUMP JUMPDEST PUSH1 0x0 PUSH3 0x6F6E PUSH3 0x6F68 DUP4 PUSH3 0x6E20 JUMP JUMPDEST PUSH3 0x736D JUMP JUMPDEST SWAP1 POP SWAP2 SWAP1 POP JUMP JUMPDEST PUSH1 0x0 PUSH3 0x6F8C PUSH3 0x6F86 DUP4 PUSH3 0x6E2A JUMP JUMPDEST PUSH3 0x736D JUMP JUMPDEST SWAP1 POP SWAP2 SWAP1 POP JUMP JUMPDEST PUSH1 0x0 PUSH3 0x6FAA PUSH3 0x6FA4 DUP4 PUSH3 0x6E34 JUMP JUMPDEST PUSH3 0x736D JUMP JUMPDEST SWAP1 POP SWAP2 SWAP1 POP JUMP JUMPDEST PUSH1 0x0 PUSH3 0x6FC8 PUSH3 0x6FC2 DUP4 PUSH3 0x6E3E JUMP JUMPDEST PUSH3 0x736D JUMP JUMPDEST SWAP1 POP SWAP2 SWAP1 POP JUMP JUMPDEST PUSH1 0x0 PUSH3 0x6FE6 PUSH3 0x6FE0 DUP4 PUSH3 0x6E48 JUMP JUMPDEST PUSH3 0x736D JUMP JUMPDEST SWAP1 POP SWAP2 SWAP1 POP JUMP JUMPDEST PUSH1 0x0 PUSH3 0x7004 PUSH3 0x6FFE DUP4 PUSH3 0x6E52 JUMP JUMPDEST PUSH3 0x736D JUMP JUMPDEST SWAP1 POP SWAP2 SWAP1 POP JUMP JUMPDEST PUSH1 0x0 PUSH3 0x7022 PUSH3 0x701C DUP4 PUSH3 0x6E5C JUMP JUMPDEST PUSH3 0x736D JUMP JUMPDEST SWAP1 POP SWAP2 SWAP1 POP JUMP JUMPDEST PUSH1 0x0 PUSH3 0x7040 PUSH3 0x703A DUP4 PUSH3 0x6E66 JUMP JUMPDEST PUSH3 0x736D JUMP JUMPDEST SWAP1 POP SWAP2 SWAP1 POP JUMP JUMPDEST PUSH1 0x0 PUSH3 0x7054 DUP3 PUSH3 0x6EE0 JUMP JUMPDEST SWAP1 POP SWAP2 SWAP1 POP JUMP JUMPDEST PUSH1 0x0 PUSH3 0x7068 DUP3 PUSH3 0x6EEA JUMP JUMPDEST SWAP1 POP SWAP2 SWAP1 POP JUMP JUMPDEST PUSH1 0x0 PUSH3 0x707C DUP3 PUSH3 0x6EFA JUMP JUMPDEST SWAP1 POP SWAP2 SWAP1 POP JUMP JUMPDEST PUSH1 0x0 PUSH3 0x7090 DUP3 PUSH3 0x6EE0 JUMP JUMPDEST SWAP1 POP SWAP2 SWAP1 POP JUMP JUMPDEST PUSH1 0x0 PUSH3 0x70A4 DUP3 PUSH3 0x6EEA JUMP JUMPDEST SWAP1 POP SWAP2 SWAP1 POP JUMP JUMPDEST PUSH1 0x0 PUSH3 0x70B8 DUP3 PUSH3 0x6EE0 JUMP JUMPDEST SWAP1 POP SWAP2 SWAP1 POP JUMP JUMPDEST PUSH1 0x0 PUSH3 0x70CC DUP3 PUSH3 0x6EEA JUMP JUMPDEST SWAP1 POP SWAP2 SWAP1 POP JUMP JUMPDEST PUSH1 0x0 PUSH3 0x70E0 DUP3 PUSH3 0x6EE0 JUMP JUMPDEST SWAP1 POP SWAP2 SWAP1 POP JUMP JUMPDEST PUSH1 0x0 PUSH3 0x70F4 DUP3 PUSH3 0x6EEA JUMP JUMPDEST SWAP1 POP SWAP2 SWAP1 POP JUMP JUMPDEST PUSH1 0x0 PUSH3 0x7112 PUSH3 0x710C DUP4 PUSH3 0x6E70 JUMP JUMPDEST PUSH3 0x736D JUMP JUMPDEST SWAP1 POP SWAP2 SWAP1 POP JUMP JUMPDEST PUSH1 0x0 PUSH3 0x7130 PUSH3 0x712A DUP4 PUSH3 0x6E7A JUMP JUMPDEST PUSH3 0x736D JUMP JUMPDEST SWAP1 POP SWAP2 SWAP1 POP JUMP JUMPDEST PUSH1 0x0 PUSH3 0x714E PUSH3 0x7148 DUP4 PUSH3 0x6E84 JUMP JUMPDEST PUSH3 0x736D JUMP JUMPDEST SWAP1 POP SWAP2 SWAP1 POP JUMP JUMPDEST PUSH1 0x0 PUSH3 0x716C PUSH3 0x7166 DUP4 PUSH3 0x6E8E JUMP JUMPDEST PUSH3 0x736D JUMP JUMPDEST SWAP1 POP SWAP2 SWAP1 POP JUMP JUMPDEST PUSH1 0x0 PUSH3 0x718A PUSH3 0x7184 DUP4 PUSH3 0x6E98 JUMP JUMPDEST PUSH3 0x736D JUMP JUMPDEST SWAP1 POP SWAP2 SWAP1 POP JUMP JUMPDEST PUSH1 0x0 PUSH3 0x71A8 PUSH3 0x71A2 DUP4 PUSH3 0x6EA2 JUMP JUMPDEST PUSH3 0x736D JUMP JUMPDEST SWAP1 POP SWAP2 SWAP1 POP JUMP JUMPDEST PUSH1 0x0 PUSH3 0x71C6 PUSH3 0x71C0 DUP4 PUSH3 0x6EAC JUMP JUMPDEST PUSH3 0x736D JUMP JUMPDEST SWAP1 POP SWAP2 SWAP1 POP JUMP JUMPDEST PUSH1 0x0 PUSH3 0x71E4 PUSH3 0x71DE DUP4 PUSH3 0x6EB6 JUMP JUMPDEST PUSH3 0x736D JUMP JUMPDEST SWAP1 POP SWAP2 SWAP1 POP JUMP JUMPDEST PUSH1 0x0 PUSH3 0x71F8 DUP3 PUSH3 0x71FF JUMP JUMPDEST SWAP1 POP SWAP2 SWAP1 POP JUMP JUMPDEST PUSH1 0x0 PUSH3 0x720C DUP3 PUSH3 0x6EC0 JUMP JUMPDEST SWAP1 POP SWAP2 SWAP1 POP JUMP JUMPDEST PUSH1 0x0 PUSH3 0x7220 DUP3 PUSH3 0x6EEA JUMP JUMPDEST SWAP1 POP SWAP2 SWAP1 POP JUMP JUMPDEST PUSH1 0x0 PUSH3 0x7234 DUP3 PUSH3 0x6EFA JUMP JUMPDEST SWAP1 POP SWAP2 SWAP1 POP JUMP JUMPDEST PUSH1 0x0 PUSH3 0x7248 DUP3 PUSH3 0x6F0E JUMP JUMPDEST SWAP1 POP SWAP2 SWAP1 POP JUMP JUMPDEST PUSH1 0x0 JUMPDEST DUP4 DUP2 LT ISZERO PUSH3 0x726F JUMPI DUP1 DUP3 ADD MLOAD DUP2 DUP5 ADD MSTORE PUSH1 0x20 DUP2 ADD SWAP1 POP PUSH3 0x7252 JUMP JUMPDEST DUP4 DUP2 GT ISZERO PUSH3 0x727F JUMPI PUSH1 0x0 DUP5 DUP5 ADD MSTORE JUMPDEST POP POP POP POP JUMP JUMPDEST PUSH3 0x7290 DUP3 PUSH3 0x735C JUMP JUMPDEST DUP2 ADD DUP2 DUP2 LT PUSH8 0xFFFFFFFFFFFFFFFF DUP3 GT OR ISZERO PUSH3 0x72B2 JUMPI PUSH3 0x72B1 PUSH3 0x72EA JUMP JUMPDEST JUMPDEST DUP1 PUSH1 0x40 MSTORE POP POP POP JUMP JUMPDEST PUSH32 0x4E487B7100000000000000000000000000000000000000000000000000000000 PUSH1 0x0 MSTORE PUSH1 0x32 PUSH1 0x4 MSTORE PUSH1 0x24 PUSH1 0x0 REVERT JUMPDEST PUSH32 0x4E487B7100000000000000000000000000000000000000000000000000000000 PUSH1 0x0 MSTORE PUSH1 0x41 PUSH1 0x4 MSTORE PUSH1 0x24 PUSH1 0x0 REVERT JUMPDEST PUSH1 0x0 PUSH1 0x3 RETURNDATASIZE GT ISZERO PUSH3 0x733B JUMPI PUSH1 0x4 PUSH1 0x0 DUP1 RETURNDATACOPY PUSH3 0x7338 PUSH1 0x0 MLOAD PUSH3 0x737A JUMP JUMPDEST SWAP1 POP JUMPDEST SWAP1 JUMP JUMPDEST PUSH1 0x0 DUP1 REVERT JUMPDEST PUSH1 0x0 DUP1 REVERT JUMPDEST PUSH1 0x0 DUP1 REVERT JUMPDEST PUSH1 0x0 DUP1 REVERT JUMPDEST PUSH1 0x0 DUP1 REVERT JUMPDEST PUSH1 0x0 DUP1 REVERT JUMPDEST PUSH1 0x0 PUSH1 0x1F NOT PUSH1 0x1F DUP4 ADD AND SWAP1 POP SWAP2 SWAP1 POP JUMP JUMPDEST PUSH1 0x0 DUP2 PUSH1 0x0 SHL SWAP1 POP SWAP2 SWAP1 POP JUMP JUMPDEST PUSH1 0x0 DUP2 PUSH1 0xE0 SHR SWAP1 POP SWAP2 SWAP1 POP JUMP JUMPDEST PUSH32 0x6D79446174615365740000000000000000000000000000000000000000000000 PUSH1 0x0 DUP3 ADD MSTORE POP JUMP JUMPDEST PUSH32 0x75706C6F6164576569676874436F6D6D69746D656E7453686F756C6453756363 PUSH1 0x0 DUP3 ADD MSTORE PUSH32 0x657373204661696C656400000000000000000000000000000000000000000000 PUSH1 0x20 DUP3 ADD MSTORE POP JUMP JUMPDEST PUSH32 0x75706C6F6164576569676874436F6D6D69746D656E7453686F756C6454696D65 PUSH1 0x0 DUP3 ADD MSTORE PUSH32 0x6F7574206661696C656400000000000000000000000000000000000000000000 PUSH1 0x20 DUP3 ADD MSTORE POP JUMP JUMPDEST PUSH32 0x4A6F696E20646561646C696E6520686173207061737365640000000000000000 PUSH1 0x0 DUP3 ADD MSTORE POP JUMP JUMPDEST PUSH32 0x74686520726F756E6420686173206265656E20616C7265616479207374617274 PUSH1 0x0 DUP3 ADD MSTORE PUSH32 0x6564206F72207468652070726520726F756E6420646F6573206E6F7420657869 PUSH1 0x20 DUP3 ADD MSTORE PUSH32 0x7374000000000000000000000000000000000000000000000000000000000000 PUSH1 0x40 DUP3 ADD MSTORE POP JUMP JUMPDEST PUSH32 0x5468697320726F756E64206973206E6F742072756E6E696E67206E6F77000000 PUSH1 0x0 DUP3 ADD MSTORE POP JUMP JUMPDEST PUSH32 0x6A6F696E526F756E645465737473206661696C65640000000000000000000000 PUSH1 0x0 DUP3 ADD MSTORE POP JUMP JUMPDEST PUSH32 0x43616E646964617465206D757374206578697374000000000000000000000000 PUSH1 0x0 DUP3 ADD MSTORE POP JUMP JUMPDEST PUSH32 0x73656C65637443616E6469646174657354657374206661696C65640000000000 PUSH1 0x0 DUP3 ADD MSTORE POP JUMP JUMPDEST PUSH32 0x73686F756C64207468726F7720657863657074696F6E00000000000000000000 PUSH1 0x0 DUP3 ADD MSTORE POP JUMP JUMPDEST PUSH32 0x43616E6E6F74206A6F696E207468652073616D6520726F756E64206D756C7469 PUSH1 0x0 DUP3 ADD MSTORE PUSH32 0x706C652074696D65730000000000000000000000000000000000000000000000 PUSH1 0x20 DUP3 ADD MSTORE POP JUMP JUMPDEST PUSH32 0x4D7573742063616C6C656420627920746865207461736B206F776E6572000000 PUSH1 0x0 DUP3 ADD MSTORE POP JUMP JUMPDEST PUSH32 0x7468697320726F756E64206861732066696E6973686564206F72206974206861 PUSH1 0x0 DUP3 ADD MSTORE PUSH32 0x736E2774206265656E2073746172746564207965742E00000000000000000000 PUSH1 0x20 DUP3 ADD MSTORE POP JUMP JUMPDEST PUSH32 0x5374617274526F756E6442617463686573206661696C65640000000000000000 PUSH1 0x0 DUP3 ADD MSTORE POP JUMP JUMPDEST PUSH32 0x4372656174655461736B4661696C656400000000000000000000000000000000 PUSH1 0x0 DUP3 ADD MSTORE POP JUMP JUMPDEST PUSH32 0x75706C6F616420646561646C696E652068617320706173736564000000000000 PUSH1 0x0 DUP3 ADD MSTORE POP JUMP JUMPDEST PUSH32 0x5461736B206E6F74206578697374730000000000000000000000000000000000 PUSH1 0x0 DUP3 ADD MSTORE POP JUMP JUMPDEST PUSH1 0x0 PUSH1 0x44 RETURNDATASIZE LT ISZERO PUSH3 0x7736 JUMPI PUSH3 0x77C3 JUMP JUMPDEST PUSH3 0x7740 PUSH3 0x6CFE JUMP JUMPDEST PUSH1 0x4 RETURNDATASIZE SUB PUSH1 0x4 DUP3 RETURNDATACOPY DUP1 MLOAD RETURNDATASIZE PUSH1 0x24 DUP3 ADD GT PUSH8 0xFFFFFFFFFFFFFFFF DUP3 GT OR ISZERO PUSH3 0x776A JUMPI POP POP PUSH3 0x77C3 JUMP JUMPDEST DUP1 DUP3 ADD DUP1 MLOAD PUSH8 0xFFFFFFFFFFFFFFFF DUP2 GT ISZERO PUSH3 0x778A JUMPI POP POP POP POP PUSH3 0x77C3 JUMP JUMPDEST DUP1 PUSH1 0x20 DUP4 ADD ADD PUSH1 0x4 RETURNDATASIZE SUB DUP6 ADD DUP2 GT ISZERO PUSH3 0x77A9 JUMPI POP POP POP POP POP PUSH3 0x77C3 JUMP JUMPDEST PUSH3 0x77BA DUP3 PUSH1 0x20 ADD DUP6 ADD DUP7 PUSH3 0x7285 JUMP JUMPDEST DUP3 SWAP6 POP POP POP POP POP POP JUMPDEST SWAP1 JUMP JUMPDEST PUSH3 0x77D1 DUP2 PUSH3 0x6DF6 JUMP JUMPDEST DUP2 EQ PUSH3 0x77DD JUMPI PUSH1 0x0 DUP1 REVERT JUMPDEST POP JUMP JUMPDEST PUSH3 0x77EB DUP2 PUSH3 0x6E0A JUMP JUMPDEST DUP2 EQ PUSH3 0x77F7 JUMPI PUSH1 0x0 DUP1 REVERT JUMPDEST POP JUMP JUMPDEST PUSH3 0x7805 DUP2 PUSH3 0x6E16 JUMP JUMPDEST DUP2 EQ PUSH3 0x7811 JUMPI PUSH1 0x0 DUP1 REVERT JUMPDEST POP JUMP JUMPDEST PUSH1 0x4 DUP2 LT PUSH3 0x7822 JUMPI PUSH1 0x0 DUP1 REVERT JUMPDEST POP JUMP JUMPDEST PUSH3 0x7830 DUP2 PUSH3 0x6EE0 JUMP JUMPDEST DUP2 EQ PUSH3 0x783C JUMPI PUSH1 0x0 DUP1 REVERT JUMPDEST POP JUMP JUMPDEST PUSH3 0x784A DUP2 PUSH3 0x6EEA JUMP JUMPDEST DUP2 EQ PUSH3 0x7856 JUMPI PUSH1 0x0 DUP1 REVERT JUMPDEST POP JUMP JUMPDEST PUSH3 0x7864 DUP2 PUSH3 0x6EFA JUMP JUMPDEST DUP2 EQ PUSH3 0x7870 JUMPI PUSH1 0x0 DUP1 REVERT JUMPDEST POP JUMP INVALID PUSH1 0x80 PUSH1 0x40 MSTORE CALLVALUE DUP1 ISZERO PUSH2 0x10 JUMPI PUSH1 0x0 DUP1 REVERT JUMPDEST POP CALLER PUSH1 0x0 DUP1 PUSH2 0x100 EXP DUP2 SLOAD DUP2 PUSH20 0xFFFFFFFFFFFFFFFFFFFFFFFFFFFFFFFFFFFFFFFF MUL NOT AND SWAP1 DUP4 PUSH20 0xFFFFFFFFFFFFFFFFFFFFFFFFFFFFFFFFFFFFFFFF AND MUL OR SWAP1 SSTORE POP PUSH1 0x0 DUP1 SLOAD SWAP1 PUSH2 0x100 EXP SWAP1 DIV PUSH20 0xFFFFFFFFFFFFFFFFFFFFFFFFFFFFFFFFFFFFFFFF AND PUSH20 0xFFFFFFFFFFFFFFFFFFFFFFFFFFFFFFFFFFFFFFFF AND PUSH1 0x0 PUSH20 0xFFFFFFFFFFFFFFFFFFFFFFFFFFFFFFFFFFFFFFFF AND PUSH32 0x342827C97908E5E2F71151C08502A66D44B6F758E3AC2F1DE95F02EB95F0A735 PUSH1 0x40 MLOAD PUSH1 0x40 MLOAD DUP1 SWAP2 SUB SWAP1 LOG3 PUSH2 0x3B5D DUP1 PUSH2 0xDB PUSH1 0x0 CODECOPY PUSH1 0x0 RETURN INVALID PUSH1 0x80 PUSH1 0x40 MSTORE PUSH1 0x4 CALLDATASIZE LT PUSH2 0xF3 JUMPI PUSH1 0x0 CALLDATALOAD PUSH1 0xE0 SHR DUP1 PUSH4 0x57C91B95 GT PUSH2 0x8A JUMPI DUP1 PUSH4 0x8750745E GT PUSH2 0x59 JUMPI DUP1 PUSH4 0x8750745E EQ PUSH2 0x329 JUMPI DUP1 PUSH4 0x893D20E8 EQ PUSH2 0x366 JUMPI DUP1 PUSH4 0xA6F9DAE1 EQ PUSH2 0x391 JUMPI DUP1 PUSH4 0xBDF666A4 EQ PUSH2 0x3BA JUMPI PUSH2 0xF3 JUMP JUMPDEST DUP1 PUSH4 0x57C91B95 EQ PUSH2 0x26A JUMPI DUP1 PUSH4 0x58AF9F73 EQ PUSH2 0x293 JUMPI DUP1 PUSH4 0x68F14ACF EQ PUSH2 0x2D0 JUMPI DUP1 PUSH4 0x75CB2A0E EQ PUSH2 0x2F9 JUMPI PUSH2 0xF3 JUMP JUMPDEST DUP1 PUSH4 0x41E865CB GT PUSH2 0xC6 JUMPI DUP1 PUSH4 0x41E865CB EQ PUSH2 0x1B2 JUMPI DUP1 PUSH4 0x456523E2 EQ PUSH2 0x1DB JUMPI DUP1 PUSH4 0x4893B362 EQ PUSH2 0x204 JUMPI DUP1 PUSH4 0x4956219B EQ PUSH2 0x241 JUMPI PUSH2 0xF3 JUMP JUMPDEST DUP1 PUSH4 0x1BD7269 EQ PUSH2 0xF8 JUMPI DUP1 PUSH4 0x12AB8B87 EQ PUSH2 0x121 JUMPI DUP1 PUSH4 0x1449F4DE EQ PUSH2 0x14C JUMPI DUP1 PUSH4 0x20F0672C EQ PUSH2 0x189 JUMPI JUMPDEST PUSH1 0x0 DUP1 REVERT JUMPDEST CALLVALUE DUP1 ISZERO PUSH2 0x104 JUMPI PUSH1 0x0 DUP1 REVERT JUMPDEST POP PUSH2 0x11F PUSH1 0x4 DUP1 CALLDATASIZE SUB DUP2 ADD SWAP1 PUSH2 0x11A SWAP2 SWAP1 PUSH2 0x2998 JUMP JUMPDEST PUSH2 0x3F7 JUMP JUMPDEST STOP JUMPDEST CALLVALUE DUP1 ISZERO PUSH2 0x12D JUMPI PUSH1 0x0 DUP1 REVERT JUMPDEST POP PUSH2 0x136 PUSH2 0x598 JUMP JUMPDEST PUSH1 0x40 MLOAD PUSH2 0x143 SWAP2 SWAP1 PUSH2 0x344B JUMP JUMPDEST PUSH1 0x40 MLOAD DUP1 SWAP2 SUB SWAP1 RETURN JUMPDEST CALLVALUE DUP1 ISZERO PUSH2 0x158 JUMPI PUSH1 0x0 DUP1 REVERT JUMPDEST POP PUSH2 0x173 PUSH1 0x4 DUP1 CALLDATASIZE SUB DUP2 ADD SWAP1 PUSH2 0x16E SWAP2 SWAP1 PUSH2 0x29D8 JUMP JUMPDEST PUSH2 0x5F3 JUMP JUMPDEST PUSH1 0x40 MLOAD PUSH2 0x180 SWAP2 SWAP1 PUSH2 0x33D0 JUMP JUMPDEST PUSH1 0x40 MLOAD DUP1 SWAP2 SUB SWAP1 RETURN JUMPDEST CALLVALUE DUP1 ISZERO PUSH2 0x195 JUMPI PUSH1 0x0 DUP1 REVERT JUMPDEST POP PUSH2 0x1B0 PUSH1 0x4 DUP1 CALLDATASIZE SUB DUP2 ADD SWAP1 PUSH2 0x1AB SWAP2 SWAP1 PUSH2 0x2B06 JUMP JUMPDEST PUSH2 0x728 JUMP JUMPDEST STOP JUMPDEST CALLVALUE DUP1 ISZERO PUSH2 0x1BE JUMPI PUSH1 0x0 DUP1 REVERT JUMPDEST POP PUSH2 0x1D9 PUSH1 0x4 DUP1 CALLDATASIZE SUB DUP2 ADD SWAP1 PUSH2 0x1D4 SWAP2 SWAP1 PUSH2 0x2A2B JUMP JUMPDEST PUSH2 0x893 JUMP JUMPDEST STOP JUMPDEST CALLVALUE DUP1 ISZERO PUSH2 0x1E7 JUMPI PUSH1 0x0 DUP1 REVERT JUMPDEST POP PUSH2 0x202 PUSH1 0x4 DUP1 CALLDATASIZE SUB DUP2 ADD SWAP1 PUSH2 0x1FD SWAP2 SWAP1 PUSH2 0x2B06 JUMP JUMPDEST PUSH2 0xB95 JUMP JUMPDEST STOP JUMPDEST CALLVALUE DUP1 ISZERO PUSH2 0x210 JUMPI PUSH1 0x0 DUP1 REVERT JUMPDEST POP PUSH2 0x22B PUSH1 0x4 DUP1 CALLDATASIZE SUB DUP2 ADD SWAP1 PUSH2 0x226 SWAP2 SWAP1 PUSH2 0x2998 JUMP JUMPDEST PUSH2 0xD00 JUMP JUMPDEST PUSH1 0x40 MLOAD PUSH2 0x238 SWAP2 SWAP1 PUSH2 0x340D JUMP JUMPDEST PUSH1 0x40 MLOAD DUP1 SWAP2 SUB SWAP1 RETURN JUMPDEST CALLVALUE DUP1 ISZERO PUSH2 0x24D JUMPI PUSH1 0x0 DUP1 REVERT JUMPDEST POP PUSH2 0x268 PUSH1 0x4 DUP1 CALLDATASIZE SUB DUP2 ADD SWAP1 PUSH2 0x263 SWAP2 SWAP1 PUSH2 0x2A2B JUMP JUMPDEST PUSH2 0xEC9 JUMP JUMPDEST STOP JUMPDEST CALLVALUE DUP1 ISZERO PUSH2 0x276 JUMPI PUSH1 0x0 DUP1 REVERT JUMPDEST POP PUSH2 0x291 PUSH1 0x4 DUP1 CALLDATASIZE SUB DUP2 ADD SWAP1 PUSH2 0x28C SWAP2 SWAP1 PUSH2 0x2B7A JUMP JUMPDEST PUSH2 0x11F4 JUMP JUMPDEST STOP JUMPDEST CALLVALUE DUP1 ISZERO PUSH2 0x29F JUMPI PUSH1 0x0 DUP1 REVERT JUMPDEST POP PUSH2 0x2BA PUSH1 0x4 DUP1 CALLDATASIZE SUB DUP2 ADD SWAP1 PUSH2 0x2B5 SWAP2 SWAP1 PUSH2 0x2918 JUMP JUMPDEST PUSH2 0x16C6 JUMP JUMPDEST PUSH1 0x40 MLOAD PUSH2 0x2C7 SWAP2 SWAP1 PUSH2 0x3429 JUMP JUMPDEST PUSH1 0x40 MLOAD DUP1 SWAP2 SUB SWAP1 RETURN JUMPDEST CALLVALUE DUP1 ISZERO PUSH2 0x2DC JUMPI PUSH1 0x0 DUP1 REVERT JUMPDEST POP PUSH2 0x2F7 PUSH1 0x4 DUP1 CALLDATASIZE SUB DUP2 ADD SWAP1 PUSH2 0x2F2 SWAP2 SWAP1 PUSH2 0x2B06 JUMP JUMPDEST PUSH2 0x18BF JUMP JUMPDEST STOP JUMPDEST PUSH2 0x313 PUSH1 0x4 DUP1 CALLDATASIZE SUB DUP2 ADD SWAP1 PUSH2 0x30E SWAP2 SWAP1 PUSH2 0x2C07 JUMP JUMPDEST PUSH2 0x1B50 JUMP JUMPDEST PUSH1 0x40 MLOAD PUSH2 0x320 SWAP2 SWAP1 PUSH2 0x318C JUMP JUMPDEST PUSH1 0x40 MLOAD DUP1 SWAP2 SUB SWAP1 RETURN JUMPDEST CALLVALUE DUP1 ISZERO PUSH2 0x335 JUMPI PUSH1 0x0 DUP1 REVERT JUMPDEST POP PUSH2 0x350 PUSH1 0x4 DUP1 CALLDATASIZE SUB DUP2 ADD SWAP1 PUSH2 0x34B SWAP2 SWAP1 PUSH2 0x2945 JUMP JUMPDEST PUSH2 0x1D51 JUMP JUMPDEST PUSH1 0x40 MLOAD PUSH2 0x35D SWAP2 SWAP1 PUSH2 0x33EB JUMP JUMPDEST PUSH1 0x40 MLOAD DUP1 SWAP2 SUB SWAP1 RETURN JUMPDEST CALLVALUE DUP1 ISZERO PUSH2 0x372 JUMPI PUSH1 0x0 DUP1 REVERT JUMPDEST POP PUSH2 0x37B PUSH2 0x20ED JUMP JUMPDEST PUSH1 0x40 MLOAD PUSH2 0x388 SWAP2 SWAP1 PUSH2 0x3156 JUMP JUMPDEST PUSH1 0x40 MLOAD DUP1 SWAP2 SUB SWAP1 RETURN JUMPDEST CALLVALUE DUP1 ISZERO PUSH2 0x39D JUMPI PUSH1 0x0 DUP1 REVERT JUMPDEST POP PUSH2 0x3B8 PUSH1 0x4 DUP1 CALLDATASIZE SUB DUP2 ADD SWAP1 PUSH2 0x3B3 SWAP2 SWAP1 PUSH2 0x28EB JUMP JUMPDEST PUSH2 0x2116 JUMP JUMPDEST STOP JUMPDEST CALLVALUE DUP1 ISZERO PUSH2 0x3C6 JUMPI PUSH1 0x0 DUP1 REVERT JUMPDEST POP PUSH2 0x3E1 PUSH1 0x4 DUP1 CALLDATASIZE SUB DUP2 ADD SWAP1 PUSH2 0x3DC SWAP2 SWAP1 PUSH2 0x2A9F JUMP JUMPDEST PUSH2 0x2261 JUMP JUMPDEST PUSH1 0x40 MLOAD PUSH2 0x3EE SWAP2 SWAP1 PUSH2 0x3171 JUMP JUMPDEST PUSH1 0x40 MLOAD DUP1 SWAP2 SUB SWAP1 RETURN JUMPDEST DUP2 CALLER PUSH20 0xFFFFFFFFFFFFFFFFFFFFFFFFFFFFFFFFFFFFFFFF AND PUSH1 0x1 PUSH1 0x0 DUP4 DUP2 MSTORE PUSH1 0x20 ADD SWAP1 DUP2 MSTORE PUSH1 0x20 ADD PUSH1 0x0 KECCAK256 PUSH1 0x0 ADD PUSH1 0x0 SWAP1 SLOAD SWAP1 PUSH2 0x100 EXP SWAP1 DIV PUSH20 0xFFFFFFFFFFFFFFFFFFFFFFFFFFFFFFFFFFFFFFFF AND PUSH20 0xFFFFFFFFFFFFFFFFFFFFFFFFFFFFFFFFFFFFFFFF AND EQ PUSH2 0x49C JUMPI PUSH1 0x40 MLOAD PUSH32 0x8C379A000000000000000000000000000000000000000000000000000000000 DUP2 MSTORE PUSH1 0x4 ADD PUSH2 0x493 SWAP1 PUSH2 0x3330 JUMP JUMPDEST PUSH1 0x40 MLOAD DUP1 SWAP2 SUB SWAP1 REVERT JUMPDEST DUP3 DUP3 PUSH1 0x0 PUSH1 0x2 PUSH1 0x0 DUP5 DUP2 MSTORE PUSH1 0x20 ADD SWAP1 DUP2 MSTORE PUSH1 0x20 ADD PUSH1 0x0 KECCAK256 SWAP1 POP PUSH1 0x1 DUP2 DUP1 SLOAD SWAP1 POP GT DUP1 ISZERO PUSH2 0x4E2 JUMPI POP DUP2 PUSH8 0xFFFFFFFFFFFFFFFF AND PUSH1 0x1 DUP3 DUP1 SLOAD SWAP1 POP PUSH2 0x4E0 SWAP2 SWAP1 PUSH2 0x3592 JUMP JUMPDEST EQ JUMPDEST PUSH2 0x521 JUMPI PUSH1 0x40 MLOAD PUSH32 0x8C379A000000000000000000000000000000000000000000000000000000000 DUP2 MSTORE PUSH1 0x4 ADD PUSH2 0x518 SWAP1 PUSH2 0x3350 JUMP JUMPDEST PUSH1 0x40 MLOAD DUP1 SWAP2 SUB SWAP1 REVERT JUMPDEST PUSH1 0x0 PUSH1 0x2 PUSH1 0x0 DUP9 DUP2 MSTORE PUSH1 0x20 ADD SWAP1 DUP2 MSTORE PUSH1 0x20 ADD PUSH1 0x0 KECCAK256 DUP7 PUSH8 0xFFFFFFFFFFFFFFFF AND DUP2 SLOAD DUP2 LT PUSH2 0x552 JUMPI PUSH2 0x551 PUSH2 0x37AB JUMP JUMPDEST JUMPDEST SWAP1 PUSH1 0x0 MSTORE PUSH1 0x20 PUSH1 0x0 KECCAK256 SWAP1 PUSH1 0x5 MUL ADD SWAP1 POP PUSH1 0x3 DUP2 PUSH1 0x0 ADD PUSH1 0x10 PUSH2 0x100 EXP DUP2 SLOAD DUP2 PUSH1 0xFF MUL NOT AND SWAP1 DUP4 PUSH1 0x3 DUP2 GT ISZERO PUSH2 0x58A JUMPI PUSH2 0x589 PUSH2 0x374D JUMP JUMPDEST JUMPDEST MUL OR SWAP1 SSTORE POP POP POP POP POP POP POP POP JUMP JUMPDEST PUSH1 0x0 DUP1 PUSH1 0x1 PUSH8 0xFFFFFFFFFFFFFFFF DUP2 GT ISZERO PUSH2 0x5B6 JUMPI PUSH2 0x5B5 PUSH2 0x37DA JUMP JUMPDEST JUMPDEST PUSH1 0x40 MLOAD SWAP1 DUP1 DUP3 MSTORE DUP1 PUSH1 0x1F ADD PUSH1 0x1F NOT AND PUSH1 0x20 ADD DUP3 ADD PUSH1 0x40 MSTORE DUP1 ISZERO PUSH2 0x5E8 JUMPI DUP2 PUSH1 0x20 ADD PUSH1 0x1 DUP3 MUL DUP1 CALLDATASIZE DUP4 CALLDATACOPY DUP1 DUP3 ADD SWAP2 POP POP SWAP1 POP JUMPDEST POP SWAP1 POP DUP1 MLOAD SWAP2 POP POP SWAP1 JUMP JUMPDEST PUSH2 0x5FB PUSH2 0x2567 JUMP JUMPDEST DUP4 DUP4 PUSH1 0x0 PUSH1 0x2 PUSH1 0x0 DUP5 DUP2 MSTORE PUSH1 0x20 ADD SWAP1 DUP2 MSTORE PUSH1 0x20 ADD PUSH1 0x0 KECCAK256 SWAP1 POP PUSH1 0x1 DUP2 DUP1 SLOAD SWAP1 POP GT DUP1 ISZERO PUSH2 0x641 JUMPI POP DUP2 PUSH8 0xFFFFFFFFFFFFFFFF AND PUSH1 0x1 DUP3 DUP1 SLOAD SWAP1 POP PUSH2 0x63F SWAP2 SWAP1 PUSH2 0x3592 JUMP JUMPDEST EQ JUMPDEST PUSH2 0x680 JUMPI PUSH1 0x40 MLOAD PUSH32 0x8C379A000000000000000000000000000000000000000000000000000000000 DUP2 MSTORE PUSH1 0x4 ADD PUSH2 0x677 SWAP1 PUSH2 0x3350 JUMP JUMPDEST PUSH1 0x40 MLOAD DUP1 SWAP2 SUB SWAP1 REVERT JUMPDEST PUSH1 0x2 PUSH1 0x0 DUP9 DUP2 MSTORE PUSH1 0x20 ADD SWAP1 DUP2 MSTORE PUSH1 0x20 ADD PUSH1 0x0 KECCAK256 DUP7 PUSH8 0xFFFFFFFFFFFFFFFF AND DUP2 SLOAD DUP2 LT PUSH2 0x6AF JUMPI PUSH2 0x6AE PUSH2 0x37AB JUMP JUMPDEST JUMPDEST SWAP1 PUSH1 0x0 MSTORE PUSH1 0x20 PUSH1 0x0 KECCAK256 SWAP1 PUSH1 0x5 MUL ADD PUSH1 0x1 ADD PUSH1 0x0 DUP7 PUSH20 0xFFFFFFFFFFFFFFFFFFFFFFFFFFFFFFFFFFFFFFFF AND PUSH20 0xFFFFFFFFFFFFFFFFFFFFFFFFFFFFFFFFFFFFFFFF AND DUP2 MSTORE PUSH1 0x20 ADD SWAP1 DUP2 MSTORE PUSH1 0x20 ADD PUSH1 0x0 KECCAK256 PUSH1 0x40 MLOAD DUP1 PUSH1 0x40 ADD PUSH1 0x40 MSTORE SWAP1 DUP2 PUSH1 0x0 DUP3 ADD SLOAD DUP2 MSTORE PUSH1 0x20 ADD PUSH1 0x1 DUP3 ADD SLOAD DUP2 MSTORE POP POP SWAP4 POP POP POP POP SWAP4 SWAP3 POP POP POP JUMP JUMPDEST DUP4 DUP4 PUSH1 0x0 PUSH1 0x2 PUSH1 0x0 DUP5 DUP2 MSTORE PUSH1 0x20 ADD SWAP1 DUP2 MSTORE PUSH1 0x20 ADD PUSH1 0x0 KECCAK256 SWAP1 POP PUSH1 0x1 DUP2 DUP1 SLOAD SWAP1 POP GT DUP1 ISZERO PUSH2 0x76E JUMPI POP DUP2 PUSH8 0xFFFFFFFFFFFFFFFF AND PUSH1 0x1 DUP3 DUP1 SLOAD SWAP1 POP PUSH2 0x76C SWAP2 SWAP1 PUSH2 0x3592 JUMP JUMPDEST EQ JUMPDEST PUSH2 0x7AD JUMPI PUSH1 0x40 MLOAD PUSH32 0x8C379A000000000000000000000000000000000000000000000000000000000 DUP2 MSTORE PUSH1 0x4 ADD PUSH2 0x7A4 SWAP1 PUSH2 0x3350 JUMP JUMPDEST PUSH1 0x40 MLOAD DUP1 SWAP2 SUB SWAP1 REVERT JUMPDEST PUSH2 0x100 DUP6 DUP6 SWAP1 POP GT ISZERO PUSH2 0x7BF JUMPI PUSH1 0x0 DUP1 REVERT JUMPDEST PUSH1 0x0 PUSH1 0x3 PUSH1 0x0 DUP10 DUP2 MSTORE PUSH1 0x20 ADD SWAP1 DUP2 MSTORE PUSH1 0x20 ADD PUSH1 0x0 KECCAK256 SWAP1 POP DUP7 PUSH8 0xFFFFFFFFFFFFFFFF AND DUP2 DUP1 SLOAD SWAP1 POP EQ ISZERO PUSH2 0x809 JUMPI DUP1 PUSH1 0x1 DUP2 PUSH1 0x1 DUP2 SLOAD ADD DUP1 DUP3 SSTORE DUP1 SWAP2 POP POP SUB SWAP1 PUSH1 0x0 MSTORE PUSH1 0x20 PUSH1 0x0 KECCAK256 POP POP JUMPDEST PUSH1 0x0 DUP2 DUP9 PUSH8 0xFFFFFFFFFFFFFFFF AND DUP2 SLOAD DUP2 LT PUSH2 0x828 JUMPI PUSH2 0x827 PUSH2 0x37AB JUMP JUMPDEST JUMPDEST SWAP1 PUSH1 0x0 MSTORE PUSH1 0x20 PUSH1 0x0 KECCAK256 ADD SWAP1 POP DUP7 DUP7 DUP3 PUSH1 0x0 ADD PUSH1 0x0 CALLER PUSH20 0xFFFFFFFFFFFFFFFFFFFFFFFFFFFFFFFFFFFFFFFF AND PUSH20 0xFFFFFFFFFFFFFFFFFFFFFFFFFFFFFFFFFFFFFFFF AND DUP2 MSTORE PUSH1 0x20 ADD SWAP1 DUP2 MSTORE PUSH1 0x20 ADD PUSH1 0x0 KECCAK256 PUSH1 0x2 ADD SWAP2 SWAP1 PUSH2 0x887 SWAP3 SWAP2 SWAP1 PUSH2 0x2587 JUMP JUMPDEST POP POP POP POP POP POP POP POP POP POP JUMP JUMPDEST DUP4 CALLER PUSH20 0xFFFFFFFFFFFFFFFFFFFFFFFFFFFFFFFFFFFFFFFF AND PUSH1 0x1 PUSH1 0x0 DUP4 DUP2 MSTORE PUSH1 0x20 ADD SWAP1 DUP2 MSTORE PUSH1 0x20 ADD PUSH1 0x0 KECCAK256 PUSH1 0x0 ADD PUSH1 0x0 SWAP1 SLOAD SWAP1 PUSH2 0x100 EXP SWAP1 DIV PUSH20 0xFFFFFFFFFFFFFFFFFFFFFFFFFFFFFFFFFFFFFFFF AND PUSH20 0xFFFFFFFFFFFFFFFFFFFFFFFFFFFFFFFFFFFFFFFF AND EQ PUSH2 0x938 JUMPI PUSH1 0x40 MLOAD PUSH32 0x8C379A000000000000000000000000000000000000000000000000000000000 DUP2 MSTORE PUSH1 0x4 ADD PUSH2 0x92F SWAP1 PUSH2 0x3330 JUMP JUMPDEST PUSH1 0x40 MLOAD DUP1 SWAP2 SUB SWAP1 REVERT JUMPDEST DUP5 DUP5 PUSH1 0x0 PUSH1 0x2 PUSH1 0x0 DUP5 DUP2 MSTORE PUSH1 0x20 ADD SWAP1 DUP2 MSTORE PUSH1 0x20 ADD PUSH1 0x0 KECCAK256 SWAP1 POP PUSH1 0x1 DUP2 DUP1 SLOAD SWAP1 POP GT DUP1 ISZERO PUSH2 0x97E JUMPI POP DUP2 PUSH8 0xFFFFFFFFFFFFFFFF AND PUSH1 0x1 DUP3 DUP1 SLOAD SWAP1 POP PUSH2 0x97C SWAP2 SWAP1 PUSH2 0x3592 JUMP JUMPDEST EQ JUMPDEST PUSH2 0x9BD JUMPI PUSH1 0x40 MLOAD PUSH32 0x8C379A000000000000000000000000000000000000000000000000000000000 DUP2 MSTORE PUSH1 0x4 ADD PUSH2 0x9B4 SWAP1 PUSH2 0x3350 JUMP JUMPDEST PUSH1 0x40 MLOAD DUP1 SWAP2 SUB SWAP1 REVERT JUMPDEST PUSH1 0x0 DUP7 DUP7 SWAP1 POP GT PUSH2 0xA03 JUMPI PUSH1 0x40 MLOAD PUSH32 0x8C379A000000000000000000000000000000000000000000000000000000000 DUP2 MSTORE PUSH1 0x4 ADD PUSH2 0x9FA SWAP1 PUSH2 0x33B0 JUMP JUMPDEST PUSH1 0x40 MLOAD DUP1 SWAP2 SUB SWAP1 REVERT JUMPDEST PUSH1 0x0 PUSH1 0x2 PUSH1 0x0 DUP11 DUP2 MSTORE PUSH1 0x20 ADD SWAP1 DUP2 MSTORE PUSH1 0x20 ADD PUSH1 0x0 KECCAK256 DUP9 PUSH8 0xFFFFFFFFFFFFFFFF AND DUP2 SLOAD DUP2 LT PUSH2 0xA34 JUMPI PUSH2 0xA33 PUSH2 0x37AB JUMP JUMPDEST JUMPDEST SWAP1 PUSH1 0x0 MSTORE PUSH1 0x20 PUSH1 0x0 KECCAK256 SWAP1 PUSH1 0x5 MUL ADD SWAP1 POP PUSH1 0x0 JUMPDEST DUP8 DUP8 SWAP1 POP DUP2 LT ISZERO PUSH2 0xB16 JUMPI PUSH1 0x0 DUP1 SHL DUP3 PUSH1 0x1 ADD PUSH1 0x0 DUP11 DUP11 DUP6 DUP2 DUP2 LT PUSH2 0xA6F JUMPI PUSH2 0xA6E PUSH2 0x37AB JUMP JUMPDEST JUMPDEST SWAP1 POP PUSH1 0x20 MUL ADD PUSH1 0x20 DUP2 ADD SWAP1 PUSH2 0xA84 SWAP2 SWAP1 PUSH2 0x28EB JUMP JUMPDEST PUSH20 0xFFFFFFFFFFFFFFFFFFFFFFFFFFFFFFFFFFFFFFFF AND PUSH20 0xFFFFFFFFFFFFFFFFFFFFFFFFFFFFFFFFFFFFFFFF AND DUP2 MSTORE PUSH1 0x20 ADD SWAP1 DUP2 MSTORE PUSH1 0x20 ADD PUSH1 0x0 KECCAK256 PUSH1 0x0 ADD SLOAD EQ ISZERO PUSH2 0xB03 JUMPI PUSH1 0x40 MLOAD PUSH32 0x8C379A000000000000000000000000000000000000000000000000000000000 DUP2 MSTORE PUSH1 0x4 ADD PUSH2 0xAFA SWAP1 PUSH2 0x32F0 JUMP JUMPDEST PUSH1 0x40 MLOAD DUP1 SWAP2 SUB SWAP1 REVERT JUMPDEST DUP1 DUP1 PUSH2 0xB0E SWAP1 PUSH2 0x36D5 JUMP JUMPDEST SWAP2 POP POP PUSH2 0xA47 JUMP JUMPDEST POP NUMBER DUP2 PUSH1 0x3 ADD DUP2 SWAP1 SSTORE POP PUSH1 0x1 DUP2 PUSH1 0x0 ADD PUSH1 0x10 PUSH2 0x100 EXP DUP2 SLOAD DUP2 PUSH1 0xFF MUL NOT AND SWAP1 DUP4 PUSH1 0x3 DUP2 GT ISZERO PUSH2 0xB48 JUMPI PUSH2 0xB47 PUSH2 0x374D JUMP JUMPDEST JUMPDEST MUL OR SWAP1 SSTORE POP PUSH32 0x25B2B0A6205A2793A55299D05C21FB9163D38054D6966D101C156ACDC2D7C92F DUP10 DUP10 DUP10 DUP10 PUSH1 0x40 MLOAD PUSH2 0xB82 SWAP5 SWAP4 SWAP3 SWAP2 SWAP1 PUSH2 0x3210 JUMP JUMPDEST PUSH1 0x40 MLOAD DUP1 SWAP2 SUB SWAP1 LOG1 POP POP POP POP POP POP POP POP POP JUMP JUMPDEST DUP4 DUP4 PUSH1 0x0 PUSH1 0x2 PUSH1 0x0 DUP5 DUP2 MSTORE PUSH1 0x20 ADD SWAP1 DUP2 MSTORE PUSH1 0x20 ADD PUSH1 0x0 KECCAK256 SWAP1 POP PUSH1 0x1 DUP2 DUP1 SLOAD SWAP1 POP GT DUP1 ISZERO PUSH2 0xBDB JUMPI POP DUP2 PUSH8 0xFFFFFFFFFFFFFFFF AND PUSH1 0x1 DUP3 DUP1 SLOAD SWAP1 POP PUSH2 0xBD9 SWAP2 SWAP1 PUSH2 0x3592 JUMP JUMPDEST EQ JUMPDEST PUSH2 0xC1A JUMPI PUSH1 0x40 MLOAD PUSH32 0x8C379A000000000000000000000000000000000000000000000000000000000 DUP2 MSTORE PUSH1 0x4 ADD PUSH2 0xC11 SWAP1 PUSH2 0x3350 JUMP JUMPDEST PUSH1 0x40 MLOAD DUP1 SWAP2 SUB SWAP1 REVERT JUMPDEST PUSH2 0x100 DUP6 DUP6 SWAP1 POP GT ISZERO PUSH2 0xC2C JUMPI PUSH1 0x0 DUP1 REVERT JUMPDEST PUSH1 0x0 PUSH1 0x3 PUSH1 0x0 DUP10 DUP2 MSTORE PUSH1 0x20 ADD SWAP1 DUP2 MSTORE PUSH1 0x20 ADD PUSH1 0x0 KECCAK256 SWAP1 POP DUP7 PUSH8 0xFFFFFFFFFFFFFFFF AND DUP2 DUP1 SLOAD SWAP1 POP EQ ISZERO PUSH2 0xC76 JUMPI DUP1 PUSH1 0x1 DUP2 PUSH1 0x1 DUP2 SLOAD ADD DUP1 DUP3 SSTORE DUP1 SWAP2 POP POP SUB SWAP1 PUSH1 0x0 MSTORE PUSH1 0x20 PUSH1 0x0 KECCAK256 POP POP JUMPDEST PUSH1 0x0 DUP2 DUP9 PUSH8 0xFFFFFFFFFFFFFFFF AND DUP2 SLOAD DUP2 LT PUSH2 0xC95 JUMPI PUSH2 0xC94 PUSH2 0x37AB JUMP JUMPDEST JUMPDEST SWAP1 PUSH1 0x0 MSTORE PUSH1 0x20 PUSH1 0x0 KECCAK256 ADD SWAP1 POP DUP7 DUP7 DUP3 PUSH1 0x0 ADD PUSH1 0x0 CALLER PUSH20 0xFFFFFFFFFFFFFFFFFFFFFFFFFFFFFFFFFFFFFFFF AND PUSH20 0xFFFFFFFFFFFFFFFFFFFFFFFFFFFFFFFFFFFFFFFF AND DUP2 MSTORE PUSH1 0x20 ADD SWAP1 DUP2 MSTORE PUSH1 0x20 ADD PUSH1 0x0 KECCAK256 PUSH1 0x1 ADD SWAP2 SWAP1 PUSH2 0xCF4 SWAP3 SWAP2 SWAP1 PUSH2 0x2587 JUMP JUMPDEST POP POP POP POP POP POP POP POP POP POP JUMP JUMPDEST PUSH2 0xD08 PUSH2 0x260D JUMP JUMPDEST DUP3 DUP3 PUSH1 0x0 PUSH1 0x2 PUSH1 0x0 DUP5 DUP2 MSTORE PUSH1 0x20 ADD SWAP1 DUP2 MSTORE PUSH1 0x20 ADD PUSH1 0x0 KECCAK256 SWAP1 POP PUSH1 0x1 DUP2 DUP1 SLOAD SWAP1 POP GT DUP1 ISZERO PUSH2 0xD4E JUMPI POP DUP2 PUSH8 0xFFFFFFFFFFFFFFFF AND PUSH1 0x1 DUP3 DUP1 SLOAD SWAP1 POP PUSH2 0xD4C SWAP2 SWAP1 PUSH2 0x3592 JUMP JUMPDEST EQ JUMPDEST PUSH2 0xD8D JUMPI PUSH1 0x40 MLOAD PUSH32 0x8C379A000000000000000000000000000000000000000000000000000000000 DUP2 MSTORE PUSH1 0x4 ADD PUSH2 0xD84 SWAP1 PUSH2 0x3350 JUMP JUMPDEST PUSH1 0x40 MLOAD DUP1 SWAP2 SUB SWAP1 REVERT JUMPDEST PUSH1 0x0 PUSH1 0x2 PUSH1 0x0 DUP9 DUP2 MSTORE PUSH1 0x20 ADD SWAP1 DUP2 MSTORE PUSH1 0x20 ADD PUSH1 0x0 KECCAK256 DUP7 PUSH8 0xFFFFFFFFFFFFFFFF AND DUP2 SLOAD DUP2 LT PUSH2 0xDBE JUMPI PUSH2 0xDBD PUSH2 0x37AB JUMP JUMPDEST JUMPDEST SWAP1 PUSH1 0x0 MSTORE PUSH1 0x20 PUSH1 0x0 KECCAK256 SWAP1 PUSH1 0x5 MUL ADD SWAP1 POP PUSH1 0x40 MLOAD DUP1 PUSH2 0x100 ADD PUSH1 0x40 MSTORE DUP1 DUP3 PUSH1 0x0 ADD PUSH1 0x0 SWAP1 SLOAD SWAP1 PUSH2 0x100 EXP SWAP1 DIV PUSH8 0xFFFFFFFFFFFFFFFF AND PUSH8 0xFFFFFFFFFFFFFFFF AND DUP2 MSTORE PUSH1 0x20 ADD DUP3 PUSH1 0x0 ADD PUSH1 0x8 SWAP1 SLOAD SWAP1 PUSH2 0x100 EXP SWAP1 DIV PUSH4 0xFFFFFFFF AND PUSH4 0xFFFFFFFF AND DUP2 MSTORE PUSH1 0x20 ADD DUP3 PUSH1 0x0 ADD PUSH1 0xC SWAP1 SLOAD SWAP1 PUSH2 0x100 EXP SWAP1 DIV PUSH4 0xFFFFFFFF AND PUSH4 0xFFFFFFFF AND DUP2 MSTORE PUSH1 0x20 ADD DUP3 PUSH1 0x0 ADD PUSH1 0x10 SWAP1 SLOAD SWAP1 PUSH2 0x100 EXP SWAP1 DIV PUSH1 0xFF AND PUSH1 0x3 DUP2 GT ISZERO PUSH2 0xE66 JUMPI PUSH2 0xE65 PUSH2 0x374D JUMP JUMPDEST JUMPDEST DUP2 MSTORE PUSH1 0x20 ADD DUP3 PUSH1 0x2 ADD SLOAD DUP2 MSTORE PUSH1 0x20 ADD DUP3 PUSH1 0x3 ADD SLOAD DUP2 MSTORE PUSH1 0x20 ADD DUP3 PUSH1 0x4 ADD PUSH1 0x0 SWAP1 SLOAD SWAP1 PUSH2 0x100 EXP SWAP1 DIV PUSH4 0xFFFFFFFF AND PUSH4 0xFFFFFFFF AND DUP2 MSTORE PUSH1 0x20 ADD DUP3 PUSH1 0x4 ADD PUSH1 0x4 SWAP1 SLOAD SWAP1 PUSH2 0x100 EXP SWAP1 DIV PUSH4 0xFFFFFFFF AND PUSH4 0xFFFFFFFF AND DUP2 MSTORE POP SWAP5 POP POP POP POP POP SWAP3 SWAP2 POP POP JUMP JUMPDEST DUP4 CALLER PUSH20 0xFFFFFFFFFFFFFFFFFFFFFFFFFFFFFFFFFFFFFFFF AND PUSH1 0x1 PUSH1 0x0 DUP4 DUP2 MSTORE PUSH1 0x20 ADD SWAP1 DUP2 MSTORE PUSH1 0x20 ADD PUSH1 0x0 KECCAK256 PUSH1 0x0 ADD PUSH1 0x0 SWAP1 SLOAD SWAP1 PUSH2 0x100 EXP SWAP1 DIV PUSH20 0xFFFFFFFFFFFFFFFFFFFFFFFFFFFFFFFFFFFFFFFF AND PUSH20 0xFFFFFFFFFFFFFFFFFFFFFFFFFFFFFFFFFFFFFFFF AND EQ PUSH2 0xF6E JUMPI PUSH1 0x40 MLOAD PUSH32 0x8C379A000000000000000000000000000000000000000000000000000000000 DUP2 MSTORE PUSH1 0x4 ADD PUSH2 0xF65 SWAP1 PUSH2 0x3330 JUMP JUMPDEST PUSH1 0x40 MLOAD DUP1 SWAP2 SUB SWAP1 REVERT JUMPDEST DUP5 DUP5 PUSH1 0x0 PUSH1 0x2 PUSH1 0x0 DUP5 DUP2 MSTORE PUSH1 0x20 ADD SWAP1 DUP2 MSTORE PUSH1 0x20 ADD PUSH1 0x0 KECCAK256 SWAP1 POP PUSH1 0x1 DUP2 DUP1 SLOAD SWAP1 POP GT DUP1 ISZERO PUSH2 0xFB4 JUMPI POP DUP2 PUSH8 0xFFFFFFFFFFFFFFFF AND PUSH1 0x1 DUP3 DUP1 SLOAD SWAP1 POP PUSH2 0xFB2 SWAP2 SWAP1 PUSH2 0x3592 JUMP JUMPDEST EQ JUMPDEST PUSH2 0xFF3 JUMPI PUSH1 0x40 MLOAD PUSH32 0x8C379A000000000000000000000000000000000000000000000000000000000 DUP2 MSTORE PUSH1 0x4 ADD PUSH2 0xFEA SWAP1 PUSH2 0x3350 JUMP JUMPDEST PUSH1 0x40 MLOAD DUP1 SWAP2 SUB SWAP1 REVERT JUMPDEST PUSH1 0x0 PUSH1 0x2 PUSH1 0x0 DUP11 DUP2 MSTORE PUSH1 0x20 ADD SWAP1 DUP2 MSTORE PUSH1 0x20 ADD PUSH1 0x0 KECCAK256 DUP9 PUSH8 0xFFFFFFFFFFFFFFFF AND DUP2 SLOAD DUP2 LT PUSH2 0x1024 JUMPI PUSH2 0x1023 PUSH2 0x37AB JUMP JUMPDEST JUMPDEST SWAP1 PUSH1 0x0 MSTORE PUSH1 0x20 PUSH1 0x0 KECCAK256 SWAP1 PUSH1 0x5 MUL ADD SWAP1 POP PUSH1 0x1 PUSH1 0x3 DUP2 GT ISZERO PUSH2 0x1048 JUMPI PUSH2 0x1047 PUSH2 0x374D JUMP JUMPDEST JUMPDEST DUP2 PUSH1 0x0 ADD PUSH1 0x10 SWAP1 SLOAD SWAP1 PUSH2 0x100 EXP SWAP1 DIV PUSH1 0xFF AND PUSH1 0x3 DUP2 GT ISZERO PUSH2 0x106C JUMPI PUSH2 0x106B PUSH2 0x374D JUMP JUMPDEST JUMPDEST EQ PUSH2 0x10AC JUMPI PUSH1 0x40 MLOAD PUSH32 0x8C379A000000000000000000000000000000000000000000000000000000000 DUP2 MSTORE PUSH1 0x4 ADD PUSH2 0x10A3 SWAP1 PUSH2 0x32D0 JUMP JUMPDEST PUSH1 0x40 MLOAD DUP1 SWAP2 SUB SWAP1 REVERT JUMPDEST PUSH1 0x2 DUP2 PUSH1 0x0 ADD PUSH1 0x10 PUSH2 0x100 EXP DUP2 SLOAD DUP2 PUSH1 0xFF MUL NOT AND SWAP1 DUP4 PUSH1 0x3 DUP2 GT ISZERO PUSH2 0x10D4 JUMPI PUSH2 0x10D3 PUSH2 0x374D JUMP JUMPDEST JUMPDEST MUL OR SWAP1 SSTORE POP PUSH1 0x0 JUMPDEST DUP8 DUP8 SWAP1 POP DUP2 LT ISZERO PUSH2 0x11AB JUMPI PUSH1 0x0 DUP1 SHL DUP3 PUSH1 0x1 ADD PUSH1 0x0 DUP11 DUP11 DUP6 DUP2 DUP2 LT PUSH2 0x1104 JUMPI PUSH2 0x1103 PUSH2 0x37AB JUMP JUMPDEST JUMPDEST SWAP1 POP PUSH1 0x20 MUL ADD PUSH1 0x20 DUP2 ADD SWAP1 PUSH2 0x1119 SWAP2 SWAP1 PUSH2 0x28EB JUMP JUMPDEST PUSH20 0xFFFFFFFFFFFFFFFFFFFFFFFFFFFFFFFFFFFFFFFF AND PUSH20 0xFFFFFFFFFFFFFFFFFFFFFFFFFFFFFFFFFFFFFFFF AND DUP2 MSTORE PUSH1 0x20 ADD SWAP1 DUP2 MSTORE PUSH1 0x20 ADD PUSH1 0x0 KECCAK256 PUSH1 0x0 ADD SLOAD EQ ISZERO PUSH2 0x1198 JUMPI PUSH1 0x40 MLOAD PUSH32 0x8C379A000000000000000000000000000000000000000000000000000000000 DUP2 MSTORE PUSH1 0x4 ADD PUSH2 0x118F SWAP1 PUSH2 0x32F0 JUMP JUMPDEST PUSH1 0x40 MLOAD DUP1 SWAP2 SUB SWAP1 REVERT JUMPDEST DUP1 DUP1 PUSH2 0x11A3 SWAP1 PUSH2 0x36D5 JUMP JUMPDEST SWAP2 POP POP PUSH2 0x10DC JUMP JUMPDEST POP PUSH32 0xE9B6E97E583A9F4137BE5009BEDBE0CDCAF72235C0BE7F89471B9A02E27B821 DUP10 DUP10 DUP10 DUP10 PUSH1 0x40 MLOAD PUSH2 0x11E1 SWAP5 SWAP4 SWAP3 SWAP2 SWAP1 PUSH2 0x3210 JUMP JUMPDEST PUSH1 0x40 MLOAD DUP1 SWAP2 SUB SWAP1 LOG1 POP POP POP POP POP POP POP POP POP JUMP JUMPDEST DUP6 PUSH1 0x0 PUSH20 0xFFFFFFFFFFFFFFFFFFFFFFFFFFFFFFFFFFFFFFFF AND PUSH1 0x1 PUSH1 0x0 DUP4 DUP2 MSTORE PUSH1 0x20 ADD SWAP1 DUP2 MSTORE PUSH1 0x20 ADD PUSH1 0x0 KECCAK256 PUSH1 0x0 ADD PUSH1 0x0 SWAP1 SLOAD SWAP1 PUSH2 0x100 EXP SWAP1 DIV PUSH20 0xFFFFFFFFFFFFFFFFFFFFFFFFFFFFFFFFFFFFFFFF AND PUSH20 0xFFFFFFFFFFFFFFFFFFFFFFFFFFFFFFFFFFFFFFFF AND EQ ISZERO PUSH2 0x129B JUMPI PUSH1 0x40 MLOAD PUSH32 0x8C379A000000000000000000000000000000000000000000000000000000000 DUP2 MSTORE PUSH1 0x4 ADD PUSH2 0x1292 SWAP1 PUSH2 0x3390 JUMP JUMPDEST PUSH1 0x40 MLOAD DUP1 SWAP2 SUB SWAP1 REVERT JUMPDEST DUP7 CALLER PUSH20 0xFFFFFFFFFFFFFFFFFFFFFFFFFFFFFFFFFFFFFFFF AND PUSH1 0x1 PUSH1 0x0 DUP4 DUP2 MSTORE PUSH1 0x20 ADD SWAP1 DUP2 MSTORE PUSH1 0x20 ADD PUSH1 0x0 KECCAK256 PUSH1 0x0 ADD PUSH1 0x0 SWAP1 SLOAD SWAP1 PUSH2 0x100 EXP SWAP1 DIV PUSH20 0xFFFFFFFFFFFFFFFFFFFFFFFFFFFFFFFFFFFFFFFF AND PUSH20 0xFFFFFFFFFFFFFFFFFFFFFFFFFFFFFFFFFFFFFFFF AND EQ PUSH2 0x1340 JUMPI PUSH1 0x40 MLOAD PUSH32 0x8C379A000000000000000000000000000000000000000000000000000000000 DUP2 MSTORE PUSH1 0x4 ADD PUSH2 0x1337 SWAP1 PUSH2 0x3330 JUMP JUMPDEST PUSH1 0x40 MLOAD DUP1 SWAP2 SUB SWAP1 REVERT JUMPDEST PUSH1 0x0 PUSH1 0x2 PUSH1 0x0 DUP11 DUP2 MSTORE PUSH1 0x20 ADD SWAP1 DUP2 MSTORE PUSH1 0x20 ADD PUSH1 0x0 KECCAK256 SWAP1 POP DUP8 PUSH8 0xFFFFFFFFFFFFFFFF AND DUP2 DUP1 SLOAD SWAP1 POP EQ PUSH2 0x13A7 JUMPI PUSH1 0x40 MLOAD PUSH32 0x8C379A000000000000000000000000000000000000000000000000000000000 DUP2 MSTORE PUSH1 0x4 ADD PUSH2 0x139E SWAP1 PUSH2 0x32B0 JUMP JUMPDEST PUSH1 0x40 MLOAD DUP1 SWAP2 SUB SWAP1 REVERT JUMPDEST PUSH1 0x0 PUSH1 0x1 PUSH1 0x0 DUP12 DUP2 MSTORE PUSH1 0x20 ADD SWAP1 DUP2 MSTORE PUSH1 0x20 ADD PUSH1 0x0 KECCAK256 SWAP1 POP DUP9 DUP2 PUSH1 0x3 ADD PUSH1 0x0 PUSH2 0x100 EXP DUP2 SLOAD DUP2 PUSH8 0xFFFFFFFFFFFFFFFF MUL NOT AND SWAP1 DUP4 PUSH8 0xFFFFFFFFFFFFFFFF AND MUL OR SWAP1 SSTORE POP DUP2 PUSH1 0x1 DUP2 PUSH1 0x1 DUP2 SLOAD ADD DUP1 DUP3 SSTORE DUP1 SWAP2 POP POP SUB SWAP1 PUSH1 0x0 MSTORE PUSH1 0x20 PUSH1 0x0 KECCAK256 SWAP1 POP POP DUP9 DUP3 DUP11 PUSH8 0xFFFFFFFFFFFFFFFF AND DUP2 SLOAD DUP2 LT PUSH2 0x1424 JUMPI PUSH2 0x1423 PUSH2 0x37AB JUMP JUMPDEST JUMPDEST SWAP1 PUSH1 0x0 MSTORE PUSH1 0x20 PUSH1 0x0 KECCAK256 SWAP1 PUSH1 0x5 MUL ADD PUSH1 0x0 ADD PUSH1 0x0 PUSH2 0x100 EXP DUP2 SLOAD DUP2 PUSH8 0xFFFFFFFFFFFFFFFF MUL NOT AND SWAP1 DUP4 PUSH8 0xFFFFFFFFFFFFFFFF AND MUL OR SWAP1 SSTORE POP DUP8 DUP3 DUP11 PUSH8 0xFFFFFFFFFFFFFFFF AND DUP2 SLOAD DUP2 LT PUSH2 0x1479 JUMPI PUSH2 0x1478 PUSH2 0x37AB JUMP JUMPDEST JUMPDEST SWAP1 PUSH1 0x0 MSTORE PUSH1 0x20 PUSH1 0x0 KECCAK256 SWAP1 PUSH1 0x5 MUL ADD PUSH1 0x0 ADD PUSH1 0x8 PUSH2 0x100 EXP DUP2 SLOAD DUP2 PUSH4 0xFFFFFFFF MUL NOT AND SWAP1 DUP4 PUSH4 0xFFFFFFFF AND MUL OR SWAP1 SSTORE POP DUP7 DUP3 DUP11 PUSH8 0xFFFFFFFFFFFFFFFF AND DUP2 SLOAD DUP2 LT PUSH2 0x14C6 JUMPI PUSH2 0x14C5 PUSH2 0x37AB JUMP JUMPDEST JUMPDEST SWAP1 PUSH1 0x0 MSTORE PUSH1 0x20 PUSH1 0x0 KECCAK256 SWAP1 PUSH1 0x5 MUL ADD PUSH1 0x0 ADD PUSH1 0xC PUSH2 0x100 EXP DUP2 SLOAD DUP2 PUSH4 0xFFFFFFFF MUL NOT AND SWAP1 DUP4 PUSH4 0xFFFFFFFF AND MUL OR SWAP1 SSTORE POP PUSH1 0x0 DUP3 DUP11 PUSH8 0xFFFFFFFFFFFFFFFF AND DUP2 SLOAD DUP2 LT PUSH2 0x1514 JUMPI PUSH2 0x1513 PUSH2 0x37AB JUMP JUMPDEST JUMPDEST SWAP1 PUSH1 0x0 MSTORE PUSH1 0x20 PUSH1 0x0 KECCAK256 SWAP1 PUSH1 0x5 MUL ADD PUSH1 0x0 ADD PUSH1 0x10 PUSH2 0x100 EXP DUP2 SLOAD DUP2 PUSH1 0xFF MUL NOT AND SWAP1 DUP4 PUSH1 0x3 DUP2 GT ISZERO PUSH2 0x1547 JUMPI PUSH2 0x1546 PUSH2 0x374D JUMP JUMPDEST JUMPDEST MUL OR SWAP1 SSTORE POP NUMBER DUP3 DUP11 PUSH8 0xFFFFFFFFFFFFFFFF AND DUP2 SLOAD DUP2 LT PUSH2 0x156A JUMPI PUSH2 0x1569 PUSH2 0x37AB JUMP JUMPDEST JUMPDEST SWAP1 PUSH1 0x0 MSTORE PUSH1 0x20 PUSH1 0x0 KECCAK256 SWAP1 PUSH1 0x5 MUL ADD PUSH1 0x2 ADD DUP2 SWAP1 SSTORE POP PUSH1 0x0 DUP3 DUP11 PUSH8 0xFFFFFFFFFFFFFFFF AND DUP2 SLOAD DUP2 LT PUSH2 0x159E JUMPI PUSH2 0x159D PUSH2 0x37AB JUMP JUMPDEST JUMPDEST SWAP1 PUSH1 0x0 MSTORE PUSH1 0x20 PUSH1 0x0 KECCAK256 SWAP1 PUSH1 0x5 MUL ADD PUSH1 0x3 ADD DUP2 SWAP1 SSTORE POP DUP6 DUP3 DUP11 PUSH8 0xFFFFFFFFFFFFFFFF AND DUP2 SLOAD DUP2 LT PUSH2 0x15D1 JUMPI PUSH2 0x15D0 PUSH2 0x37AB JUMP JUMPDEST JUMPDEST SWAP1 PUSH1 0x0 MSTORE PUSH1 0x20 PUSH1 0x0 KECCAK256 SWAP1 PUSH1 0x5 MUL ADD PUSH1 0x4 ADD PUSH1 0x0 PUSH2 0x100 EXP DUP2 SLOAD DUP2 PUSH4 0xFFFFFFFF MUL NOT AND SWAP1 DUP4 PUSH4 0xFFFFFFFF AND MUL OR SWAP1 SSTORE POP DUP5 DUP3 DUP11 PUSH8 0xFFFFFFFFFFFFFFFF AND DUP2 SLOAD DUP2 LT PUSH2 0x161E JUMPI PUSH2 0x161D PUSH2 0x37AB JUMP JUMPDEST JUMPDEST SWAP1 PUSH1 0x0 MSTORE PUSH1 0x20 PUSH1 0x0 KECCAK256 SWAP1 PUSH1 0x5 MUL ADD PUSH1 0x4 ADD PUSH1 0x4 PUSH2 0x100 EXP DUP2 SLOAD DUP2 PUSH4 0xFFFFFFFF MUL NOT AND SWAP1 DUP4 PUSH4 0xFFFFFFFF AND MUL OR SWAP1 SSTORE POP PUSH1 0x0 PUSH1 0x3 PUSH1 0x0 DUP13 DUP2 MSTORE PUSH1 0x20 ADD SWAP1 DUP2 MSTORE PUSH1 0x20 ADD PUSH1 0x0 KECCAK256 SWAP1 POP DUP1 PUSH1 0x1 DUP2 PUSH1 0x1 DUP2 SLOAD ADD DUP1 DUP3 SSTORE DUP1 SWAP2 POP POP SUB SWAP1 PUSH1 0x0 MSTORE PUSH1 0x20 PUSH1 0x0 KECCAK256 POP POP PUSH32 0x442BD58918C05FBBA21640A63D950E0ADA0C085917A5C785FE24D66608972BD9 DUP12 DUP12 PUSH1 0x40 MLOAD PUSH2 0x16B1 SWAP3 SWAP2 SWAP1 PUSH2 0x31E7 JUMP JUMPDEST PUSH1 0x40 MLOAD DUP1 SWAP2 SUB SWAP1 LOG1 POP POP POP POP POP POP POP POP POP POP POP JUMP JUMPDEST PUSH2 0x16CE PUSH2 0x2686 JUMP JUMPDEST DUP2 PUSH1 0x0 PUSH20 0xFFFFFFFFFFFFFFFFFFFFFFFFFFFFFFFFFFFFFFFF AND PUSH1 0x1 PUSH1 0x0 DUP4 DUP2 MSTORE PUSH1 0x20 ADD SWAP1 DUP2 MSTORE PUSH1 0x20 ADD PUSH1 0x0 KECCAK256 PUSH1 0x0 ADD PUSH1 0x0 SWAP1 SLOAD SWAP1 PUSH2 0x100 EXP SWAP1 DIV PUSH20 0xFFFFFFFFFFFFFFFFFFFFFFFFFFFFFFFFFFFFFFFF AND PUSH20 0xFFFFFFFFFFFFFFFFFFFFFFFFFFFFFFFFFFFFFFFF AND EQ ISZERO PUSH2 0x1775 JUMPI PUSH1 0x40 MLOAD PUSH32 0x8C379A000000000000000000000000000000000000000000000000000000000 DUP2 MSTORE PUSH1 0x4 ADD PUSH2 0x176C SWAP1 PUSH2 0x3390 JUMP JUMPDEST PUSH1 0x40 MLOAD DUP1 SWAP2 SUB SWAP1 REVERT JUMPDEST PUSH1 0x1 PUSH1 0x0 DUP5 DUP2 MSTORE PUSH1 0x20 ADD SWAP1 DUP2 MSTORE PUSH1 0x20 ADD PUSH1 0x0 KECCAK256 PUSH1 0x40 MLOAD DUP1 PUSH1 0x80 ADD PUSH1 0x40 MSTORE SWAP1 DUP2 PUSH1 0x0 DUP3 ADD PUSH1 0x0 SWAP1 SLOAD SWAP1 PUSH2 0x100 EXP SWAP1 DIV PUSH20 0xFFFFFFFFFFFFFFFFFFFFFFFFFFFFFFFFFFFFFFFF AND PUSH20 0xFFFFFFFFFFFFFFFFFFFFFFFFFFFFFFFFFFFFFFFF AND PUSH20 0xFFFFFFFFFFFFFFFFFFFFFFFFFFFFFFFFFFFFFFFF AND DUP2 MSTORE PUSH1 0x20 ADD PUSH1 0x1 DUP3 ADD DUP1 SLOAD PUSH2 0x17F9 SWAP1 PUSH2 0x36A3 JUMP JUMPDEST DUP1 PUSH1 0x1F ADD PUSH1 0x20 DUP1 SWAP2 DIV MUL PUSH1 0x20 ADD PUSH1 0x40 MLOAD SWAP1 DUP2 ADD PUSH1 0x40 MSTORE DUP1 SWAP3 SWAP2 SWAP1 DUP2 DUP2 MSTORE PUSH1 0x20 ADD DUP3 DUP1 SLOAD PUSH2 0x1825 SWAP1 PUSH2 0x36A3 JUMP JUMPDEST DUP1 ISZERO PUSH2 0x1872 JUMPI DUP1 PUSH1 0x1F LT PUSH2 0x1847 JUMPI PUSH2 0x100 DUP1 DUP4 SLOAD DIV MUL DUP4 MSTORE SWAP2 PUSH1 0x20 ADD SWAP2 PUSH2 0x1872 JUMP JUMPDEST DUP3 ADD SWAP2 SWAP1 PUSH1 0x0 MSTORE PUSH1 0x20 PUSH1 0x0 KECCAK256 SWAP1 JUMPDEST DUP2 SLOAD DUP2 MSTORE SWAP1 PUSH1 0x1 ADD SWAP1 PUSH1 0x20 ADD DUP1 DUP4 GT PUSH2 0x1855 JUMPI DUP3 SWAP1 SUB PUSH1 0x1F AND DUP3 ADD SWAP2 JUMPDEST POP POP POP POP POP DUP2 MSTORE PUSH1 0x20 ADD PUSH1 0x2 DUP3 ADD SLOAD DUP2 MSTORE PUSH1 0x20 ADD PUSH1 0x3 DUP3 ADD PUSH1 0x0 SWAP1 SLOAD SWAP1 PUSH2 0x100 EXP SWAP1 DIV PUSH8 0xFFFFFFFFFFFFFFFF AND PUSH8 0xFFFFFFFFFFFFFFFF AND PUSH8 0xFFFFFFFFFFFFFFFF AND DUP2 MSTORE POP POP SWAP2 POP POP SWAP2 SWAP1 POP JUMP JUMPDEST DUP4 DUP4 PUSH1 0x0 PUSH1 0x2 PUSH1 0x0 DUP5 DUP2 MSTORE PUSH1 0x20 ADD SWAP1 DUP2 MSTORE PUSH1 0x20 ADD PUSH1 0x0 KECCAK256 SWAP1 POP PUSH1 0x1 DUP2 DUP1 SLOAD SWAP1 POP GT DUP1 ISZERO PUSH2 0x1905 JUMPI POP DUP2 PUSH8 0xFFFFFFFFFFFFFFFF AND PUSH1 0x1 DUP3 DUP1 SLOAD SWAP1 POP PUSH2 0x1903 SWAP2 SWAP1 PUSH2 0x3592 JUMP JUMPDEST EQ JUMPDEST PUSH2 0x1944 JUMPI PUSH1 0x40 MLOAD PUSH32 0x8C379A000000000000000000000000000000000000000000000000000000000 DUP2 MSTORE PUSH1 0x4 ADD PUSH2 0x193B SWAP1 PUSH2 0x3350 JUMP JUMPDEST PUSH1 0x40 MLOAD DUP1 SWAP2 SUB SWAP1 REVERT JUMPDEST PUSH3 0xA00000 DUP6 DUP6 SWAP1 POP LT PUSH2 0x1956 JUMPI PUSH1 0x0 DUP1 REVERT JUMPDEST PUSH1 0x0 PUSH1 0x2 PUSH1 0x0 DUP10 DUP2 MSTORE PUSH1 0x20 ADD SWAP1 DUP2 MSTORE PUSH1 0x20 ADD PUSH1 0x0 KECCAK256 DUP8 PUSH8 0xFFFFFFFFFFFFFFFF AND DUP2 SLOAD DUP2 LT PUSH2 0x1987 JUMPI PUSH2 0x1986 PUSH2 0x37AB JUMP JUMPDEST JUMPDEST SWAP1 PUSH1 0x0 MSTORE PUSH1 0x20 PUSH1 0x0 KECCAK256 SWAP1 PUSH1 0x5 MUL ADD SWAP1 POP PUSH1 0x1 PUSH1 0x3 DUP2 GT ISZERO PUSH2 0x19AB JUMPI PUSH2 0x19AA PUSH2 0x374D JUMP JUMPDEST JUMPDEST DUP2 PUSH1 0x0 ADD PUSH1 0x10 SWAP1 SLOAD SWAP1 PUSH2 0x100 EXP SWAP1 DIV PUSH1 0xFF AND PUSH1 0x3 DUP2 GT ISZERO PUSH2 0x19CF JUMPI PUSH2 0x19CE PUSH2 0x374D JUMP JUMPDEST JUMPDEST EQ PUSH2 0x1A0F JUMPI PUSH1 0x40 MLOAD PUSH32 0x8C379A000000000000000000000000000000000000000000000000000000000 DUP2 MSTORE PUSH1 0x4 ADD PUSH2 0x1A06 SWAP1 PUSH2 0x32D0 JUMP JUMPDEST PUSH1 0x40 MLOAD DUP1 SWAP2 SUB SWAP1 REVERT JUMPDEST NUMBER DUP2 PUSH1 0x4 ADD PUSH1 0x4 SWAP1 SLOAD SWAP1 PUSH2 0x100 EXP SWAP1 DIV PUSH4 0xFFFFFFFF AND PUSH4 0xFFFFFFFF AND DUP3 PUSH1 0x3 ADD SLOAD PUSH2 0x1A3A SWAP2 SWAP1 PUSH2 0x353C JUMP JUMPDEST LT ISZERO PUSH2 0x1A7B JUMPI PUSH1 0x40 MLOAD PUSH32 0x8C379A000000000000000000000000000000000000000000000000000000000 DUP2 MSTORE PUSH1 0x4 ADD PUSH2 0x1A72 SWAP1 PUSH2 0x3370 JUMP JUMPDEST PUSH1 0x40 MLOAD DUP1 SWAP2 SUB SWAP1 REVERT JUMPDEST PUSH1 0x0 PUSH1 0x3 PUSH1 0x0 DUP11 DUP2 MSTORE PUSH1 0x20 ADD SWAP1 DUP2 MSTORE PUSH1 0x20 ADD PUSH1 0x0 KECCAK256 SWAP1 POP DUP8 PUSH8 0xFFFFFFFFFFFFFFFF AND DUP2 DUP1 SLOAD SWAP1 POP EQ ISZERO PUSH2 0x1AC5 JUMPI DUP1 PUSH1 0x1 DUP2 PUSH1 0x1 DUP2 SLOAD ADD DUP1 DUP3 SSTORE DUP1 SWAP2 POP POP SUB SWAP1 PUSH1 0x0 MSTORE PUSH1 0x20 PUSH1 0x0 KECCAK256 POP POP JUMPDEST PUSH1 0x0 DUP2 DUP10 PUSH8 0xFFFFFFFFFFFFFFFF AND DUP2 SLOAD DUP2 LT PUSH2 0x1AE4 JUMPI PUSH2 0x1AE3 PUSH2 0x37AB JUMP JUMPDEST JUMPDEST SWAP1 PUSH1 0x0 MSTORE PUSH1 0x20 PUSH1 0x0 KECCAK256 ADD SWAP1 POP DUP8 DUP8 DUP3 PUSH1 0x0 ADD PUSH1 0x0 CALLER PUSH20 0xFFFFFFFFFFFFFFFFFFFFFFFFFFFFFFFFFFFFFFFF AND PUSH20 0xFFFFFFFFFFFFFFFFFFFFFFFFFFFFFFFFFFFFFFFF AND DUP2 MSTORE PUSH1 0x20 ADD SWAP1 DUP2 MSTORE PUSH1 0x20 ADD PUSH1 0x0 KECCAK256 PUSH1 0x0 ADD SWAP2 SWAP1 PUSH2 0x1B43 SWAP3 SWAP2 SWAP1 PUSH2 0x2587 JUMP JUMPDEST POP POP POP POP POP POP POP POP POP POP POP JUMP JUMPDEST PUSH1 0x0 DUP1 TIMESTAMP CALLER DUP7 DUP7 DUP7 PUSH1 0x40 MLOAD PUSH1 0x20 ADD PUSH2 0x1B6C SWAP6 SWAP5 SWAP4 SWAP3 SWAP2 SWAP1 PUSH2 0x3466 JUMP JUMPDEST PUSH1 0x40 MLOAD PUSH1 0x20 DUP2 DUP4 SUB SUB DUP2 MSTORE SWAP1 PUSH1 0x40 MSTORE DUP1 MLOAD SWAP1 PUSH1 0x20 ADD KECCAK256 SWAP1 POP PUSH1 0x40 MLOAD DUP1 PUSH1 0x80 ADD PUSH1 0x40 MSTORE DUP1 CALLER PUSH20 0xFFFFFFFFFFFFFFFFFFFFFFFFFFFFFFFFFFFFFFFF AND DUP2 MSTORE PUSH1 0x20 ADD DUP7 DUP7 DUP1 DUP1 PUSH1 0x1F ADD PUSH1 0x20 DUP1 SWAP2 DIV MUL PUSH1 0x20 ADD PUSH1 0x40 MLOAD SWAP1 DUP2 ADD PUSH1 0x40 MSTORE DUP1 SWAP4 SWAP3 SWAP2 SWAP1 DUP2 DUP2 MSTORE PUSH1 0x20 ADD DUP4 DUP4 DUP1 DUP3 DUP5 CALLDATACOPY PUSH1 0x0 DUP2 DUP5 ADD MSTORE PUSH1 0x1F NOT PUSH1 0x1F DUP3 ADD AND SWAP1 POP DUP1 DUP4 ADD SWAP3 POP POP POP POP POP POP POP DUP2 MSTORE PUSH1 0x20 ADD DUP5 DUP2 MSTORE PUSH1 0x20 ADD PUSH1 0x0 PUSH8 0xFFFFFFFFFFFFFFFF AND DUP2 MSTORE POP PUSH1 0x1 PUSH1 0x0 DUP4 DUP2 MSTORE PUSH1 0x20 ADD SWAP1 DUP2 MSTORE PUSH1 0x20 ADD PUSH1 0x0 KECCAK256 PUSH1 0x0 DUP3 ADD MLOAD DUP2 PUSH1 0x0 ADD PUSH1 0x0 PUSH2 0x100 EXP DUP2 SLOAD DUP2 PUSH20 0xFFFFFFFFFFFFFFFFFFFFFFFFFFFFFFFFFFFFFFFF MUL NOT AND SWAP1 DUP4 PUSH20 0xFFFFFFFFFFFFFFFFFFFFFFFFFFFFFFFFFFFFFFFF AND MUL OR SWAP1 SSTORE POP PUSH1 0x20 DUP3 ADD MLOAD DUP2 PUSH1 0x1 ADD SWAP1 DUP1 MLOAD SWAP1 PUSH1 0x20 ADD SWAP1 PUSH2 0x1C80 SWAP3 SWAP2 SWAP1 PUSH2 0x26D1 JUMP JUMPDEST POP PUSH1 0x40 DUP3 ADD MLOAD DUP2 PUSH1 0x2 ADD SSTORE PUSH1 0x60 DUP3 ADD MLOAD DUP2 PUSH1 0x3 ADD PUSH1 0x0 PUSH2 0x100 EXP DUP2 SLOAD DUP2 PUSH8 0xFFFFFFFFFFFFFFFF MUL NOT AND SWAP1 DUP4 PUSH8 0xFFFFFFFFFFFFFFFF AND MUL OR SWAP1 SSTORE POP SWAP1 POP POP DUP1 SWAP2 POP PUSH1 0x0 PUSH1 0x2 PUSH1 0x0 DUP5 DUP2 MSTORE PUSH1 0x20 ADD SWAP1 DUP2 MSTORE PUSH1 0x20 ADD PUSH1 0x0 KECCAK256 SWAP1 POP DUP1 PUSH1 0x1 DUP2 PUSH1 0x1 DUP2 SLOAD ADD DUP1 DUP3 SSTORE DUP1 SWAP2 POP POP SUB SWAP1 PUSH1 0x0 MSTORE PUSH1 0x20 PUSH1 0x0 KECCAK256 SWAP1 POP POP CALLER PUSH20 0xFFFFFFFFFFFFFFFFFFFFFFFFFFFFFFFFFFFFFFFF AND PUSH32 0x1A64B92F645BE2AE2D4DE1A08511156F5D99C785AE1B03A6636A7EE0C1CABD2A DUP4 DUP9 DUP9 DUP9 PUSH1 0x40 MLOAD PUSH2 0x1D40 SWAP5 SWAP4 SWAP3 SWAP2 SWAP1 PUSH2 0x31A7 JUMP JUMPDEST PUSH1 0x40 MLOAD DUP1 SWAP2 SUB SWAP1 LOG2 POP POP SWAP4 SWAP3 POP POP POP JUMP JUMPDEST PUSH2 0x1D59 PUSH2 0x2757 JUMP JUMPDEST DUP4 DUP3 PUSH1 0x0 PUSH1 0x2 PUSH1 0x0 DUP5 DUP2 MSTORE PUSH1 0x20 ADD SWAP1 DUP2 MSTORE PUSH1 0x20 ADD PUSH1 0x0 KECCAK256 SWAP1 POP PUSH1 0x1 DUP2 DUP1 SLOAD SWAP1 POP GT DUP1 ISZERO PUSH2 0x1D9F JUMPI POP DUP2 PUSH8 0xFFFFFFFFFFFFFFFF AND PUSH1 0x1 DUP3 DUP1 SLOAD SWAP1 POP PUSH2 0x1D9D SWAP2 SWAP1 PUSH2 0x3592 JUMP JUMPDEST EQ JUMPDEST PUSH2 0x1DDE JUMPI PUSH1 0x40 MLOAD PUSH32 0x8C379A000000000000000000000000000000000000000000000000000000000 DUP2 MSTORE PUSH1 0x4 ADD PUSH2 0x1DD5 SWAP1 PUSH2 0x3350 JUMP JUMPDEST PUSH1 0x40 MLOAD DUP1 SWAP2 SUB SWAP1 REVERT JUMPDEST DUP7 DUP6 PUSH1 0x0 PUSH1 0x3 PUSH1 0x0 DUP5 DUP2 MSTORE PUSH1 0x20 ADD SWAP1 DUP2 MSTORE PUSH1 0x20 ADD PUSH1 0x0 KECCAK256 SWAP1 POP DUP2 PUSH8 0xFFFFFFFFFFFFFFFF AND DUP2 DUP1 SLOAD SWAP1 POP GT PUSH2 0x1E47 JUMPI PUSH1 0x40 MLOAD PUSH32 0x8C379A000000000000000000000000000000000000000000000000000000000 DUP2 MSTORE PUSH1 0x4 ADD PUSH2 0x1E3E SWAP1 PUSH2 0x3290 JUMP JUMPDEST PUSH1 0x40 MLOAD DUP1 SWAP2 SUB SWAP1 REVERT JUMPDEST PUSH1 0x0 PUSH1 0x3 PUSH1 0x0 DUP13 DUP2 MSTORE PUSH1 0x20 ADD SWAP1 DUP2 MSTORE PUSH1 0x20 ADD PUSH1 0x0 KECCAK256 SWAP1 POP DUP9 PUSH8 0xFFFFFFFFFFFFFFFF AND DUP2 DUP1 SLOAD SWAP1 POP LT ISZERO PUSH2 0x1EAF JUMPI PUSH1 0x40 MLOAD PUSH32 0x8C379A000000000000000000000000000000000000000000000000000000000 DUP2 MSTORE PUSH1 0x4 ADD PUSH2 0x1EA6 SWAP1 PUSH2 0x3290 JUMP JUMPDEST PUSH1 0x40 MLOAD DUP1 SWAP2 SUB SWAP1 REVERT JUMPDEST PUSH1 0x0 DUP2 DUP11 PUSH8 0xFFFFFFFFFFFFFFFF AND DUP2 SLOAD DUP2 LT PUSH2 0x1ECE JUMPI PUSH2 0x1ECD PUSH2 0x37AB JUMP JUMPDEST JUMPDEST SWAP1 PUSH1 0x0 MSTORE PUSH1 0x20 PUSH1 0x0 KECCAK256 ADD SWAP1 POP DUP1 PUSH1 0x0 ADD PUSH1 0x0 DUP13 PUSH20 0xFFFFFFFFFFFFFFFFFFFFFFFFFFFFFFFFFFFFFFFF AND PUSH20 0xFFFFFFFFFFFFFFFFFFFFFFFFFFFFFFFFFFFFFFFF AND DUP2 MSTORE PUSH1 0x20 ADD SWAP1 DUP2 MSTORE PUSH1 0x20 ADD PUSH1 0x0 KECCAK256 PUSH1 0x40 MLOAD DUP1 PUSH1 0x60 ADD PUSH1 0x40 MSTORE SWAP1 DUP2 PUSH1 0x0 DUP3 ADD DUP1 SLOAD PUSH2 0x1F36 SWAP1 PUSH2 0x36A3 JUMP JUMPDEST DUP1 PUSH1 0x1F ADD PUSH1 0x20 DUP1 SWAP2 DIV MUL PUSH1 0x20 ADD PUSH1 0x40 MLOAD SWAP1 DUP2 ADD PUSH1 0x40 MSTORE DUP1 SWAP3 SWAP2 SWAP1 DUP2 DUP2 MSTORE PUSH1 0x20 ADD DUP3 DUP1 SLOAD PUSH2 0x1F62 SWAP1 PUSH2 0x36A3 JUMP JUMPDEST DUP1 ISZERO PUSH2 0x1FAF JUMPI DUP1 PUSH1 0x1F LT PUSH2 0x1F84 JUMPI PUSH2 0x100 DUP1 DUP4 SLOAD DIV MUL DUP4 MSTORE SWAP2 PUSH1 0x20 ADD SWAP2 PUSH2 0x1FAF JUMP JUMPDEST DUP3 ADD SWAP2 SWAP1 PUSH1 0x0 MSTORE PUSH1 0x20 PUSH1 0x0 KECCAK256 SWAP1 JUMPDEST DUP2 SLOAD DUP2 MSTORE SWAP1 PUSH1 0x1 ADD SWAP1 PUSH1 0x20 ADD DUP1 DUP4 GT PUSH2 0x1F92 JUMPI DUP3 SWAP1 SUB PUSH1 0x1F AND DUP3 ADD SWAP2 JUMPDEST POP POP POP POP POP DUP2 MSTORE PUSH1 0x20 ADD PUSH1 0x1 DUP3 ADD DUP1 SLOAD PUSH2 0x1FC8 SWAP1 PUSH2 0x36A3 JUMP JUMPDEST DUP1 PUSH1 0x1F ADD PUSH1 0x20 DUP1 SWAP2 DIV MUL PUSH1 0x20 ADD PUSH1 0x40 MLOAD SWAP1 DUP2 ADD PUSH1 0x40 MSTORE DUP1 SWAP3 SWAP2 SWAP1 DUP2 DUP2 MSTORE PUSH1 0x20 ADD DUP3 DUP1 SLOAD PUSH2 0x1FF4 SWAP1 PUSH2 0x36A3 JUMP JUMPDEST DUP1 ISZERO PUSH2 0x2041 JUMPI DUP1 PUSH1 0x1F LT PUSH2 0x2016 JUMPI PUSH2 0x100 DUP1 DUP4 SLOAD DIV MUL DUP4 MSTORE SWAP2 PUSH1 0x20 ADD SWAP2 PUSH2 0x2041 JUMP JUMPDEST DUP3 ADD SWAP2 SWAP1 PUSH1 0x0 MSTORE PUSH1 0x20 PUSH1 0x0 KECCAK256 SWAP1 JUMPDEST DUP2 SLOAD DUP2 MSTORE SWAP1 PUSH1 0x1 ADD SWAP1 PUSH1 0x20 ADD DUP1 DUP4 GT PUSH2 0x2024 JUMPI DUP3 SWAP1 SUB PUSH1 0x1F AND DUP3 ADD SWAP2 JUMPDEST POP POP POP POP POP DUP2 MSTORE PUSH1 0x20 ADD PUSH1 0x2 DUP3 ADD DUP1 SLOAD PUSH2 0x205A SWAP1 PUSH2 0x36A3 JUMP JUMPDEST DUP1 PUSH1 0x1F ADD PUSH1 0x20 DUP1 SWAP2 DIV MUL PUSH1 0x20 ADD PUSH1 0x40 MLOAD SWAP1 DUP2 ADD PUSH1 0x40 MSTORE DUP1 SWAP3 SWAP2 SWAP1 DUP2 DUP2 MSTORE PUSH1 0x20 ADD DUP3 DUP1 SLOAD PUSH2 0x2086 SWAP1 PUSH2 0x36A3 JUMP JUMPDEST DUP1 ISZERO PUSH2 0x20D3 JUMPI DUP1 PUSH1 0x1F LT PUSH2 0x20A8 JUMPI PUSH2 0x100 DUP1 DUP4 SLOAD DIV MUL DUP4 MSTORE SWAP2 PUSH1 0x20 ADD SWAP2 PUSH2 0x20D3 JUMP JUMPDEST DUP3 ADD SWAP2 SWAP1 PUSH1 0x0 MSTORE PUSH1 0x20 PUSH1 0x0 KECCAK256 SWAP1 JUMPDEST DUP2 SLOAD DUP2 MSTORE SWAP1 PUSH1 0x1 ADD SWAP1 PUSH1 0x20 ADD DUP1 DUP4 GT PUSH2 0x20B6 JUMPI DUP3 SWAP1 SUB PUSH1 0x1F AND DUP3 ADD SWAP2 JUMPDEST POP POP POP POP POP DUP2 MSTORE POP POP SWAP9 POP POP POP POP POP POP POP POP POP SWAP4 SWAP3 POP POP POP JUMP JUMPDEST PUSH1 0x0 DUP1 PUSH1 0x0 SWAP1 SLOAD SWAP1 PUSH2 0x100 EXP SWAP1 DIV PUSH20 0xFFFFFFFFFFFFFFFFFFFFFFFFFFFFFFFFFFFFFFFF AND SWAP1 POP SWAP1 JUMP JUMPDEST PUSH1 0x0 DUP1 SLOAD SWAP1 PUSH2 0x100 EXP SWAP1 DIV PUSH20 0xFFFFFFFFFFFFFFFFFFFFFFFFFFFFFFFFFFFFFFFF AND PUSH20 0xFFFFFFFFFFFFFFFFFFFFFFFFFFFFFFFFFFFFFFFF AND CALLER PUSH20 0xFFFFFFFFFFFFFFFFFFFFFFFFFFFFFFFFFFFFFFFF AND EQ PUSH2 0x21A4 JUMPI PUSH1 0x40 MLOAD PUSH32 0x8C379A000000000000000000000000000000000000000000000000000000000 DUP2 MSTORE PUSH1 0x4 ADD PUSH2 0x219B SWAP1 PUSH2 0x3250 JUMP JUMPDEST PUSH1 0x40 MLOAD DUP1 SWAP2 SUB SWAP1 REVERT JUMPDEST DUP1 PUSH20 0xFFFFFFFFFFFFFFFFFFFFFFFFFFFFFFFFFFFFFFFF AND PUSH1 0x0 DUP1 SLOAD SWAP1 PUSH2 0x100 EXP SWAP1 DIV PUSH20 0xFFFFFFFFFFFFFFFFFFFFFFFFFFFFFFFFFFFFFFFF AND PUSH20 0xFFFFFFFFFFFFFFFFFFFFFFFFFFFFFFFFFFFFFFFF AND PUSH32 0x342827C97908E5E2F71151C08502A66D44B6F758E3AC2F1DE95F02EB95F0A735 PUSH1 0x40 MLOAD PUSH1 0x40 MLOAD DUP1 SWAP2 SUB SWAP1 LOG3 DUP1 PUSH1 0x0 DUP1 PUSH2 0x100 EXP DUP2 SLOAD DUP2 PUSH20 0xFFFFFFFFFFFFFFFFFFFFFFFFFFFFFFFFFFFFFFFF MUL NOT AND SWAP1 DUP4 PUSH20 0xFFFFFFFFFFFFFFFFFFFFFFFFFFFFFFFFFFFFFFFF AND MUL OR SWAP1 SSTORE POP POP JUMP JUMPDEST PUSH1 0x0 DUP5 PUSH1 0x0 PUSH20 0xFFFFFFFFFFFFFFFFFFFFFFFFFFFFFFFFFFFFFFFF AND PUSH1 0x1 PUSH1 0x0 DUP4 DUP2 MSTORE PUSH1 0x20 ADD SWAP1 DUP2 MSTORE PUSH1 0x20 ADD PUSH1 0x0 KECCAK256 PUSH1 0x0 ADD PUSH1 0x0 SWAP1 SLOAD SWAP1 PUSH2 0x100 EXP SWAP1 DIV PUSH20 0xFFFFFFFFFFFFFFFFFFFFFFFFFFFFFFFFFFFFFFFF AND PUSH20 0xFFFFFFFFFFFFFFFFFFFFFFFFFFFFFFFFFFFFFFFF AND EQ ISZERO PUSH2 0x230A JUMPI PUSH1 0x40 MLOAD PUSH32 0x8C379A000000000000000000000000000000000000000000000000000000000 DUP2 MSTORE PUSH1 0x4 ADD PUSH2 0x2301 SWAP1 PUSH2 0x3390 JUMP JUMPDEST PUSH1 0x40 MLOAD DUP1 SWAP2 SUB SWAP1 REVERT JUMPDEST DUP6 DUP6 PUSH1 0x0 PUSH1 0x2 PUSH1 0x0 DUP5 DUP2 MSTORE PUSH1 0x20 ADD SWAP1 DUP2 MSTORE PUSH1 0x20 ADD PUSH1 0x0 KECCAK256 SWAP1 POP PUSH1 0x1 DUP2 DUP1 SLOAD SWAP1 POP GT DUP1 ISZERO PUSH2 0x2350 JUMPI POP DUP2 PUSH8 0xFFFFFFFFFFFFFFFF AND PUSH1 0x1 DUP3 DUP1 SLOAD SWAP1 POP PUSH2 0x234E SWAP2 SWAP1 PUSH2 0x3592 JUMP JUMPDEST EQ JUMPDEST PUSH2 0x238F JUMPI PUSH1 0x40 MLOAD PUSH32 0x8C379A000000000000000000000000000000000000000000000000000000000 DUP2 MSTORE PUSH1 0x4 ADD PUSH2 0x2386 SWAP1 PUSH2 0x3350 JUMP JUMPDEST PUSH1 0x40 MLOAD DUP1 SWAP2 SUB SWAP1 REVERT JUMPDEST PUSH1 0x0 PUSH1 0x2 PUSH1 0x0 DUP12 DUP2 MSTORE PUSH1 0x20 ADD SWAP1 DUP2 MSTORE PUSH1 0x20 ADD PUSH1 0x0 KECCAK256 SWAP1 POP PUSH1 0x0 DUP2 PUSH1 0x1 DUP4 DUP1 SLOAD SWAP1 POP PUSH2 0x23BA SWAP2 SWAP1 PUSH2 0x3592 JUMP JUMPDEST DUP2 SLOAD DUP2 LT PUSH2 0x23CB JUMPI PUSH2 0x23CA PUSH2 0x37AB JUMP JUMPDEST JUMPDEST SWAP1 PUSH1 0x0 MSTORE PUSH1 0x20 PUSH1 0x0 KECCAK256 SWAP1 PUSH1 0x5 MUL ADD SWAP1 POP PUSH1 0x0 PUSH1 0x1 PUSH1 0x0 DUP14 DUP2 MSTORE PUSH1 0x20 ADD SWAP1 DUP2 MSTORE PUSH1 0x20 ADD PUSH1 0x0 KECCAK256 SWAP1 POP NUMBER DUP3 PUSH1 0x4 ADD PUSH1 0x0 SWAP1 SLOAD SWAP1 PUSH2 0x100 EXP SWAP1 DIV PUSH4 0xFFFFFFFF AND PUSH4 0xFFFFFFFF AND DUP4 PUSH1 0x2 ADD SLOAD PUSH2 0x241D SWAP2 SWAP1 PUSH2 0x353C JUMP JUMPDEST LT ISZERO PUSH2 0x245E JUMPI PUSH1 0x40 MLOAD PUSH32 0x8C379A000000000000000000000000000000000000000000000000000000000 DUP2 MSTORE PUSH1 0x4 ADD PUSH2 0x2455 SWAP1 PUSH2 0x3270 JUMP JUMPDEST PUSH1 0x40 MLOAD DUP1 SWAP2 SUB SWAP1 REVERT JUMPDEST PUSH1 0x0 DUP1 SHL DUP3 PUSH1 0x1 ADD PUSH1 0x0 CALLER PUSH20 0xFFFFFFFFFFFFFFFFFFFFFFFFFFFFFFFFFFFFFFFF AND PUSH20 0xFFFFFFFFFFFFFFFFFFFFFFFFFFFFFFFFFFFFFFFF AND DUP2 MSTORE PUSH1 0x20 ADD SWAP1 DUP2 MSTORE PUSH1 0x20 ADD PUSH1 0x0 KECCAK256 PUSH1 0x0 ADD SLOAD EQ PUSH2 0x24E7 JUMPI PUSH1 0x40 MLOAD PUSH32 0x8C379A000000000000000000000000000000000000000000000000000000000 DUP2 MSTORE PUSH1 0x4 ADD PUSH2 0x24DE SWAP1 PUSH2 0x3310 JUMP JUMPDEST PUSH1 0x40 MLOAD DUP1 SWAP2 SUB SWAP1 REVERT JUMPDEST PUSH1 0x40 MLOAD DUP1 PUSH1 0x40 ADD PUSH1 0x40 MSTORE DUP1 DUP12 DUP2 MSTORE PUSH1 0x20 ADD DUP11 DUP2 MSTORE POP DUP3 PUSH1 0x1 ADD PUSH1 0x0 CALLER PUSH20 0xFFFFFFFFFFFFFFFFFFFFFFFFFFFFFFFFFFFFFFFF AND PUSH20 0xFFFFFFFFFFFFFFFFFFFFFFFFFFFFFFFFFFFFFFFF AND DUP2 MSTORE PUSH1 0x20 ADD SWAP1 DUP2 MSTORE PUSH1 0x20 ADD PUSH1 0x0 KECCAK256 PUSH1 0x0 DUP3 ADD MLOAD DUP2 PUSH1 0x0 ADD SSTORE PUSH1 0x20 DUP3 ADD MLOAD DUP2 PUSH1 0x1 ADD SSTORE SWAP1 POP POP PUSH1 0x1 SWAP8 POP POP POP POP POP POP POP POP SWAP5 SWAP4 POP POP POP POP JUMP JUMPDEST PUSH1 0x40 MLOAD DUP1 PUSH1 0x40 ADD PUSH1 0x40 MSTORE DUP1 PUSH1 0x0 DUP1 NOT AND DUP2 MSTORE PUSH1 0x20 ADD PUSH1 0x0 DUP1 NOT AND DUP2 MSTORE POP SWAP1 JUMP JUMPDEST DUP3 DUP1 SLOAD PUSH2 0x2593 SWAP1 PUSH2 0x36A3 JUMP JUMPDEST SWAP1 PUSH1 0x0 MSTORE PUSH1 0x20 PUSH1 0x0 KECCAK256 SWAP1 PUSH1 0x1F ADD PUSH1 0x20 SWAP1 DIV DUP2 ADD SWAP3 DUP3 PUSH2 0x25B5 JUMPI PUSH1 0x0 DUP6 SSTORE PUSH2 0x25FC JUMP JUMPDEST DUP3 PUSH1 0x1F LT PUSH2 0x25CE JUMPI DUP1 CALLDATALOAD PUSH1 0xFF NOT AND DUP4 DUP1 ADD OR DUP6 SSTORE PUSH2 0x25FC JUMP JUMPDEST DUP3 DUP1 ADD PUSH1 0x1 ADD DUP6 SSTORE DUP3 ISZERO PUSH2 0x25FC JUMPI SWAP2 DUP3 ADD JUMPDEST DUP3 DUP2 GT ISZERO PUSH2 0x25FB JUMPI DUP3 CALLDATALOAD DUP3 SSTORE SWAP2 PUSH1 0x20 ADD SWAP2 SWAP1 PUSH1 0x1 ADD SWAP1 PUSH2 0x25E0 JUMP JUMPDEST JUMPDEST POP SWAP1 POP PUSH2 0x2609 SWAP2 SWAP1 PUSH2 0x2778 JUMP JUMPDEST POP SWAP1 JUMP JUMPDEST PUSH1 0x40 MLOAD DUP1 PUSH2 0x100 ADD PUSH1 0x40 MSTORE DUP1 PUSH1 0x0 PUSH8 0xFFFFFFFFFFFFFFFF AND DUP2 MSTORE PUSH1 0x20 ADD PUSH1 0x0 PUSH4 0xFFFFFFFF AND DUP2 MSTORE PUSH1 0x20 ADD PUSH1 0x0 PUSH4 0xFFFFFFFF AND DUP2 MSTORE PUSH1 0x20 ADD PUSH1 0x0 PUSH1 0x3 DUP2 GT ISZERO PUSH2 0x2658 JUMPI PUSH2 0x2657 PUSH2 0x374D JUMP JUMPDEST JUMPDEST DUP2 MSTORE PUSH1 0x20 ADD PUSH1 0x0 DUP2 MSTORE PUSH1 0x20 ADD PUSH1 0x0 DUP2 MSTORE PUSH1 0x20 ADD PUSH1 0x0 PUSH4 0xFFFFFFFF AND DUP2 MSTORE PUSH1 0x20 ADD PUSH1 0x0 PUSH4 0xFFFFFFFF AND DUP2 MSTORE POP SWAP1 JUMP JUMPDEST PUSH1 0x40 MLOAD DUP1 PUSH1 0x80 ADD PUSH1 0x40 MSTORE DUP1 PUSH1 0x0 PUSH20 0xFFFFFFFFFFFFFFFFFFFFFFFFFFFFFFFFFFFFFFFF AND DUP2 MSTORE PUSH1 0x20 ADD PUSH1 0x60 DUP2 MSTORE PUSH1 0x20 ADD PUSH1 0x0 DUP1 NOT AND DUP2 MSTORE PUSH1 0x20 ADD PUSH1 0x0 PUSH8 0xFFFFFFFFFFFFFFFF AND DUP2 MSTORE POP SWAP1 JUMP JUMPDEST DUP3 DUP1 SLOAD PUSH2 0x26DD SWAP1 PUSH2 0x36A3 JUMP JUMPDEST SWAP1 PUSH1 0x0 MSTORE PUSH1 0x20 PUSH1 0x0 KECCAK256 SWAP1 PUSH1 0x1F ADD PUSH1 0x20 SWAP1 DIV DUP2 ADD SWAP3 DUP3 PUSH2 0x26FF JUMPI PUSH1 0x0 DUP6 SSTORE PUSH2 0x2746 JUMP JUMPDEST DUP3 PUSH1 0x1F LT PUSH2 0x2718 JUMPI DUP1 MLOAD PUSH1 0xFF NOT AND DUP4 DUP1 ADD OR DUP6 SSTORE PUSH2 0x2746 JUMP JUMPDEST DUP3 DUP1 ADD PUSH1 0x1 ADD DUP6 SSTORE DUP3 ISZERO PUSH2 0x2746 JUMPI SWAP2 DUP3 ADD JUMPDEST DUP3 DUP2 GT ISZERO PUSH2 0x2745 JUMPI DUP3 MLOAD DUP3 SSTORE SWAP2 PUSH1 0x20 ADD SWAP2 SWAP1 PUSH1 0x1 ADD SWAP1 PUSH2 0x272A JUMP JUMPDEST JUMPDEST POP SWAP1 POP PUSH2 0x2753 SWAP2 SWAP1 PUSH2 0x2778 JUMP JUMPDEST POP SWAP1 JUMP JUMPDEST PUSH1 0x40 MLOAD DUP1 PUSH1 0x60 ADD PUSH1 0x40 MSTORE DUP1 PUSH1 0x60 DUP2 MSTORE PUSH1 0x20 ADD PUSH1 0x60 DUP2 MSTORE PUSH1 0x20 ADD PUSH1 0x60 DUP2 MSTORE POP SWAP1 JUMP JUMPDEST JUMPDEST DUP1 DUP3 GT ISZERO PUSH2 0x2791 JUMPI PUSH1 0x0 DUP2 PUSH1 0x0 SWAP1 SSTORE POP PUSH1 0x1 ADD PUSH2 0x2779 JUMP JUMPDEST POP SWAP1 JUMP JUMPDEST PUSH1 0x0 DUP2 CALLDATALOAD SWAP1 POP PUSH2 0x27A4 DUP2 PUSH2 0x3ACB JUMP JUMPDEST SWAP3 SWAP2 POP POP JUMP JUMPDEST PUSH1 0x0 DUP1 DUP4 PUSH1 0x1F DUP5 ADD SLT PUSH2 0x27C0 JUMPI PUSH2 0x27BF PUSH2 0x380E JUMP JUMPDEST JUMPDEST DUP3 CALLDATALOAD SWAP1 POP PUSH8 0xFFFFFFFFFFFFFFFF DUP2 GT ISZERO PUSH2 0x27DD JUMPI PUSH2 0x27DC PUSH2 0x3809 JUMP JUMPDEST JUMPDEST PUSH1 0x20 DUP4 ADD SWAP2 POP DUP4 PUSH1 0x20 DUP3 MUL DUP4 ADD GT ISZERO PUSH2 0x27F9 JUMPI PUSH2 0x27F8 PUSH2 0x3813 JUMP JUMPDEST JUMPDEST SWAP3 POP SWAP3 SWAP1 POP JUMP JUMPDEST PUSH1 0x0 DUP2 CALLDATALOAD SWAP1 POP PUSH2 0x280F DUP2 PUSH2 0x3AE2 JUMP JUMPDEST SWAP3 SWAP2 POP POP JUMP JUMPDEST PUSH1 0x0 DUP1 DUP4 PUSH1 0x1F DUP5 ADD SLT PUSH2 0x282B JUMPI PUSH2 0x282A PUSH2 0x380E JUMP JUMPDEST JUMPDEST DUP3 CALLDATALOAD SWAP1 POP PUSH8 0xFFFFFFFFFFFFFFFF DUP2 GT ISZERO PUSH2 0x2848 JUMPI PUSH2 0x2847 PUSH2 0x3809 JUMP JUMPDEST JUMPDEST PUSH1 0x20 DUP4 ADD SWAP2 POP DUP4 PUSH1 0x1 DUP3 MUL DUP4 ADD GT ISZERO PUSH2 0x2864 JUMPI PUSH2 0x2863 PUSH2 0x3813 JUMP JUMPDEST JUMPDEST SWAP3 POP SWAP3 SWAP1 POP JUMP JUMPDEST PUSH1 0x0 DUP1 DUP4 PUSH1 0x1F DUP5 ADD SLT PUSH2 0x2881 JUMPI PUSH2 0x2880 PUSH2 0x380E JUMP JUMPDEST JUMPDEST DUP3 CALLDATALOAD SWAP1 POP PUSH8 0xFFFFFFFFFFFFFFFF DUP2 GT ISZERO PUSH2 0x289E JUMPI PUSH2 0x289D PUSH2 0x3809 JUMP JUMPDEST JUMPDEST PUSH1 0x20 DUP4 ADD SWAP2 POP DUP4 PUSH1 0x1 DUP3 MUL DUP4 ADD GT ISZERO PUSH2 0x28BA JUMPI PUSH2 0x28B9 PUSH2 0x3813 JUMP JUMPDEST JUMPDEST SWAP3 POP SWAP3 SWAP1 POP JUMP JUMPDEST PUSH1 0x0 DUP2 CALLDATALOAD SWAP1 POP PUSH2 0x28D0 DUP2 PUSH2 0x3AF9 JUMP JUMPDEST SWAP3 SWAP2 POP POP JUMP JUMPDEST PUSH1 0x0 DUP2 CALLDATALOAD SWAP1 POP PUSH2 0x28E5 DUP2 PUSH2 0x3B10 JUMP JUMPDEST SWAP3 SWAP2 POP POP JUMP JUMPDEST PUSH1 0x0 PUSH1 0x20 DUP3 DUP5 SUB SLT ISZERO PUSH2 0x2901 JUMPI PUSH2 0x2900 PUSH2 0x381D JUMP JUMPDEST JUMPDEST PUSH1 0x0 PUSH2 0x290F DUP5 DUP3 DUP6 ADD PUSH2 0x2795 JUMP JUMPDEST SWAP2 POP POP SWAP3 SWAP2 POP POP JUMP JUMPDEST PUSH1 0x0 PUSH1 0x20 DUP3 DUP5 SUB SLT ISZERO PUSH2 0x292E JUMPI PUSH2 0x292D PUSH2 0x381D JUMP JUMPDEST JUMPDEST PUSH1 0x0 PUSH2 0x293C DUP5 DUP3 DUP6 ADD PUSH2 0x2800 JUMP JUMPDEST SWAP2 POP POP SWAP3 SWAP2 POP POP JUMP JUMPDEST PUSH1 0x0 DUP1 PUSH1 0x0 PUSH1 0x60 DUP5 DUP7 SUB SLT ISZERO PUSH2 0x295E JUMPI PUSH2 0x295D PUSH2 0x381D JUMP JUMPDEST JUMPDEST PUSH1 0x0 PUSH2 0x296C DUP7 DUP3 DUP8 ADD PUSH2 0x2800 JUMP JUMPDEST SWAP4 POP POP PUSH1 0x20 PUSH2 0x297D DUP7 DUP3 DUP8 ADD PUSH2 0x2795 JUMP JUMPDEST SWAP3 POP POP PUSH1 0x40 PUSH2 0x298E DUP7 DUP3 DUP8 ADD PUSH2 0x28D6 JUMP JUMPDEST SWAP2 POP POP SWAP3 POP SWAP3 POP SWAP3 JUMP JUMPDEST PUSH1 0x0 DUP1 PUSH1 0x40 DUP4 DUP6 SUB SLT ISZERO PUSH2 0x29AF JUMPI PUSH2 0x29AE PUSH2 0x381D JUMP JUMPDEST JUMPDEST PUSH1 0x0 PUSH2 0x29BD DUP6 DUP3 DUP7 ADD PUSH2 0x2800 JUMP JUMPDEST SWAP3 POP POP PUSH1 0x20 PUSH2 0x29CE DUP6 DUP3 DUP7 ADD PUSH2 0x28D6 JUMP JUMPDEST SWAP2 POP POP SWAP3 POP SWAP3 SWAP1 POP JUMP JUMPDEST PUSH1 0x0 DUP1 PUSH1 0x0 PUSH1 0x60 DUP5 DUP7 SUB SLT ISZERO PUSH2 0x29F1 JUMPI PUSH2 0x29F0 PUSH2 0x381D JUMP JUMPDEST JUMPDEST PUSH1 0x0 PUSH2 0x29FF DUP7 DUP3 DUP8 ADD PUSH2 0x2800 JUMP JUMPDEST SWAP4 POP POP PUSH1 0x20 PUSH2 0x2A10 DUP7 DUP3 DUP8 ADD PUSH2 0x28D6 JUMP JUMPDEST SWAP3 POP POP PUSH1 0x40 PUSH2 0x2A21 DUP7 DUP3 DUP8 ADD PUSH2 0x2795 JUMP JUMPDEST SWAP2 POP POP SWAP3 POP SWAP3 POP SWAP3 JUMP JUMPDEST PUSH1 0x0 DUP1 PUSH1 0x0 DUP1 PUSH1 0x60 DUP6 DUP8 SUB SLT ISZERO PUSH2 0x2A45 JUMPI PUSH2 0x2A44 PUSH2 0x381D JUMP JUMPDEST JUMPDEST PUSH1 0x0 PUSH2 0x2A53 DUP8 DUP3 DUP9 ADD PUSH2 0x2800 JUMP JUMPDEST SWAP5 POP POP PUSH1 0x20 PUSH2 0x2A64 DUP8 DUP3 DUP9 ADD PUSH2 0x28D6 JUMP JUMPDEST SWAP4 POP POP PUSH1 0x40 DUP6 ADD CALLDATALOAD PUSH8 0xFFFFFFFFFFFFFFFF DUP2 GT ISZERO PUSH2 0x2A85 JUMPI PUSH2 0x2A84 PUSH2 0x3818 JUMP JUMPDEST JUMPDEST PUSH2 0x2A91 DUP8 DUP3 DUP9 ADD PUSH2 0x27AA JUMP JUMPDEST SWAP3 POP SWAP3 POP POP SWAP3 SWAP6 SWAP2 SWAP5 POP SWAP3 POP JUMP JUMPDEST PUSH1 0x0 DUP1 PUSH1 0x0 DUP1 PUSH1 0x80 DUP6 DUP8 SUB SLT ISZERO PUSH2 0x2AB9 JUMPI PUSH2 0x2AB8 PUSH2 0x381D JUMP JUMPDEST JUMPDEST PUSH1 0x0 PUSH2 0x2AC7 DUP8 DUP3 DUP9 ADD PUSH2 0x2800 JUMP JUMPDEST SWAP5 POP POP PUSH1 0x20 PUSH2 0x2AD8 DUP8 DUP3 DUP9 ADD PUSH2 0x28D6 JUMP JUMPDEST SWAP4 POP POP PUSH1 0x40 PUSH2 0x2AE9 DUP8 DUP3 DUP9 ADD PUSH2 0x2800 JUMP JUMPDEST SWAP3 POP POP PUSH1 0x60 PUSH2 0x2AFA DUP8 DUP3 DUP9 ADD PUSH2 0x2800 JUMP JUMPDEST SWAP2 POP POP SWAP3 SWAP6 SWAP2 SWAP5 POP SWAP3 POP JUMP JUMPDEST PUSH1 0x0 DUP1 PUSH1 0x0 DUP1 PUSH1 0x60 DUP6 DUP8 SUB SLT ISZERO PUSH2 0x2B20 JUMPI PUSH2 0x2B1F PUSH2 0x381D JUMP JUMPDEST JUMPDEST PUSH1 0x0 PUSH2 0x2B2E DUP8 DUP3 DUP9 ADD PUSH2 0x2800 JUMP JUMPDEST SWAP5 POP POP PUSH1 0x20 PUSH2 0x2B3F DUP8 DUP3 DUP9 ADD PUSH2 0x28D6 JUMP JUMPDEST SWAP4 POP POP PUSH1 0x40 DUP6 ADD CALLDATALOAD PUSH8 0xFFFFFFFFFFFFFFFF DUP2 GT ISZERO PUSH2 0x2B60 JUMPI PUSH2 0x2B5F PUSH2 0x3818 JUMP JUMPDEST JUMPDEST PUSH2 0x2B6C DUP8 DUP3 DUP9 ADD PUSH2 0x2815 JUMP JUMPDEST SWAP3 POP SWAP3 POP POP SWAP3 SWAP6 SWAP2 SWAP5 POP SWAP3 POP JUMP JUMPDEST PUSH1 0x0 DUP1 PUSH1 0x0 DUP1 PUSH1 0x0 DUP1 PUSH1 0xC0 DUP8 DUP10 SUB SLT ISZERO PUSH2 0x2B97 JUMPI PUSH2 0x2B96 PUSH2 0x381D JUMP JUMPDEST JUMPDEST PUSH1 0x0 PUSH2 0x2BA5 DUP10 DUP3 DUP11 ADD PUSH2 0x2800 JUMP JUMPDEST SWAP7 POP POP PUSH1 0x20 PUSH2 0x2BB6 DUP10 DUP3 DUP11 ADD PUSH2 0x28D6 JUMP JUMPDEST SWAP6 POP POP PUSH1 0x40 PUSH2 0x2BC7 DUP10 DUP3 DUP11 ADD PUSH2 0x28C1 JUMP JUMPDEST SWAP5 POP POP PUSH1 0x60 PUSH2 0x2BD8 DUP10 DUP3 DUP11 ADD PUSH2 0x28C1 JUMP JUMPDEST SWAP4 POP POP PUSH1 0x80 PUSH2 0x2BE9 DUP10 DUP3 DUP11 ADD PUSH2 0x28C1 JUMP JUMPDEST SWAP3 POP POP PUSH1 0xA0 PUSH2 0x2BFA DUP10 DUP3 DUP11 ADD PUSH2 0x28C1 JUMP JUMPDEST SWAP2 POP POP SWAP3 SWAP6 POP SWAP3 SWAP6 POP SWAP3 SWAP6 JUMP JUMPDEST PUSH1 0x0 DUP1 PUSH1 0x0 PUSH1 0x40 DUP5 DUP7 SUB SLT ISZERO PUSH2 0x2C20 JUMPI PUSH2 0x2C1F PUSH2 0x381D JUMP JUMPDEST JUMPDEST PUSH1 0x0 DUP5 ADD CALLDATALOAD PUSH8 0xFFFFFFFFFFFFFFFF DUP2 GT ISZERO PUSH2 0x2C3E JUMPI PUSH2 0x2C3D PUSH2 0x3818 JUMP JUMPDEST JUMPDEST PUSH2 0x2C4A DUP7 DUP3 DUP8 ADD PUSH2 0x286B JUMP JUMPDEST SWAP4 POP SWAP4 POP POP PUSH1 0x20 PUSH2 0x2C5D DUP7 DUP3 DUP8 ADD PUSH2 0x2800 JUMP JUMPDEST SWAP2 POP POP SWAP3 POP SWAP3 POP SWAP3 JUMP JUMPDEST PUSH1 0x0 PUSH2 0x2C73 DUP4 DUP4 PUSH2 0x2C7F JUMP JUMPDEST PUSH1 0x20 DUP4 ADD SWAP1 POP SWAP3 SWAP2 POP POP JUMP JUMPDEST PUSH2 0x2C88 DUP2 PUSH2 0x35C6 JUMP JUMPDEST DUP3 MSTORE POP POP JUMP JUMPDEST PUSH2 0x2C97 DUP2 PUSH2 0x35C6 JUMP JUMPDEST DUP3 MSTORE POP POP JUMP JUMPDEST PUSH1 0x0 PUSH2 0x2CA9 DUP4 DUP6 PUSH2 0x34E1 JUMP JUMPDEST SWAP4 POP PUSH2 0x2CB4 DUP3 PUSH2 0x34B4 JUMP JUMPDEST DUP1 PUSH1 0x0 JUMPDEST DUP6 DUP2 LT ISZERO PUSH2 0x2CED JUMPI PUSH2 0x2CCA DUP3 DUP5 PUSH2 0x3525 JUMP JUMPDEST PUSH2 0x2CD4 DUP9 DUP3 PUSH2 0x2C67 JUMP JUMPDEST SWAP8 POP PUSH2 0x2CDF DUP4 PUSH2 0x34D4 JUMP JUMPDEST SWAP3 POP POP PUSH1 0x1 DUP2 ADD SWAP1 POP PUSH2 0x2CB8 JUMP JUMPDEST POP DUP6 SWAP3 POP POP POP SWAP4 SWAP3 POP POP POP JUMP JUMPDEST PUSH2 0x2D03 DUP2 PUSH2 0x35D8 JUMP JUMPDEST DUP3 MSTORE POP POP JUMP JUMPDEST PUSH2 0x2D12 DUP2 PUSH2 0x35E4 JUMP JUMPDEST DUP3 MSTORE POP POP JUMP JUMPDEST PUSH2 0x2D21 DUP2 PUSH2 0x35E4 JUMP JUMPDEST DUP3 MSTORE POP POP JUMP JUMPDEST PUSH1 0x0 PUSH2 0x2D32 DUP3 PUSH2 0x34BE JUMP JUMPDEST PUSH2 0x2D3C DUP2 DUP6 PUSH2 0x34F2 JUMP JUMPDEST SWAP4 POP PUSH2 0x2D4C DUP2 DUP6 PUSH1 0x20 DUP7 ADD PUSH2 0x3670 JUMP JUMPDEST PUSH2 0x2D55 DUP2 PUSH2 0x3822 JUMP JUMPDEST DUP5 ADD SWAP2 POP POP SWAP3 SWAP2 POP POP JUMP JUMPDEST PUSH2 0x2D69 DUP2 PUSH2 0x364F JUMP JUMPDEST DUP3 MSTORE POP POP JUMP JUMPDEST PUSH1 0x0 PUSH2 0x2D7B DUP4 DUP6 PUSH2 0x3514 JUMP JUMPDEST SWAP4 POP PUSH2 0x2D88 DUP4 DUP6 DUP5 PUSH2 0x3661 JUMP JUMPDEST PUSH2 0x2D91 DUP4 PUSH2 0x3822 JUMP JUMPDEST DUP5 ADD SWAP1 POP SWAP4 SWAP3 POP POP POP JUMP JUMPDEST PUSH1 0x0 PUSH2 0x2DA7 DUP3 PUSH2 0x34C9 JUMP JUMPDEST PUSH2 0x2DB1 DUP2 DUP6 PUSH2 0x3503 JUMP JUMPDEST SWAP4 POP PUSH2 0x2DC1 DUP2 DUP6 PUSH1 0x20 DUP7 ADD PUSH2 0x3670 JUMP JUMPDEST PUSH2 0x2DCA DUP2 PUSH2 0x3822 JUMP JUMPDEST DUP5 ADD SWAP2 POP POP SWAP3 SWAP2 POP POP JUMP JUMPDEST PUSH1 0x0 PUSH2 0x2DE2 PUSH1 0x13 DUP4 PUSH2 0x3514 JUMP JUMPDEST SWAP2 POP PUSH2 0x2DED DUP3 PUSH2 0x3833 JUMP JUMPDEST PUSH1 0x20 DUP3 ADD SWAP1 POP SWAP2 SWAP1 POP JUMP JUMPDEST PUSH1 0x0 PUSH2 0x2E05 PUSH1 0x18 DUP4 PUSH2 0x3514 JUMP JUMPDEST SWAP2 POP PUSH2 0x2E10 DUP3 PUSH2 0x385C JUMP JUMPDEST PUSH1 0x20 DUP3 ADD SWAP1 POP SWAP2 SWAP1 POP JUMP JUMPDEST PUSH1 0x0 PUSH2 0x2E28 PUSH1 0x1A DUP4 PUSH2 0x3514 JUMP JUMPDEST SWAP2 POP PUSH2 0x2E33 DUP3 PUSH2 0x3885 JUMP JUMPDEST PUSH1 0x20 DUP3 ADD SWAP1 POP SWAP2 SWAP1 POP JUMP JUMPDEST PUSH1 0x0 PUSH2 0x2E4B PUSH1 0x42 DUP4 PUSH2 0x3514 JUMP JUMPDEST SWAP2 POP PUSH2 0x2E56 DUP3 PUSH2 0x38AE JUMP JUMPDEST PUSH1 0x60 DUP3 ADD SWAP1 POP SWAP2 SWAP1 POP JUMP JUMPDEST PUSH1 0x0 PUSH2 0x2E6E PUSH1 0x1D DUP4 PUSH2 0x3514 JUMP JUMPDEST SWAP2 POP PUSH2 0x2E79 DUP3 PUSH2 0x3923 JUMP JUMPDEST PUSH1 0x20 DUP3 ADD SWAP1 POP SWAP2 SWAP1 POP JUMP JUMPDEST PUSH1 0x0 PUSH2 0x2E91 PUSH1 0x14 DUP4 PUSH2 0x3514 JUMP JUMPDEST SWAP2 POP PUSH2 0x2E9C DUP3 PUSH2 0x394C JUMP JUMPDEST PUSH1 0x20 DUP3 ADD SWAP1 POP SWAP2 SWAP1 POP JUMP JUMPDEST PUSH1 0x0 PUSH2 0x2EB4 PUSH1 0x29 DUP4 PUSH2 0x3514 JUMP JUMPDEST SWAP2 POP PUSH2 0x2EBF DUP3 PUSH2 0x3975 JUMP JUMPDEST PUSH1 0x40 DUP3 ADD SWAP1 POP SWAP2 SWAP1 POP JUMP JUMPDEST PUSH1 0x0 PUSH2 0x2ED7 PUSH1 0x1D DUP4 PUSH2 0x3514 JUMP JUMPDEST SWAP2 POP PUSH2 0x2EE2 DUP3 PUSH2 0x39C4 JUMP JUMPDEST PUSH1 0x20 DUP3 ADD SWAP1 POP SWAP2 SWAP1 POP JUMP JUMPDEST PUSH1 0x0 PUSH2 0x2EFA PUSH1 0x36 DUP4 PUSH2 0x3514 JUMP JUMPDEST SWAP2 POP PUSH2 0x2F05 DUP3 PUSH2 0x39ED JUMP JUMPDEST PUSH1 0x40 DUP3 ADD SWAP1 POP SWAP2 SWAP1 POP JUMP JUMPDEST PUSH1 0x0 PUSH2 0x2F1D PUSH1 0x1A DUP4 PUSH2 0x3514 JUMP JUMPDEST SWAP2 POP PUSH2 0x2F28 DUP3 PUSH2 0x3A3C JUMP JUMPDEST PUSH1 0x20 DUP3 ADD SWAP1 POP SWAP2 SWAP1 POP JUMP JUMPDEST PUSH1 0x0 PUSH2 0x2F40 PUSH1 0xF DUP4 PUSH2 0x3514 JUMP JUMPDEST SWAP2 POP PUSH2 0x2F4B DUP3 PUSH2 0x3A65 JUMP JUMPDEST PUSH1 0x20 DUP3 ADD SWAP1 POP SWAP2 SWAP1 POP JUMP JUMPDEST PUSH1 0x0 PUSH2 0x2F63 PUSH1 0x16 DUP4 PUSH2 0x3514 JUMP JUMPDEST SWAP2 POP PUSH2 0x2F6E DUP3 PUSH2 0x3A8E JUMP JUMPDEST PUSH1 0x20 DUP3 ADD SWAP1 POP SWAP2 SWAP1 POP JUMP JUMPDEST PUSH1 0x40 DUP3 ADD PUSH1 0x0 DUP3 ADD MLOAD PUSH2 0x2F8F PUSH1 0x0 DUP6 ADD DUP3 PUSH2 0x2D09 JUMP JUMPDEST POP PUSH1 0x20 DUP3 ADD MLOAD PUSH2 0x2FA2 PUSH1 0x20 DUP6 ADD DUP3 PUSH2 0x2D09 JUMP JUMPDEST POP POP POP POP JUMP JUMPDEST PUSH1 0x0 PUSH1 0x60 DUP4 ADD PUSH1 0x0 DUP4 ADD MLOAD DUP5 DUP3 SUB PUSH1 0x0 DUP7 ADD MSTORE PUSH2 0x2FC5 DUP3 DUP3 PUSH2 0x2D27 JUMP JUMPDEST SWAP2 POP POP PUSH1 0x20 DUP4 ADD MLOAD DUP5 DUP3 SUB PUSH1 0x20 DUP7 ADD MSTORE PUSH2 0x2FDF DUP3 DUP3 PUSH2 0x2D27 JUMP JUMPDEST SWAP2 POP POP PUSH1 0x40 DUP4 ADD MLOAD DUP5 DUP3 SUB PUSH1 0x40 DUP7 ADD MSTORE PUSH2 0x2FF9 DUP3 DUP3 PUSH2 0x2D27 JUMP JUMPDEST SWAP2 POP POP DUP1 SWAP2 POP POP SWAP3 SWAP2 POP POP JUMP JUMPDEST PUSH2 0x100 DUP3 ADD PUSH1 0x0 DUP3 ADD MLOAD PUSH2 0x301D PUSH1 0x0 DUP6 ADD DUP3 PUSH2 0x3138 JUMP JUMPDEST POP PUSH1 0x20 DUP3 ADD MLOAD PUSH2 0x3030 PUSH1 0x20 DUP6 ADD DUP3 PUSH2 0x3129 JUMP JUMPDEST POP PUSH1 0x40 DUP3 ADD MLOAD PUSH2 0x3043 PUSH1 0x40 DUP6 ADD DUP3 PUSH2 0x3129 JUMP JUMPDEST POP PUSH1 0x60 DUP3 ADD MLOAD PUSH2 0x3056 PUSH1 0x60 DUP6 ADD DUP3 PUSH2 0x2D60 JUMP JUMPDEST POP PUSH1 0x80 DUP3 ADD MLOAD PUSH2 0x3069 PUSH1 0x80 DUP6 ADD DUP3 PUSH2 0x310B JUMP JUMPDEST POP PUSH1 0xA0 DUP3 ADD MLOAD PUSH2 0x307C PUSH1 0xA0 DUP6 ADD DUP3 PUSH2 0x310B JUMP JUMPDEST POP PUSH1 0xC0 DUP3 ADD MLOAD PUSH2 0x308F PUSH1 0xC0 DUP6 ADD DUP3 PUSH2 0x3129 JUMP JUMPDEST POP PUSH1 0xE0 DUP3 ADD MLOAD PUSH2 0x30A2 PUSH1 0xE0 DUP6 ADD DUP3 PUSH2 0x3129 JUMP JUMPDEST POP POP POP POP JUMP JUMPDEST PUSH1 0x0 PUSH1 0x80 DUP4 ADD PUSH1 0x0 DUP4 ADD MLOAD PUSH2 0x30C0 PUSH1 0x0 DUP7 ADD DUP3 PUSH2 0x2C7F JUMP JUMPDEST POP PUSH1 0x20 DUP4 ADD MLOAD DUP5 DUP3 SUB PUSH1 0x20 DUP7 ADD MSTORE PUSH2 0x30D8 DUP3 DUP3 PUSH2 0x2D9C JUMP JUMPDEST SWAP2 POP POP PUSH1 0x40 DUP4 ADD MLOAD PUSH2 0x30ED PUSH1 0x40 DUP7 ADD DUP3 PUSH2 0x2D09 JUMP JUMPDEST POP PUSH1 0x60 DUP4 ADD MLOAD PUSH2 0x3100 PUSH1 0x60 DUP7 ADD DUP3 PUSH2 0x3138 JUMP JUMPDEST POP DUP1 SWAP2 POP POP SWAP3 SWAP2 POP POP JUMP JUMPDEST PUSH2 0x3114 DUP2 PUSH2 0x3621 JUMP JUMPDEST DUP3 MSTORE POP POP JUMP JUMPDEST PUSH2 0x3123 DUP2 PUSH2 0x3621 JUMP JUMPDEST DUP3 MSTORE POP POP JUMP JUMPDEST PUSH2 0x3132 DUP2 PUSH2 0x362B JUMP JUMPDEST DUP3 MSTORE POP POP JUMP JUMPDEST PUSH2 0x3141 DUP2 PUSH2 0x363B JUMP JUMPDEST DUP3 MSTORE POP POP JUMP JUMPDEST PUSH2 0x3150 DUP2 PUSH2 0x363B JUMP JUMPDEST DUP3 MSTORE POP POP JUMP JUMPDEST PUSH1 0x0 PUSH1 0x20 DUP3 ADD SWAP1 POP PUSH2 0x316B PUSH1 0x0 DUP4 ADD DUP5 PUSH2 0x2C8E JUMP JUMPDEST SWAP3 SWAP2 POP POP JUMP JUMPDEST PUSH1 0x0 PUSH1 0x20 DUP3 ADD SWAP1 POP PUSH2 0x3186 PUSH1 0x0 DUP4 ADD DUP5 PUSH2 0x2CFA JUMP JUMPDEST SWAP3 SWAP2 POP POP JUMP JUMPDEST PUSH1 0x0 PUSH1 0x20 DUP3 ADD SWAP1 POP PUSH2 0x31A1 PUSH1 0x0 DUP4 ADD DUP5 PUSH2 0x2D18 JUMP JUMPDEST SWAP3 SWAP2 POP POP JUMP JUMPDEST PUSH1 0x0 PUSH1 0x60 DUP3 ADD SWAP1 POP PUSH2 0x31BC PUSH1 0x0 DUP4 ADD DUP8 PUSH2 0x2D18 JUMP JUMPDEST DUP2 DUP2 SUB PUSH1 0x20 DUP4 ADD MSTORE PUSH2 0x31CF DUP2 DUP6 DUP8 PUSH2 0x2D6F JUMP JUMPDEST SWAP1 POP PUSH2 0x31DE PUSH1 0x40 DUP4 ADD DUP5 PUSH2 0x2D18 JUMP JUMPDEST SWAP6 SWAP5 POP POP POP POP POP JUMP JUMPDEST PUSH1 0x0 PUSH1 0x40 DUP3 ADD SWAP1 POP PUSH2 0x31FC PUSH1 0x0 DUP4 ADD DUP6 PUSH2 0x2D18 JUMP JUMPDEST PUSH2 0x3209 PUSH1 0x20 DUP4 ADD DUP5 PUSH2 0x3147 JUMP JUMPDEST SWAP4 SWAP3 POP POP POP JUMP JUMPDEST PUSH1 0x0 PUSH1 0x60 DUP3 ADD SWAP1 POP PUSH2 0x3225 PUSH1 0x0 DUP4 ADD DUP8 PUSH2 0x2D18 JUMP JUMPDEST PUSH2 0x3232 PUSH1 0x20 DUP4 ADD DUP7 PUSH2 0x3147 JUMP JUMPDEST DUP2 DUP2 SUB PUSH1 0x40 DUP4 ADD MSTORE PUSH2 0x3245 DUP2 DUP5 DUP7 PUSH2 0x2C9D JUMP JUMPDEST SWAP1 POP SWAP6 SWAP5 POP POP POP POP POP JUMP JUMPDEST PUSH1 0x0 PUSH1 0x20 DUP3 ADD SWAP1 POP DUP2 DUP2 SUB PUSH1 0x0 DUP4 ADD MSTORE PUSH2 0x3269 DUP2 PUSH2 0x2DD5 JUMP JUMPDEST SWAP1 POP SWAP2 SWAP1 POP JUMP JUMPDEST PUSH1 0x0 PUSH1 0x20 DUP3 ADD SWAP1 POP DUP2 DUP2 SUB PUSH1 0x0 DUP4 ADD MSTORE PUSH2 0x3289 DUP2 PUSH2 0x2DF8 JUMP JUMPDEST SWAP1 POP SWAP2 SWAP1 POP JUMP JUMPDEST PUSH1 0x0 PUSH1 0x20 DUP3 ADD SWAP1 POP DUP2 DUP2 SUB PUSH1 0x0 DUP4 ADD MSTORE PUSH2 0x32A9 DUP2 PUSH2 0x2E1B JUMP JUMPDEST SWAP1 POP SWAP2 SWAP1 POP JUMP JUMPDEST PUSH1 0x0 PUSH1 0x20 DUP3 ADD SWAP1 POP DUP2 DUP2 SUB PUSH1 0x0 DUP4 ADD MSTORE PUSH2 0x32C9 DUP2 PUSH2 0x2E3E JUMP JUMPDEST SWAP1 POP SWAP2 SWAP1 POP JUMP JUMPDEST PUSH1 0x0 PUSH1 0x20 DUP3 ADD SWAP1 POP DUP2 DUP2 SUB PUSH1 0x0 DUP4 ADD MSTORE PUSH2 0x32E9 DUP2 PUSH2 0x2E61 JUMP JUMPDEST SWAP1 POP SWAP2 SWAP1 POP JUMP JUMPDEST PUSH1 0x0 PUSH1 0x20 DUP3 ADD SWAP1 POP DUP2 DUP2 SUB PUSH1 0x0 DUP4 ADD MSTORE PUSH2 0x3309 DUP2 PUSH2 0x2E84 JUMP JUMPDEST SWAP1 POP SWAP2 SWAP1 POP JUMP JUMPDEST PUSH1 0x0 PUSH1 0x20 DUP3 ADD SWAP1 POP DUP2 DUP2 SUB PUSH1 0x0 DUP4 ADD MSTORE PUSH2 0x3329 DUP2 PUSH2 0x2EA7 JUMP JUMPDEST SWAP1 POP SWAP2 SWAP1 POP JUMP JUMPDEST PUSH1 0x0 PUSH1 0x20 DUP3 ADD SWAP1 POP DUP2 DUP2 SUB PUSH1 0x0 DUP4 ADD MSTORE PUSH2 0x3349 DUP2 PUSH2 0x2ECA JUMP JUMPDEST SWAP1 POP SWAP2 SWAP1 POP JUMP JUMPDEST PUSH1 0x0 PUSH1 0x20 DUP3 ADD SWAP1 POP DUP2 DUP2 SUB PUSH1 0x0 DUP4 ADD MSTORE PUSH2 0x3369 DUP2 PUSH2 0x2EED JUMP JUMPDEST SWAP1 POP SWAP2 SWAP1 POP JUMP JUMPDEST PUSH1 0x0 PUSH1 0x20 DUP3 ADD SWAP1 POP DUP2 DUP2 SUB PUSH1 0x0 DUP4 ADD MSTORE PUSH2 0x3389 DUP2 PUSH2 0x2F10 JUMP JUMPDEST SWAP1 POP SWAP2 SWAP1 POP JUMP JUMPDEST PUSH1 0x0 PUSH1 0x20 DUP3 ADD SWAP1 POP DUP2 DUP2 SUB PUSH1 0x0 DUP4 ADD MSTORE PUSH2 0x33A9 DUP2 PUSH2 0x2F33 JUMP JUMPDEST SWAP1 POP SWAP2 SWAP1 POP JUMP JUMPDEST PUSH1 0x0 PUSH1 0x20 DUP3 ADD SWAP1 POP DUP2 DUP2 SUB PUSH1 0x0 DUP4 ADD MSTORE PUSH2 0x33C9 DUP2 PUSH2 0x2F56 JUMP JUMPDEST SWAP1 POP SWAP2 SWAP1 POP JUMP JUMPDEST PUSH1 0x0 PUSH1 0x40 DUP3 ADD SWAP1 POP PUSH2 0x33E5 PUSH1 0x0 DUP4 ADD DUP5 PUSH2 0x2F79 JUMP JUMPDEST SWAP3 SWAP2 POP POP JUMP JUMPDEST PUSH1 0x0 PUSH1 0x20 DUP3 ADD SWAP1 POP DUP2 DUP2 SUB PUSH1 0x0 DUP4 ADD MSTORE PUSH2 0x3405 DUP2 DUP5 PUSH2 0x2FA8 JUMP JUMPDEST SWAP1 POP SWAP3 SWAP2 POP POP JUMP JUMPDEST PUSH1 0x0 PUSH2 0x100 DUP3 ADD SWAP1 POP PUSH2 0x3423 PUSH1 0x0 DUP4 ADD DUP5 PUSH2 0x3006 JUMP JUMPDEST SWAP3 SWAP2 POP POP JUMP JUMPDEST PUSH1 0x0 PUSH1 0x20 DUP3 ADD SWAP1 POP DUP2 DUP2 SUB PUSH1 0x0 DUP4 ADD MSTORE PUSH2 0x3443 DUP2 DUP5 PUSH2 0x30A8 JUMP JUMPDEST SWAP1 POP SWAP3 SWAP2 POP POP JUMP JUMPDEST PUSH1 0x0 PUSH1 0x20 DUP3 ADD SWAP1 POP PUSH2 0x3460 PUSH1 0x0 DUP4 ADD DUP5 PUSH2 0x311A JUMP JUMPDEST SWAP3 SWAP2 POP POP JUMP JUMPDEST PUSH1 0x0 PUSH1 0x80 DUP3 ADD SWAP1 POP PUSH2 0x347B PUSH1 0x0 DUP4 ADD DUP9 PUSH2 0x311A JUMP JUMPDEST PUSH2 0x3488 PUSH1 0x20 DUP4 ADD DUP8 PUSH2 0x2C8E JUMP JUMPDEST DUP2 DUP2 SUB PUSH1 0x40 DUP4 ADD MSTORE PUSH2 0x349B DUP2 DUP6 DUP8 PUSH2 0x2D6F JUMP JUMPDEST SWAP1 POP PUSH2 0x34AA PUSH1 0x60 DUP4 ADD DUP5 PUSH2 0x2D18 JUMP JUMPDEST SWAP7 SWAP6 POP POP POP POP POP POP JUMP JUMPDEST PUSH1 0x0 DUP2 SWAP1 POP SWAP2 SWAP1 POP JUMP JUMPDEST PUSH1 0x0 DUP2 MLOAD SWAP1 POP SWAP2 SWAP1 POP JUMP JUMPDEST PUSH1 0x0 DUP2 MLOAD SWAP1 POP SWAP2 SWAP1 POP JUMP JUMPDEST PUSH1 0x0 PUSH1 0x20 DUP3 ADD SWAP1 POP SWAP2 SWAP1 POP JUMP JUMPDEST PUSH1 0x0 DUP3 DUP3 MSTORE PUSH1 0x20 DUP3 ADD SWAP1 POP SWAP3 SWAP2 POP POP JUMP JUMPDEST PUSH1 0x0 DUP3 DUP3 MSTORE PUSH1 0x20 DUP3 ADD SWAP1 POP SWAP3 SWAP2 POP POP JUMP JUMPDEST PUSH1 0x0 DUP3 DUP3 MSTORE PUSH1 0x20 DUP3 ADD SWAP1 POP SWAP3 SWAP2 POP POP JUMP JUMPDEST PUSH1 0x0 DUP3 DUP3 MSTORE PUSH1 0x20 DUP3 ADD SWAP1 POP SWAP3 SWAP2 POP POP JUMP JUMPDEST PUSH1 0x0 PUSH2 0x3534 PUSH1 0x20 DUP5 ADD DUP5 PUSH2 0x2795 JUMP JUMPDEST SWAP1 POP SWAP3 SWAP2 POP POP JUMP JUMPDEST PUSH1 0x0 PUSH2 0x3547 DUP3 PUSH2 0x3621 JUMP JUMPDEST SWAP2 POP PUSH2 0x3552 DUP4 PUSH2 0x3621 JUMP JUMPDEST SWAP3 POP DUP3 PUSH32 0xFFFFFFFFFFFFFFFFFFFFFFFFFFFFFFFFFFFFFFFFFFFFFFFFFFFFFFFFFFFFFFFF SUB DUP3 GT ISZERO PUSH2 0x3587 JUMPI PUSH2 0x3586 PUSH2 0x371E JUMP JUMPDEST JUMPDEST DUP3 DUP3 ADD SWAP1 POP SWAP3 SWAP2 POP POP JUMP JUMPDEST PUSH1 0x0 PUSH2 0x359D DUP3 PUSH2 0x3621 JUMP JUMPDEST SWAP2 POP PUSH2 0x35A8 DUP4 PUSH2 0x3621 JUMP JUMPDEST SWAP3 POP DUP3 DUP3 LT ISZERO PUSH2 0x35BB JUMPI PUSH2 0x35BA PUSH2 0x371E JUMP JUMPDEST JUMPDEST DUP3 DUP3 SUB SWAP1 POP SWAP3 SWAP2 POP POP JUMP JUMPDEST PUSH1 0x0 PUSH2 0x35D1 DUP3 PUSH2 0x3601 JUMP JUMPDEST SWAP1 POP SWAP2 SWAP1 POP JUMP JUMPDEST PUSH1 0x0 DUP2 ISZERO ISZERO SWAP1 POP SWAP2 SWAP1 POP JUMP JUMPDEST PUSH1 0x0 DUP2 SWAP1 POP SWAP2 SWAP1 POP JUMP JUMPDEST PUSH1 0x0 DUP2 SWAP1 POP PUSH2 0x35FC DUP3 PUSH2 0x3AB7 JUMP JUMPDEST SWAP2 SWAP1 POP JUMP JUMPDEST PUSH1 0x0 PUSH20 0xFFFFFFFFFFFFFFFFFFFFFFFFFFFFFFFFFFFFFFFF DUP3 AND SWAP1 POP SWAP2 SWAP1 POP JUMP JUMPDEST PUSH1 0x0 DUP2 SWAP1 POP SWAP2 SWAP1 POP JUMP JUMPDEST PUSH1 0x0 PUSH4 0xFFFFFFFF DUP3 AND SWAP1 POP SWAP2 SWAP1 POP JUMP JUMPDEST PUSH1 0x0 PUSH8 0xFFFFFFFFFFFFFFFF DUP3 AND SWAP1 POP SWAP2 SWAP1 POP JUMP JUMPDEST PUSH1 0x0 PUSH2 0x365A DUP3 PUSH2 0x35EE JUMP JUMPDEST SWAP1 POP SWAP2 SWAP1 POP JUMP JUMPDEST DUP3 DUP2 DUP4 CALLDATACOPY PUSH1 0x0 DUP4 DUP4 ADD MSTORE POP POP POP JUMP JUMPDEST PUSH1 0x0 JUMPDEST DUP4 DUP2 LT ISZERO PUSH2 0x368E JUMPI DUP1 DUP3 ADD MLOAD DUP2 DUP5 ADD MSTORE PUSH1 0x20 DUP2 ADD SWAP1 POP PUSH2 0x3673 JUMP JUMPDEST DUP4 DUP2 GT ISZERO PUSH2 0x369D JUMPI PUSH1 0x0 DUP5 DUP5 ADD MSTORE JUMPDEST POP POP POP POP JUMP JUMPDEST PUSH1 0x0 PUSH1 0x2 DUP3 DIV SWAP1 POP PUSH1 0x1 DUP3 AND DUP1 PUSH2 0x36BB JUMPI PUSH1 0x7F DUP3 AND SWAP2 POP JUMPDEST PUSH1 0x20 DUP3 LT DUP2 EQ ISZERO PUSH2 0x36CF JUMPI PUSH2 0x36CE PUSH2 0x377C JUMP JUMPDEST JUMPDEST POP SWAP2 SWAP1 POP JUMP JUMPDEST PUSH1 0x0 PUSH2 0x36E0 DUP3 PUSH2 0x3621 JUMP JUMPDEST SWAP2 POP PUSH32 0xFFFFFFFFFFFFFFFFFFFFFFFFFFFFFFFFFFFFFFFFFFFFFFFFFFFFFFFFFFFFFFFF DUP3 EQ ISZERO PUSH2 0x3713 JUMPI PUSH2 0x3712 PUSH2 0x371E JUMP JUMPDEST JUMPDEST PUSH1 0x1 DUP3 ADD SWAP1 POP SWAP2 SWAP1 POP JUMP JUMPDEST PUSH32 0x4E487B7100000000000000000000000000000000000000000000000000000000 PUSH1 0x0 MSTORE PUSH1 0x11 PUSH1 0x4 MSTORE PUSH1 0x24 PUSH1 0x0 REVERT JUMPDEST PUSH32 0x4E487B7100000000000000000000000000000000000000000000000000000000 PUSH1 0x0 MSTORE PUSH1 0x21 PUSH1 0x4 MSTORE PUSH1 0x24 PUSH1 0x0 REVERT JUMPDEST PUSH32 0x4E487B7100000000000000000000000000000000000000000000000000000000 PUSH1 0x0 MSTORE PUSH1 0x22 PUSH1 0x4 MSTORE PUSH1 0x24 PUSH1 0x0 REVERT JUMPDEST PUSH32 0x4E487B7100000000000000000000000000000000000000000000000000000000 PUSH1 0x0 MSTORE PUSH1 0x32 PUSH1 0x4 MSTORE PUSH1 0x24 PUSH1 0x0 REVERT JUMPDEST PUSH32 0x4E487B7100000000000000000000000000000000000000000000000000000000 PUSH1 0x0 MSTORE PUSH1 0x41 PUSH1 0x4 MSTORE PUSH1 0x24 PUSH1 0x0 REVERT JUMPDEST PUSH1 0x0 DUP1 REVERT JUMPDEST PUSH1 0x0 DUP1 REVERT JUMPDEST PUSH1 0x0 DUP1 REVERT JUMPDEST PUSH1 0x0 DUP1 REVERT JUMPDEST PUSH1 0x0 DUP1 REVERT JUMPDEST PUSH1 0x0 PUSH1 0x1F NOT PUSH1 0x1F DUP4 ADD AND SWAP1 POP SWAP2 SWAP1 POP JUMP JUMPDEST PUSH32 0x43616C6C6572206973206E6F74206F776E657200000000000000000000000000 PUSH1 0x0 DUP3 ADD MSTORE POP JUMP JUMPDEST PUSH32 0x4A6F696E20646561646C696E6520686173207061737365640000000000000000 PUSH1 0x0 DUP3 ADD MSTORE POP JUMP JUMPDEST PUSH32 0x546865205461736B20526F756E64204D75737420657869737473000000000000 PUSH1 0x0 DUP3 ADD MSTORE POP JUMP JUMPDEST PUSH32 0x74686520726F756E6420686173206265656E20616C7265616479207374617274 PUSH1 0x0 DUP3 ADD MSTORE PUSH32 0x6564206F72207468652070726520726F756E6420646F6573206E6F7420657869 PUSH1 0x20 DUP3 ADD MSTORE PUSH32 0x7374000000000000000000000000000000000000000000000000000000000000 PUSH1 0x40 DUP3 ADD MSTORE POP JUMP JUMPDEST PUSH32 0x5468697320726F756E64206973206E6F742072756E6E696E67206E6F77000000 PUSH1 0x0 DUP3 ADD MSTORE POP JUMP JUMPDEST PUSH32 0x43616E646964617465206D757374206578697374000000000000000000000000 PUSH1 0x0 DUP3 ADD MSTORE POP JUMP JUMPDEST PUSH32 0x43616E6E6F74206A6F696E207468652073616D6520726F756E64206D756C7469 PUSH1 0x0 DUP3 ADD MSTORE PUSH32 0x706C652074696D65730000000000000000000000000000000000000000000000 PUSH1 0x20 DUP3 ADD MSTORE POP JUMP JUMPDEST PUSH32 0x4D7573742063616C6C656420627920746865207461736B206F776E6572000000 PUSH1 0x0 DUP3 ADD MSTORE POP JUMP JUMPDEST PUSH32 0x7468697320726F756E64206861732066696E6973686564206F72206974206861 PUSH1 0x0 DUP3 ADD MSTORE PUSH32 0x736E2774206265656E2073746172746564207965742E00000000000000000000 PUSH1 0x20 DUP3 ADD MSTORE POP JUMP JUMPDEST PUSH32 0x75706C6F616420646561646C696E652068617320706173736564000000000000 PUSH1 0x0 DUP3 ADD MSTORE POP JUMP JUMPDEST PUSH32 0x5461736B206E6F74206578697374730000000000000000000000000000000000 PUSH1 0x0 DUP3 ADD MSTORE POP JUMP JUMPDEST PUSH32 0x4D7573742070726F766964652061646472657373657300000000000000000000 PUSH1 0x0 DUP3 ADD MSTORE POP JUMP JUMPDEST PUSH1 0x4 DUP2 LT PUSH2 0x3AC8 JUMPI PUSH2 0x3AC7 PUSH2 0x374D JUMP JUMPDEST JUMPDEST POP JUMP JUMPDEST PUSH2 0x3AD4 DUP2 PUSH2 0x35C6 JUMP JUMPDEST DUP2 EQ PUSH2 0x3ADF JUMPI PUSH1 0x0 DUP1 REVERT JUMPDEST POP JUMP JUMPDEST PUSH2 0x3AEB DUP2 PUSH2 0x35E4 JUMP JUMPDEST DUP2 EQ PUSH2 0x3AF6 JUMPI PUSH1 0x0 DUP1 REVERT JUMPDEST POP JUMP JUMPDEST PUSH2 0x3B02 DUP2 PUSH2 0x362B JUMP JUMPDEST DUP2 EQ PUSH2 0x3B0D JUMPI PUSH1 0x0 DUP1 REVERT JUMPDEST POP JUMP JUMPDEST PUSH2 0x3B19 DUP2 PUSH2 0x363B JUMP JUMPDEST DUP2 EQ PUSH2 0x3B24 JUMPI PUSH1 0x0 DUP1 REVERT JUMPDEST POP JUMP INVALID LOG2 PUSH5 0x6970667358 0x22 SLT KECCAK256 SWAP11 0x1E OR PUSH19 0xC7697658AF17B19B52F6491A02A951CF51C1C8 PUSH27 0x66A0A6C718F9260764736F6C634300080700336080604052348015 PUSH3 0x11 JUMPI PUSH1 0x0 DUP1 REVERT JUMPDEST POP PUSH1 0x40 MLOAD PUSH3 0x15D9 CODESIZE SUB DUP1 PUSH3 0x15D9 DUP4 CODECOPY DUP2 DUP2 ADD PUSH1 0x40 MSTORE DUP2 ADD SWAP1 PUSH3 0x37 SWAP2 SWAP1 PUSH3 0x95 JUMP JUMPDEST DUP1 PUSH1 0x0 DUP1 PUSH2 0x100 EXP DUP2 SLOAD DUP2 PUSH20 0xFFFFFFFFFFFFFFFFFFFFFFFFFFFFFFFFFFFFFFFF MUL NOT AND SWAP1 DUP4 PUSH20 0xFFFFFFFFFFFFFFFFFFFFFFFFFFFFFFFFFFFFFFFF AND MUL OR SWAP1 SSTORE POP POP PUSH3 0x12E JUMP JUMPDEST PUSH1 0x0 DUP2 MLOAD SWAP1 POP PUSH3 0x8F DUP2 PUSH3 0x114 JUMP JUMPDEST SWAP3 SWAP2 POP POP JUMP JUMPDEST PUSH1 0x0 PUSH1 0x20 DUP3 DUP5 SUB SLT ISZERO PUSH3 0xAE JUMPI PUSH3 0xAD PUSH3 0x10F JUMP JUMPDEST JUMPDEST PUSH1 0x0 PUSH3 0xBE DUP5 DUP3 DUP6 ADD PUSH3 0x7E JUMP JUMPDEST SWAP2 POP POP SWAP3 SWAP2 POP POP JUMP JUMPDEST PUSH1 0x0 PUSH3 0xD4 DUP3 PUSH3 0xEF JUMP JUMPDEST SWAP1 POP SWAP2 SWAP1 POP JUMP JUMPDEST PUSH1 0x0 PUSH3 0xE8 DUP3 PUSH3 0xC7 JUMP JUMPDEST SWAP1 POP SWAP2 SWAP1 POP JUMP JUMPDEST PUSH1 0x0 PUSH20 0xFFFFFFFFFFFFFFFFFFFFFFFFFFFFFFFFFFFFFFFF DUP3 AND SWAP1 POP SWAP2 SWAP1 POP JUMP JUMPDEST PUSH1 0x0 DUP1 REVERT JUMPDEST PUSH3 0x11F DUP2 PUSH3 0xDB JUMP JUMPDEST DUP2 EQ PUSH3 0x12B JUMPI PUSH1 0x0 DUP1 REVERT JUMPDEST POP JUMP JUMPDEST PUSH2 0x149B DUP1 PUSH3 0x13E PUSH1 0x0 CODECOPY PUSH1 0x0 RETURN INVALID PUSH1 0x80 PUSH1 0x40 MSTORE PUSH1 0x4 CALLDATASIZE LT PUSH2 0x91 JUMPI PUSH1 0x0 CALLDATALOAD PUSH1 0xE0 SHR DUP1 PUSH4 0x57C91B95 GT PUSH2 0x59 JUMPI DUP1 PUSH4 0x57C91B95 EQ PUSH2 0x165 JUMPI DUP1 PUSH4 0x68F14ACF EQ PUSH2 0x18E JUMPI DUP1 PUSH4 0x75CB2A0E EQ PUSH2 0x1B7 JUMPI DUP1 PUSH4 0x8750745E EQ PUSH2 0x1E7 JUMPI DUP1 PUSH4 0xBDF666A4 EQ PUSH2 0x224 JUMPI PUSH2 0x91 JUMP JUMPDEST DUP1 PUSH4 0x20F0672C EQ PUSH2 0x96 JUMPI DUP1 PUSH4 0x2E9C58BB EQ PUSH2 0xBF JUMPI DUP1 PUSH4 0x41E865CB EQ PUSH2 0xEA JUMPI DUP1 PUSH4 0x456523E2 EQ PUSH2 0x113 JUMPI DUP1 PUSH4 0x4956219B EQ PUSH2 0x13C JUMPI JUMPDEST PUSH1 0x0 DUP1 REVERT JUMPDEST CALLVALUE DUP1 ISZERO PUSH2 0xA2 JUMPI PUSH1 0x0 DUP1 REVERT JUMPDEST POP PUSH2 0xBD PUSH1 0x4 DUP1 CALLDATASIZE SUB DUP2 ADD SWAP1 PUSH2 0xB8 SWAP2 SWAP1 PUSH2 0xC87 JUMP JUMPDEST PUSH2 0x261 JUMP JUMPDEST STOP JUMPDEST CALLVALUE DUP1 ISZERO PUSH2 0xCB JUMPI PUSH1 0x0 DUP1 REVERT JUMPDEST POP PUSH2 0xD4 PUSH2 0x2F8 JUMP JUMPDEST PUSH1 0x40 MLOAD PUSH2 0xE1 SWAP2 SWAP1 PUSH2 0xFF1 JUMP JUMPDEST PUSH1 0x40 MLOAD DUP1 SWAP2 SUB SWAP1 RETURN JUMPDEST CALLVALUE DUP1 ISZERO PUSH2 0xF6 JUMPI PUSH1 0x0 DUP1 REVERT JUMPDEST POP PUSH2 0x111 PUSH1 0x4 DUP1 CALLDATASIZE SUB DUP2 ADD SWAP1 PUSH2 0x10C SWAP2 SWAP1 PUSH2 0xBAC JUMP JUMPDEST PUSH2 0x301 JUMP JUMPDEST STOP JUMPDEST CALLVALUE DUP1 ISZERO PUSH2 0x11F JUMPI PUSH1 0x0 DUP1 REVERT JUMPDEST POP PUSH2 0x13A PUSH1 0x4 DUP1 CALLDATASIZE SUB DUP2 ADD SWAP1 PUSH2 0x135 SWAP2 SWAP1 PUSH2 0xC87 JUMP JUMPDEST PUSH2 0x398 JUMP JUMPDEST STOP JUMPDEST CALLVALUE DUP1 ISZERO PUSH2 0x148 JUMPI PUSH1 0x0 DUP1 REVERT JUMPDEST POP PUSH2 0x163 PUSH1 0x4 DUP1 CALLDATASIZE SUB DUP2 ADD SWAP1 PUSH2 0x15E SWAP2 SWAP1 PUSH2 0xBAC JUMP JUMPDEST PUSH2 0x42F JUMP JUMPDEST STOP JUMPDEST CALLVALUE DUP1 ISZERO PUSH2 0x171 JUMPI PUSH1 0x0 DUP1 REVERT JUMPDEST POP PUSH2 0x18C PUSH1 0x4 DUP1 CALLDATASIZE SUB DUP2 ADD SWAP1 PUSH2 0x187 SWAP2 SWAP1 PUSH2 0xCFB JUMP JUMPDEST PUSH2 0x4C6 JUMP JUMPDEST STOP JUMPDEST CALLVALUE DUP1 ISZERO PUSH2 0x19A JUMPI PUSH1 0x0 DUP1 REVERT JUMPDEST POP PUSH2 0x1B5 PUSH1 0x4 DUP1 CALLDATASIZE SUB DUP2 ADD SWAP1 PUSH2 0x1B0 SWAP2 SWAP1 PUSH2 0xC87 JUMP JUMPDEST PUSH2 0x563 JUMP JUMPDEST STOP JUMPDEST PUSH2 0x1D1 PUSH1 0x4 DUP1 CALLDATASIZE SUB DUP2 ADD SWAP1 PUSH2 0x1CC SWAP2 SWAP1 PUSH2 0xD88 JUMP JUMPDEST PUSH2 0x5FA JUMP JUMPDEST PUSH1 0x40 MLOAD PUSH2 0x1DE SWAP2 SWAP1 PUSH2 0x100C JUMP JUMPDEST PUSH1 0x40 MLOAD DUP1 SWAP2 SUB SWAP1 RETURN JUMPDEST CALLVALUE DUP1 ISZERO PUSH2 0x1F3 JUMPI PUSH1 0x0 DUP1 REVERT JUMPDEST POP PUSH2 0x20E PUSH1 0x4 DUP1 CALLDATASIZE SUB DUP2 ADD SWAP1 PUSH2 0x209 SWAP2 SWAP1 PUSH2 0xB59 JUMP JUMPDEST PUSH2 0x6B5 JUMP JUMPDEST PUSH1 0x40 MLOAD PUSH2 0x21B SWAP2 SWAP1 PUSH2 0x11B6 JUMP JUMPDEST PUSH1 0x40 MLOAD DUP1 SWAP2 SUB SWAP1 RETURN JUMPDEST CALLVALUE DUP1 ISZERO PUSH2 0x230 JUMPI PUSH1 0x0 DUP1 REVERT JUMPDEST POP PUSH2 0x24B PUSH1 0x4 DUP1 CALLDATASIZE SUB DUP2 ADD SWAP1 PUSH2 0x246 SWAP2 SWAP1 PUSH2 0xC20 JUMP JUMPDEST PUSH2 0x778 JUMP JUMPDEST PUSH1 0x40 MLOAD PUSH2 0x258 SWAP2 SWAP1 PUSH2 0xFF1 JUMP JUMPDEST PUSH1 0x40 MLOAD DUP1 SWAP2 SUB SWAP1 RETURN JUMPDEST PUSH1 0x0 DUP1 SLOAD SWAP1 PUSH2 0x100 EXP SWAP1 DIV PUSH20 0xFFFFFFFFFFFFFFFFFFFFFFFFFFFFFFFFFFFFFFFF AND PUSH20 0xFFFFFFFFFFFFFFFFFFFFFFFFFFFFFFFFFFFFFFFF AND PUSH4 0x20F0672C DUP6 DUP6 DUP6 DUP6 PUSH1 0x40 MLOAD DUP6 PUSH4 0xFFFFFFFF AND PUSH1 0xE0 SHL DUP2 MSTORE PUSH1 0x4 ADD PUSH2 0x2C0 SWAP5 SWAP4 SWAP3 SWAP2 SWAP1 PUSH2 0x10E3 JUMP JUMPDEST PUSH1 0x0 PUSH1 0x40 MLOAD DUP1 DUP4 SUB DUP2 PUSH1 0x0 DUP8 DUP1 EXTCODESIZE ISZERO DUP1 ISZERO PUSH2 0x2DA JUMPI PUSH1 0x0 DUP1 REVERT JUMPDEST POP GAS CALL ISZERO DUP1 ISZERO PUSH2 0x2EE JUMPI RETURNDATASIZE PUSH1 0x0 DUP1 RETURNDATACOPY RETURNDATASIZE PUSH1 0x0 REVERT JUMPDEST POP POP POP POP POP POP POP POP JUMP JUMPDEST PUSH1 0x0 PUSH1 0x1 SWAP1 POP SWAP1 JUMP JUMPDEST PUSH1 0x0 DUP1 SLOAD SWAP1 PUSH2 0x100 EXP SWAP1 DIV PUSH20 0xFFFFFFFFFFFFFFFFFFFFFFFFFFFFFFFFFFFFFFFF AND PUSH20 0xFFFFFFFFFFFFFFFFFFFFFFFFFFFFFFFFFFFFFFFF AND PUSH4 0x41E865CB DUP6 DUP6 DUP6 DUP6 PUSH1 0x40 MLOAD DUP6 PUSH4 0xFFFFFFFF AND PUSH1 0xE0 SHL DUP2 MSTORE PUSH1 0x4 ADD PUSH2 0x360 SWAP5 SWAP4 SWAP3 SWAP2 SWAP1 PUSH2 0x105E JUMP JUMPDEST PUSH1 0x0 PUSH1 0x40 MLOAD DUP1 DUP4 SUB DUP2 PUSH1 0x0 DUP8 DUP1 EXTCODESIZE ISZERO DUP1 ISZERO PUSH2 0x37A JUMPI PUSH1 0x0 DUP1 REVERT JUMPDEST POP GAS CALL ISZERO DUP1 ISZERO PUSH2 0x38E JUMPI RETURNDATASIZE PUSH1 0x0 DUP1 RETURNDATACOPY RETURNDATASIZE PUSH1 0x0 REVERT JUMPDEST POP POP POP POP POP POP POP POP JUMP JUMPDEST PUSH1 0x0 DUP1 SLOAD SWAP1 PUSH2 0x100 EXP SWAP1 DIV PUSH20 0xFFFFFFFFFFFFFFFFFFFFFFFFFFFFFFFFFFFFFFFF AND PUSH20 0xFFFFFFFFFFFFFFFFFFFFFFFFFFFFFFFFFFFFFFFF AND PUSH4 0x456523E2 DUP6 DUP6 DUP6 DUP6 PUSH1 0x40 MLOAD DUP6 PUSH4 0xFFFFFFFF AND PUSH1 0xE0 SHL DUP2 MSTORE PUSH1 0x4 ADD PUSH2 0x3F7 SWAP5 SWAP4 SWAP3 SWAP2 SWAP1 PUSH2 0x10E3 JUMP JUMPDEST PUSH1 0x0 PUSH1 0x40 MLOAD DUP1 DUP4 SUB DUP2 PUSH1 0x0 DUP8 DUP1 EXTCODESIZE ISZERO DUP1 ISZERO PUSH2 0x411 JUMPI PUSH1 0x0 DUP1 REVERT JUMPDEST POP GAS CALL ISZERO DUP1 ISZERO PUSH2 0x425 JUMPI RETURNDATASIZE PUSH1 0x0 DUP1 RETURNDATACOPY RETURNDATASIZE PUSH1 0x0 REVERT JUMPDEST POP POP POP POP POP POP POP POP JUMP JUMPDEST PUSH1 0x0 DUP1 SLOAD SWAP1 PUSH2 0x100 EXP SWAP1 DIV PUSH20 0xFFFFFFFFFFFFFFFFFFFFFFFFFFFFFFFFFFFFFFFF AND PUSH20 0xFFFFFFFFFFFFFFFFFFFFFFFFFFFFFFFFFFFFFFFF AND PUSH4 0x4956219B DUP6 DUP6 DUP6 DUP6 PUSH1 0x40 MLOAD DUP6 PUSH4 0xFFFFFFFF AND PUSH1 0xE0 SHL DUP2 MSTORE PUSH1 0x4 ADD PUSH2 0x48E SWAP5 SWAP4 SWAP3 SWAP2 SWAP1 PUSH2 0x105E JUMP JUMPDEST PUSH1 0x0 PUSH1 0x40 MLOAD DUP1 DUP4 SUB DUP2 PUSH1 0x0 DUP8 DUP1 EXTCODESIZE ISZERO DUP1 ISZERO PUSH2 0x4A8 JUMPI PUSH1 0x0 DUP1 REVERT JUMPDEST POP GAS CALL ISZERO DUP1 ISZERO PUSH2 0x4BC JUMPI RETURNDATASIZE PUSH1 0x0 DUP1 RETURNDATACOPY RETURNDATASIZE PUSH1 0x0 REVERT JUMPDEST POP POP POP POP POP POP POP POP JUMP JUMPDEST PUSH1 0x0 DUP1 SLOAD SWAP1 PUSH2 0x100 EXP SWAP1 DIV PUSH20 0xFFFFFFFFFFFFFFFFFFFFFFFFFFFFFFFFFFFFFFFF AND PUSH20 0xFFFFFFFFFFFFFFFFFFFFFFFFFFFFFFFFFFFFFFFF AND PUSH4 0x57C91B95 DUP8 DUP8 DUP8 DUP8 DUP8 DUP8 PUSH1 0x40 MLOAD DUP8 PUSH4 0xFFFFFFFF AND PUSH1 0xE0 SHL DUP2 MSTORE PUSH1 0x4 ADD PUSH2 0x529 SWAP7 SWAP6 SWAP5 SWAP4 SWAP3 SWAP2 SWAP1 PUSH2 0x1123 JUMP JUMPDEST PUSH1 0x0 PUSH1 0x40 MLOAD DUP1 DUP4 SUB DUP2 PUSH1 0x0 DUP8 DUP1 EXTCODESIZE ISZERO DUP1 ISZERO PUSH2 0x543 JUMPI PUSH1 0x0 DUP1 REVERT JUMPDEST POP GAS CALL ISZERO DUP1 ISZERO PUSH2 0x557 JUMPI RETURNDATASIZE PUSH1 0x0 DUP1 RETURNDATACOPY RETURNDATASIZE PUSH1 0x0 REVERT JUMPDEST POP POP POP POP POP POP POP POP POP POP JUMP JUMPDEST PUSH1 0x0 DUP1 SLOAD SWAP1 PUSH2 0x100 EXP SWAP1 DIV PUSH20 0xFFFFFFFFFFFFFFFFFFFFFFFFFFFFFFFFFFFFFFFF AND PUSH20 0xFFFFFFFFFFFFFFFFFFFFFFFFFFFFFFFFFFFFFFFF AND PUSH4 0x68F14ACF DUP6 DUP6 DUP6 DUP6 PUSH1 0x40 MLOAD DUP6 PUSH4 0xFFFFFFFF AND PUSH1 0xE0 SHL DUP2 MSTORE PUSH1 0x4 ADD PUSH2 0x5C2 SWAP5 SWAP4 SWAP3 SWAP2 SWAP1 PUSH2 0x10E3 JUMP JUMPDEST PUSH1 0x0 PUSH1 0x40 MLOAD DUP1 DUP4 SUB DUP2 PUSH1 0x0 DUP8 DUP1 EXTCODESIZE ISZERO DUP1 ISZERO PUSH2 0x5DC JUMPI PUSH1 0x0 DUP1 REVERT JUMPDEST POP GAS CALL ISZERO DUP1 ISZERO PUSH2 0x5F0 JUMPI RETURNDATASIZE PUSH1 0x0 DUP1 RETURNDATACOPY RETURNDATASIZE PUSH1 0x0 REVERT JUMPDEST POP POP POP POP POP POP POP POP JUMP JUMPDEST PUSH1 0x0 DUP1 PUSH1 0x0 SWAP1 SLOAD SWAP1 PUSH2 0x100 EXP SWAP1 DIV PUSH20 0xFFFFFFFFFFFFFFFFFFFFFFFFFFFFFFFFFFFFFFFF AND PUSH20 0xFFFFFFFFFFFFFFFFFFFFFFFFFFFFFFFFFFFFFFFF AND PUSH4 0x75CB2A0E DUP6 DUP6 DUP6 PUSH1 0x40 MLOAD DUP5 PUSH4 0xFFFFFFFF AND PUSH1 0xE0 SHL DUP2 MSTORE PUSH1 0x4 ADD PUSH2 0x65A SWAP4 SWAP3 SWAP2 SWAP1 PUSH2 0x1184 JUMP JUMPDEST PUSH1 0x20 PUSH1 0x40 MLOAD DUP1 DUP4 SUB DUP2 PUSH1 0x0 DUP8 DUP1 EXTCODESIZE ISZERO DUP1 ISZERO PUSH2 0x674 JUMPI PUSH1 0x0 DUP1 REVERT JUMPDEST POP GAS CALL ISZERO DUP1 ISZERO PUSH2 0x688 JUMPI RETURNDATASIZE PUSH1 0x0 DUP1 RETURNDATACOPY RETURNDATASIZE PUSH1 0x0 REVERT JUMPDEST POP POP POP POP PUSH1 0x40 MLOAD RETURNDATASIZE PUSH1 0x1F NOT PUSH1 0x1F DUP3 ADD AND DUP3 ADD DUP1 PUSH1 0x40 MSTORE POP DUP2 ADD SWAP1 PUSH2 0x6AC SWAP2 SWAP1 PUSH2 0xB2C JUMP JUMPDEST SWAP1 POP SWAP4 SWAP3 POP POP POP JUMP JUMPDEST PUSH2 0x6BD PUSH2 0x836 JUMP JUMPDEST PUSH1 0x0 DUP1 SLOAD SWAP1 PUSH2 0x100 EXP SWAP1 DIV PUSH20 0xFFFFFFFFFFFFFFFFFFFFFFFFFFFFFFFFFFFFFFFF AND PUSH20 0xFFFFFFFFFFFFFFFFFFFFFFFFFFFFFFFFFFFFFFFF AND PUSH4 0x8750745E DUP6 DUP6 DUP6 PUSH1 0x40 MLOAD DUP5 PUSH4 0xFFFFFFFF AND PUSH1 0xE0 SHL DUP2 MSTORE PUSH1 0x4 ADD PUSH2 0x71A SWAP4 SWAP3 SWAP2 SWAP1 PUSH2 0x1027 JUMP JUMPDEST PUSH1 0x0 PUSH1 0x40 MLOAD DUP1 DUP4 SUB DUP2 DUP7 DUP1 EXTCODESIZE ISZERO DUP1 ISZERO PUSH2 0x732 JUMPI PUSH1 0x0 DUP1 REVERT JUMPDEST POP GAS STATICCALL ISZERO DUP1 ISZERO PUSH2 0x746 JUMPI RETURNDATASIZE PUSH1 0x0 DUP1 RETURNDATACOPY RETURNDATASIZE PUSH1 0x0 REVERT JUMPDEST POP POP POP POP PUSH1 0x40 MLOAD RETURNDATASIZE PUSH1 0x0 DUP3 RETURNDATACOPY RETURNDATASIZE PUSH1 0x1F NOT PUSH1 0x1F DUP3 ADD AND DUP3 ADD DUP1 PUSH1 0x40 MSTORE POP DUP2 ADD SWAP1 PUSH2 0x76F SWAP2 SWAP1 PUSH2 0xDE8 JUMP JUMPDEST SWAP1 POP SWAP4 SWAP3 POP POP POP JUMP JUMPDEST PUSH1 0x0 DUP1 PUSH1 0x0 SWAP1 SLOAD SWAP1 PUSH2 0x100 EXP SWAP1 DIV PUSH20 0xFFFFFFFFFFFFFFFFFFFFFFFFFFFFFFFFFFFFFFFF AND PUSH20 0xFFFFFFFFFFFFFFFFFFFFFFFFFFFFFFFFFFFFFFFF AND PUSH4 0xBDF666A4 DUP7 DUP7 DUP7 DUP7 PUSH1 0x40 MLOAD DUP6 PUSH4 0xFFFFFFFF AND PUSH1 0xE0 SHL DUP2 MSTORE PUSH1 0x4 ADD PUSH2 0x7DA SWAP5 SWAP4 SWAP3 SWAP2 SWAP1 PUSH2 0x109E JUMP JUMPDEST PUSH1 0x20 PUSH1 0x40 MLOAD DUP1 DUP4 SUB DUP2 PUSH1 0x0 DUP8 DUP1 EXTCODESIZE ISZERO DUP1 ISZERO PUSH2 0x7F4 JUMPI PUSH1 0x0 DUP1 REVERT JUMPDEST POP GAS CALL ISZERO DUP1 ISZERO PUSH2 0x808 JUMPI RETURNDATASIZE PUSH1 0x0 DUP1 RETURNDATACOPY RETURNDATASIZE PUSH1 0x0 REVERT JUMPDEST POP POP POP POP PUSH1 0x40 MLOAD RETURNDATASIZE PUSH1 0x1F NOT PUSH1 0x1F DUP3 ADD AND DUP3 ADD DUP1 PUSH1 0x40 MSTORE POP DUP2 ADD SWAP1 PUSH2 0x82C SWAP2 SWAP1 PUSH2 0xAFF JUMP JUMPDEST SWAP1 POP SWAP5 SWAP4 POP POP POP POP JUMP JUMPDEST PUSH1 0x40 MLOAD DUP1 PUSH1 0x60 ADD PUSH1 0x40 MSTORE DUP1 PUSH1 0x60 DUP2 MSTORE PUSH1 0x20 ADD PUSH1 0x60 DUP2 MSTORE PUSH1 0x20 ADD PUSH1 0x60 DUP2 MSTORE POP SWAP1 JUMP JUMPDEST PUSH1 0x0 PUSH2 0x86A PUSH2 0x865 DUP5 PUSH2 0x11FD JUMP JUMPDEST PUSH2 0x11D8 JUMP JUMPDEST SWAP1 POP DUP3 DUP2 MSTORE PUSH1 0x20 DUP2 ADD DUP5 DUP5 DUP5 ADD GT ISZERO PUSH2 0x886 JUMPI PUSH2 0x885 PUSH2 0x13D2 JUMP JUMPDEST JUMPDEST PUSH2 0x891 DUP5 DUP3 DUP6 PUSH2 0x1326 JUMP JUMPDEST POP SWAP4 SWAP3 POP POP POP JUMP JUMPDEST PUSH1 0x0 DUP2 CALLDATALOAD SWAP1 POP PUSH2 0x8A8 DUP2 PUSH2 0x13F2 JUMP JUMPDEST SWAP3 SWAP2 POP POP JUMP JUMPDEST PUSH1 0x0 DUP1 DUP4 PUSH1 0x1F DUP5 ADD SLT PUSH2 0x8C4 JUMPI PUSH2 0x8C3 PUSH2 0x13BE JUMP JUMPDEST JUMPDEST DUP3 CALLDATALOAD SWAP1 POP PUSH8 0xFFFFFFFFFFFFFFFF DUP2 GT ISZERO PUSH2 0x8E1 JUMPI PUSH2 0x8E0 PUSH2 0x13B9 JUMP JUMPDEST JUMPDEST PUSH1 0x20 DUP4 ADD SWAP2 POP DUP4 PUSH1 0x20 DUP3 MUL DUP4 ADD GT ISZERO PUSH2 0x8FD JUMPI PUSH2 0x8FC PUSH2 0x13CD JUMP JUMPDEST JUMPDEST SWAP3 POP SWAP3 SWAP1 POP JUMP JUMPDEST PUSH1 0x0 DUP2 MLOAD SWAP1 POP PUSH2 0x913 DUP2 PUSH2 0x1409 JUMP JUMPDEST SWAP3 SWAP2 POP POP JUMP JUMPDEST PUSH1 0x0 DUP2 CALLDATALOAD SWAP1 POP PUSH2 0x928 DUP2 PUSH2 0x1420 JUMP JUMPDEST SWAP3 SWAP2 POP POP JUMP JUMPDEST PUSH1 0x0 DUP2 MLOAD SWAP1 POP PUSH2 0x93D DUP2 PUSH2 0x1420 JUMP JUMPDEST SWAP3 SWAP2 POP POP JUMP JUMPDEST PUSH1 0x0 DUP1 DUP4 PUSH1 0x1F DUP5 ADD SLT PUSH2 0x959 JUMPI PUSH2 0x958 PUSH2 0x13BE JUMP JUMPDEST JUMPDEST DUP3 CALLDATALOAD SWAP1 POP PUSH8 0xFFFFFFFFFFFFFFFF DUP2 GT ISZERO PUSH2 0x976 JUMPI PUSH2 0x975 PUSH2 0x13B9 JUMP JUMPDEST JUMPDEST PUSH1 0x20 DUP4 ADD SWAP2 POP DUP4 PUSH1 0x1 DUP3 MUL DUP4 ADD GT ISZERO PUSH2 0x992 JUMPI PUSH2 0x991 PUSH2 0x13CD JUMP JUMPDEST JUMPDEST SWAP3 POP SWAP3 SWAP1 POP JUMP JUMPDEST PUSH1 0x0 DUP3 PUSH1 0x1F DUP4 ADD SLT PUSH2 0x9AE JUMPI PUSH2 0x9AD PUSH2 0x13BE JUMP JUMPDEST JUMPDEST DUP2 MLOAD PUSH2 0x9BE DUP5 DUP3 PUSH1 0x20 DUP7 ADD PUSH2 0x857 JUMP JUMPDEST SWAP2 POP POP SWAP3 SWAP2 POP POP JUMP JUMPDEST PUSH1 0x0 DUP1 DUP4 PUSH1 0x1F DUP5 ADD SLT PUSH2 0x9DD JUMPI PUSH2 0x9DC PUSH2 0x13BE JUMP JUMPDEST JUMPDEST DUP3 CALLDATALOAD SWAP1 POP PUSH8 0xFFFFFFFFFFFFFFFF DUP2 GT ISZERO PUSH2 0x9FA JUMPI PUSH2 0x9F9 PUSH2 0x13B9 JUMP JUMPDEST JUMPDEST PUSH1 0x20 DUP4 ADD SWAP2 POP DUP4 PUSH1 0x1 DUP3 MUL DUP4 ADD GT ISZERO PUSH2 0xA16 JUMPI PUSH2 0xA15 PUSH2 0x13CD JUMP JUMPDEST JUMPDEST SWAP3 POP SWAP3 SWAP1 POP JUMP JUMPDEST PUSH1 0x0 PUSH1 0x60 DUP3 DUP5 SUB SLT ISZERO PUSH2 0xA33 JUMPI PUSH2 0xA32 PUSH2 0x13C3 JUMP JUMPDEST JUMPDEST PUSH2 0xA3D PUSH1 0x60 PUSH2 0x11D8 JUMP JUMPDEST SWAP1 POP PUSH1 0x0 DUP3 ADD MLOAD PUSH8 0xFFFFFFFFFFFFFFFF DUP2 GT ISZERO PUSH2 0xA5D JUMPI PUSH2 0xA5C PUSH2 0x13C8 JUMP JUMPDEST JUMPDEST PUSH2 0xA69 DUP5 DUP3 DUP6 ADD PUSH2 0x999 JUMP JUMPDEST PUSH1 0x0 DUP4 ADD MSTORE POP PUSH1 0x20 DUP3 ADD MLOAD PUSH8 0xFFFFFFFFFFFFFFFF DUP2 GT ISZERO PUSH2 0xA8D JUMPI PUSH2 0xA8C PUSH2 0x13C8 JUMP JUMPDEST JUMPDEST PUSH2 0xA99 DUP5 DUP3 DUP6 ADD PUSH2 0x999 JUMP JUMPDEST PUSH1 0x20 DUP4 ADD MSTORE POP PUSH1 0x40 DUP3 ADD MLOAD PUSH8 0xFFFFFFFFFFFFFFFF DUP2 GT ISZERO PUSH2 0xABD JUMPI PUSH2 0xABC PUSH2 0x13C8 JUMP JUMPDEST JUMPDEST PUSH2 0xAC9 DUP5 DUP3 DUP6 ADD PUSH2 0x999 JUMP JUMPDEST PUSH1 0x40 DUP4 ADD MSTORE POP SWAP3 SWAP2 POP POP JUMP JUMPDEST PUSH1 0x0 DUP2 CALLDATALOAD SWAP1 POP PUSH2 0xAE4 DUP2 PUSH2 0x1437 JUMP JUMPDEST SWAP3 SWAP2 POP POP JUMP JUMPDEST PUSH1 0x0 DUP2 CALLDATALOAD SWAP1 POP PUSH2 0xAF9 DUP2 PUSH2 0x144E JUMP JUMPDEST SWAP3 SWAP2 POP POP JUMP JUMPDEST PUSH1 0x0 PUSH1 0x20 DUP3 DUP5 SUB SLT ISZERO PUSH2 0xB15 JUMPI PUSH2 0xB14 PUSH2 0x13DC JUMP JUMPDEST JUMPDEST PUSH1 0x0 PUSH2 0xB23 DUP5 DUP3 DUP6 ADD PUSH2 0x904 JUMP JUMPDEST SWAP2 POP POP SWAP3 SWAP2 POP POP JUMP JUMPDEST PUSH1 0x0 PUSH1 0x20 DUP3 DUP5 SUB SLT ISZERO PUSH2 0xB42 JUMPI PUSH2 0xB41 PUSH2 0x13DC JUMP JUMPDEST JUMPDEST PUSH1 0x0 PUSH2 0xB50 DUP5 DUP3 DUP6 ADD PUSH2 0x92E JUMP JUMPDEST SWAP2 POP POP SWAP3 SWAP2 POP POP JUMP JUMPDEST PUSH1 0x0 DUP1 PUSH1 0x0 PUSH1 0x60 DUP5 DUP7 SUB SLT ISZERO PUSH2 0xB72 JUMPI PUSH2 0xB71 PUSH2 0x13DC JUMP JUMPDEST JUMPDEST PUSH1 0x0 PUSH2 0xB80 DUP7 DUP3 DUP8 ADD PUSH2 0x919 JUMP JUMPDEST SWAP4 POP POP PUSH1 0x20 PUSH2 0xB91 DUP7 DUP3 DUP8 ADD PUSH2 0x899 JUMP JUMPDEST SWAP3 POP POP PUSH1 0x40 PUSH2 0xBA2 DUP7 DUP3 DUP8 ADD PUSH2 0xAEA JUMP JUMPDEST SWAP2 POP POP SWAP3 POP SWAP3 POP SWAP3 JUMP JUMPDEST PUSH1 0x0 DUP1 PUSH1 0x0 DUP1 PUSH1 0x60 DUP6 DUP8 SUB SLT ISZERO PUSH2 0xBC6 JUMPI PUSH2 0xBC5 PUSH2 0x13DC JUMP JUMPDEST JUMPDEST PUSH1 0x0 PUSH2 0xBD4 DUP8 DUP3 DUP9 ADD PUSH2 0x919 JUMP JUMPDEST SWAP5 POP POP PUSH1 0x20 PUSH2 0xBE5 DUP8 DUP3 DUP9 ADD PUSH2 0xAEA JUMP JUMPDEST SWAP4 POP POP PUSH1 0x40 DUP6 ADD CALLDATALOAD PUSH8 0xFFFFFFFFFFFFFFFF DUP2 GT ISZERO PUSH2 0xC06 JUMPI PUSH2 0xC05 PUSH2 0x13D7 JUMP JUMPDEST JUMPDEST PUSH2 0xC12 DUP8 DUP3 DUP9 ADD PUSH2 0x8AE JUMP JUMPDEST SWAP3 POP SWAP3 POP POP SWAP3 SWAP6 SWAP2 SWAP5 POP SWAP3 POP JUMP JUMPDEST PUSH1 0x0 DUP1 PUSH1 0x0 DUP1 PUSH1 0x80 DUP6 DUP8 SUB SLT ISZERO PUSH2 0xC3A JUMPI PUSH2 0xC39 PUSH2 0x13DC JUMP JUMPDEST JUMPDEST PUSH1 0x0 PUSH2 0xC48 DUP8 DUP3 DUP9 ADD PUSH2 0x919 JUMP JUMPDEST SWAP5 POP POP PUSH1 0x20 PUSH2 0xC59 DUP8 DUP3 DUP9 ADD PUSH2 0xAEA JUMP JUMPDEST SWAP4 POP POP PUSH1 0x40 PUSH2 0xC6A DUP8 DUP3 DUP9 ADD PUSH2 0x919 JUMP JUMPDEST SWAP3 POP POP PUSH1 0x60 PUSH2 0xC7B DUP8 DUP3 DUP9 ADD PUSH2 0x919 JUMP JUMPDEST SWAP2 POP POP SWAP3 SWAP6 SWAP2 SWAP5 POP SWAP3 POP JUMP JUMPDEST PUSH1 0x0 DUP1 PUSH1 0x0 DUP1 PUSH1 0x60 DUP6 DUP8 SUB SLT ISZERO PUSH2 0xCA1 JUMPI PUSH2 0xCA0 PUSH2 0x13DC JUMP JUMPDEST JUMPDEST PUSH1 0x0 PUSH2 0xCAF DUP8 DUP3 DUP9 ADD PUSH2 0x919 JUMP JUMPDEST SWAP5 POP POP PUSH1 0x20 PUSH2 0xCC0 DUP8 DUP3 DUP9 ADD PUSH2 0xAEA JUMP JUMPDEST SWAP4 POP POP PUSH1 0x40 DUP6 ADD CALLDATALOAD PUSH8 0xFFFFFFFFFFFFFFFF DUP2 GT ISZERO PUSH2 0xCE1 JUMPI PUSH2 0xCE0 PUSH2 0x13D7 JUMP JUMPDEST JUMPDEST PUSH2 0xCED DUP8 DUP3 DUP9 ADD PUSH2 0x943 JUMP JUMPDEST SWAP3 POP SWAP3 POP POP SWAP3 SWAP6 SWAP2 SWAP5 POP SWAP3 POP JUMP JUMPDEST PUSH1 0x0 DUP1 PUSH1 0x0 DUP1 PUSH1 0x0 DUP1 PUSH1 0xC0 DUP8 DUP10 SUB SLT ISZERO PUSH2 0xD18 JUMPI PUSH2 0xD17 PUSH2 0x13DC JUMP JUMPDEST JUMPDEST PUSH1 0x0 PUSH2 0xD26 DUP10 DUP3 DUP11 ADD PUSH2 0x919 JUMP JUMPDEST SWAP7 POP POP PUSH1 0x20 PUSH2 0xD37 DUP10 DUP3 DUP11 ADD PUSH2 0xAEA JUMP JUMPDEST SWAP6 POP POP PUSH1 0x40 PUSH2 0xD48 DUP10 DUP3 DUP11 ADD PUSH2 0xAD5 JUMP JUMPDEST SWAP5 POP POP PUSH1 0x60 PUSH2 0xD59 DUP10 DUP3 DUP11 ADD PUSH2 0xAD5 JUMP JUMPDEST SWAP4 POP POP PUSH1 0x80 PUSH2 0xD6A DUP10 DUP3 DUP11 ADD PUSH2 0xAD5 JUMP JUMPDEST SWAP3 POP POP PUSH1 0xA0 PUSH2 0xD7B DUP10 DUP3 DUP11 ADD PUSH2 0xAD5 JUMP JUMPDEST SWAP2 POP POP SWAP3 SWAP6 POP SWAP3 SWAP6 POP SWAP3 SWAP6 JUMP JUMPDEST PUSH1 0x0 DUP1 PUSH1 0x0 PUSH1 0x40 DUP5 DUP7 SUB SLT ISZERO PUSH2 0xDA1 JUMPI PUSH2 0xDA0 PUSH2 0x13DC JUMP JUMPDEST JUMPDEST PUSH1 0x0 DUP5 ADD CALLDATALOAD PUSH8 0xFFFFFFFFFFFFFFFF DUP2 GT ISZERO PUSH2 0xDBF JUMPI PUSH2 0xDBE PUSH2 0x13D7 JUMP JUMPDEST JUMPDEST PUSH2 0xDCB DUP7 DUP3 DUP8 ADD PUSH2 0x9C7 JUMP JUMPDEST SWAP4 POP SWAP4 POP POP PUSH1 0x20 PUSH2 0xDDE DUP7 DUP3 DUP8 ADD PUSH2 0x919 JUMP JUMPDEST SWAP2 POP POP SWAP3 POP SWAP3 POP SWAP3 JUMP JUMPDEST PUSH1 0x0 PUSH1 0x20 DUP3 DUP5 SUB SLT ISZERO PUSH2 0xDFE JUMPI PUSH2 0xDFD PUSH2 0x13DC JUMP JUMPDEST JUMPDEST PUSH1 0x0 DUP3 ADD MLOAD PUSH8 0xFFFFFFFFFFFFFFFF DUP2 GT ISZERO PUSH2 0xE1C JUMPI PUSH2 0xE1B PUSH2 0x13D7 JUMP JUMPDEST JUMPDEST PUSH2 0xE28 DUP5 DUP3 DUP6 ADD PUSH2 0xA1D JUMP JUMPDEST SWAP2 POP POP SWAP3 SWAP2 POP POP JUMP JUMPDEST PUSH1 0x0 PUSH2 0xE3D DUP4 DUP4 PUSH2 0xE49 JUMP JUMPDEST PUSH1 0x20 DUP4 ADD SWAP1 POP SWAP3 SWAP2 POP POP JUMP JUMPDEST PUSH2 0xE52 DUP2 PUSH2 0x12AB JUMP JUMPDEST DUP3 MSTORE POP POP JUMP JUMPDEST PUSH2 0xE61 DUP2 PUSH2 0x12AB JUMP JUMPDEST DUP3 MSTORE POP POP JUMP JUMPDEST PUSH1 0x0 PUSH2 0xE73 DUP4 DUP6 PUSH2 0x1250 JUMP JUMPDEST SWAP4 POP PUSH2 0xE7E DUP3 PUSH2 0x122E JUMP JUMPDEST DUP1 PUSH1 0x0 JUMPDEST DUP6 DUP2 LT ISZERO PUSH2 0xEB7 JUMPI PUSH2 0xE94 DUP3 DUP5 PUSH2 0x1294 JUMP JUMPDEST PUSH2 0xE9E DUP9 DUP3 PUSH2 0xE31 JUMP JUMPDEST SWAP8 POP PUSH2 0xEA9 DUP4 PUSH2 0x1243 JUMP JUMPDEST SWAP3 POP POP PUSH1 0x1 DUP2 ADD SWAP1 POP PUSH2 0xE82 JUMP JUMPDEST POP DUP6 SWAP3 POP POP POP SWAP4 SWAP3 POP POP POP JUMP JUMPDEST PUSH2 0xECD DUP2 PUSH2 0x12BD JUMP JUMPDEST DUP3 MSTORE POP POP JUMP JUMPDEST PUSH2 0xEDC DUP2 PUSH2 0x12C9 JUMP JUMPDEST DUP3 MSTORE POP POP JUMP JUMPDEST PUSH1 0x0 PUSH2 0xEEE DUP4 DUP6 PUSH2 0x1272 JUMP JUMPDEST SWAP4 POP PUSH2 0xEFB DUP4 DUP6 DUP5 PUSH2 0x1317 JUMP JUMPDEST PUSH2 0xF04 DUP4 PUSH2 0x13E1 JUMP JUMPDEST DUP5 ADD SWAP1 POP SWAP4 SWAP3 POP POP POP JUMP JUMPDEST PUSH1 0x0 PUSH2 0xF1A DUP3 PUSH2 0x1238 JUMP JUMPDEST PUSH2 0xF24 DUP2 DUP6 PUSH2 0x1261 JUMP JUMPDEST SWAP4 POP PUSH2 0xF34 DUP2 DUP6 PUSH1 0x20 DUP7 ADD PUSH2 0x1326 JUMP JUMPDEST PUSH2 0xF3D DUP2 PUSH2 0x13E1 JUMP JUMPDEST DUP5 ADD SWAP2 POP POP SWAP3 SWAP2 POP POP JUMP JUMPDEST PUSH1 0x0 PUSH2 0xF54 DUP4 DUP6 PUSH2 0x1283 JUMP JUMPDEST SWAP4 POP PUSH2 0xF61 DUP4 DUP6 DUP5 PUSH2 0x1317 JUMP JUMPDEST PUSH2 0xF6A DUP4 PUSH2 0x13E1 JUMP JUMPDEST DUP5 ADD SWAP1 POP SWAP4 SWAP3 POP POP POP JUMP JUMPDEST PUSH1 0x0 PUSH1 0x60 DUP4 ADD PUSH1 0x0 DUP4 ADD MLOAD DUP5 DUP3 SUB PUSH1 0x0 DUP7 ADD MSTORE PUSH2 0xF92 DUP3 DUP3 PUSH2 0xF0F JUMP JUMPDEST SWAP2 POP POP PUSH1 0x20 DUP4 ADD MLOAD DUP5 DUP3 SUB PUSH1 0x20 DUP7 ADD MSTORE PUSH2 0xFAC DUP3 DUP3 PUSH2 0xF0F JUMP JUMPDEST SWAP2 POP POP PUSH1 0x40 DUP4 ADD MLOAD DUP5 DUP3 SUB PUSH1 0x40 DUP7 ADD MSTORE PUSH2 0xFC6 DUP3 DUP3 PUSH2 0xF0F JUMP JUMPDEST SWAP2 POP POP DUP1 SWAP2 POP POP SWAP3 SWAP2 POP POP JUMP JUMPDEST PUSH2 0xFDC DUP2 PUSH2 0x12F3 JUMP JUMPDEST DUP3 MSTORE POP POP JUMP JUMPDEST PUSH2 0xFEB DUP2 PUSH2 0x1303 JUMP JUMPDEST DUP3 MSTORE POP POP JUMP JUMPDEST PUSH1 0x0 PUSH1 0x20 DUP3 ADD SWAP1 POP PUSH2 0x1006 PUSH1 0x0 DUP4 ADD DUP5 PUSH2 0xEC4 JUMP JUMPDEST SWAP3 SWAP2 POP POP JUMP JUMPDEST PUSH1 0x0 PUSH1 0x20 DUP3 ADD SWAP1 POP PUSH2 0x1021 PUSH1 0x0 DUP4 ADD DUP5 PUSH2 0xED3 JUMP JUMPDEST SWAP3 SWAP2 POP POP JUMP JUMPDEST PUSH1 0x0 PUSH1 0x60 DUP3 ADD SWAP1 POP PUSH2 0x103C PUSH1 0x0 DUP4 ADD DUP7 PUSH2 0xED3 JUMP JUMPDEST PUSH2 0x1049 PUSH1 0x20 DUP4 ADD DUP6 PUSH2 0xE58 JUMP JUMPDEST PUSH2 0x1056 PUSH1 0x40 DUP4 ADD DUP5 PUSH2 0xFE2 JUMP JUMPDEST SWAP5 SWAP4 POP POP POP POP JUMP JUMPDEST PUSH1 0x0 PUSH1 0x60 DUP3 ADD SWAP1 POP PUSH2 0x1073 PUSH1 0x0 DUP4 ADD DUP8 PUSH2 0xED3 JUMP JUMPDEST PUSH2 0x1080 PUSH1 0x20 DUP4 ADD DUP7 PUSH2 0xFE2 JUMP JUMPDEST DUP2 DUP2 SUB PUSH1 0x40 DUP4 ADD MSTORE PUSH2 0x1093 DUP2 DUP5 DUP7 PUSH2 0xE67 JUMP JUMPDEST SWAP1 POP SWAP6 SWAP5 POP POP POP POP POP JUMP JUMPDEST PUSH1 0x0 PUSH1 0x80 DUP3 ADD SWAP1 POP PUSH2 0x10B3 PUSH1 0x0 DUP4 ADD DUP8 PUSH2 0xED3 JUMP JUMPDEST PUSH2 0x10C0 PUSH1 0x20 DUP4 ADD DUP7 PUSH2 0xFE2 JUMP JUMPDEST PUSH2 0x10CD PUSH1 0x40 DUP4 ADD DUP6 PUSH2 0xED3 JUMP JUMPDEST PUSH2 0x10DA PUSH1 0x60 DUP4 ADD DUP5 PUSH2 0xED3 JUMP JUMPDEST SWAP6 SWAP5 POP POP POP POP POP JUMP JUMPDEST PUSH1 0x0 PUSH1 0x60 DUP3 ADD SWAP1 POP PUSH2 0x10F8 PUSH1 0x0 DUP4 ADD DUP8 PUSH2 0xED3 JUMP JUMPDEST PUSH2 0x1105 PUSH1 0x20 DUP4 ADD DUP7 PUSH2 0xFE2 JUMP JUMPDEST DUP2 DUP2 SUB PUSH1 0x40 DUP4 ADD MSTORE PUSH2 0x1118 DUP2 DUP5 DUP7 PUSH2 0xEE2 JUMP JUMPDEST SWAP1 POP SWAP6 SWAP5 POP POP POP POP POP JUMP JUMPDEST PUSH1 0x0 PUSH1 0xC0 DUP3 ADD SWAP1 POP PUSH2 0x1138 PUSH1 0x0 DUP4 ADD DUP10 PUSH2 0xED3 JUMP JUMPDEST PUSH2 0x1145 PUSH1 0x20 DUP4 ADD DUP9 PUSH2 0xFE2 JUMP JUMPDEST PUSH2 0x1152 PUSH1 0x40 DUP4 ADD DUP8 PUSH2 0xFD3 JUMP JUMPDEST PUSH2 0x115F PUSH1 0x60 DUP4 ADD DUP7 PUSH2 0xFD3 JUMP JUMPDEST PUSH2 0x116C PUSH1 0x80 DUP4 ADD DUP6 PUSH2 0xFD3 JUMP JUMPDEST PUSH2 0x1179 PUSH1 0xA0 DUP4 ADD DUP5 PUSH2 0xFD3 JUMP JUMPDEST SWAP8 SWAP7 POP POP POP POP POP POP POP JUMP JUMPDEST PUSH1 0x0 PUSH1 0x40 DUP3 ADD SWAP1 POP DUP2 DUP2 SUB PUSH1 0x0 DUP4 ADD MSTORE PUSH2 0x119F DUP2 DUP6 DUP8 PUSH2 0xF48 JUMP JUMPDEST SWAP1 POP PUSH2 0x11AE PUSH1 0x20 DUP4 ADD DUP5 PUSH2 0xED3 JUMP JUMPDEST SWAP5 SWAP4 POP POP POP POP JUMP JUMPDEST PUSH1 0x0 PUSH1 0x20 DUP3 ADD SWAP1 POP DUP2 DUP2 SUB PUSH1 0x0 DUP4 ADD MSTORE PUSH2 0x11D0 DUP2 DUP5 PUSH2 0xF75 JUMP JUMPDEST SWAP1 POP SWAP3 SWAP2 POP POP JUMP JUMPDEST PUSH1 0x0 PUSH2 0x11E2 PUSH2 0x11F3 JUMP JUMPDEST SWAP1 POP PUSH2 0x11EE DUP3 DUP3 PUSH2 0x1359 JUMP JUMPDEST SWAP2 SWAP1 POP JUMP JUMPDEST PUSH1 0x0 PUSH1 0x40 MLOAD SWAP1 POP SWAP1 JUMP JUMPDEST PUSH1 0x0 PUSH8 0xFFFFFFFFFFFFFFFF DUP3 GT ISZERO PUSH2 0x1218 JUMPI PUSH2 0x1217 PUSH2 0x138A JUMP JUMPDEST JUMPDEST PUSH2 0x1221 DUP3 PUSH2 0x13E1 JUMP JUMPDEST SWAP1 POP PUSH1 0x20 DUP2 ADD SWAP1 POP SWAP2 SWAP1 POP JUMP JUMPDEST PUSH1 0x0 DUP2 SWAP1 POP SWAP2 SWAP1 POP JUMP JUMPDEST PUSH1 0x0 DUP2 MLOAD SWAP1 POP SWAP2 SWAP1 POP JUMP JUMPDEST PUSH1 0x0 PUSH1 0x20 DUP3 ADD SWAP1 POP SWAP2 SWAP1 POP JUMP JUMPDEST PUSH1 0x0 DUP3 DUP3 MSTORE PUSH1 0x20 DUP3 ADD SWAP1 POP SWAP3 SWAP2 POP POP JUMP JUMPDEST PUSH1 0x0 DUP3 DUP3 MSTORE PUSH1 0x20 DUP3 ADD SWAP1 POP SWAP3 SWAP2 POP POP JUMP JUMPDEST PUSH1 0x0 DUP3 DUP3 MSTORE PUSH1 0x20 DUP3 ADD SWAP1 POP SWAP3 SWAP2 POP POP JUMP JUMPDEST PUSH1 0x0 DUP3 DUP3 MSTORE PUSH1 0x20 DUP3 ADD SWAP1 POP SWAP3 SWAP2 POP POP JUMP JUMPDEST PUSH1 0x0 PUSH2 0x12A3 PUSH1 0x20 DUP5 ADD DUP5 PUSH2 0x899 JUMP JUMPDEST SWAP1 POP SWAP3 SWAP2 POP POP JUMP JUMPDEST PUSH1 0x0 PUSH2 0x12B6 DUP3 PUSH2 0x12D3 JUMP JUMPDEST SWAP1 POP SWAP2 SWAP1 POP JUMP JUMPDEST PUSH1 0x0 DUP2 ISZERO ISZERO SWAP1 POP SWAP2 SWAP1 POP JUMP JUMPDEST PUSH1 0x0 DUP2 SWAP1 POP SWAP2 SWAP1 POP JUMP JUMPDEST PUSH1 0x0 PUSH20 0xFFFFFFFFFFFFFFFFFFFFFFFFFFFFFFFFFFFFFFFF DUP3 AND SWAP1 POP SWAP2 SWAP1 POP JUMP JUMPDEST PUSH1 0x0 PUSH4 0xFFFFFFFF DUP3 AND SWAP1 POP SWAP2 SWAP1 POP JUMP JUMPDEST PUSH1 0x0 PUSH8 0xFFFFFFFFFFFFFFFF DUP3 AND SWAP1 POP SWAP2 SWAP1 POP JUMP JUMPDEST DUP3 DUP2 DUP4 CALLDATACOPY PUSH1 0x0 DUP4 DUP4 ADD MSTORE POP POP POP JUMP JUMPDEST PUSH1 0x0 JUMPDEST DUP4 DUP2 LT ISZERO PUSH2 0x1344 JUMPI DUP1 DUP3 ADD MLOAD DUP2 DUP5 ADD MSTORE PUSH1 0x20 DUP2 ADD SWAP1 POP PUSH2 0x1329 JUMP JUMPDEST DUP4 DUP2 GT ISZERO PUSH2 0x1353 JUMPI PUSH1 0x0 DUP5 DUP5 ADD MSTORE JUMPDEST POP POP POP POP JUMP JUMPDEST PUSH2 0x1362 DUP3 PUSH2 0x13E1 JUMP JUMPDEST DUP2 ADD DUP2 DUP2 LT PUSH8 0xFFFFFFFFFFFFFFFF DUP3 GT OR ISZERO PUSH2 0x1381 JUMPI PUSH2 0x1380 PUSH2 0x138A JUMP JUMPDEST JUMPDEST DUP1 PUSH1 0x40 MSTORE POP POP POP JUMP JUMPDEST PUSH32 0x4E487B7100000000000000000000000000000000000000000000000000000000 PUSH1 0x0 MSTORE PUSH1 0x41 PUSH1 0x4 MSTORE PUSH1 0x24 PUSH1 0x0 REVERT JUMPDEST PUSH1 0x0 DUP1 REVERT JUMPDEST PUSH1 0x0 DUP1 REVERT JUMPDEST PUSH1 0x0 DUP1 REVERT JUMPDEST PUSH1 0x0 DUP1 REVERT JUMPDEST PUSH1 0x0 DUP1 REVERT JUMPDEST PUSH1 0x0 DUP1 REVERT JUMPDEST PUSH1 0x0 DUP1 REVERT JUMPDEST PUSH1 0x0 DUP1 REVERT JUMPDEST PUSH1 0x0 PUSH1 0x1F NOT PUSH1 0x1F DUP4 ADD AND SWAP1 POP SWAP2 SWAP1 POP JUMP JUMPDEST PUSH2 0x13FB DUP2 PUSH2 0x12AB JUMP JUMPDEST DUP2 EQ PUSH2 0x1406 JUMPI PUSH1 0x0 DUP1 REVERT JUMPDEST POP JUMP JUMPDEST PUSH2 0x1412 DUP2 PUSH2 0x12BD JUMP JUMPDEST DUP2 EQ PUSH2 0x141D JUMPI PUSH1 0x0 DUP1 REVERT JUMPDEST POP JUMP JUMPDEST PUSH2 0x1429 DUP2 PUSH2 0x12C9 JUMP JUMPDEST DUP2 EQ PUSH2 0x1434 JUMPI PUSH1 0x0 DUP1 REVERT JUMPDEST POP JUMP JUMPDEST PUSH2 0x1440 DUP2 PUSH2 0x12F3 JUMP JUMPDEST DUP2 EQ PUSH2 0x144B JUMPI PUSH1 0x0 DUP1 REVERT JUMPDEST POP JUMP JUMPDEST PUSH2 0x1457 DUP2 PUSH2 0x1303 JUMP JUMPDEST DUP2 EQ PUSH2 0x1462 JUMPI PUSH1 0x0 DUP1 REVERT JUMPDEST POP JUMP INVALID LOG2 PUSH5 0x6970667358 0x22 SLT KECCAK256 CREATE PUSH27 0x6A21A29BEF25172E977623144E2BC9FAC43B76B9BB63BCFCCD4D87 PUSH8 0xE0EF64736F6C6343 STOP ADDMOD SMOD STOP CALLER LOG2 PUSH5 0x6970667358 0x22 SLT KECCAK256 BYTE 0xE5 PUSH19 0xAA3E044CB7C93BC8573A6E6536510147AE3864 PUSH17 0xD3A52EE8724BBFDC3964736F6C63430008 SMOD STOP CALLER "
		},
		"gasEstimates": {
			"creation": {
				"codeDepositCost": "10379600",
				"executionCost": "14921",
				"totalCost": "10394521"
			},
			"external": {
				"CreateTaskShouldBeSuccessful()": "infinite",
				"StartRoundTests()": "infinite",
				"beforeAll()": "infinite",
				"checkTaskJoinRoundTimeout()": "infinite",
				"createTaskJoinRoundTimeout()": "infinite",
				"joinRoundTests()": "infinite",
				"selectCandidatesTests()": "infinite",
				"startAggregateTests()": "infinite",
				"uploadSeedCommitmentShouldSuccess()": "infinite",
				"uploadSkMaskCommitmentShouldSuccess()": "infinite",
				"uploadWeightCommitmentShouldSuccess()": "infinite",
				"uploadWeightCommitmentShouldTimeout()": "infinite",
				"uploadWeightCommitmentTests()": "infinite",
				"waitForABlock()": "189",
				"waitForABlockToCommitment()": "211"
			}
		},
		"methodIdentifiers": {
			"CreateTaskShouldBeSuccessful()": "fb235a68",
			"StartRoundTests()": "345adf2f",
			"beforeAll()": "7fea0d4b",
			"checkTaskJoinRoundTimeout()": "00c71acd",
			"createTaskJoinRoundTimeout()": "d845e050",
			"joinRoundTests()": "61150d14",
			"selectCandidatesTests()": "1ae3c34b",
			"startAggregateTests()": "50988b11",
			"uploadSeedCommitmentShouldSuccess()": "85e042a9",
			"uploadSkMaskCommitmentShouldSuccess()": "f84073d3",
			"uploadWeightCommitmentShouldSuccess()": "df81360c",
			"uploadWeightCommitmentShouldTimeout()": "f1d69bf0",
			"uploadWeightCommitmentTests()": "58b1b81e",
			"waitForABlock()": "528572eb",
			"waitForABlockToCommitment()": "581d7b6f"
		}
	},
	"abi": [
		{
			"inputs": [],
			"name": "CreateTaskShouldBeSuccessful",
			"outputs": [],
			"stateMutability": "nonpayable",
			"type": "function"
		},
		{
			"inputs": [],
			"name": "StartRoundTests",
			"outputs": [],
			"stateMutability": "nonpayable",
			"type": "function"
		},
		{
			"inputs": [],
			"name": "beforeAll",
			"outputs": [],
			"stateMutability": "nonpayable",
			"type": "function"
		},
		{
			"inputs": [],
			"name": "checkTaskJoinRoundTimeout",
			"outputs": [],
			"stateMutability": "nonpayable",
			"type": "function"
		},
		{
			"inputs": [],
			"name": "createTaskJoinRoundTimeout",
			"outputs": [],
			"stateMutability": "nonpayable",
			"type": "function"
		},
		{
			"inputs": [],
			"name": "joinRoundTests",
			"outputs": [],
			"stateMutability": "nonpayable",
			"type": "function"
		},
		{
			"inputs": [],
			"name": "selectCandidatesTests",
			"outputs": [],
			"stateMutability": "nonpayable",
			"type": "function"
		},
		{
			"inputs": [],
			"name": "startAggregateTests",
			"outputs": [],
			"stateMutability": "nonpayable",
			"type": "function"
		},
		{
			"inputs": [],
			"name": "uploadSeedCommitmentShouldSuccess",
			"outputs": [],
			"stateMutability": "nonpayable",
			"type": "function"
		},
		{
			"inputs": [],
			"name": "uploadSkMaskCommitmentShouldSuccess",
			"outputs": [],
			"stateMutability": "nonpayable",
			"type": "function"
		},
		{
			"inputs": [],
			"name": "uploadWeightCommitmentShouldSuccess",
			"outputs": [],
			"stateMutability": "nonpayable",
			"type": "function"
		},
		{
			"inputs": [],
			"name": "uploadWeightCommitmentShouldTimeout",
			"outputs": [],
			"stateMutability": "nonpayable",
			"type": "function"
		},
		{
			"inputs": [],
			"name": "uploadWeightCommitmentTests",
			"outputs": [],
			"stateMutability": "nonpayable",
			"type": "function"
		},
		{
			"inputs": [],
			"name": "waitForABlock",
			"outputs": [],
			"stateMutability": "nonpayable",
			"type": "function"
		},
		{
			"inputs": [],
			"name": "waitForABlockToCommitment",
			"outputs": [],
			"stateMutability": "nonpayable",
			"type": "function"
		}
	]
}