{
	"data": {
		"bytecode": {
			"linkReferences": {},
			"object": "608060405234801561001057600080fd5b50336000806101000a81548173ffffffffffffffffffffffffffffffffffffffff021916908373ffffffffffffffffffffffffffffffffffffffff16021790555060008054906101000a900473ffffffffffffffffffffffffffffffffffffffff1673ffffffffffffffffffffffffffffffffffffffff16600073ffffffffffffffffffffffffffffffffffffffff167f342827c97908e5e2f71151c08502a66d44b6f758e3ac2f1de95f02eb95f0a73560405160405180910390a3613b5d806100db6000396000f3fe6080604052600436106100f35760003560e01c806357c91b951161008a5780638750745e116100595780638750745e14610329578063893d20e814610366578063a6f9dae114610391578063bdf666a4146103ba576100f3565b806357c91b951461026a57806358af9f731461029357806368f14acf146102d057806375cb2a0e146102f9576100f3565b806341e865cb116100c657806341e865cb146101b2578063456523e2146101db5780634893b362146102045780634956219b14610241576100f3565b806301bd7269146100f857806312ab8b87146101215780631449f4de1461014c57806320f0672c14610189575b600080fd5b34801561010457600080fd5b5061011f600480360381019061011a9190612998565b6103f7565b005b34801561012d57600080fd5b50610136610598565b604051610143919061344b565b60405180910390f35b34801561015857600080fd5b50610173600480360381019061016e91906129d8565b6105f3565b60405161018091906133d0565b60405180910390f35b34801561019557600080fd5b506101b060048036038101906101ab9190612b06565b610728565b005b3480156101be57600080fd5b506101d960048036038101906101d49190612a2b565b610893565b005b3480156101e757600080fd5b5061020260048036038101906101fd9190612b06565b610b95565b005b34801561021057600080fd5b5061022b60048036038101906102269190612998565b610d00565b604051610238919061340d565b60405180910390f35b34801561024d57600080fd5b5061026860048036038101906102639190612a2b565b610ec9565b005b34801561027657600080fd5b50610291600480360381019061028c9190612b7a565b6111f4565b005b34801561029f57600080fd5b506102ba60048036038101906102b59190612918565b6116c6565b6040516102c79190613429565b60405180910390f35b3480156102dc57600080fd5b506102f760048036038101906102f29190612b06565b6118bf565b005b610313600480360381019061030e9190612c07565b611b50565b604051610320919061318c565b60405180910390f35b34801561033557600080fd5b50610350600480360381019061034b9190612945565b611d51565b60405161035d91906133eb565b60405180910390f35b34801561037257600080fd5b5061037b6120ed565b6040516103889190613156565b60405180910390f35b34801561039d57600080fd5b506103b860048036038101906103b391906128eb565b612116565b005b3480156103c657600080fd5b506103e160048036038101906103dc9190612a9f565b612261565b6040516103ee9190613171565b60405180910390f35b813373ffffffffffffffffffffffffffffffffffffffff166001600083815260200190815260200160002060000160009054906101000a900473ffffffffffffffffffffffffffffffffffffffff1673ffffffffffffffffffffffffffffffffffffffff161461049c576040517f08c379a000000000000000000000000000000000000000000000000000000000815260040161049390613330565b60405180910390fd5b82826000600260008481526020019081526020016000209050600181805490501180156104e257508167ffffffffffffffff16600182805490506104e09190613592565b145b610521576040517f08c379a000000000000000000000000000000000000000000000000000000000815260040161051890613350565b60405180910390fd5b6000600260008881526020019081526020016000208667ffffffffffffffff1681548110610552576105516137ab565b5b9060005260206000209060050201905060038160000160106101000a81548160ff0219169083600381111561058a5761058961374d565b5b021790555050505050505050565b600080600167ffffffffffffffff8111156105b6576105b56137da565b5b6040519080825280601f01601f1916602001820160405280156105e85781602001600182028036833780820191505090505b509050805191505090565b6105fb612567565b838360006002600084815260200190815260200160002090506001818054905011801561064157508167ffffffffffffffff166001828054905061063f9190613592565b145b610680576040517f08c379a000000000000000000000000000000000000000000000000000000000815260040161067790613350565b60405180910390fd5b600260008881526020019081526020016000208667ffffffffffffffff16815481106106af576106ae6137ab565b5b906000526020600020906005020160010160008673ffffffffffffffffffffffffffffffffffffffff1673ffffffffffffffffffffffffffffffffffffffff1681526020019081526020016000206040518060400160405290816000820154815260200160018201548152505093505050509392505050565b838360006002600084815260200190815260200160002090506001818054905011801561076e57508167ffffffffffffffff166001828054905061076c9190613592565b145b6107ad576040517f08c379a00000000000000000000000000000000000000000000000000000000081526004016107a490613350565b60405180910390fd5b6101008585905011156107bf57600080fd5b60006003600089815260200190815260200160002090508667ffffffffffffffff168180549050141561080957806001816001815401808255809150500390600052602060002050505b6000818867ffffffffffffffff1681548110610828576108276137ab565b5b90600052602060002001905086868260000160003373ffffffffffffffffffffffffffffffffffffffff1673ffffffffffffffffffffffffffffffffffffffff1681526020019081526020016000206002019190610887929190612587565b50505050505050505050565b833373ffffffffffffffffffffffffffffffffffffffff166001600083815260200190815260200160002060000160009054906101000a900473ffffffffffffffffffffffffffffffffffffffff1673ffffffffffffffffffffffffffffffffffffffff1614610938576040517f08c379a000000000000000000000000000000000000000000000000000000000815260040161092f90613330565b60405180910390fd5b848460006002600084815260200190815260200160002090506001818054905011801561097e57508167ffffffffffffffff166001828054905061097c9190613592565b145b6109bd576040517f08c379a00000000000000000000000000000000000000000000000000000000081526004016109b490613350565b60405180910390fd5b60008686905011610a03576040517f08c379a00000000000000000000000000000000000000000000000000000000081526004016109fa906133b0565b60405180910390fd5b6000600260008a81526020019081526020016000208867ffffffffffffffff1681548110610a3457610a336137ab565b5b9060005260206000209060050201905060005b87879050811015610b16576000801b8260010160008a8a85818110610a6f57610a6e6137ab565b5b9050602002016020810190610a8491906128eb565b73ffffffffffffffffffffffffffffffffffffffff1673ffffffffffffffffffffffffffffffffffffffff168152602001908152602001600020600001541415610b03576040517f08c379a0000000000000000000000000000000000000000000000000000000008152600401610afa906132f0565b60405180910390fd5b8080610b0e906136d5565b915050610a47565b5043816003018190555060018160000160106101000a81548160ff02191690836003811115610b4857610b4761374d565b5b02179055507f25b2b0a6205a2793a55299d05c21fb9163d38054d6966d101c156acdc2d7c92f89898989604051610b829493929190613210565b60405180910390a1505050505050505050565b8383600060026000848152602001908152602001600020905060018180549050118015610bdb57508167ffffffffffffffff1660018280549050610bd99190613592565b145b610c1a576040517f08c379a0000000000000000000000000000000000000000000000000000000008152600401610c1190613350565b60405180910390fd5b610100858590501115610c2c57600080fd5b60006003600089815260200190815260200160002090508667ffffffffffffffff1681805490501415610c7657806001816001815401808255809150500390600052602060002050505b6000818867ffffffffffffffff1681548110610c9557610c946137ab565b5b90600052602060002001905086868260000160003373ffffffffffffffffffffffffffffffffffffffff1673ffffffffffffffffffffffffffffffffffffffff1681526020019081526020016000206001019190610cf4929190612587565b50505050505050505050565b610d0861260d565b8282600060026000848152602001908152602001600020905060018180549050118015610d4e57508167ffffffffffffffff1660018280549050610d4c9190613592565b145b610d8d576040517f08c379a0000000000000000000000000000000000000000000000000000000008152600401610d8490613350565b60405180910390fd5b6000600260008881526020019081526020016000208667ffffffffffffffff1681548110610dbe57610dbd6137ab565b5b906000526020600020906005020190506040518061010001604052808260000160009054906101000a900467ffffffffffffffff1667ffffffffffffffff1681526020018260000160089054906101000a900463ffffffff1663ffffffff16815260200182600001600c9054906101000a900463ffffffff1663ffffffff1681526020018260000160109054906101000a900460ff166003811115610e6657610e6561374d565b5b815260200182600201548152602001826003015481526020018260040160009054906101000a900463ffffffff1663ffffffff1681526020018260040160049054906101000a900463ffffffff1663ffffffff1681525094505050505092915050565b833373ffffffffffffffffffffffffffffffffffffffff166001600083815260200190815260200160002060000160009054906101000a900473ffffffffffffffffffffffffffffffffffffffff1673ffffffffffffffffffffffffffffffffffffffff1614610f6e576040517f08c379a0000000000000000000000000000000000000000000000000000000008152600401610f6590613330565b60405180910390fd5b8484600060026000848152602001908152602001600020905060018180549050118015610fb457508167ffffffffffffffff1660018280549050610fb29190613592565b145b610ff3576040517f08c379a0000000000000000000000000000000000000000000000000000000008152600401610fea90613350565b60405180910390fd5b6000600260008a81526020019081526020016000208867ffffffffffffffff1681548110611024576110236137ab565b5b90600052602060002090600502019050600160038111156110485761104761374d565b5b8160000160109054906101000a900460ff16600381111561106c5761106b61374d565b5b146110ac576040517f08c379a00000000000000000000000000000000000000000000000000000000081526004016110a3906132d0565b60405180910390fd5b60028160000160106101000a81548160ff021916908360038111156110d4576110d361374d565b5b021790555060005b878790508110156111ab576000801b8260010160008a8a85818110611104576111036137ab565b5b905060200201602081019061111991906128eb565b73ffffffffffffffffffffffffffffffffffffffff1673ffffffffffffffffffffffffffffffffffffffff168152602001908152602001600020600001541415611198576040517f08c379a000000000000000000000000000000000000000000000000000000000815260040161118f906132f0565b60405180910390fd5b80806111a3906136d5565b9150506110dc565b507f0e9b6e97e583a9f4137be5009bedbe0cdcaf72235c0be7f89471b9a02e27b821898989896040516111e19493929190613210565b60405180910390a1505050505050505050565b85600073ffffffffffffffffffffffffffffffffffffffff166001600083815260200190815260200160002060000160009054906101000a900473ffffffffffffffffffffffffffffffffffffffff1673ffffffffffffffffffffffffffffffffffffffff16141561129b576040517f08c379a000000000000000000000000000000000000000000000000000000000815260040161129290613390565b60405180910390fd5b863373ffffffffffffffffffffffffffffffffffffffff166001600083815260200190815260200160002060000160009054906101000a900473ffffffffffffffffffffffffffffffffffffffff1673ffffffffffffffffffffffffffffffffffffffff1614611340576040517f08c379a000000000000000000000000000000000000000000000000000000000815260040161133790613330565b60405180910390fd5b6000600260008a815260200190815260200160002090508767ffffffffffffffff168180549050146113a7576040517f08c379a000000000000000000000000000000000000000000000000000000000815260040161139e906132b0565b60405180910390fd5b6000600160008b81526020019081526020016000209050888160030160006101000a81548167ffffffffffffffff021916908367ffffffffffffffff160217905550816001816001815401808255809150500390600052602060002090505088828a67ffffffffffffffff1681548110611424576114236137ab565b5b906000526020600020906005020160000160006101000a81548167ffffffffffffffff021916908367ffffffffffffffff16021790555087828a67ffffffffffffffff1681548110611479576114786137ab565b5b906000526020600020906005020160000160086101000a81548163ffffffff021916908363ffffffff16021790555086828a67ffffffffffffffff16815481106114c6576114c56137ab565b5b9060005260206000209060050201600001600c6101000a81548163ffffffff021916908363ffffffff1602179055506000828a67ffffffffffffffff1681548110611514576115136137ab565b5b906000526020600020906005020160000160106101000a81548160ff021916908360038111156115475761154661374d565b5b021790555043828a67ffffffffffffffff168154811061156a576115696137ab565b5b9060005260206000209060050201600201819055506000828a67ffffffffffffffff168154811061159e5761159d6137ab565b5b90600052602060002090600502016003018190555085828a67ffffffffffffffff16815481106115d1576115d06137ab565b5b906000526020600020906005020160040160006101000a81548163ffffffff021916908363ffffffff16021790555084828a67ffffffffffffffff168154811061161e5761161d6137ab565b5b906000526020600020906005020160040160046101000a81548163ffffffff021916908363ffffffff1602179055506000600360008c81526020019081526020016000209050806001816001815401808255809150500390600052602060002050507f442bd58918c05fbba21640a63d950e0ada0c085917a5c785fe24d66608972bd98b8b6040516116b19291906131e7565b60405180910390a15050505050505050505050565b6116ce612686565b81600073ffffffffffffffffffffffffffffffffffffffff166001600083815260200190815260200160002060000160009054906101000a900473ffffffffffffffffffffffffffffffffffffffff1673ffffffffffffffffffffffffffffffffffffffff161415611775576040517f08c379a000000000000000000000000000000000000000000000000000000000815260040161176c90613390565b60405180910390fd5b600160008481526020019081526020016000206040518060800160405290816000820160009054906101000a900473ffffffffffffffffffffffffffffffffffffffff1673ffffffffffffffffffffffffffffffffffffffff1673ffffffffffffffffffffffffffffffffffffffff1681526020016001820180546117f9906136a3565b80601f0160208091040260200160405190810160405280929190818152602001828054611825906136a3565b80156118725780601f1061184757610100808354040283529160200191611872565b820191906000526020600020905b81548152906001019060200180831161185557829003601f168201915b50505050508152602001600282015481526020016003820160009054906101000a900467ffffffffffffffff1667ffffffffffffffff1667ffffffffffffffff1681525050915050919050565b838360006002600084815260200190815260200160002090506001818054905011801561190557508167ffffffffffffffff16600182805490506119039190613592565b145b611944576040517f08c379a000000000000000000000000000000000000000000000000000000000815260040161193b90613350565b60405180910390fd5b62a00000858590501061195657600080fd5b6000600260008981526020019081526020016000208767ffffffffffffffff1681548110611987576119866137ab565b5b90600052602060002090600502019050600160038111156119ab576119aa61374d565b5b8160000160109054906101000a900460ff1660038111156119cf576119ce61374d565b5b14611a0f576040517f08c379a0000000000000000000000000000000000000000000000000000000008152600401611a06906132d0565b60405180910390fd5b438160040160049054906101000a900463ffffffff1663ffffffff168260030154611a3a919061353c565b1015611a7b576040517f08c379a0000000000000000000000000000000000000000000000000000000008152600401611a7290613370565b60405180910390fd5b6000600360008a815260200190815260200160002090508767ffffffffffffffff1681805490501415611ac557806001816001815401808255809150500390600052602060002050505b6000818967ffffffffffffffff1681548110611ae457611ae36137ab565b5b90600052602060002001905087878260000160003373ffffffffffffffffffffffffffffffffffffffff1673ffffffffffffffffffffffffffffffffffffffff1681526020019081526020016000206000019190611b43929190612587565b5050505050505050505050565b6000804233868686604051602001611b6c959493929190613466565b60405160208183030381529060405280519060200120905060405180608001604052803373ffffffffffffffffffffffffffffffffffffffff16815260200186868080601f016020809104026020016040519081016040528093929190818152602001838380828437600081840152601f19601f820116905080830192505050505050508152602001848152602001600067ffffffffffffffff168152506001600083815260200190815260200160002060008201518160000160006101000a81548173ffffffffffffffffffffffffffffffffffffffff021916908373ffffffffffffffffffffffffffffffffffffffff1602179055506020820151816001019080519060200190611c809291906126d1565b506040820151816002015560608201518160030160006101000a81548167ffffffffffffffff021916908367ffffffffffffffff160217905550905050809150600060026000848152602001908152602001600020905080600181600181540180825580915050039060005260206000209050503373ffffffffffffffffffffffffffffffffffffffff167f1a64b92f645be2ae2d4de1a08511156f5d99c785ae1b03a6636a7ee0c1cabd2a83888888604051611d4094939291906131a7565b60405180910390a250509392505050565b611d59612757565b8382600060026000848152602001908152602001600020905060018180549050118015611d9f57508167ffffffffffffffff1660018280549050611d9d9190613592565b145b611dde576040517f08c379a0000000000000000000000000000000000000000000000000000000008152600401611dd590613350565b60405180910390fd5b868560006003600084815260200190815260200160002090508167ffffffffffffffff16818054905011611e47576040517f08c379a0000000000000000000000000000000000000000000000000000000008152600401611e3e90613290565b60405180910390fd5b6000600360008c815260200190815260200160002090508867ffffffffffffffff1681805490501015611eaf576040517f08c379a0000000000000000000000000000000000000000000000000000000008152600401611ea690613290565b60405180910390fd5b6000818a67ffffffffffffffff1681548110611ece57611ecd6137ab565b5b9060005260206000200190508060000160008c73ffffffffffffffffffffffffffffffffffffffff1673ffffffffffffffffffffffffffffffffffffffff168152602001908152602001600020604051806060016040529081600082018054611f36906136a3565b80601f0160208091040260200160405190810160405280929190818152602001828054611f62906136a3565b8015611faf5780601f10611f8457610100808354040283529160200191611faf565b820191906000526020600020905b815481529060010190602001808311611f9257829003601f168201915b50505050508152602001600182018054611fc8906136a3565b80601f0160208091040260200160405190810160405280929190818152602001828054611ff4906136a3565b80156120415780601f1061201657610100808354040283529160200191612041565b820191906000526020600020905b81548152906001019060200180831161202457829003601f168201915b5050505050815260200160028201805461205a906136a3565b80601f0160208091040260200160405190810160405280929190818152602001828054612086906136a3565b80156120d35780601f106120a8576101008083540402835291602001916120d3565b820191906000526020600020905b8154815290600101906020018083116120b657829003601f168201915b505050505081525050985050505050505050509392505050565b60008060009054906101000a900473ffffffffffffffffffffffffffffffffffffffff16905090565b60008054906101000a900473ffffffffffffffffffffffffffffffffffffffff1673ffffffffffffffffffffffffffffffffffffffff163373ffffffffffffffffffffffffffffffffffffffff16146121a4576040517f08c379a000000000000000000000000000000000000000000000000000000000815260040161219b90613250565b60405180910390fd5b8073ffffffffffffffffffffffffffffffffffffffff1660008054906101000a900473ffffffffffffffffffffffffffffffffffffffff1673ffffffffffffffffffffffffffffffffffffffff167f342827c97908e5e2f71151c08502a66d44b6f758e3ac2f1de95f02eb95f0a73560405160405180910390a3806000806101000a81548173ffffffffffffffffffffffffffffffffffffffff021916908373ffffffffffffffffffffffffffffffffffffffff16021790555050565b600084600073ffffffffffffffffffffffffffffffffffffffff166001600083815260200190815260200160002060000160009054906101000a900473ffffffffffffffffffffffffffffffffffffffff1673ffffffffffffffffffffffffffffffffffffffff16141561230a576040517f08c379a000000000000000000000000000000000000000000000000000000000815260040161230190613390565b60405180910390fd5b858560006002600084815260200190815260200160002090506001818054905011801561235057508167ffffffffffffffff166001828054905061234e9190613592565b145b61238f576040517f08c379a000000000000000000000000000000000000000000000000000000000815260040161238690613350565b60405180910390fd5b6000600260008b81526020019081526020016000209050600081600183805490506123ba9190613592565b815481106123cb576123ca6137ab565b5b906000526020600020906005020190506000600160008d81526020019081526020016000209050438260040160009054906101000a900463ffffffff1663ffffffff16836002015461241d919061353c565b101561245e576040517f08c379a000000000000000000000000000000000000000000000000000000000815260040161245590613270565b60405180910390fd5b6000801b8260010160003373ffffffffffffffffffffffffffffffffffffffff1673ffffffffffffffffffffffffffffffffffffffff16815260200190815260200160002060000154146124e7576040517f08c379a00000000000000000000000000000000000000000000000000000000081526004016124de90613310565b60405180910390fd5b60405180604001604052808b81526020018a8152508260010160003373ffffffffffffffffffffffffffffffffffffffff1673ffffffffffffffffffffffffffffffffffffffff16815260200190815260200160002060008201518160000155602082015181600101559050506001975050505050505050949350505050565b604051806040016040528060008019168152602001600080191681525090565b828054612593906136a3565b90600052602060002090601f0160209004810192826125b557600085556125fc565b82601f106125ce57803560ff19168380011785556125fc565b828001600101855582156125fc579182015b828111156125fb5782358255916020019190600101906125e0565b5b5090506126099190612778565b5090565b604051806101000160405280600067ffffffffffffffff168152602001600063ffffffff168152602001600063ffffffff168152602001600060038111156126585761265761374d565b5b81526020016000815260200160008152602001600063ffffffff168152602001600063ffffffff1681525090565b6040518060800160405280600073ffffffffffffffffffffffffffffffffffffffff1681526020016060815260200160008019168152602001600067ffffffffffffffff1681525090565b8280546126dd906136a3565b90600052602060002090601f0160209004810192826126ff5760008555612746565b82601f1061271857805160ff1916838001178555612746565b82800160010185558215612746579182015b8281111561274557825182559160200191906001019061272a565b5b5090506127539190612778565b5090565b60405180606001604052806060815260200160608152602001606081525090565b5b80821115612791576000816000905550600101612779565b5090565b6000813590506127a481613acb565b92915050565b60008083601f8401126127c0576127bf61380e565b5b8235905067ffffffffffffffff8111156127dd576127dc613809565b5b6020830191508360208202830111156127f9576127f8613813565b5b9250929050565b60008135905061280f81613ae2565b92915050565b60008083601f84011261282b5761282a61380e565b5b8235905067ffffffffffffffff81111561284857612847613809565b5b60208301915083600182028301111561286457612863613813565b5b9250929050565b60008083601f8401126128815761288061380e565b5b8235905067ffffffffffffffff81111561289e5761289d613809565b5b6020830191508360018202830111156128ba576128b9613813565b5b9250929050565b6000813590506128d081613af9565b92915050565b6000813590506128e581613b10565b92915050565b6000602082840312156129015761290061381d565b5b600061290f84828501612795565b91505092915050565b60006020828403121561292e5761292d61381d565b5b600061293c84828501612800565b91505092915050565b60008060006060848603121561295e5761295d61381d565b5b600061296c86828701612800565b935050602061297d86828701612795565b925050604061298e868287016128d6565b9150509250925092565b600080604083850312156129af576129ae61381d565b5b60006129bd85828601612800565b92505060206129ce858286016128d6565b9150509250929050565b6000806000606084860312156129f1576129f061381d565b5b60006129ff86828701612800565b9350506020612a10868287016128d6565b9250506040612a2186828701612795565b9150509250925092565b60008060008060608587031215612a4557612a4461381d565b5b6000612a5387828801612800565b9450506020612a64878288016128d6565b935050604085013567ffffffffffffffff811115612a8557612a84613818565b5b612a91878288016127aa565b925092505092959194509250565b60008060008060808587031215612ab957612ab861381d565b5b6000612ac787828801612800565b9450506020612ad8878288016128d6565b9350506040612ae987828801612800565b9250506060612afa87828801612800565b91505092959194509250565b60008060008060608587031215612b2057612b1f61381d565b5b6000612b2e87828801612800565b9450506020612b3f878288016128d6565b935050604085013567ffffffffffffffff811115612b6057612b5f613818565b5b612b6c87828801612815565b925092505092959194509250565b60008060008060008060c08789031215612b9757612b9661381d565b5b6000612ba589828a01612800565b9650506020612bb689828a016128d6565b9550506040612bc789828a016128c1565b9450506060612bd889828a016128c1565b9350506080612be989828a016128c1565b92505060a0612bfa89828a016128c1565b9150509295509295509295565b600080600060408486031215612c2057612c1f61381d565b5b600084013567ffffffffffffffff811115612c3e57612c3d613818565b5b612c4a8682870161286b565b93509350506020612c5d86828701612800565b9150509250925092565b6000612c738383612c7f565b60208301905092915050565b612c88816135c6565b82525050565b612c97816135c6565b82525050565b6000612ca983856134e1565b9350612cb4826134b4565b8060005b85811015612ced57612cca8284613525565b612cd48882612c67565b9750612cdf836134d4565b925050600181019050612cb8565b5085925050509392505050565b612d03816135d8565b82525050565b612d12816135e4565b82525050565b612d21816135e4565b82525050565b6000612d32826134be565b612d3c81856134f2565b9350612d4c818560208601613670565b612d5581613822565b840191505092915050565b612d698161364f565b82525050565b6000612d7b8385613514565b9350612d88838584613661565b612d9183613822565b840190509392505050565b6000612da7826134c9565b612db18185613503565b9350612dc1818560208601613670565b612dca81613822565b840191505092915050565b6000612de2601383613514565b9150612ded82613833565b602082019050919050565b6000612e05601883613514565b9150612e108261385c565b602082019050919050565b6000612e28601a83613514565b9150612e3382613885565b602082019050919050565b6000612e4b604283613514565b9150612e56826138ae565b606082019050919050565b6000612e6e601d83613514565b9150612e7982613923565b602082019050919050565b6000612e91601483613514565b9150612e9c8261394c565b602082019050919050565b6000612eb4602983613514565b9150612ebf82613975565b604082019050919050565b6000612ed7601d83613514565b9150612ee2826139c4565b602082019050919050565b6000612efa603683613514565b9150612f05826139ed565b604082019050919050565b6000612f1d601a83613514565b9150612f2882613a3c565b602082019050919050565b6000612f40600f83613514565b9150612f4b82613a65565b602082019050919050565b6000612f63601683613514565b9150612f6e82613a8e565b602082019050919050565b604082016000820151612f8f6000850182612d09565b506020820151612fa26020850182612d09565b50505050565b60006060830160008301518482036000860152612fc58282612d27565b91505060208301518482036020860152612fdf8282612d27565b91505060408301518482036040860152612ff98282612d27565b9150508091505092915050565b6101008201600082015161301d6000850182613138565b5060208201516130306020850182613129565b5060408201516130436040850182613129565b5060608201516130566060850182612d60565b506080820151613069608085018261310b565b5060a082015161307c60a085018261310b565b5060c082015161308f60c0850182613129565b5060e08201516130a260e0850182613129565b50505050565b60006080830160008301516130c06000860182612c7f565b50602083015184820360208601526130d88282612d9c565b91505060408301516130ed6040860182612d09565b5060608301516131006060860182613138565b508091505092915050565b61311481613621565b82525050565b61312381613621565b82525050565b6131328161362b565b82525050565b6131418161363b565b82525050565b6131508161363b565b82525050565b600060208201905061316b6000830184612c8e565b92915050565b60006020820190506131866000830184612cfa565b92915050565b60006020820190506131a16000830184612d18565b92915050565b60006060820190506131bc6000830187612d18565b81810360208301526131cf818587612d6f565b90506131de6040830184612d18565b95945050505050565b60006040820190506131fc6000830185612d18565b6132096020830184613147565b9392505050565b60006060820190506132256000830187612d18565b6132326020830186613147565b8181036040830152613245818486612c9d565b905095945050505050565b6000602082019050818103600083015261326981612dd5565b9050919050565b6000602082019050818103600083015261328981612df8565b9050919050565b600060208201905081810360008301526132a981612e1b565b9050919050565b600060208201905081810360008301526132c981612e3e565b9050919050565b600060208201905081810360008301526132e981612e61565b9050919050565b6000602082019050818103600083015261330981612e84565b9050919050565b6000602082019050818103600083015261332981612ea7565b9050919050565b6000602082019050818103600083015261334981612eca565b9050919050565b6000602082019050818103600083015261336981612eed565b9050919050565b6000602082019050818103600083015261338981612f10565b9050919050565b600060208201905081810360008301526133a981612f33565b9050919050565b600060208201905081810360008301526133c981612f56565b9050919050565b60006040820190506133e56000830184612f79565b92915050565b600060208201905081810360008301526134058184612fa8565b905092915050565b6000610100820190506134236000830184613006565b92915050565b6000602082019050818103600083015261344381846130a8565b905092915050565b6000602082019050613460600083018461311a565b92915050565b600060808201905061347b600083018861311a565b6134886020830187612c8e565b818103604083015261349b818587612d6f565b90506134aa6060830184612d18565b9695505050505050565b6000819050919050565b600081519050919050565b600081519050919050565b6000602082019050919050565b600082825260208201905092915050565b600082825260208201905092915050565b600082825260208201905092915050565b600082825260208201905092915050565b60006135346020840184612795565b905092915050565b600061354782613621565b915061355283613621565b9250827fffffffffffffffffffffffffffffffffffffffffffffffffffffffffffffffff038211156135875761358661371e565b5b828201905092915050565b600061359d82613621565b91506135a883613621565b9250828210156135bb576135ba61371e565b5b828203905092915050565b60006135d182613601565b9050919050565b60008115159050919050565b6000819050919050565b60008190506135fc82613ab7565b919050565b600073ffffffffffffffffffffffffffffffffffffffff82169050919050565b6000819050919050565b600063ffffffff82169050919050565b600067ffffffffffffffff82169050919050565b600061365a826135ee565b9050919050565b82818337600083830152505050565b60005b8381101561368e578082015181840152602081019050613673565b8381111561369d576000848401525b50505050565b600060028204905060018216806136bb57607f821691505b602082108114156136cf576136ce61377c565b5b50919050565b60006136e082613621565b91507fffffffffffffffffffffffffffffffffffffffffffffffffffffffffffffffff8214156137135761371261371e565b5b600182019050919050565b7f4e487b7100000000000000000000000000000000000000000000000000000000600052601160045260246000fd5b7f4e487b7100000000000000000000000000000000000000000000000000000000600052602160045260246000fd5b7f4e487b7100000000000000000000000000000000000000000000000000000000600052602260045260246000fd5b7f4e487b7100000000000000000000000000000000000000000000000000000000600052603260045260246000fd5b7f4e487b7100000000000000000000000000000000000000000000000000000000600052604160045260246000fd5b600080fd5b600080fd5b600080fd5b600080fd5b600080fd5b6000601f19601f8301169050919050565b7f43616c6c6572206973206e6f74206f776e657200000000000000000000000000600082015250565b7f4a6f696e20646561646c696e6520686173207061737365640000000000000000600082015250565b7f546865205461736b20526f756e64204d75737420657869737473000000000000600082015250565b7f74686520726f756e6420686173206265656e20616c726561647920737461727460008201527f6564206f72207468652070726520726f756e6420646f6573206e6f742065786960208201527f7374000000000000000000000000000000000000000000000000000000000000604082015250565b7f5468697320726f756e64206973206e6f742072756e6e696e67206e6f77000000600082015250565b7f43616e646964617465206d757374206578697374000000000000000000000000600082015250565b7f43616e6e6f74206a6f696e207468652073616d6520726f756e64206d756c746960008201527f706c652074696d65730000000000000000000000000000000000000000000000602082015250565b7f4d7573742063616c6c656420627920746865207461736b206f776e6572000000600082015250565b7f7468697320726f756e64206861732066696e6973686564206f7220697420686160008201527f736e2774206265656e2073746172746564207965742e00000000000000000000602082015250565b7f75706c6f616420646561646c696e652068617320706173736564000000000000600082015250565b7f5461736b206e6f74206578697374730000000000000000000000000000000000600082015250565b7f4d7573742070726f766964652061646472657373657300000000000000000000600082015250565b60048110613ac857613ac761374d565b5b50565b613ad4816135c6565b8114613adf57600080fd5b50565b613aeb816135e4565b8114613af657600080fd5b50565b613b028161362b565b8114613b0d57600080fd5b50565b613b198161363b565b8114613b2457600080fd5b5056fea26469706673582212209a1e1772c7697658af17b19b52f6491a02a951cf51c1c87a66a0a6c718f9260764736f6c63430008070033",
			"opcodes": "PUSH1 0x80 PUSH1 0x40 MSTORE CALLVALUE DUP1 ISZERO PUSH2 0x10 JUMPI PUSH1 0x0 DUP1 REVERT JUMPDEST POP CALLER PUSH1 0x0 DUP1 PUSH2 0x100 EXP DUP2 SLOAD DUP2 PUSH20 0xFFFFFFFFFFFFFFFFFFFFFFFFFFFFFFFFFFFFFFFF MUL NOT AND SWAP1 DUP4 PUSH20 0xFFFFFFFFFFFFFFFFFFFFFFFFFFFFFFFFFFFFFFFF AND MUL OR SWAP1 SSTORE POP PUSH1 0x0 DUP1 SLOAD SWAP1 PUSH2 0x100 EXP SWAP1 DIV PUSH20 0xFFFFFFFFFFFFFFFFFFFFFFFFFFFFFFFFFFFFFFFF AND PUSH20 0xFFFFFFFFFFFFFFFFFFFFFFFFFFFFFFFFFFFFFFFF AND PUSH1 0x0 PUSH20 0xFFFFFFFFFFFFFFFFFFFFFFFFFFFFFFFFFFFFFFFF AND PUSH32 0x342827C97908E5E2F71151C08502A66D44B6F758E3AC2F1DE95F02EB95F0A735 PUSH1 0x40 MLOAD PUSH1 0x40 MLOAD DUP1 SWAP2 SUB SWAP1 LOG3 PUSH2 0x3B5D DUP1 PUSH2 0xDB PUSH1 0x0 CODECOPY PUSH1 0x0 RETURN INVALID PUSH1 0x80 PUSH1 0x40 MSTORE PUSH1 0x4 CALLDATASIZE LT PUSH2 0xF3 JUMPI PUSH1 0x0 CALLDATALOAD PUSH1 0xE0 SHR DUP1 PUSH4 0x57C91B95 GT PUSH2 0x8A JUMPI DUP1 PUSH4 0x8750745E GT PUSH2 0x59 JUMPI DUP1 PUSH4 0x8750745E EQ PUSH2 0x329 JUMPI DUP1 PUSH4 0x893D20E8 EQ PUSH2 0x366 JUMPI DUP1 PUSH4 0xA6F9DAE1 EQ PUSH2 0x391 JUMPI DUP1 PUSH4 0xBDF666A4 EQ PUSH2 0x3BA JUMPI PUSH2 0xF3 JUMP JUMPDEST DUP1 PUSH4 0x57C91B95 EQ PUSH2 0x26A JUMPI DUP1 PUSH4 0x58AF9F73 EQ PUSH2 0x293 JUMPI DUP1 PUSH4 0x68F14ACF EQ PUSH2 0x2D0 JUMPI DUP1 PUSH4 0x75CB2A0E EQ PUSH2 0x2F9 JUMPI PUSH2 0xF3 JUMP JUMPDEST DUP1 PUSH4 0x41E865CB GT PUSH2 0xC6 JUMPI DUP1 PUSH4 0x41E865CB EQ PUSH2 0x1B2 JUMPI DUP1 PUSH4 0x456523E2 EQ PUSH2 0x1DB JUMPI DUP1 PUSH4 0x4893B362 EQ PUSH2 0x204 JUMPI DUP1 PUSH4 0x4956219B EQ PUSH2 0x241 JUMPI PUSH2 0xF3 JUMP JUMPDEST DUP1 PUSH4 0x1BD7269 EQ PUSH2 0xF8 JUMPI DUP1 PUSH4 0x12AB8B87 EQ PUSH2 0x121 JUMPI DUP1 PUSH4 0x1449F4DE EQ PUSH2 0x14C JUMPI DUP1 PUSH4 0x20F0672C EQ PUSH2 0x189 JUMPI JUMPDEST PUSH1 0x0 DUP1 REVERT JUMPDEST CALLVALUE DUP1 ISZERO PUSH2 0x104 JUMPI PUSH1 0x0 DUP1 REVERT JUMPDEST POP PUSH2 0x11F PUSH1 0x4 DUP1 CALLDATASIZE SUB DUP2 ADD SWAP1 PUSH2 0x11A SWAP2 SWAP1 PUSH2 0x2998 JUMP JUMPDEST PUSH2 0x3F7 JUMP JUMPDEST STOP JUMPDEST CALLVALUE DUP1 ISZERO PUSH2 0x12D JUMPI PUSH1 0x0 DUP1 REVERT JUMPDEST POP PUSH2 0x136 PUSH2 0x598 JUMP JUMPDEST PUSH1 0x40 MLOAD PUSH2 0x143 SWAP2 SWAP1 PUSH2 0x344B JUMP JUMPDEST PUSH1 0x40 MLOAD DUP1 SWAP2 SUB SWAP1 RETURN JUMPDEST CALLVALUE DUP1 ISZERO PUSH2 0x158 JUMPI PUSH1 0x0 DUP1 REVERT JUMPDEST POP PUSH2 0x173 PUSH1 0x4 DUP1 CALLDATASIZE SUB DUP2 ADD SWAP1 PUSH2 0x16E SWAP2 SWAP1 PUSH2 0x29D8 JUMP JUMPDEST PUSH2 0x5F3 JUMP JUMPDEST PUSH1 0x40 MLOAD PUSH2 0x180 SWAP2 SWAP1 PUSH2 0x33D0 JUMP JUMPDEST PUSH1 0x40 MLOAD DUP1 SWAP2 SUB SWAP1 RETURN JUMPDEST CALLVALUE DUP1 ISZERO PUSH2 0x195 JUMPI PUSH1 0x0 DUP1 REVERT JUMPDEST POP PUSH2 0x1B0 PUSH1 0x4 DUP1 CALLDATASIZE SUB DUP2 ADD SWAP1 PUSH2 0x1AB SWAP2 SWAP1 PUSH2 0x2B06 JUMP JUMPDEST PUSH2 0x728 JUMP JUMPDEST STOP JUMPDEST CALLVALUE DUP1 ISZERO PUSH2 0x1BE JUMPI PUSH1 0x0 DUP1 REVERT JUMPDEST POP PUSH2 0x1D9 PUSH1 0x4 DUP1 CALLDATASIZE SUB DUP2 ADD SWAP1 PUSH2 0x1D4 SWAP2 SWAP1 PUSH2 0x2A2B JUMP JUMPDEST PUSH2 0x893 JUMP JUMPDEST STOP JUMPDEST CALLVALUE DUP1 ISZERO PUSH2 0x1E7 JUMPI PUSH1 0x0 DUP1 REVERT JUMPDEST POP PUSH2 0x202 PUSH1 0x4 DUP1 CALLDATASIZE SUB DUP2 ADD SWAP1 PUSH2 0x1FD SWAP2 SWAP1 PUSH2 0x2B06 JUMP JUMPDEST PUSH2 0xB95 JUMP JUMPDEST STOP JUMPDEST CALLVALUE DUP1 ISZERO PUSH2 0x210 JUMPI PUSH1 0x0 DUP1 REVERT JUMPDEST POP PUSH2 0x22B PUSH1 0x4 DUP1 CALLDATASIZE SUB DUP2 ADD SWAP1 PUSH2 0x226 SWAP2 SWAP1 PUSH2 0x2998 JUMP JUMPDEST PUSH2 0xD00 JUMP JUMPDEST PUSH1 0x40 MLOAD PUSH2 0x238 SWAP2 SWAP1 PUSH2 0x340D JUMP JUMPDEST PUSH1 0x40 MLOAD DUP1 SWAP2 SUB SWAP1 RETURN JUMPDEST CALLVALUE DUP1 ISZERO PUSH2 0x24D JUMPI PUSH1 0x0 DUP1 REVERT JUMPDEST POP PUSH2 0x268 PUSH1 0x4 DUP1 CALLDATASIZE SUB DUP2 ADD SWAP1 PUSH2 0x263 SWAP2 SWAP1 PUSH2 0x2A2B JUMP JUMPDEST PUSH2 0xEC9 JUMP JUMPDEST STOP JUMPDEST CALLVALUE DUP1 ISZERO PUSH2 0x276 JUMPI PUSH1 0x0 DUP1 REVERT JUMPDEST POP PUSH2 0x291 PUSH1 0x4 DUP1 CALLDATASIZE SUB DUP2 ADD SWAP1 PUSH2 0x28C SWAP2 SWAP1 PUSH2 0x2B7A JUMP JUMPDEST PUSH2 0x11F4 JUMP JUMPDEST STOP JUMPDEST CALLVALUE DUP1 ISZERO PUSH2 0x29F JUMPI PUSH1 0x0 DUP1 REVERT JUMPDEST POP PUSH2 0x2BA PUSH1 0x4 DUP1 CALLDATASIZE SUB DUP2 ADD SWAP1 PUSH2 0x2B5 SWAP2 SWAP1 PUSH2 0x2918 JUMP JUMPDEST PUSH2 0x16C6 JUMP JUMPDEST PUSH1 0x40 MLOAD PUSH2 0x2C7 SWAP2 SWAP1 PUSH2 0x3429 JUMP JUMPDEST PUSH1 0x40 MLOAD DUP1 SWAP2 SUB SWAP1 RETURN JUMPDEST CALLVALUE DUP1 ISZERO PUSH2 0x2DC JUMPI PUSH1 0x0 DUP1 REVERT JUMPDEST POP PUSH2 0x2F7 PUSH1 0x4 DUP1 CALLDATASIZE SUB DUP2 ADD SWAP1 PUSH2 0x2F2 SWAP2 SWAP1 PUSH2 0x2B06 JUMP JUMPDEST PUSH2 0x18BF JUMP JUMPDEST STOP JUMPDEST PUSH2 0x313 PUSH1 0x4 DUP1 CALLDATASIZE SUB DUP2 ADD SWAP1 PUSH2 0x30E SWAP2 SWAP1 PUSH2 0x2C07 JUMP JUMPDEST PUSH2 0x1B50 JUMP JUMPDEST PUSH1 0x40 MLOAD PUSH2 0x320 SWAP2 SWAP1 PUSH2 0x318C JUMP JUMPDEST PUSH1 0x40 MLOAD DUP1 SWAP2 SUB SWAP1 RETURN JUMPDEST CALLVALUE DUP1 ISZERO PUSH2 0x335 JUMPI PUSH1 0x0 DUP1 REVERT JUMPDEST POP PUSH2 0x350 PUSH1 0x4 DUP1 CALLDATASIZE SUB DUP2 ADD SWAP1 PUSH2 0x34B SWAP2 SWAP1 PUSH2 0x2945 JUMP JUMPDEST PUSH2 0x1D51 JUMP JUMPDEST PUSH1 0x40 MLOAD PUSH2 0x35D SWAP2 SWAP1 PUSH2 0x33EB JUMP JUMPDEST PUSH1 0x40 MLOAD DUP1 SWAP2 SUB SWAP1 RETURN JUMPDEST CALLVALUE DUP1 ISZERO PUSH2 0x372 JUMPI PUSH1 0x0 DUP1 REVERT JUMPDEST POP PUSH2 0x37B PUSH2 0x20ED JUMP JUMPDEST PUSH1 0x40 MLOAD PUSH2 0x388 SWAP2 SWAP1 PUSH2 0x3156 JUMP JUMPDEST PUSH1 0x40 MLOAD DUP1 SWAP2 SUB SWAP1 RETURN JUMPDEST CALLVALUE DUP1 ISZERO PUSH2 0x39D JUMPI PUSH1 0x0 DUP1 REVERT JUMPDEST POP PUSH2 0x3B8 PUSH1 0x4 DUP1 CALLDATASIZE SUB DUP2 ADD SWAP1 PUSH2 0x3B3 SWAP2 SWAP1 PUSH2 0x28EB JUMP JUMPDEST PUSH2 0x2116 JUMP JUMPDEST STOP JUMPDEST CALLVALUE DUP1 ISZERO PUSH2 0x3C6 JUMPI PUSH1 0x0 DUP1 REVERT JUMPDEST POP PUSH2 0x3E1 PUSH1 0x4 DUP1 CALLDATASIZE SUB DUP2 ADD SWAP1 PUSH2 0x3DC SWAP2 SWAP1 PUSH2 0x2A9F JUMP JUMPDEST PUSH2 0x2261 JUMP JUMPDEST PUSH1 0x40 MLOAD PUSH2 0x3EE SWAP2 SWAP1 PUSH2 0x3171 JUMP JUMPDEST PUSH1 0x40 MLOAD DUP1 SWAP2 SUB SWAP1 RETURN JUMPDEST DUP2 CALLER PUSH20 0xFFFFFFFFFFFFFFFFFFFFFFFFFFFFFFFFFFFFFFFF AND PUSH1 0x1 PUSH1 0x0 DUP4 DUP2 MSTORE PUSH1 0x20 ADD SWAP1 DUP2 MSTORE PUSH1 0x20 ADD PUSH1 0x0 KECCAK256 PUSH1 0x0 ADD PUSH1 0x0 SWAP1 SLOAD SWAP1 PUSH2 0x100 EXP SWAP1 DIV PUSH20 0xFFFFFFFFFFFFFFFFFFFFFFFFFFFFFFFFFFFFFFFF AND PUSH20 0xFFFFFFFFFFFFFFFFFFFFFFFFFFFFFFFFFFFFFFFF AND EQ PUSH2 0x49C JUMPI PUSH1 0x40 MLOAD PUSH32 0x8C379A000000000000000000000000000000000000000000000000000000000 DUP2 MSTORE PUSH1 0x4 ADD PUSH2 0x493 SWAP1 PUSH2 0x3330 JUMP JUMPDEST PUSH1 0x40 MLOAD DUP1 SWAP2 SUB SWAP1 REVERT JUMPDEST DUP3 DUP3 PUSH1 0x0 PUSH1 0x2 PUSH1 0x0 DUP5 DUP2 MSTORE PUSH1 0x20 ADD SWAP1 DUP2 MSTORE PUSH1 0x20 ADD PUSH1 0x0 KECCAK256 SWAP1 POP PUSH1 0x1 DUP2 DUP1 SLOAD SWAP1 POP GT DUP1 ISZERO PUSH2 0x4E2 JUMPI POP DUP2 PUSH8 0xFFFFFFFFFFFFFFFF AND PUSH1 0x1 DUP3 DUP1 SLOAD SWAP1 POP PUSH2 0x4E0 SWAP2 SWAP1 PUSH2 0x3592 JUMP JUMPDEST EQ JUMPDEST PUSH2 0x521 JUMPI PUSH1 0x40 MLOAD PUSH32 0x8C379A000000000000000000000000000000000000000000000000000000000 DUP2 MSTORE PUSH1 0x4 ADD PUSH2 0x518 SWAP1 PUSH2 0x3350 JUMP JUMPDEST PUSH1 0x40 MLOAD DUP1 SWAP2 SUB SWAP1 REVERT JUMPDEST PUSH1 0x0 PUSH1 0x2 PUSH1 0x0 DUP9 DUP2 MSTORE PUSH1 0x20 ADD SWAP1 DUP2 MSTORE PUSH1 0x20 ADD PUSH1 0x0 KECCAK256 DUP7 PUSH8 0xFFFFFFFFFFFFFFFF AND DUP2 SLOAD DUP2 LT PUSH2 0x552 JUMPI PUSH2 0x551 PUSH2 0x37AB JUMP JUMPDEST JUMPDEST SWAP1 PUSH1 0x0 MSTORE PUSH1 0x20 PUSH1 0x0 KECCAK256 SWAP1 PUSH1 0x5 MUL ADD SWAP1 POP PUSH1 0x3 DUP2 PUSH1 0x0 ADD PUSH1 0x10 PUSH2 0x100 EXP DUP2 SLOAD DUP2 PUSH1 0xFF MUL NOT AND SWAP1 DUP4 PUSH1 0x3 DUP2 GT ISZERO PUSH2 0x58A JUMPI PUSH2 0x589 PUSH2 0x374D JUMP JUMPDEST JUMPDEST MUL OR SWAP1 SSTORE POP POP POP POP POP POP POP POP JUMP JUMPDEST PUSH1 0x0 DUP1 PUSH1 0x1 PUSH8 0xFFFFFFFFFFFFFFFF DUP2 GT ISZERO PUSH2 0x5B6 JUMPI PUSH2 0x5B5 PUSH2 0x37DA JUMP JUMPDEST JUMPDEST PUSH1 0x40 MLOAD SWAP1 DUP1 DUP3 MSTORE DUP1 PUSH1 0x1F ADD PUSH1 0x1F NOT AND PUSH1 0x20 ADD DUP3 ADD PUSH1 0x40 MSTORE DUP1 ISZERO PUSH2 0x5E8 JUMPI DUP2 PUSH1 0x20 ADD PUSH1 0x1 DUP3 MUL DUP1 CALLDATASIZE DUP4 CALLDATACOPY DUP1 DUP3 ADD SWAP2 POP POP SWAP1 POP JUMPDEST POP SWAP1 POP DUP1 MLOAD SWAP2 POP POP SWAP1 JUMP JUMPDEST PUSH2 0x5FB PUSH2 0x2567 JUMP JUMPDEST DUP4 DUP4 PUSH1 0x0 PUSH1 0x2 PUSH1 0x0 DUP5 DUP2 MSTORE PUSH1 0x20 ADD SWAP1 DUP2 MSTORE PUSH1 0x20 ADD PUSH1 0x0 KECCAK256 SWAP1 POP PUSH1 0x1 DUP2 DUP1 SLOAD SWAP1 POP GT DUP1 ISZERO PUSH2 0x641 JUMPI POP DUP2 PUSH8 0xFFFFFFFFFFFFFFFF AND PUSH1 0x1 DUP3 DUP1 SLOAD SWAP1 POP PUSH2 0x63F SWAP2 SWAP1 PUSH2 0x3592 JUMP JUMPDEST EQ JUMPDEST PUSH2 0x680 JUMPI PUSH1 0x40 MLOAD PUSH32 0x8C379A000000000000000000000000000000000000000000000000000000000 DUP2 MSTORE PUSH1 0x4 ADD PUSH2 0x677 SWAP1 PUSH2 0x3350 JUMP JUMPDEST PUSH1 0x40 MLOAD DUP1 SWAP2 SUB SWAP1 REVERT JUMPDEST PUSH1 0x2 PUSH1 0x0 DUP9 DUP2 MSTORE PUSH1 0x20 ADD SWAP1 DUP2 MSTORE PUSH1 0x20 ADD PUSH1 0x0 KECCAK256 DUP7 PUSH8 0xFFFFFFFFFFFFFFFF AND DUP2 SLOAD DUP2 LT PUSH2 0x6AF JUMPI PUSH2 0x6AE PUSH2 0x37AB JUMP JUMPDEST JUMPDEST SWAP1 PUSH1 0x0 MSTORE PUSH1 0x20 PUSH1 0x0 KECCAK256 SWAP1 PUSH1 0x5 MUL ADD PUSH1 0x1 ADD PUSH1 0x0 DUP7 PUSH20 0xFFFFFFFFFFFFFFFFFFFFFFFFFFFFFFFFFFFFFFFF AND PUSH20 0xFFFFFFFFFFFFFFFFFFFFFFFFFFFFFFFFFFFFFFFF AND DUP2 MSTORE PUSH1 0x20 ADD SWAP1 DUP2 MSTORE PUSH1 0x20 ADD PUSH1 0x0 KECCAK256 PUSH1 0x40 MLOAD DUP1 PUSH1 0x40 ADD PUSH1 0x40 MSTORE SWAP1 DUP2 PUSH1 0x0 DUP3 ADD SLOAD DUP2 MSTORE PUSH1 0x20 ADD PUSH1 0x1 DUP3 ADD SLOAD DUP2 MSTORE POP POP SWAP4 POP POP POP POP SWAP4 SWAP3 POP POP POP JUMP JUMPDEST DUP4 DUP4 PUSH1 0x0 PUSH1 0x2 PUSH1 0x0 DUP5 DUP2 MSTORE PUSH1 0x20 ADD SWAP1 DUP2 MSTORE PUSH1 0x20 ADD PUSH1 0x0 KECCAK256 SWAP1 POP PUSH1 0x1 DUP2 DUP1 SLOAD SWAP1 POP GT DUP1 ISZERO PUSH2 0x76E JUMPI POP DUP2 PUSH8 0xFFFFFFFFFFFFFFFF AND PUSH1 0x1 DUP3 DUP1 SLOAD SWAP1 POP PUSH2 0x76C SWAP2 SWAP1 PUSH2 0x3592 JUMP JUMPDEST EQ JUMPDEST PUSH2 0x7AD JUMPI PUSH1 0x40 MLOAD PUSH32 0x8C379A000000000000000000000000000000000000000000000000000000000 DUP2 MSTORE PUSH1 0x4 ADD PUSH2 0x7A4 SWAP1 PUSH2 0x3350 JUMP JUMPDEST PUSH1 0x40 MLOAD DUP1 SWAP2 SUB SWAP1 REVERT JUMPDEST PUSH2 0x100 DUP6 DUP6 SWAP1 POP GT ISZERO PUSH2 0x7BF JUMPI PUSH1 0x0 DUP1 REVERT JUMPDEST PUSH1 0x0 PUSH1 0x3 PUSH1 0x0 DUP10 DUP2 MSTORE PUSH1 0x20 ADD SWAP1 DUP2 MSTORE PUSH1 0x20 ADD PUSH1 0x0 KECCAK256 SWAP1 POP DUP7 PUSH8 0xFFFFFFFFFFFFFFFF AND DUP2 DUP1 SLOAD SWAP1 POP EQ ISZERO PUSH2 0x809 JUMPI DUP1 PUSH1 0x1 DUP2 PUSH1 0x1 DUP2 SLOAD ADD DUP1 DUP3 SSTORE DUP1 SWAP2 POP POP SUB SWAP1 PUSH1 0x0 MSTORE PUSH1 0x20 PUSH1 0x0 KECCAK256 POP POP JUMPDEST PUSH1 0x0 DUP2 DUP9 PUSH8 0xFFFFFFFFFFFFFFFF AND DUP2 SLOAD DUP2 LT PUSH2 0x828 JUMPI PUSH2 0x827 PUSH2 0x37AB JUMP JUMPDEST JUMPDEST SWAP1 PUSH1 0x0 MSTORE PUSH1 0x20 PUSH1 0x0 KECCAK256 ADD SWAP1 POP DUP7 DUP7 DUP3 PUSH1 0x0 ADD PUSH1 0x0 CALLER PUSH20 0xFFFFFFFFFFFFFFFFFFFFFFFFFFFFFFFFFFFFFFFF AND PUSH20 0xFFFFFFFFFFFFFFFFFFFFFFFFFFFFFFFFFFFFFFFF AND DUP2 MSTORE PUSH1 0x20 ADD SWAP1 DUP2 MSTORE PUSH1 0x20 ADD PUSH1 0x0 KECCAK256 PUSH1 0x2 ADD SWAP2 SWAP1 PUSH2 0x887 SWAP3 SWAP2 SWAP1 PUSH2 0x2587 JUMP JUMPDEST POP POP POP POP POP POP POP POP POP POP JUMP JUMPDEST DUP4 CALLER PUSH20 0xFFFFFFFFFFFFFFFFFFFFFFFFFFFFFFFFFFFFFFFF AND PUSH1 0x1 PUSH1 0x0 DUP4 DUP2 MSTORE PUSH1 0x20 ADD SWAP1 DUP2 MSTORE PUSH1 0x20 ADD PUSH1 0x0 KECCAK256 PUSH1 0x0 ADD PUSH1 0x0 SWAP1 SLOAD SWAP1 PUSH2 0x100 EXP SWAP1 DIV PUSH20 0xFFFFFFFFFFFFFFFFFFFFFFFFFFFFFFFFFFFFFFFF AND PUSH20 0xFFFFFFFFFFFFFFFFFFFFFFFFFFFFFFFFFFFFFFFF AND EQ PUSH2 0x938 JUMPI PUSH1 0x40 MLOAD PUSH32 0x8C379A000000000000000000000000000000000000000000000000000000000 DUP2 MSTORE PUSH1 0x4 ADD PUSH2 0x92F SWAP1 PUSH2 0x3330 JUMP JUMPDEST PUSH1 0x40 MLOAD DUP1 SWAP2 SUB SWAP1 REVERT JUMPDEST DUP5 DUP5 PUSH1 0x0 PUSH1 0x2 PUSH1 0x0 DUP5 DUP2 MSTORE PUSH1 0x20 ADD SWAP1 DUP2 MSTORE PUSH1 0x20 ADD PUSH1 0x0 KECCAK256 SWAP1 POP PUSH1 0x1 DUP2 DUP1 SLOAD SWAP1 POP GT DUP1 ISZERO PUSH2 0x97E JUMPI POP DUP2 PUSH8 0xFFFFFFFFFFFFFFFF AND PUSH1 0x1 DUP3 DUP1 SLOAD SWAP1 POP PUSH2 0x97C SWAP2 SWAP1 PUSH2 0x3592 JUMP JUMPDEST EQ JUMPDEST PUSH2 0x9BD JUMPI PUSH1 0x40 MLOAD PUSH32 0x8C379A000000000000000000000000000000000000000000000000000000000 DUP2 MSTORE PUSH1 0x4 ADD PUSH2 0x9B4 SWAP1 PUSH2 0x3350 JUMP JUMPDEST PUSH1 0x40 MLOAD DUP1 SWAP2 SUB SWAP1 REVERT JUMPDEST PUSH1 0x0 DUP7 DUP7 SWAP1 POP GT PUSH2 0xA03 JUMPI PUSH1 0x40 MLOAD PUSH32 0x8C379A000000000000000000000000000000000000000000000000000000000 DUP2 MSTORE PUSH1 0x4 ADD PUSH2 0x9FA SWAP1 PUSH2 0x33B0 JUMP JUMPDEST PUSH1 0x40 MLOAD DUP1 SWAP2 SUB SWAP1 REVERT JUMPDEST PUSH1 0x0 PUSH1 0x2 PUSH1 0x0 DUP11 DUP2 MSTORE PUSH1 0x20 ADD SWAP1 DUP2 MSTORE PUSH1 0x20 ADD PUSH1 0x0 KECCAK256 DUP9 PUSH8 0xFFFFFFFFFFFFFFFF AND DUP2 SLOAD DUP2 LT PUSH2 0xA34 JUMPI PUSH2 0xA33 PUSH2 0x37AB JUMP JUMPDEST JUMPDEST SWAP1 PUSH1 0x0 MSTORE PUSH1 0x20 PUSH1 0x0 KECCAK256 SWAP1 PUSH1 0x5 MUL ADD SWAP1 POP PUSH1 0x0 JUMPDEST DUP8 DUP8 SWAP1 POP DUP2 LT ISZERO PUSH2 0xB16 JUMPI PUSH1 0x0 DUP1 SHL DUP3 PUSH1 0x1 ADD PUSH1 0x0 DUP11 DUP11 DUP6 DUP2 DUP2 LT PUSH2 0xA6F JUMPI PUSH2 0xA6E PUSH2 0x37AB JUMP JUMPDEST JUMPDEST SWAP1 POP PUSH1 0x20 MUL ADD PUSH1 0x20 DUP2 ADD SWAP1 PUSH2 0xA84 SWAP2 SWAP1 PUSH2 0x28EB JUMP JUMPDEST PUSH20 0xFFFFFFFFFFFFFFFFFFFFFFFFFFFFFFFFFFFFFFFF AND PUSH20 0xFFFFFFFFFFFFFFFFFFFFFFFFFFFFFFFFFFFFFFFF AND DUP2 MSTORE PUSH1 0x20 ADD SWAP1 DUP2 MSTORE PUSH1 0x20 ADD PUSH1 0x0 KECCAK256 PUSH1 0x0 ADD SLOAD EQ ISZERO PUSH2 0xB03 JUMPI PUSH1 0x40 MLOAD PUSH32 0x8C379A000000000000000000000000000000000000000000000000000000000 DUP2 MSTORE PUSH1 0x4 ADD PUSH2 0xAFA SWAP1 PUSH2 0x32F0 JUMP JUMPDEST PUSH1 0x40 MLOAD DUP1 SWAP2 SUB SWAP1 REVERT JUMPDEST DUP1 DUP1 PUSH2 0xB0E SWAP1 PUSH2 0x36D5 JUMP JUMPDEST SWAP2 POP POP PUSH2 0xA47 JUMP JUMPDEST POP NUMBER DUP2 PUSH1 0x3 ADD DUP2 SWAP1 SSTORE POP PUSH1 0x1 DUP2 PUSH1 0x0 ADD PUSH1 0x10 PUSH2 0x100 EXP DUP2 SLOAD DUP2 PUSH1 0xFF MUL NOT AND SWAP1 DUP4 PUSH1 0x3 DUP2 GT ISZERO PUSH2 0xB48 JUMPI PUSH2 0xB47 PUSH2 0x374D JUMP JUMPDEST JUMPDEST MUL OR SWAP1 SSTORE POP PUSH32 0x25B2B0A6205A2793A55299D05C21FB9163D38054D6966D101C156ACDC2D7C92F DUP10 DUP10 DUP10 DUP10 PUSH1 0x40 MLOAD PUSH2 0xB82 SWAP5 SWAP4 SWAP3 SWAP2 SWAP1 PUSH2 0x3210 JUMP JUMPDEST PUSH1 0x40 MLOAD DUP1 SWAP2 SUB SWAP1 LOG1 POP POP POP POP POP POP POP POP POP JUMP JUMPDEST DUP4 DUP4 PUSH1 0x0 PUSH1 0x2 PUSH1 0x0 DUP5 DUP2 MSTORE PUSH1 0x20 ADD SWAP1 DUP2 MSTORE PUSH1 0x20 ADD PUSH1 0x0 KECCAK256 SWAP1 POP PUSH1 0x1 DUP2 DUP1 SLOAD SWAP1 POP GT DUP1 ISZERO PUSH2 0xBDB JUMPI POP DUP2 PUSH8 0xFFFFFFFFFFFFFFFF AND PUSH1 0x1 DUP3 DUP1 SLOAD SWAP1 POP PUSH2 0xBD9 SWAP2 SWAP1 PUSH2 0x3592 JUMP JUMPDEST EQ JUMPDEST PUSH2 0xC1A JUMPI PUSH1 0x40 MLOAD PUSH32 0x8C379A000000000000000000000000000000000000000000000000000000000 DUP2 MSTORE PUSH1 0x4 ADD PUSH2 0xC11 SWAP1 PUSH2 0x3350 JUMP JUMPDEST PUSH1 0x40 MLOAD DUP1 SWAP2 SUB SWAP1 REVERT JUMPDEST PUSH2 0x100 DUP6 DUP6 SWAP1 POP GT ISZERO PUSH2 0xC2C JUMPI PUSH1 0x0 DUP1 REVERT JUMPDEST PUSH1 0x0 PUSH1 0x3 PUSH1 0x0 DUP10 DUP2 MSTORE PUSH1 0x20 ADD SWAP1 DUP2 MSTORE PUSH1 0x20 ADD PUSH1 0x0 KECCAK256 SWAP1 POP DUP7 PUSH8 0xFFFFFFFFFFFFFFFF AND DUP2 DUP1 SLOAD SWAP1 POP EQ ISZERO PUSH2 0xC76 JUMPI DUP1 PUSH1 0x1 DUP2 PUSH1 0x1 DUP2 SLOAD ADD DUP1 DUP3 SSTORE DUP1 SWAP2 POP POP SUB SWAP1 PUSH1 0x0 MSTORE PUSH1 0x20 PUSH1 0x0 KECCAK256 POP POP JUMPDEST PUSH1 0x0 DUP2 DUP9 PUSH8 0xFFFFFFFFFFFFFFFF AND DUP2 SLOAD DUP2 LT PUSH2 0xC95 JUMPI PUSH2 0xC94 PUSH2 0x37AB JUMP JUMPDEST JUMPDEST SWAP1 PUSH1 0x0 MSTORE PUSH1 0x20 PUSH1 0x0 KECCAK256 ADD SWAP1 POP DUP7 DUP7 DUP3 PUSH1 0x0 ADD PUSH1 0x0 CALLER PUSH20 0xFFFFFFFFFFFFFFFFFFFFFFFFFFFFFFFFFFFFFFFF AND PUSH20 0xFFFFFFFFFFFFFFFFFFFFFFFFFFFFFFFFFFFFFFFF AND DUP2 MSTORE PUSH1 0x20 ADD SWAP1 DUP2 MSTORE PUSH1 0x20 ADD PUSH1 0x0 KECCAK256 PUSH1 0x1 ADD SWAP2 SWAP1 PUSH2 0xCF4 SWAP3 SWAP2 SWAP1 PUSH2 0x2587 JUMP JUMPDEST POP POP POP POP POP POP POP POP POP POP JUMP JUMPDEST PUSH2 0xD08 PUSH2 0x260D JUMP JUMPDEST DUP3 DUP3 PUSH1 0x0 PUSH1 0x2 PUSH1 0x0 DUP5 DUP2 MSTORE PUSH1 0x20 ADD SWAP1 DUP2 MSTORE PUSH1 0x20 ADD PUSH1 0x0 KECCAK256 SWAP1 POP PUSH1 0x1 DUP2 DUP1 SLOAD SWAP1 POP GT DUP1 ISZERO PUSH2 0xD4E JUMPI POP DUP2 PUSH8 0xFFFFFFFFFFFFFFFF AND PUSH1 0x1 DUP3 DUP1 SLOAD SWAP1 POP PUSH2 0xD4C SWAP2 SWAP1 PUSH2 0x3592 JUMP JUMPDEST EQ JUMPDEST PUSH2 0xD8D JUMPI PUSH1 0x40 MLOAD PUSH32 0x8C379A000000000000000000000000000000000000000000000000000000000 DUP2 MSTORE PUSH1 0x4 ADD PUSH2 0xD84 SWAP1 PUSH2 0x3350 JUMP JUMPDEST PUSH1 0x40 MLOAD DUP1 SWAP2 SUB SWAP1 REVERT JUMPDEST PUSH1 0x0 PUSH1 0x2 PUSH1 0x0 DUP9 DUP2 MSTORE PUSH1 0x20 ADD SWAP1 DUP2 MSTORE PUSH1 0x20 ADD PUSH1 0x0 KECCAK256 DUP7 PUSH8 0xFFFFFFFFFFFFFFFF AND DUP2 SLOAD DUP2 LT PUSH2 0xDBE JUMPI PUSH2 0xDBD PUSH2 0x37AB JUMP JUMPDEST JUMPDEST SWAP1 PUSH1 0x0 MSTORE PUSH1 0x20 PUSH1 0x0 KECCAK256 SWAP1 PUSH1 0x5 MUL ADD SWAP1 POP PUSH1 0x40 MLOAD DUP1 PUSH2 0x100 ADD PUSH1 0x40 MSTORE DUP1 DUP3 PUSH1 0x0 ADD PUSH1 0x0 SWAP1 SLOAD SWAP1 PUSH2 0x100 EXP SWAP1 DIV PUSH8 0xFFFFFFFFFFFFFFFF AND PUSH8 0xFFFFFFFFFFFFFFFF AND DUP2 MSTORE PUSH1 0x20 ADD DUP3 PUSH1 0x0 ADD PUSH1 0x8 SWAP1 SLOAD SWAP1 PUSH2 0x100 EXP SWAP1 DIV PUSH4 0xFFFFFFFF AND PUSH4 0xFFFFFFFF AND DUP2 MSTORE PUSH1 0x20 ADD DUP3 PUSH1 0x0 ADD PUSH1 0xC SWAP1 SLOAD SWAP1 PUSH2 0x100 EXP SWAP1 DIV PUSH4 0xFFFFFFFF AND PUSH4 0xFFFFFFFF AND DUP2 MSTORE PUSH1 0x20 ADD DUP3 PUSH1 0x0 ADD PUSH1 0x10 SWAP1 SLOAD SWAP1 PUSH2 0x100 EXP SWAP1 DIV PUSH1 0xFF AND PUSH1 0x3 DUP2 GT ISZERO PUSH2 0xE66 JUMPI PUSH2 0xE65 PUSH2 0x374D JUMP JUMPDEST JUMPDEST DUP2 MSTORE PUSH1 0x20 ADD DUP3 PUSH1 0x2 ADD SLOAD DUP2 MSTORE PUSH1 0x20 ADD DUP3 PUSH1 0x3 ADD SLOAD DUP2 MSTORE PUSH1 0x20 ADD DUP3 PUSH1 0x4 ADD PUSH1 0x0 SWAP1 SLOAD SWAP1 PUSH2 0x100 EXP SWAP1 DIV PUSH4 0xFFFFFFFF AND PUSH4 0xFFFFFFFF AND DUP2 MSTORE PUSH1 0x20 ADD DUP3 PUSH1 0x4 ADD PUSH1 0x4 SWAP1 SLOAD SWAP1 PUSH2 0x100 EXP SWAP1 DIV PUSH4 0xFFFFFFFF AND PUSH4 0xFFFFFFFF AND DUP2 MSTORE POP SWAP5 POP POP POP POP POP SWAP3 SWAP2 POP POP JUMP JUMPDEST DUP4 CALLER PUSH20 0xFFFFFFFFFFFFFFFFFFFFFFFFFFFFFFFFFFFFFFFF AND PUSH1 0x1 PUSH1 0x0 DUP4 DUP2 MSTORE PUSH1 0x20 ADD SWAP1 DUP2 MSTORE PUSH1 0x20 ADD PUSH1 0x0 KECCAK256 PUSH1 0x0 ADD PUSH1 0x0 SWAP1 SLOAD SWAP1 PUSH2 0x100 EXP SWAP1 DIV PUSH20 0xFFFFFFFFFFFFFFFFFFFFFFFFFFFFFFFFFFFFFFFF AND PUSH20 0xFFFFFFFFFFFFFFFFFFFFFFFFFFFFFFFFFFFFFFFF AND EQ PUSH2 0xF6E JUMPI PUSH1 0x40 MLOAD PUSH32 0x8C379A000000000000000000000000000000000000000000000000000000000 DUP2 MSTORE PUSH1 0x4 ADD PUSH2 0xF65 SWAP1 PUSH2 0x3330 JUMP JUMPDEST PUSH1 0x40 MLOAD DUP1 SWAP2 SUB SWAP1 REVERT JUMPDEST DUP5 DUP5 PUSH1 0x0 PUSH1 0x2 PUSH1 0x0 DUP5 DUP2 MSTORE PUSH1 0x20 ADD SWAP1 DUP2 MSTORE PUSH1 0x20 ADD PUSH1 0x0 KECCAK256 SWAP1 POP PUSH1 0x1 DUP2 DUP1 SLOAD SWAP1 POP GT DUP1 ISZERO PUSH2 0xFB4 JUMPI POP DUP2 PUSH8 0xFFFFFFFFFFFFFFFF AND PUSH1 0x1 DUP3 DUP1 SLOAD SWAP1 POP PUSH2 0xFB2 SWAP2 SWAP1 PUSH2 0x3592 JUMP JUMPDEST EQ JUMPDEST PUSH2 0xFF3 JUMPI PUSH1 0x40 MLOAD PUSH32 0x8C379A000000000000000000000000000000000000000000000000000000000 DUP2 MSTORE PUSH1 0x4 ADD PUSH2 0xFEA SWAP1 PUSH2 0x3350 JUMP JUMPDEST PUSH1 0x40 MLOAD DUP1 SWAP2 SUB SWAP1 REVERT JUMPDEST PUSH1 0x0 PUSH1 0x2 PUSH1 0x0 DUP11 DUP2 MSTORE PUSH1 0x20 ADD SWAP1 DUP2 MSTORE PUSH1 0x20 ADD PUSH1 0x0 KECCAK256 DUP9 PUSH8 0xFFFFFFFFFFFFFFFF AND DUP2 SLOAD DUP2 LT PUSH2 0x1024 JUMPI PUSH2 0x1023 PUSH2 0x37AB JUMP JUMPDEST JUMPDEST SWAP1 PUSH1 0x0 MSTORE PUSH1 0x20 PUSH1 0x0 KECCAK256 SWAP1 PUSH1 0x5 MUL ADD SWAP1 POP PUSH1 0x1 PUSH1 0x3 DUP2 GT ISZERO PUSH2 0x1048 JUMPI PUSH2 0x1047 PUSH2 0x374D JUMP JUMPDEST JUMPDEST DUP2 PUSH1 0x0 ADD PUSH1 0x10 SWAP1 SLOAD SWAP1 PUSH2 0x100 EXP SWAP1 DIV PUSH1 0xFF AND PUSH1 0x3 DUP2 GT ISZERO PUSH2 0x106C JUMPI PUSH2 0x106B PUSH2 0x374D JUMP JUMPDEST JUMPDEST EQ PUSH2 0x10AC JUMPI PUSH1 0x40 MLOAD PUSH32 0x8C379A000000000000000000000000000000000000000000000000000000000 DUP2 MSTORE PUSH1 0x4 ADD PUSH2 0x10A3 SWAP1 PUSH2 0x32D0 JUMP JUMPDEST PUSH1 0x40 MLOAD DUP1 SWAP2 SUB SWAP1 REVERT JUMPDEST PUSH1 0x2 DUP2 PUSH1 0x0 ADD PUSH1 0x10 PUSH2 0x100 EXP DUP2 SLOAD DUP2 PUSH1 0xFF MUL NOT AND SWAP1 DUP4 PUSH1 0x3 DUP2 GT ISZERO PUSH2 0x10D4 JUMPI PUSH2 0x10D3 PUSH2 0x374D JUMP JUMPDEST JUMPDEST MUL OR SWAP1 SSTORE POP PUSH1 0x0 JUMPDEST DUP8 DUP8 SWAP1 POP DUP2 LT ISZERO PUSH2 0x11AB JUMPI PUSH1 0x0 DUP1 SHL DUP3 PUSH1 0x1 ADD PUSH1 0x0 DUP11 DUP11 DUP6 DUP2 DUP2 LT PUSH2 0x1104 JUMPI PUSH2 0x1103 PUSH2 0x37AB JUMP JUMPDEST JUMPDEST SWAP1 POP PUSH1 0x20 MUL ADD PUSH1 0x20 DUP2 ADD SWAP1 PUSH2 0x1119 SWAP2 SWAP1 PUSH2 0x28EB JUMP JUMPDEST PUSH20 0xFFFFFFFFFFFFFFFFFFFFFFFFFFFFFFFFFFFFFFFF AND PUSH20 0xFFFFFFFFFFFFFFFFFFFFFFFFFFFFFFFFFFFFFFFF AND DUP2 MSTORE PUSH1 0x20 ADD SWAP1 DUP2 MSTORE PUSH1 0x20 ADD PUSH1 0x0 KECCAK256 PUSH1 0x0 ADD SLOAD EQ ISZERO PUSH2 0x1198 JUMPI PUSH1 0x40 MLOAD PUSH32 0x8C379A000000000000000000000000000000000000000000000000000000000 DUP2 MSTORE PUSH1 0x4 ADD PUSH2 0x118F SWAP1 PUSH2 0x32F0 JUMP JUMPDEST PUSH1 0x40 MLOAD DUP1 SWAP2 SUB SWAP1 REVERT JUMPDEST DUP1 DUP1 PUSH2 0x11A3 SWAP1 PUSH2 0x36D5 JUMP JUMPDEST SWAP2 POP POP PUSH2 0x10DC JUMP JUMPDEST POP PUSH32 0xE9B6E97E583A9F4137BE5009BEDBE0CDCAF72235C0BE7F89471B9A02E27B821 DUP10 DUP10 DUP10 DUP10 PUSH1 0x40 MLOAD PUSH2 0x11E1 SWAP5 SWAP4 SWAP3 SWAP2 SWAP1 PUSH2 0x3210 JUMP JUMPDEST PUSH1 0x40 MLOAD DUP1 SWAP2 SUB SWAP1 LOG1 POP POP POP POP POP POP POP POP POP JUMP JUMPDEST DUP6 PUSH1 0x0 PUSH20 0xFFFFFFFFFFFFFFFFFFFFFFFFFFFFFFFFFFFFFFFF AND PUSH1 0x1 PUSH1 0x0 DUP4 DUP2 MSTORE PUSH1 0x20 ADD SWAP1 DUP2 MSTORE PUSH1 0x20 ADD PUSH1 0x0 KECCAK256 PUSH1 0x0 ADD PUSH1 0x0 SWAP1 SLOAD SWAP1 PUSH2 0x100 EXP SWAP1 DIV PUSH20 0xFFFFFFFFFFFFFFFFFFFFFFFFFFFFFFFFFFFFFFFF AND PUSH20 0xFFFFFFFFFFFFFFFFFFFFFFFFFFFFFFFFFFFFFFFF AND EQ ISZERO PUSH2 0x129B JUMPI PUSH1 0x40 MLOAD PUSH32 0x8C379A000000000000000000000000000000000000000000000000000000000 DUP2 MSTORE PUSH1 0x4 ADD PUSH2 0x1292 SWAP1 PUSH2 0x3390 JUMP JUMPDEST PUSH1 0x40 MLOAD DUP1 SWAP2 SUB SWAP1 REVERT JUMPDEST DUP7 CALLER PUSH20 0xFFFFFFFFFFFFFFFFFFFFFFFFFFFFFFFFFFFFFFFF AND PUSH1 0x1 PUSH1 0x0 DUP4 DUP2 MSTORE PUSH1 0x20 ADD SWAP1 DUP2 MSTORE PUSH1 0x20 ADD PUSH1 0x0 KECCAK256 PUSH1 0x0 ADD PUSH1 0x0 SWAP1 SLOAD SWAP1 PUSH2 0x100 EXP SWAP1 DIV PUSH20 0xFFFFFFFFFFFFFFFFFFFFFFFFFFFFFFFFFFFFFFFF AND PUSH20 0xFFFFFFFFFFFFFFFFFFFFFFFFFFFFFFFFFFFFFFFF AND EQ PUSH2 0x1340 JUMPI PUSH1 0x40 MLOAD PUSH32 0x8C379A000000000000000000000000000000000000000000000000000000000 DUP2 MSTORE PUSH1 0x4 ADD PUSH2 0x1337 SWAP1 PUSH2 0x3330 JUMP JUMPDEST PUSH1 0x40 MLOAD DUP1 SWAP2 SUB SWAP1 REVERT JUMPDEST PUSH1 0x0 PUSH1 0x2 PUSH1 0x0 DUP11 DUP2 MSTORE PUSH1 0x20 ADD SWAP1 DUP2 MSTORE PUSH1 0x20 ADD PUSH1 0x0 KECCAK256 SWAP1 POP DUP8 PUSH8 0xFFFFFFFFFFFFFFFF AND DUP2 DUP1 SLOAD SWAP1 POP EQ PUSH2 0x13A7 JUMPI PUSH1 0x40 MLOAD PUSH32 0x8C379A000000000000000000000000000000000000000000000000000000000 DUP2 MSTORE PUSH1 0x4 ADD PUSH2 0x139E SWAP1 PUSH2 0x32B0 JUMP JUMPDEST PUSH1 0x40 MLOAD DUP1 SWAP2 SUB SWAP1 REVERT JUMPDEST PUSH1 0x0 PUSH1 0x1 PUSH1 0x0 DUP12 DUP2 MSTORE PUSH1 0x20 ADD SWAP1 DUP2 MSTORE PUSH1 0x20 ADD PUSH1 0x0 KECCAK256 SWAP1 POP DUP9 DUP2 PUSH1 0x3 ADD PUSH1 0x0 PUSH2 0x100 EXP DUP2 SLOAD DUP2 PUSH8 0xFFFFFFFFFFFFFFFF MUL NOT AND SWAP1 DUP4 PUSH8 0xFFFFFFFFFFFFFFFF AND MUL OR SWAP1 SSTORE POP DUP2 PUSH1 0x1 DUP2 PUSH1 0x1 DUP2 SLOAD ADD DUP1 DUP3 SSTORE DUP1 SWAP2 POP POP SUB SWAP1 PUSH1 0x0 MSTORE PUSH1 0x20 PUSH1 0x0 KECCAK256 SWAP1 POP POP DUP9 DUP3 DUP11 PUSH8 0xFFFFFFFFFFFFFFFF AND DUP2 SLOAD DUP2 LT PUSH2 0x1424 JUMPI PUSH2 0x1423 PUSH2 0x37AB JUMP JUMPDEST JUMPDEST SWAP1 PUSH1 0x0 MSTORE PUSH1 0x20 PUSH1 0x0 KECCAK256 SWAP1 PUSH1 0x5 MUL ADD PUSH1 0x0 ADD PUSH1 0x0 PUSH2 0x100 EXP DUP2 SLOAD DUP2 PUSH8 0xFFFFFFFFFFFFFFFF MUL NOT AND SWAP1 DUP4 PUSH8 0xFFFFFFFFFFFFFFFF AND MUL OR SWAP1 SSTORE POP DUP8 DUP3 DUP11 PUSH8 0xFFFFFFFFFFFFFFFF AND DUP2 SLOAD DUP2 LT PUSH2 0x1479 JUMPI PUSH2 0x1478 PUSH2 0x37AB JUMP JUMPDEST JUMPDEST SWAP1 PUSH1 0x0 MSTORE PUSH1 0x20 PUSH1 0x0 KECCAK256 SWAP1 PUSH1 0x5 MUL ADD PUSH1 0x0 ADD PUSH1 0x8 PUSH2 0x100 EXP DUP2 SLOAD DUP2 PUSH4 0xFFFFFFFF MUL NOT AND SWAP1 DUP4 PUSH4 0xFFFFFFFF AND MUL OR SWAP1 SSTORE POP DUP7 DUP3 DUP11 PUSH8 0xFFFFFFFFFFFFFFFF AND DUP2 SLOAD DUP2 LT PUSH2 0x14C6 JUMPI PUSH2 0x14C5 PUSH2 0x37AB JUMP JUMPDEST JUMPDEST SWAP1 PUSH1 0x0 MSTORE PUSH1 0x20 PUSH1 0x0 KECCAK256 SWAP1 PUSH1 0x5 MUL ADD PUSH1 0x0 ADD PUSH1 0xC PUSH2 0x100 EXP DUP2 SLOAD DUP2 PUSH4 0xFFFFFFFF MUL NOT AND SWAP1 DUP4 PUSH4 0xFFFFFFFF AND MUL OR SWAP1 SSTORE POP PUSH1 0x0 DUP3 DUP11 PUSH8 0xFFFFFFFFFFFFFFFF AND DUP2 SLOAD DUP2 LT PUSH2 0x1514 JUMPI PUSH2 0x1513 PUSH2 0x37AB JUMP JUMPDEST JUMPDEST SWAP1 PUSH1 0x0 MSTORE PUSH1 0x20 PUSH1 0x0 KECCAK256 SWAP1 PUSH1 0x5 MUL ADD PUSH1 0x0 ADD PUSH1 0x10 PUSH2 0x100 EXP DUP2 SLOAD DUP2 PUSH1 0xFF MUL NOT AND SWAP1 DUP4 PUSH1 0x3 DUP2 GT ISZERO PUSH2 0x1547 JUMPI PUSH2 0x1546 PUSH2 0x374D JUMP JUMPDEST JUMPDEST MUL OR SWAP1 SSTORE POP NUMBER DUP3 DUP11 PUSH8 0xFFFFFFFFFFFFFFFF AND DUP2 SLOAD DUP2 LT PUSH2 0x156A JUMPI PUSH2 0x1569 PUSH2 0x37AB JUMP JUMPDEST JUMPDEST SWAP1 PUSH1 0x0 MSTORE PUSH1 0x20 PUSH1 0x0 KECCAK256 SWAP1 PUSH1 0x5 MUL ADD PUSH1 0x2 ADD DUP2 SWAP1 SSTORE POP PUSH1 0x0 DUP3 DUP11 PUSH8 0xFFFFFFFFFFFFFFFF AND DUP2 SLOAD DUP2 LT PUSH2 0x159E JUMPI PUSH2 0x159D PUSH2 0x37AB JUMP JUMPDEST JUMPDEST SWAP1 PUSH1 0x0 MSTORE PUSH1 0x20 PUSH1 0x0 KECCAK256 SWAP1 PUSH1 0x5 MUL ADD PUSH1 0x3 ADD DUP2 SWAP1 SSTORE POP DUP6 DUP3 DUP11 PUSH8 0xFFFFFFFFFFFFFFFF AND DUP2 SLOAD DUP2 LT PUSH2 0x15D1 JUMPI PUSH2 0x15D0 PUSH2 0x37AB JUMP JUMPDEST JUMPDEST SWAP1 PUSH1 0x0 MSTORE PUSH1 0x20 PUSH1 0x0 KECCAK256 SWAP1 PUSH1 0x5 MUL ADD PUSH1 0x4 ADD PUSH1 0x0 PUSH2 0x100 EXP DUP2 SLOAD DUP2 PUSH4 0xFFFFFFFF MUL NOT AND SWAP1 DUP4 PUSH4 0xFFFFFFFF AND MUL OR SWAP1 SSTORE POP DUP5 DUP3 DUP11 PUSH8 0xFFFFFFFFFFFFFFFF AND DUP2 SLOAD DUP2 LT PUSH2 0x161E JUMPI PUSH2 0x161D PUSH2 0x37AB JUMP JUMPDEST JUMPDEST SWAP1 PUSH1 0x0 MSTORE PUSH1 0x20 PUSH1 0x0 KECCAK256 SWAP1 PUSH1 0x5 MUL ADD PUSH1 0x4 ADD PUSH1 0x4 PUSH2 0x100 EXP DUP2 SLOAD DUP2 PUSH4 0xFFFFFFFF MUL NOT AND SWAP1 DUP4 PUSH4 0xFFFFFFFF AND MUL OR SWAP1 SSTORE POP PUSH1 0x0 PUSH1 0x3 PUSH1 0x0 DUP13 DUP2 MSTORE PUSH1 0x20 ADD SWAP1 DUP2 MSTORE PUSH1 0x20 ADD PUSH1 0x0 KECCAK256 SWAP1 POP DUP1 PUSH1 0x1 DUP2 PUSH1 0x1 DUP2 SLOAD ADD DUP1 DUP3 SSTORE DUP1 SWAP2 POP POP SUB SWAP1 PUSH1 0x0 MSTORE PUSH1 0x20 PUSH1 0x0 KECCAK256 POP POP PUSH32 0x442BD58918C05FBBA21640A63D950E0ADA0C085917A5C785FE24D66608972BD9 DUP12 DUP12 PUSH1 0x40 MLOAD PUSH2 0x16B1 SWAP3 SWAP2 SWAP1 PUSH2 0x31E7 JUMP JUMPDEST PUSH1 0x40 MLOAD DUP1 SWAP2 SUB SWAP1 LOG1 POP POP POP POP POP POP POP POP POP POP POP JUMP JUMPDEST PUSH2 0x16CE PUSH2 0x2686 JUMP JUMPDEST DUP2 PUSH1 0x0 PUSH20 0xFFFFFFFFFFFFFFFFFFFFFFFFFFFFFFFFFFFFFFFF AND PUSH1 0x1 PUSH1 0x0 DUP4 DUP2 MSTORE PUSH1 0x20 ADD SWAP1 DUP2 MSTORE PUSH1 0x20 ADD PUSH1 0x0 KECCAK256 PUSH1 0x0 ADD PUSH1 0x0 SWAP1 SLOAD SWAP1 PUSH2 0x100 EXP SWAP1 DIV PUSH20 0xFFFFFFFFFFFFFFFFFFFFFFFFFFFFFFFFFFFFFFFF AND PUSH20 0xFFFFFFFFFFFFFFFFFFFFFFFFFFFFFFFFFFFFFFFF AND EQ ISZERO PUSH2 0x1775 JUMPI PUSH1 0x40 MLOAD PUSH32 0x8C379A000000000000000000000000000000000000000000000000000000000 DUP2 MSTORE PUSH1 0x4 ADD PUSH2 0x176C SWAP1 PUSH2 0x3390 JUMP JUMPDEST PUSH1 0x40 MLOAD DUP1 SWAP2 SUB SWAP1 REVERT JUMPDEST PUSH1 0x1 PUSH1 0x0 DUP5 DUP2 MSTORE PUSH1 0x20 ADD SWAP1 DUP2 MSTORE PUSH1 0x20 ADD PUSH1 0x0 KECCAK256 PUSH1 0x40 MLOAD DUP1 PUSH1 0x80 ADD PUSH1 0x40 MSTORE SWAP1 DUP2 PUSH1 0x0 DUP3 ADD PUSH1 0x0 SWAP1 SLOAD SWAP1 PUSH2 0x100 EXP SWAP1 DIV PUSH20 0xFFFFFFFFFFFFFFFFFFFFFFFFFFFFFFFFFFFFFFFF AND PUSH20 0xFFFFFFFFFFFFFFFFFFFFFFFFFFFFFFFFFFFFFFFF AND PUSH20 0xFFFFFFFFFFFFFFFFFFFFFFFFFFFFFFFFFFFFFFFF AND DUP2 MSTORE PUSH1 0x20 ADD PUSH1 0x1 DUP3 ADD DUP1 SLOAD PUSH2 0x17F9 SWAP1 PUSH2 0x36A3 JUMP JUMPDEST DUP1 PUSH1 0x1F ADD PUSH1 0x20 DUP1 SWAP2 DIV MUL PUSH1 0x20 ADD PUSH1 0x40 MLOAD SWAP1 DUP2 ADD PUSH1 0x40 MSTORE DUP1 SWAP3 SWAP2 SWAP1 DUP2 DUP2 MSTORE PUSH1 0x20 ADD DUP3 DUP1 SLOAD PUSH2 0x1825 SWAP1 PUSH2 0x36A3 JUMP JUMPDEST DUP1 ISZERO PUSH2 0x1872 JUMPI DUP1 PUSH1 0x1F LT PUSH2 0x1847 JUMPI PUSH2 0x100 DUP1 DUP4 SLOAD DIV MUL DUP4 MSTORE SWAP2 PUSH1 0x20 ADD SWAP2 PUSH2 0x1872 JUMP JUMPDEST DUP3 ADD SWAP2 SWAP1 PUSH1 0x0 MSTORE PUSH1 0x20 PUSH1 0x0 KECCAK256 SWAP1 JUMPDEST DUP2 SLOAD DUP2 MSTORE SWAP1 PUSH1 0x1 ADD SWAP1 PUSH1 0x20 ADD DUP1 DUP4 GT PUSH2 0x1855 JUMPI DUP3 SWAP1 SUB PUSH1 0x1F AND DUP3 ADD SWAP2 JUMPDEST POP POP POP POP POP DUP2 MSTORE PUSH1 0x20 ADD PUSH1 0x2 DUP3 ADD SLOAD DUP2 MSTORE PUSH1 0x20 ADD PUSH1 0x3 DUP3 ADD PUSH1 0x0 SWAP1 SLOAD SWAP1 PUSH2 0x100 EXP SWAP1 DIV PUSH8 0xFFFFFFFFFFFFFFFF AND PUSH8 0xFFFFFFFFFFFFFFFF AND PUSH8 0xFFFFFFFFFFFFFFFF AND DUP2 MSTORE POP POP SWAP2 POP POP SWAP2 SWAP1 POP JUMP JUMPDEST DUP4 DUP4 PUSH1 0x0 PUSH1 0x2 PUSH1 0x0 DUP5 DUP2 MSTORE PUSH1 0x20 ADD SWAP1 DUP2 MSTORE PUSH1 0x20 ADD PUSH1 0x0 KECCAK256 SWAP1 POP PUSH1 0x1 DUP2 DUP1 SLOAD SWAP1 POP GT DUP1 ISZERO PUSH2 0x1905 JUMPI POP DUP2 PUSH8 0xFFFFFFFFFFFFFFFF AND PUSH1 0x1 DUP3 DUP1 SLOAD SWAP1 POP PUSH2 0x1903 SWAP2 SWAP1 PUSH2 0x3592 JUMP JUMPDEST EQ JUMPDEST PUSH2 0x1944 JUMPI PUSH1 0x40 MLOAD PUSH32 0x8C379A000000000000000000000000000000000000000000000000000000000 DUP2 MSTORE PUSH1 0x4 ADD PUSH2 0x193B SWAP1 PUSH2 0x3350 JUMP JUMPDEST PUSH1 0x40 MLOAD DUP1 SWAP2 SUB SWAP1 REVERT JUMPDEST PUSH3 0xA00000 DUP6 DUP6 SWAP1 POP LT PUSH2 0x1956 JUMPI PUSH1 0x0 DUP1 REVERT JUMPDEST PUSH1 0x0 PUSH1 0x2 PUSH1 0x0 DUP10 DUP2 MSTORE PUSH1 0x20 ADD SWAP1 DUP2 MSTORE PUSH1 0x20 ADD PUSH1 0x0 KECCAK256 DUP8 PUSH8 0xFFFFFFFFFFFFFFFF AND DUP2 SLOAD DUP2 LT PUSH2 0x1987 JUMPI PUSH2 0x1986 PUSH2 0x37AB JUMP JUMPDEST JUMPDEST SWAP1 PUSH1 0x0 MSTORE PUSH1 0x20 PUSH1 0x0 KECCAK256 SWAP1 PUSH1 0x5 MUL ADD SWAP1 POP PUSH1 0x1 PUSH1 0x3 DUP2 GT ISZERO PUSH2 0x19AB JUMPI PUSH2 0x19AA PUSH2 0x374D JUMP JUMPDEST JUMPDEST DUP2 PUSH1 0x0 ADD PUSH1 0x10 SWAP1 SLOAD SWAP1 PUSH2 0x100 EXP SWAP1 DIV PUSH1 0xFF AND PUSH1 0x3 DUP2 GT ISZERO PUSH2 0x19CF JUMPI PUSH2 0x19CE PUSH2 0x374D JUMP JUMPDEST JUMPDEST EQ PUSH2 0x1A0F JUMPI PUSH1 0x40 MLOAD PUSH32 0x8C379A000000000000000000000000000000000000000000000000000000000 DUP2 MSTORE PUSH1 0x4 ADD PUSH2 0x1A06 SWAP1 PUSH2 0x32D0 JUMP JUMPDEST PUSH1 0x40 MLOAD DUP1 SWAP2 SUB SWAP1 REVERT JUMPDEST NUMBER DUP2 PUSH1 0x4 ADD PUSH1 0x4 SWAP1 SLOAD SWAP1 PUSH2 0x100 EXP SWAP1 DIV PUSH4 0xFFFFFFFF AND PUSH4 0xFFFFFFFF AND DUP3 PUSH1 0x3 ADD SLOAD PUSH2 0x1A3A SWAP2 SWAP1 PUSH2 0x353C JUMP JUMPDEST LT ISZERO PUSH2 0x1A7B JUMPI PUSH1 0x40 MLOAD PUSH32 0x8C379A000000000000000000000000000000000000000000000000000000000 DUP2 MSTORE PUSH1 0x4 ADD PUSH2 0x1A72 SWAP1 PUSH2 0x3370 JUMP JUMPDEST PUSH1 0x40 MLOAD DUP1 SWAP2 SUB SWAP1 REVERT JUMPDEST PUSH1 0x0 PUSH1 0x3 PUSH1 0x0 DUP11 DUP2 MSTORE PUSH1 0x20 ADD SWAP1 DUP2 MSTORE PUSH1 0x20 ADD PUSH1 0x0 KECCAK256 SWAP1 POP DUP8 PUSH8 0xFFFFFFFFFFFFFFFF AND DUP2 DUP1 SLOAD SWAP1 POP EQ ISZERO PUSH2 0x1AC5 JUMPI DUP1 PUSH1 0x1 DUP2 PUSH1 0x1 DUP2 SLOAD ADD DUP1 DUP3 SSTORE DUP1 SWAP2 POP POP SUB SWAP1 PUSH1 0x0 MSTORE PUSH1 0x20 PUSH1 0x0 KECCAK256 POP POP JUMPDEST PUSH1 0x0 DUP2 DUP10 PUSH8 0xFFFFFFFFFFFFFFFF AND DUP2 SLOAD DUP2 LT PUSH2 0x1AE4 JUMPI PUSH2 0x1AE3 PUSH2 0x37AB JUMP JUMPDEST JUMPDEST SWAP1 PUSH1 0x0 MSTORE PUSH1 0x20 PUSH1 0x0 KECCAK256 ADD SWAP1 POP DUP8 DUP8 DUP3 PUSH1 0x0 ADD PUSH1 0x0 CALLER PUSH20 0xFFFFFFFFFFFFFFFFFFFFFFFFFFFFFFFFFFFFFFFF AND PUSH20 0xFFFFFFFFFFFFFFFFFFFFFFFFFFFFFFFFFFFFFFFF AND DUP2 MSTORE PUSH1 0x20 ADD SWAP1 DUP2 MSTORE PUSH1 0x20 ADD PUSH1 0x0 KECCAK256 PUSH1 0x0 ADD SWAP2 SWAP1 PUSH2 0x1B43 SWAP3 SWAP2 SWAP1 PUSH2 0x2587 JUMP JUMPDEST POP POP POP POP POP POP POP POP POP POP POP JUMP JUMPDEST PUSH1 0x0 DUP1 TIMESTAMP CALLER DUP7 DUP7 DUP7 PUSH1 0x40 MLOAD PUSH1 0x20 ADD PUSH2 0x1B6C SWAP6 SWAP5 SWAP4 SWAP3 SWAP2 SWAP1 PUSH2 0x3466 JUMP JUMPDEST PUSH1 0x40 MLOAD PUSH1 0x20 DUP2 DUP4 SUB SUB DUP2 MSTORE SWAP1 PUSH1 0x40 MSTORE DUP1 MLOAD SWAP1 PUSH1 0x20 ADD KECCAK256 SWAP1 POP PUSH1 0x40 MLOAD DUP1 PUSH1 0x80 ADD PUSH1 0x40 MSTORE DUP1 CALLER PUSH20 0xFFFFFFFFFFFFFFFFFFFFFFFFFFFFFFFFFFFFFFFF AND DUP2 MSTORE PUSH1 0x20 ADD DUP7 DUP7 DUP1 DUP1 PUSH1 0x1F ADD PUSH1 0x20 DUP1 SWAP2 DIV MUL PUSH1 0x20 ADD PUSH1 0x40 MLOAD SWAP1 DUP2 ADD PUSH1 0x40 MSTORE DUP1 SWAP4 SWAP3 SWAP2 SWAP1 DUP2 DUP2 MSTORE PUSH1 0x20 ADD DUP4 DUP4 DUP1 DUP3 DUP5 CALLDATACOPY PUSH1 0x0 DUP2 DUP5 ADD MSTORE PUSH1 0x1F NOT PUSH1 0x1F DUP3 ADD AND SWAP1 POP DUP1 DUP4 ADD SWAP3 POP POP POP POP POP POP POP DUP2 MSTORE PUSH1 0x20 ADD DUP5 DUP2 MSTORE PUSH1 0x20 ADD PUSH1 0x0 PUSH8 0xFFFFFFFFFFFFFFFF AND DUP2 MSTORE POP PUSH1 0x1 PUSH1 0x0 DUP4 DUP2 MSTORE PUSH1 0x20 ADD SWAP1 DUP2 MSTORE PUSH1 0x20 ADD PUSH1 0x0 KECCAK256 PUSH1 0x0 DUP3 ADD MLOAD DUP2 PUSH1 0x0 ADD PUSH1 0x0 PUSH2 0x100 EXP DUP2 SLOAD DUP2 PUSH20 0xFFFFFFFFFFFFFFFFFFFFFFFFFFFFFFFFFFFFFFFF MUL NOT AND SWAP1 DUP4 PUSH20 0xFFFFFFFFFFFFFFFFFFFFFFFFFFFFFFFFFFFFFFFF AND MUL OR SWAP1 SSTORE POP PUSH1 0x20 DUP3 ADD MLOAD DUP2 PUSH1 0x1 ADD SWAP1 DUP1 MLOAD SWAP1 PUSH1 0x20 ADD SWAP1 PUSH2 0x1C80 SWAP3 SWAP2 SWAP1 PUSH2 0x26D1 JUMP JUMPDEST POP PUSH1 0x40 DUP3 ADD MLOAD DUP2 PUSH1 0x2 ADD SSTORE PUSH1 0x60 DUP3 ADD MLOAD DUP2 PUSH1 0x3 ADD PUSH1 0x0 PUSH2 0x100 EXP DUP2 SLOAD DUP2 PUSH8 0xFFFFFFFFFFFFFFFF MUL NOT AND SWAP1 DUP4 PUSH8 0xFFFFFFFFFFFFFFFF AND MUL OR SWAP1 SSTORE POP SWAP1 POP POP DUP1 SWAP2 POP PUSH1 0x0 PUSH1 0x2 PUSH1 0x0 DUP5 DUP2 MSTORE PUSH1 0x20 ADD SWAP1 DUP2 MSTORE PUSH1 0x20 ADD PUSH1 0x0 KECCAK256 SWAP1 POP DUP1 PUSH1 0x1 DUP2 PUSH1 0x1 DUP2 SLOAD ADD DUP1 DUP3 SSTORE DUP1 SWAP2 POP POP SUB SWAP1 PUSH1 0x0 MSTORE PUSH1 0x20 PUSH1 0x0 KECCAK256 SWAP1 POP POP CALLER PUSH20 0xFFFFFFFFFFFFFFFFFFFFFFFFFFFFFFFFFFFFFFFF AND PUSH32 0x1A64B92F645BE2AE2D4DE1A08511156F5D99C785AE1B03A6636A7EE0C1CABD2A DUP4 DUP9 DUP9 DUP9 PUSH1 0x40 MLOAD PUSH2 0x1D40 SWAP5 SWAP4 SWAP3 SWAP2 SWAP1 PUSH2 0x31A7 JUMP JUMPDEST PUSH1 0x40 MLOAD DUP1 SWAP2 SUB SWAP1 LOG2 POP POP SWAP4 SWAP3 POP POP POP JUMP JUMPDEST PUSH2 0x1D59 PUSH2 0x2757 JUMP JUMPDEST DUP4 DUP3 PUSH1 0x0 PUSH1 0x2 PUSH1 0x0 DUP5 DUP2 MSTORE PUSH1 0x20 ADD SWAP1 DUP2 MSTORE PUSH1 0x20 ADD PUSH1 0x0 KECCAK256 SWAP1 POP PUSH1 0x1 DUP2 DUP1 SLOAD SWAP1 POP GT DUP1 ISZERO PUSH2 0x1D9F JUMPI POP DUP2 PUSH8 0xFFFFFFFFFFFFFFFF AND PUSH1 0x1 DUP3 DUP1 SLOAD SWAP1 POP PUSH2 0x1D9D SWAP2 SWAP1 PUSH2 0x3592 JUMP JUMPDEST EQ JUMPDEST PUSH2 0x1DDE JUMPI PUSH1 0x40 MLOAD PUSH32 0x8C379A000000000000000000000000000000000000000000000000000000000 DUP2 MSTORE PUSH1 0x4 ADD PUSH2 0x1DD5 SWAP1 PUSH2 0x3350 JUMP JUMPDEST PUSH1 0x40 MLOAD DUP1 SWAP2 SUB SWAP1 REVERT JUMPDEST DUP7 DUP6 PUSH1 0x0 PUSH1 0x3 PUSH1 0x0 DUP5 DUP2 MSTORE PUSH1 0x20 ADD SWAP1 DUP2 MSTORE PUSH1 0x20 ADD PUSH1 0x0 KECCAK256 SWAP1 POP DUP2 PUSH8 0xFFFFFFFFFFFFFFFF AND DUP2 DUP1 SLOAD SWAP1 POP GT PUSH2 0x1E47 JUMPI PUSH1 0x40 MLOAD PUSH32 0x8C379A000000000000000000000000000000000000000000000000000000000 DUP2 MSTORE PUSH1 0x4 ADD PUSH2 0x1E3E SWAP1 PUSH2 0x3290 JUMP JUMPDEST PUSH1 0x40 MLOAD DUP1 SWAP2 SUB SWAP1 REVERT JUMPDEST PUSH1 0x0 PUSH1 0x3 PUSH1 0x0 DUP13 DUP2 MSTORE PUSH1 0x20 ADD SWAP1 DUP2 MSTORE PUSH1 0x20 ADD PUSH1 0x0 KECCAK256 SWAP1 POP DUP9 PUSH8 0xFFFFFFFFFFFFFFFF AND DUP2 DUP1 SLOAD SWAP1 POP LT ISZERO PUSH2 0x1EAF JUMPI PUSH1 0x40 MLOAD PUSH32 0x8C379A000000000000000000000000000000000000000000000000000000000 DUP2 MSTORE PUSH1 0x4 ADD PUSH2 0x1EA6 SWAP1 PUSH2 0x3290 JUMP JUMPDEST PUSH1 0x40 MLOAD DUP1 SWAP2 SUB SWAP1 REVERT JUMPDEST PUSH1 0x0 DUP2 DUP11 PUSH8 0xFFFFFFFFFFFFFFFF AND DUP2 SLOAD DUP2 LT PUSH2 0x1ECE JUMPI PUSH2 0x1ECD PUSH2 0x37AB JUMP JUMPDEST JUMPDEST SWAP1 PUSH1 0x0 MSTORE PUSH1 0x20 PUSH1 0x0 KECCAK256 ADD SWAP1 POP DUP1 PUSH1 0x0 ADD PUSH1 0x0 DUP13 PUSH20 0xFFFFFFFFFFFFFFFFFFFFFFFFFFFFFFFFFFFFFFFF AND PUSH20 0xFFFFFFFFFFFFFFFFFFFFFFFFFFFFFFFFFFFFFFFF AND DUP2 MSTORE PUSH1 0x20 ADD SWAP1 DUP2 MSTORE PUSH1 0x20 ADD PUSH1 0x0 KECCAK256 PUSH1 0x40 MLOAD DUP1 PUSH1 0x60 ADD PUSH1 0x40 MSTORE SWAP1 DUP2 PUSH1 0x0 DUP3 ADD DUP1 SLOAD PUSH2 0x1F36 SWAP1 PUSH2 0x36A3 JUMP JUMPDEST DUP1 PUSH1 0x1F ADD PUSH1 0x20 DUP1 SWAP2 DIV MUL PUSH1 0x20 ADD PUSH1 0x40 MLOAD SWAP1 DUP2 ADD PUSH1 0x40 MSTORE DUP1 SWAP3 SWAP2 SWAP1 DUP2 DUP2 MSTORE PUSH1 0x20 ADD DUP3 DUP1 SLOAD PUSH2 0x1F62 SWAP1 PUSH2 0x36A3 JUMP JUMPDEST DUP1 ISZERO PUSH2 0x1FAF JUMPI DUP1 PUSH1 0x1F LT PUSH2 0x1F84 JUMPI PUSH2 0x100 DUP1 DUP4 SLOAD DIV MUL DUP4 MSTORE SWAP2 PUSH1 0x20 ADD SWAP2 PUSH2 0x1FAF JUMP JUMPDEST DUP3 ADD SWAP2 SWAP1 PUSH1 0x0 MSTORE PUSH1 0x20 PUSH1 0x0 KECCAK256 SWAP1 JUMPDEST DUP2 SLOAD DUP2 MSTORE SWAP1 PUSH1 0x1 ADD SWAP1 PUSH1 0x20 ADD DUP1 DUP4 GT PUSH2 0x1F92 JUMPI DUP3 SWAP1 SUB PUSH1 0x1F AND DUP3 ADD SWAP2 JUMPDEST POP POP POP POP POP DUP2 MSTORE PUSH1 0x20 ADD PUSH1 0x1 DUP3 ADD DUP1 SLOAD PUSH2 0x1FC8 SWAP1 PUSH2 0x36A3 JUMP JUMPDEST DUP1 PUSH1 0x1F ADD PUSH1 0x20 DUP1 SWAP2 DIV MUL PUSH1 0x20 ADD PUSH1 0x40 MLOAD SWAP1 DUP2 ADD PUSH1 0x40 MSTORE DUP1 SWAP3 SWAP2 SWAP1 DUP2 DUP2 MSTORE PUSH1 0x20 ADD DUP3 DUP1 SLOAD PUSH2 0x1FF4 SWAP1 PUSH2 0x36A3 JUMP JUMPDEST DUP1 ISZERO PUSH2 0x2041 JUMPI DUP1 PUSH1 0x1F LT PUSH2 0x2016 JUMPI PUSH2 0x100 DUP1 DUP4 SLOAD DIV MUL DUP4 MSTORE SWAP2 PUSH1 0x20 ADD SWAP2 PUSH2 0x2041 JUMP JUMPDEST DUP3 ADD SWAP2 SWAP1 PUSH1 0x0 MSTORE PUSH1 0x20 PUSH1 0x0 KECCAK256 SWAP1 JUMPDEST DUP2 SLOAD DUP2 MSTORE SWAP1 PUSH1 0x1 ADD SWAP1 PUSH1 0x20 ADD DUP1 DUP4 GT PUSH2 0x2024 JUMPI DUP3 SWAP1 SUB PUSH1 0x1F AND DUP3 ADD SWAP2 JUMPDEST POP POP POP POP POP DUP2 MSTORE PUSH1 0x20 ADD PUSH1 0x2 DUP3 ADD DUP1 SLOAD PUSH2 0x205A SWAP1 PUSH2 0x36A3 JUMP JUMPDEST DUP1 PUSH1 0x1F ADD PUSH1 0x20 DUP1 SWAP2 DIV MUL PUSH1 0x20 ADD PUSH1 0x40 MLOAD SWAP1 DUP2 ADD PUSH1 0x40 MSTORE DUP1 SWAP3 SWAP2 SWAP1 DUP2 DUP2 MSTORE PUSH1 0x20 ADD DUP3 DUP1 SLOAD PUSH2 0x2086 SWAP1 PUSH2 0x36A3 JUMP JUMPDEST DUP1 ISZERO PUSH2 0x20D3 JUMPI DUP1 PUSH1 0x1F LT PUSH2 0x20A8 JUMPI PUSH2 0x100 DUP1 DUP4 SLOAD DIV MUL DUP4 MSTORE SWAP2 PUSH1 0x20 ADD SWAP2 PUSH2 0x20D3 JUMP JUMPDEST DUP3 ADD SWAP2 SWAP1 PUSH1 0x0 MSTORE PUSH1 0x20 PUSH1 0x0 KECCAK256 SWAP1 JUMPDEST DUP2 SLOAD DUP2 MSTORE SWAP1 PUSH1 0x1 ADD SWAP1 PUSH1 0x20 ADD DUP1 DUP4 GT PUSH2 0x20B6 JUMPI DUP3 SWAP1 SUB PUSH1 0x1F AND DUP3 ADD SWAP2 JUMPDEST POP POP POP POP POP DUP2 MSTORE POP POP SWAP9 POP POP POP POP POP POP POP POP POP SWAP4 SWAP3 POP POP POP JUMP JUMPDEST PUSH1 0x0 DUP1 PUSH1 0x0 SWAP1 SLOAD SWAP1 PUSH2 0x100 EXP SWAP1 DIV PUSH20 0xFFFFFFFFFFFFFFFFFFFFFFFFFFFFFFFFFFFFFFFF AND SWAP1 POP SWAP1 JUMP JUMPDEST PUSH1 0x0 DUP1 SLOAD SWAP1 PUSH2 0x100 EXP SWAP1 DIV PUSH20 0xFFFFFFFFFFFFFFFFFFFFFFFFFFFFFFFFFFFFFFFF AND PUSH20 0xFFFFFFFFFFFFFFFFFFFFFFFFFFFFFFFFFFFFFFFF AND CALLER PUSH20 0xFFFFFFFFFFFFFFFFFFFFFFFFFFFFFFFFFFFFFFFF AND EQ PUSH2 0x21A4 JUMPI PUSH1 0x40 MLOAD PUSH32 0x8C379A000000000000000000000000000000000000000000000000000000000 DUP2 MSTORE PUSH1 0x4 ADD PUSH2 0x219B SWAP1 PUSH2 0x3250 JUMP JUMPDEST PUSH1 0x40 MLOAD DUP1 SWAP2 SUB SWAP1 REVERT JUMPDEST DUP1 PUSH20 0xFFFFFFFFFFFFFFFFFFFFFFFFFFFFFFFFFFFFFFFF AND PUSH1 0x0 DUP1 SLOAD SWAP1 PUSH2 0x100 EXP SWAP1 DIV PUSH20 0xFFFFFFFFFFFFFFFFFFFFFFFFFFFFFFFFFFFFFFFF AND PUSH20 0xFFFFFFFFFFFFFFFFFFFFFFFFFFFFFFFFFFFFFFFF AND PUSH32 0x342827C97908E5E2F71151C08502A66D44B6F758E3AC2F1DE95F02EB95F0A735 PUSH1 0x40 MLOAD PUSH1 0x40 MLOAD DUP1 SWAP2 SUB SWAP1 LOG3 DUP1 PUSH1 0x0 DUP1 PUSH2 0x100 EXP DUP2 SLOAD DUP2 PUSH20 0xFFFFFFFFFFFFFFFFFFFFFFFFFFFFFFFFFFFFFFFF MUL NOT AND SWAP1 DUP4 PUSH20 0xFFFFFFFFFFFFFFFFFFFFFFFFFFFFFFFFFFFFFFFF AND MUL OR SWAP1 SSTORE POP POP JUMP JUMPDEST PUSH1 0x0 DUP5 PUSH1 0x0 PUSH20 0xFFFFFFFFFFFFFFFFFFFFFFFFFFFFFFFFFFFFFFFF AND PUSH1 0x1 PUSH1 0x0 DUP4 DUP2 MSTORE PUSH1 0x20 ADD SWAP1 DUP2 MSTORE PUSH1 0x20 ADD PUSH1 0x0 KECCAK256 PUSH1 0x0 ADD PUSH1 0x0 SWAP1 SLOAD SWAP1 PUSH2 0x100 EXP SWAP1 DIV PUSH20 0xFFFFFFFFFFFFFFFFFFFFFFFFFFFFFFFFFFFFFFFF AND PUSH20 0xFFFFFFFFFFFFFFFFFFFFFFFFFFFFFFFFFFFFFFFF AND EQ ISZERO PUSH2 0x230A JUMPI PUSH1 0x40 MLOAD PUSH32 0x8C379A000000000000000000000000000000000000000000000000000000000 DUP2 MSTORE PUSH1 0x4 ADD PUSH2 0x2301 SWAP1 PUSH2 0x3390 JUMP JUMPDEST PUSH1 0x40 MLOAD DUP1 SWAP2 SUB SWAP1 REVERT JUMPDEST DUP6 DUP6 PUSH1 0x0 PUSH1 0x2 PUSH1 0x0 DUP5 DUP2 MSTORE PUSH1 0x20 ADD SWAP1 DUP2 MSTORE PUSH1 0x20 ADD PUSH1 0x0 KECCAK256 SWAP1 POP PUSH1 0x1 DUP2 DUP1 SLOAD SWAP1 POP GT DUP1 ISZERO PUSH2 0x2350 JUMPI POP DUP2 PUSH8 0xFFFFFFFFFFFFFFFF AND PUSH1 0x1 DUP3 DUP1 SLOAD SWAP1 POP PUSH2 0x234E SWAP2 SWAP1 PUSH2 0x3592 JUMP JUMPDEST EQ JUMPDEST PUSH2 0x238F JUMPI PUSH1 0x40 MLOAD PUSH32 0x8C379A000000000000000000000000000000000000000000000000000000000 DUP2 MSTORE PUSH1 0x4 ADD PUSH2 0x2386 SWAP1 PUSH2 0x3350 JUMP JUMPDEST PUSH1 0x40 MLOAD DUP1 SWAP2 SUB SWAP1 REVERT JUMPDEST PUSH1 0x0 PUSH1 0x2 PUSH1 0x0 DUP12 DUP2 MSTORE PUSH1 0x20 ADD SWAP1 DUP2 MSTORE PUSH1 0x20 ADD PUSH1 0x0 KECCAK256 SWAP1 POP PUSH1 0x0 DUP2 PUSH1 0x1 DUP4 DUP1 SLOAD SWAP1 POP PUSH2 0x23BA SWAP2 SWAP1 PUSH2 0x3592 JUMP JUMPDEST DUP2 SLOAD DUP2 LT PUSH2 0x23CB JUMPI PUSH2 0x23CA PUSH2 0x37AB JUMP JUMPDEST JUMPDEST SWAP1 PUSH1 0x0 MSTORE PUSH1 0x20 PUSH1 0x0 KECCAK256 SWAP1 PUSH1 0x5 MUL ADD SWAP1 POP PUSH1 0x0 PUSH1 0x1 PUSH1 0x0 DUP14 DUP2 MSTORE PUSH1 0x20 ADD SWAP1 DUP2 MSTORE PUSH1 0x20 ADD PUSH1 0x0 KECCAK256 SWAP1 POP NUMBER DUP3 PUSH1 0x4 ADD PUSH1 0x0 SWAP1 SLOAD SWAP1 PUSH2 0x100 EXP SWAP1 DIV PUSH4 0xFFFFFFFF AND PUSH4 0xFFFFFFFF AND DUP4 PUSH1 0x2 ADD SLOAD PUSH2 0x241D SWAP2 SWAP1 PUSH2 0x353C JUMP JUMPDEST LT ISZERO PUSH2 0x245E JUMPI PUSH1 0x40 MLOAD PUSH32 0x8C379A000000000000000000000000000000000000000000000000000000000 DUP2 MSTORE PUSH1 0x4 ADD PUSH2 0x2455 SWAP1 PUSH2 0x3270 JUMP JUMPDEST PUSH1 0x40 MLOAD DUP1 SWAP2 SUB SWAP1 REVERT JUMPDEST PUSH1 0x0 DUP1 SHL DUP3 PUSH1 0x1 ADD PUSH1 0x0 CALLER PUSH20 0xFFFFFFFFFFFFFFFFFFFFFFFFFFFFFFFFFFFFFFFF AND PUSH20 0xFFFFFFFFFFFFFFFFFFFFFFFFFFFFFFFFFFFFFFFF AND DUP2 MSTORE PUSH1 0x20 ADD SWAP1 DUP2 MSTORE PUSH1 0x20 ADD PUSH1 0x0 KECCAK256 PUSH1 0x0 ADD SLOAD EQ PUSH2 0x24E7 JUMPI PUSH1 0x40 MLOAD PUSH32 0x8C379A000000000000000000000000000000000000000000000000000000000 DUP2 MSTORE PUSH1 0x4 ADD PUSH2 0x24DE SWAP1 PUSH2 0x3310 JUMP JUMPDEST PUSH1 0x40 MLOAD DUP1 SWAP2 SUB SWAP1 REVERT JUMPDEST PUSH1 0x40 MLOAD DUP1 PUSH1 0x40 ADD PUSH1 0x40 MSTORE DUP1 DUP12 DUP2 MSTORE PUSH1 0x20 ADD DUP11 DUP2 MSTORE POP DUP3 PUSH1 0x1 ADD PUSH1 0x0 CALLER PUSH20 0xFFFFFFFFFFFFFFFFFFFFFFFFFFFFFFFFFFFFFFFF AND PUSH20 0xFFFFFFFFFFFFFFFFFFFFFFFFFFFFFFFFFFFFFFFF AND DUP2 MSTORE PUSH1 0x20 ADD SWAP1 DUP2 MSTORE PUSH1 0x20 ADD PUSH1 0x0 KECCAK256 PUSH1 0x0 DUP3 ADD MLOAD DUP2 PUSH1 0x0 ADD SSTORE PUSH1 0x20 DUP3 ADD MLOAD DUP2 PUSH1 0x1 ADD SSTORE SWAP1 POP POP PUSH1 0x1 SWAP8 POP POP POP POP POP POP POP POP SWAP5 SWAP4 POP POP POP POP JUMP JUMPDEST PUSH1 0x40 MLOAD DUP1 PUSH1 0x40 ADD PUSH1 0x40 MSTORE DUP1 PUSH1 0x0 DUP1 NOT AND DUP2 MSTORE PUSH1 0x20 ADD PUSH1 0x0 DUP1 NOT AND DUP2 MSTORE POP SWAP1 JUMP JUMPDEST DUP3 DUP1 SLOAD PUSH2 0x2593 SWAP1 PUSH2 0x36A3 JUMP JUMPDEST SWAP1 PUSH1 0x0 MSTORE PUSH1 0x20 PUSH1 0x0 KECCAK256 SWAP1 PUSH1 0x1F ADD PUSH1 0x20 SWAP1 DIV DUP2 ADD SWAP3 DUP3 PUSH2 0x25B5 JUMPI PUSH1 0x0 DUP6 SSTORE PUSH2 0x25FC JUMP JUMPDEST DUP3 PUSH1 0x1F LT PUSH2 0x25CE JUMPI DUP1 CALLDATALOAD PUSH1 0xFF NOT AND DUP4 DUP1 ADD OR DUP6 SSTORE PUSH2 0x25FC JUMP JUMPDEST DUP3 DUP1 ADD PUSH1 0x1 ADD DUP6 SSTORE DUP3 ISZERO PUSH2 0x25FC JUMPI SWAP2 DUP3 ADD JUMPDEST DUP3 DUP2 GT ISZERO PUSH2 0x25FB JUMPI DUP3 CALLDATALOAD DUP3 SSTORE SWAP2 PUSH1 0x20 ADD SWAP2 SWAP1 PUSH1 0x1 ADD SWAP1 PUSH2 0x25E0 JUMP JUMPDEST JUMPDEST POP SWAP1 POP PUSH2 0x2609 SWAP2 SWAP1 PUSH2 0x2778 JUMP JUMPDEST POP SWAP1 JUMP JUMPDEST PUSH1 0x40 MLOAD DUP1 PUSH2 0x100 ADD PUSH1 0x40 MSTORE DUP1 PUSH1 0x0 PUSH8 0xFFFFFFFFFFFFFFFF AND DUP2 MSTORE PUSH1 0x20 ADD PUSH1 0x0 PUSH4 0xFFFFFFFF AND DUP2 MSTORE PUSH1 0x20 ADD PUSH1 0x0 PUSH4 0xFFFFFFFF AND DUP2 MSTORE PUSH1 0x20 ADD PUSH1 0x0 PUSH1 0x3 DUP2 GT ISZERO PUSH2 0x2658 JUMPI PUSH2 0x2657 PUSH2 0x374D JUMP JUMPDEST JUMPDEST DUP2 MSTORE PUSH1 0x20 ADD PUSH1 0x0 DUP2 MSTORE PUSH1 0x20 ADD PUSH1 0x0 DUP2 MSTORE PUSH1 0x20 ADD PUSH1 0x0 PUSH4 0xFFFFFFFF AND DUP2 MSTORE PUSH1 0x20 ADD PUSH1 0x0 PUSH4 0xFFFFFFFF AND DUP2 MSTORE POP SWAP1 JUMP JUMPDEST PUSH1 0x40 MLOAD DUP1 PUSH1 0x80 ADD PUSH1 0x40 MSTORE DUP1 PUSH1 0x0 PUSH20 0xFFFFFFFFFFFFFFFFFFFFFFFFFFFFFFFFFFFFFFFF AND DUP2 MSTORE PUSH1 0x20 ADD PUSH1 0x60 DUP2 MSTORE PUSH1 0x20 ADD PUSH1 0x0 DUP1 NOT AND DUP2 MSTORE PUSH1 0x20 ADD PUSH1 0x0 PUSH8 0xFFFFFFFFFFFFFFFF AND DUP2 MSTORE POP SWAP1 JUMP JUMPDEST DUP3 DUP1 SLOAD PUSH2 0x26DD SWAP1 PUSH2 0x36A3 JUMP JUMPDEST SWAP1 PUSH1 0x0 MSTORE PUSH1 0x20 PUSH1 0x0 KECCAK256 SWAP1 PUSH1 0x1F ADD PUSH1 0x20 SWAP1 DIV DUP2 ADD SWAP3 DUP3 PUSH2 0x26FF JUMPI PUSH1 0x0 DUP6 SSTORE PUSH2 0x2746 JUMP JUMPDEST DUP3 PUSH1 0x1F LT PUSH2 0x2718 JUMPI DUP1 MLOAD PUSH1 0xFF NOT AND DUP4 DUP1 ADD OR DUP6 SSTORE PUSH2 0x2746 JUMP JUMPDEST DUP3 DUP1 ADD PUSH1 0x1 ADD DUP6 SSTORE DUP3 ISZERO PUSH2 0x2746 JUMPI SWAP2 DUP3 ADD JUMPDEST DUP3 DUP2 GT ISZERO PUSH2 0x2745 JUMPI DUP3 MLOAD DUP3 SSTORE SWAP2 PUSH1 0x20 ADD SWAP2 SWAP1 PUSH1 0x1 ADD SWAP1 PUSH2 0x272A JUMP JUMPDEST JUMPDEST POP SWAP1 POP PUSH2 0x2753 SWAP2 SWAP1 PUSH2 0x2778 JUMP JUMPDEST POP SWAP1 JUMP JUMPDEST PUSH1 0x40 MLOAD DUP1 PUSH1 0x60 ADD PUSH1 0x40 MSTORE DUP1 PUSH1 0x60 DUP2 MSTORE PUSH1 0x20 ADD PUSH1 0x60 DUP2 MSTORE PUSH1 0x20 ADD PUSH1 0x60 DUP2 MSTORE POP SWAP1 JUMP JUMPDEST JUMPDEST DUP1 DUP3 GT ISZERO PUSH2 0x2791 JUMPI PUSH1 0x0 DUP2 PUSH1 0x0 SWAP1 SSTORE POP PUSH1 0x1 ADD PUSH2 0x2779 JUMP JUMPDEST POP SWAP1 JUMP JUMPDEST PUSH1 0x0 DUP2 CALLDATALOAD SWAP1 POP PUSH2 0x27A4 DUP2 PUSH2 0x3ACB JUMP JUMPDEST SWAP3 SWAP2 POP POP JUMP JUMPDEST PUSH1 0x0 DUP1 DUP4 PUSH1 0x1F DUP5 ADD SLT PUSH2 0x27C0 JUMPI PUSH2 0x27BF PUSH2 0x380E JUMP JUMPDEST JUMPDEST DUP3 CALLDATALOAD SWAP1 POP PUSH8 0xFFFFFFFFFFFFFFFF DUP2 GT ISZERO PUSH2 0x27DD JUMPI PUSH2 0x27DC PUSH2 0x3809 JUMP JUMPDEST JUMPDEST PUSH1 0x20 DUP4 ADD SWAP2 POP DUP4 PUSH1 0x20 DUP3 MUL DUP4 ADD GT ISZERO PUSH2 0x27F9 JUMPI PUSH2 0x27F8 PUSH2 0x3813 JUMP JUMPDEST JUMPDEST SWAP3 POP SWAP3 SWAP1 POP JUMP JUMPDEST PUSH1 0x0 DUP2 CALLDATALOAD SWAP1 POP PUSH2 0x280F DUP2 PUSH2 0x3AE2 JUMP JUMPDEST SWAP3 SWAP2 POP POP JUMP JUMPDEST PUSH1 0x0 DUP1 DUP4 PUSH1 0x1F DUP5 ADD SLT PUSH2 0x282B JUMPI PUSH2 0x282A PUSH2 0x380E JUMP JUMPDEST JUMPDEST DUP3 CALLDATALOAD SWAP1 POP PUSH8 0xFFFFFFFFFFFFFFFF DUP2 GT ISZERO PUSH2 0x2848 JUMPI PUSH2 0x2847 PUSH2 0x3809 JUMP JUMPDEST JUMPDEST PUSH1 0x20 DUP4 ADD SWAP2 POP DUP4 PUSH1 0x1 DUP3 MUL DUP4 ADD GT ISZERO PUSH2 0x2864 JUMPI PUSH2 0x2863 PUSH2 0x3813 JUMP JUMPDEST JUMPDEST SWAP3 POP SWAP3 SWAP1 POP JUMP JUMPDEST PUSH1 0x0 DUP1 DUP4 PUSH1 0x1F DUP5 ADD SLT PUSH2 0x2881 JUMPI PUSH2 0x2880 PUSH2 0x380E JUMP JUMPDEST JUMPDEST DUP3 CALLDATALOAD SWAP1 POP PUSH8 0xFFFFFFFFFFFFFFFF DUP2 GT ISZERO PUSH2 0x289E JUMPI PUSH2 0x289D PUSH2 0x3809 JUMP JUMPDEST JUMPDEST PUSH1 0x20 DUP4 ADD SWAP2 POP DUP4 PUSH1 0x1 DUP3 MUL DUP4 ADD GT ISZERO PUSH2 0x28BA JUMPI PUSH2 0x28B9 PUSH2 0x3813 JUMP JUMPDEST JUMPDEST SWAP3 POP SWAP3 SWAP1 POP JUMP JUMPDEST PUSH1 0x0 DUP2 CALLDATALOAD SWAP1 POP PUSH2 0x28D0 DUP2 PUSH2 0x3AF9 JUMP JUMPDEST SWAP3 SWAP2 POP POP JUMP JUMPDEST PUSH1 0x0 DUP2 CALLDATALOAD SWAP1 POP PUSH2 0x28E5 DUP2 PUSH2 0x3B10 JUMP JUMPDEST SWAP3 SWAP2 POP POP JUMP JUMPDEST PUSH1 0x0 PUSH1 0x20 DUP3 DUP5 SUB SLT ISZERO PUSH2 0x2901 JUMPI PUSH2 0x2900 PUSH2 0x381D JUMP JUMPDEST JUMPDEST PUSH1 0x0 PUSH2 0x290F DUP5 DUP3 DUP6 ADD PUSH2 0x2795 JUMP JUMPDEST SWAP2 POP POP SWAP3 SWAP2 POP POP JUMP JUMPDEST PUSH1 0x0 PUSH1 0x20 DUP3 DUP5 SUB SLT ISZERO PUSH2 0x292E JUMPI PUSH2 0x292D PUSH2 0x381D JUMP JUMPDEST JUMPDEST PUSH1 0x0 PUSH2 0x293C DUP5 DUP3 DUP6 ADD PUSH2 0x2800 JUMP JUMPDEST SWAP2 POP POP SWAP3 SWAP2 POP POP JUMP JUMPDEST PUSH1 0x0 DUP1 PUSH1 0x0 PUSH1 0x60 DUP5 DUP7 SUB SLT ISZERO PUSH2 0x295E JUMPI PUSH2 0x295D PUSH2 0x381D JUMP JUMPDEST JUMPDEST PUSH1 0x0 PUSH2 0x296C DUP7 DUP3 DUP8 ADD PUSH2 0x2800 JUMP JUMPDEST SWAP4 POP POP PUSH1 0x20 PUSH2 0x297D DUP7 DUP3 DUP8 ADD PUSH2 0x2795 JUMP JUMPDEST SWAP3 POP POP PUSH1 0x40 PUSH2 0x298E DUP7 DUP3 DUP8 ADD PUSH2 0x28D6 JUMP JUMPDEST SWAP2 POP POP SWAP3 POP SWAP3 POP SWAP3 JUMP JUMPDEST PUSH1 0x0 DUP1 PUSH1 0x40 DUP4 DUP6 SUB SLT ISZERO PUSH2 0x29AF JUMPI PUSH2 0x29AE PUSH2 0x381D JUMP JUMPDEST JUMPDEST PUSH1 0x0 PUSH2 0x29BD DUP6 DUP3 DUP7 ADD PUSH2 0x2800 JUMP JUMPDEST SWAP3 POP POP PUSH1 0x20 PUSH2 0x29CE DUP6 DUP3 DUP7 ADD PUSH2 0x28D6 JUMP JUMPDEST SWAP2 POP POP SWAP3 POP SWAP3 SWAP1 POP JUMP JUMPDEST PUSH1 0x0 DUP1 PUSH1 0x0 PUSH1 0x60 DUP5 DUP7 SUB SLT ISZERO PUSH2 0x29F1 JUMPI PUSH2 0x29F0 PUSH2 0x381D JUMP JUMPDEST JUMPDEST PUSH1 0x0 PUSH2 0x29FF DUP7 DUP3 DUP8 ADD PUSH2 0x2800 JUMP JUMPDEST SWAP4 POP POP PUSH1 0x20 PUSH2 0x2A10 DUP7 DUP3 DUP8 ADD PUSH2 0x28D6 JUMP JUMPDEST SWAP3 POP POP PUSH1 0x40 PUSH2 0x2A21 DUP7 DUP3 DUP8 ADD PUSH2 0x2795 JUMP JUMPDEST SWAP2 POP POP SWAP3 POP SWAP3 POP SWAP3 JUMP JUMPDEST PUSH1 0x0 DUP1 PUSH1 0x0 DUP1 PUSH1 0x60 DUP6 DUP8 SUB SLT ISZERO PUSH2 0x2A45 JUMPI PUSH2 0x2A44 PUSH2 0x381D JUMP JUMPDEST JUMPDEST PUSH1 0x0 PUSH2 0x2A53 DUP8 DUP3 DUP9 ADD PUSH2 0x2800 JUMP JUMPDEST SWAP5 POP POP PUSH1 0x20 PUSH2 0x2A64 DUP8 DUP3 DUP9 ADD PUSH2 0x28D6 JUMP JUMPDEST SWAP4 POP POP PUSH1 0x40 DUP6 ADD CALLDATALOAD PUSH8 0xFFFFFFFFFFFFFFFF DUP2 GT ISZERO PUSH2 0x2A85 JUMPI PUSH2 0x2A84 PUSH2 0x3818 JUMP JUMPDEST JUMPDEST PUSH2 0x2A91 DUP8 DUP3 DUP9 ADD PUSH2 0x27AA JUMP JUMPDEST SWAP3 POP SWAP3 POP POP SWAP3 SWAP6 SWAP2 SWAP5 POP SWAP3 POP JUMP JUMPDEST PUSH1 0x0 DUP1 PUSH1 0x0 DUP1 PUSH1 0x80 DUP6 DUP8 SUB SLT ISZERO PUSH2 0x2AB9 JUMPI PUSH2 0x2AB8 PUSH2 0x381D JUMP JUMPDEST JUMPDEST PUSH1 0x0 PUSH2 0x2AC7 DUP8 DUP3 DUP9 ADD PUSH2 0x2800 JUMP JUMPDEST SWAP5 POP POP PUSH1 0x20 PUSH2 0x2AD8 DUP8 DUP3 DUP9 ADD PUSH2 0x28D6 JUMP JUMPDEST SWAP4 POP POP PUSH1 0x40 PUSH2 0x2AE9 DUP8 DUP3 DUP9 ADD PUSH2 0x2800 JUMP JUMPDEST SWAP3 POP POP PUSH1 0x60 PUSH2 0x2AFA DUP8 DUP3 DUP9 ADD PUSH2 0x2800 JUMP JUMPDEST SWAP2 POP POP SWAP3 SWAP6 SWAP2 SWAP5 POP SWAP3 POP JUMP JUMPDEST PUSH1 0x0 DUP1 PUSH1 0x0 DUP1 PUSH1 0x60 DUP6 DUP8 SUB SLT ISZERO PUSH2 0x2B20 JUMPI PUSH2 0x2B1F PUSH2 0x381D JUMP JUMPDEST JUMPDEST PUSH1 0x0 PUSH2 0x2B2E DUP8 DUP3 DUP9 ADD PUSH2 0x2800 JUMP JUMPDEST SWAP5 POP POP PUSH1 0x20 PUSH2 0x2B3F DUP8 DUP3 DUP9 ADD PUSH2 0x28D6 JUMP JUMPDEST SWAP4 POP POP PUSH1 0x40 DUP6 ADD CALLDATALOAD PUSH8 0xFFFFFFFFFFFFFFFF DUP2 GT ISZERO PUSH2 0x2B60 JUMPI PUSH2 0x2B5F PUSH2 0x3818 JUMP JUMPDEST JUMPDEST PUSH2 0x2B6C DUP8 DUP3 DUP9 ADD PUSH2 0x2815 JUMP JUMPDEST SWAP3 POP SWAP3 POP POP SWAP3 SWAP6 SWAP2 SWAP5 POP SWAP3 POP JUMP JUMPDEST PUSH1 0x0 DUP1 PUSH1 0x0 DUP1 PUSH1 0x0 DUP1 PUSH1 0xC0 DUP8 DUP10 SUB SLT ISZERO PUSH2 0x2B97 JUMPI PUSH2 0x2B96 PUSH2 0x381D JUMP JUMPDEST JUMPDEST PUSH1 0x0 PUSH2 0x2BA5 DUP10 DUP3 DUP11 ADD PUSH2 0x2800 JUMP JUMPDEST SWAP7 POP POP PUSH1 0x20 PUSH2 0x2BB6 DUP10 DUP3 DUP11 ADD PUSH2 0x28D6 JUMP JUMPDEST SWAP6 POP POP PUSH1 0x40 PUSH2 0x2BC7 DUP10 DUP3 DUP11 ADD PUSH2 0x28C1 JUMP JUMPDEST SWAP5 POP POP PUSH1 0x60 PUSH2 0x2BD8 DUP10 DUP3 DUP11 ADD PUSH2 0x28C1 JUMP JUMPDEST SWAP4 POP POP PUSH1 0x80 PUSH2 0x2BE9 DUP10 DUP3 DUP11 ADD PUSH2 0x28C1 JUMP JUMPDEST SWAP3 POP POP PUSH1 0xA0 PUSH2 0x2BFA DUP10 DUP3 DUP11 ADD PUSH2 0x28C1 JUMP JUMPDEST SWAP2 POP POP SWAP3 SWAP6 POP SWAP3 SWAP6 POP SWAP3 SWAP6 JUMP JUMPDEST PUSH1 0x0 DUP1 PUSH1 0x0 PUSH1 0x40 DUP5 DUP7 SUB SLT ISZERO PUSH2 0x2C20 JUMPI PUSH2 0x2C1F PUSH2 0x381D JUMP JUMPDEST JUMPDEST PUSH1 0x0 DUP5 ADD CALLDATALOAD PUSH8 0xFFFFFFFFFFFFFFFF DUP2 GT ISZERO PUSH2 0x2C3E JUMPI PUSH2 0x2C3D PUSH2 0x3818 JUMP JUMPDEST JUMPDEST PUSH2 0x2C4A DUP7 DUP3 DUP8 ADD PUSH2 0x286B JUMP JUMPDEST SWAP4 POP SWAP4 POP POP PUSH1 0x20 PUSH2 0x2C5D DUP7 DUP3 DUP8 ADD PUSH2 0x2800 JUMP JUMPDEST SWAP2 POP POP SWAP3 POP SWAP3 POP SWAP3 JUMP JUMPDEST PUSH1 0x0 PUSH2 0x2C73 DUP4 DUP4 PUSH2 0x2C7F JUMP JUMPDEST PUSH1 0x20 DUP4 ADD SWAP1 POP SWAP3 SWAP2 POP POP JUMP JUMPDEST PUSH2 0x2C88 DUP2 PUSH2 0x35C6 JUMP JUMPDEST DUP3 MSTORE POP POP JUMP JUMPDEST PUSH2 0x2C97 DUP2 PUSH2 0x35C6 JUMP JUMPDEST DUP3 MSTORE POP POP JUMP JUMPDEST PUSH1 0x0 PUSH2 0x2CA9 DUP4 DUP6 PUSH2 0x34E1 JUMP JUMPDEST SWAP4 POP PUSH2 0x2CB4 DUP3 PUSH2 0x34B4 JUMP JUMPDEST DUP1 PUSH1 0x0 JUMPDEST DUP6 DUP2 LT ISZERO PUSH2 0x2CED JUMPI PUSH2 0x2CCA DUP3 DUP5 PUSH2 0x3525 JUMP JUMPDEST PUSH2 0x2CD4 DUP9 DUP3 PUSH2 0x2C67 JUMP JUMPDEST SWAP8 POP PUSH2 0x2CDF DUP4 PUSH2 0x34D4 JUMP JUMPDEST SWAP3 POP POP PUSH1 0x1 DUP2 ADD SWAP1 POP PUSH2 0x2CB8 JUMP JUMPDEST POP DUP6 SWAP3 POP POP POP SWAP4 SWAP3 POP POP POP JUMP JUMPDEST PUSH2 0x2D03 DUP2 PUSH2 0x35D8 JUMP JUMPDEST DUP3 MSTORE POP POP JUMP JUMPDEST PUSH2 0x2D12 DUP2 PUSH2 0x35E4 JUMP JUMPDEST DUP3 MSTORE POP POP JUMP JUMPDEST PUSH2 0x2D21 DUP2 PUSH2 0x35E4 JUMP JUMPDEST DUP3 MSTORE POP POP JUMP JUMPDEST PUSH1 0x0 PUSH2 0x2D32 DUP3 PUSH2 0x34BE JUMP JUMPDEST PUSH2 0x2D3C DUP2 DUP6 PUSH2 0x34F2 JUMP JUMPDEST SWAP4 POP PUSH2 0x2D4C DUP2 DUP6 PUSH1 0x20 DUP7 ADD PUSH2 0x3670 JUMP JUMPDEST PUSH2 0x2D55 DUP2 PUSH2 0x3822 JUMP JUMPDEST DUP5 ADD SWAP2 POP POP SWAP3 SWAP2 POP POP JUMP JUMPDEST PUSH2 0x2D69 DUP2 PUSH2 0x364F JUMP JUMPDEST DUP3 MSTORE POP POP JUMP JUMPDEST PUSH1 0x0 PUSH2 0x2D7B DUP4 DUP6 PUSH2 0x3514 JUMP JUMPDEST SWAP4 POP PUSH2 0x2D88 DUP4 DUP6 DUP5 PUSH2 0x3661 JUMP JUMPDEST PUSH2 0x2D91 DUP4 PUSH2 0x3822 JUMP JUMPDEST DUP5 ADD SWAP1 POP SWAP4 SWAP3 POP POP POP JUMP JUMPDEST PUSH1 0x0 PUSH2 0x2DA7 DUP3 PUSH2 0x34C9 JUMP JUMPDEST PUSH2 0x2DB1 DUP2 DUP6 PUSH2 0x3503 JUMP JUMPDEST SWAP4 POP PUSH2 0x2DC1 DUP2 DUP6 PUSH1 0x20 DUP7 ADD PUSH2 0x3670 JUMP JUMPDEST PUSH2 0x2DCA DUP2 PUSH2 0x3822 JUMP JUMPDEST DUP5 ADD SWAP2 POP POP SWAP3 SWAP2 POP POP JUMP JUMPDEST PUSH1 0x0 PUSH2 0x2DE2 PUSH1 0x13 DUP4 PUSH2 0x3514 JUMP JUMPDEST SWAP2 POP PUSH2 0x2DED DUP3 PUSH2 0x3833 JUMP JUMPDEST PUSH1 0x20 DUP3 ADD SWAP1 POP SWAP2 SWAP1 POP JUMP JUMPDEST PUSH1 0x0 PUSH2 0x2E05 PUSH1 0x18 DUP4 PUSH2 0x3514 JUMP JUMPDEST SWAP2 POP PUSH2 0x2E10 DUP3 PUSH2 0x385C JUMP JUMPDEST PUSH1 0x20 DUP3 ADD SWAP1 POP SWAP2 SWAP1 POP JUMP JUMPDEST PUSH1 0x0 PUSH2 0x2E28 PUSH1 0x1A DUP4 PUSH2 0x3514 JUMP JUMPDEST SWAP2 POP PUSH2 0x2E33 DUP3 PUSH2 0x3885 JUMP JUMPDEST PUSH1 0x20 DUP3 ADD SWAP1 POP SWAP2 SWAP1 POP JUMP JUMPDEST PUSH1 0x0 PUSH2 0x2E4B PUSH1 0x42 DUP4 PUSH2 0x3514 JUMP JUMPDEST SWAP2 POP PUSH2 0x2E56 DUP3 PUSH2 0x38AE JUMP JUMPDEST PUSH1 0x60 DUP3 ADD SWAP1 POP SWAP2 SWAP1 POP JUMP JUMPDEST PUSH1 0x0 PUSH2 0x2E6E PUSH1 0x1D DUP4 PUSH2 0x3514 JUMP JUMPDEST SWAP2 POP PUSH2 0x2E79 DUP3 PUSH2 0x3923 JUMP JUMPDEST PUSH1 0x20 DUP3 ADD SWAP1 POP SWAP2 SWAP1 POP JUMP JUMPDEST PUSH1 0x0 PUSH2 0x2E91 PUSH1 0x14 DUP4 PUSH2 0x3514 JUMP JUMPDEST SWAP2 POP PUSH2 0x2E9C DUP3 PUSH2 0x394C JUMP JUMPDEST PUSH1 0x20 DUP3 ADD SWAP1 POP SWAP2 SWAP1 POP JUMP JUMPDEST PUSH1 0x0 PUSH2 0x2EB4 PUSH1 0x29 DUP4 PUSH2 0x3514 JUMP JUMPDEST SWAP2 POP PUSH2 0x2EBF DUP3 PUSH2 0x3975 JUMP JUMPDEST PUSH1 0x40 DUP3 ADD SWAP1 POP SWAP2 SWAP1 POP JUMP JUMPDEST PUSH1 0x0 PUSH2 0x2ED7 PUSH1 0x1D DUP4 PUSH2 0x3514 JUMP JUMPDEST SWAP2 POP PUSH2 0x2EE2 DUP3 PUSH2 0x39C4 JUMP JUMPDEST PUSH1 0x20 DUP3 ADD SWAP1 POP SWAP2 SWAP1 POP JUMP JUMPDEST PUSH1 0x0 PUSH2 0x2EFA PUSH1 0x36 DUP4 PUSH2 0x3514 JUMP JUMPDEST SWAP2 POP PUSH2 0x2F05 DUP3 PUSH2 0x39ED JUMP JUMPDEST PUSH1 0x40 DUP3 ADD SWAP1 POP SWAP2 SWAP1 POP JUMP JUMPDEST PUSH1 0x0 PUSH2 0x2F1D PUSH1 0x1A DUP4 PUSH2 0x3514 JUMP JUMPDEST SWAP2 POP PUSH2 0x2F28 DUP3 PUSH2 0x3A3C JUMP JUMPDEST PUSH1 0x20 DUP3 ADD SWAP1 POP SWAP2 SWAP1 POP JUMP JUMPDEST PUSH1 0x0 PUSH2 0x2F40 PUSH1 0xF DUP4 PUSH2 0x3514 JUMP JUMPDEST SWAP2 POP PUSH2 0x2F4B DUP3 PUSH2 0x3A65 JUMP JUMPDEST PUSH1 0x20 DUP3 ADD SWAP1 POP SWAP2 SWAP1 POP JUMP JUMPDEST PUSH1 0x0 PUSH2 0x2F63 PUSH1 0x16 DUP4 PUSH2 0x3514 JUMP JUMPDEST SWAP2 POP PUSH2 0x2F6E DUP3 PUSH2 0x3A8E JUMP JUMPDEST PUSH1 0x20 DUP3 ADD SWAP1 POP SWAP2 SWAP1 POP JUMP JUMPDEST PUSH1 0x40 DUP3 ADD PUSH1 0x0 DUP3 ADD MLOAD PUSH2 0x2F8F PUSH1 0x0 DUP6 ADD DUP3 PUSH2 0x2D09 JUMP JUMPDEST POP PUSH1 0x20 DUP3 ADD MLOAD PUSH2 0x2FA2 PUSH1 0x20 DUP6 ADD DUP3 PUSH2 0x2D09 JUMP JUMPDEST POP POP POP POP JUMP JUMPDEST PUSH1 0x0 PUSH1 0x60 DUP4 ADD PUSH1 0x0 DUP4 ADD MLOAD DUP5 DUP3 SUB PUSH1 0x0 DUP7 ADD MSTORE PUSH2 0x2FC5 DUP3 DUP3 PUSH2 0x2D27 JUMP JUMPDEST SWAP2 POP POP PUSH1 0x20 DUP4 ADD MLOAD DUP5 DUP3 SUB PUSH1 0x20 DUP7 ADD MSTORE PUSH2 0x2FDF DUP3 DUP3 PUSH2 0x2D27 JUMP JUMPDEST SWAP2 POP POP PUSH1 0x40 DUP4 ADD MLOAD DUP5 DUP3 SUB PUSH1 0x40 DUP7 ADD MSTORE PUSH2 0x2FF9 DUP3 DUP3 PUSH2 0x2D27 JUMP JUMPDEST SWAP2 POP POP DUP1 SWAP2 POP POP SWAP3 SWAP2 POP POP JUMP JUMPDEST PUSH2 0x100 DUP3 ADD PUSH1 0x0 DUP3 ADD MLOAD PUSH2 0x301D PUSH1 0x0 DUP6 ADD DUP3 PUSH2 0x3138 JUMP JUMPDEST POP PUSH1 0x20 DUP3 ADD MLOAD PUSH2 0x3030 PUSH1 0x20 DUP6 ADD DUP3 PUSH2 0x3129 JUMP JUMPDEST POP PUSH1 0x40 DUP3 ADD MLOAD PUSH2 0x3043 PUSH1 0x40 DUP6 ADD DUP3 PUSH2 0x3129 JUMP JUMPDEST POP PUSH1 0x60 DUP3 ADD MLOAD PUSH2 0x3056 PUSH1 0x60 DUP6 ADD DUP3 PUSH2 0x2D60 JUMP JUMPDEST POP PUSH1 0x80 DUP3 ADD MLOAD PUSH2 0x3069 PUSH1 0x80 DUP6 ADD DUP3 PUSH2 0x310B JUMP JUMPDEST POP PUSH1 0xA0 DUP3 ADD MLOAD PUSH2 0x307C PUSH1 0xA0 DUP6 ADD DUP3 PUSH2 0x310B JUMP JUMPDEST POP PUSH1 0xC0 DUP3 ADD MLOAD PUSH2 0x308F PUSH1 0xC0 DUP6 ADD DUP3 PUSH2 0x3129 JUMP JUMPDEST POP PUSH1 0xE0 DUP3 ADD MLOAD PUSH2 0x30A2 PUSH1 0xE0 DUP6 ADD DUP3 PUSH2 0x3129 JUMP JUMPDEST POP POP POP POP JUMP JUMPDEST PUSH1 0x0 PUSH1 0x80 DUP4 ADD PUSH1 0x0 DUP4 ADD MLOAD PUSH2 0x30C0 PUSH1 0x0 DUP7 ADD DUP3 PUSH2 0x2C7F JUMP JUMPDEST POP PUSH1 0x20 DUP4 ADD MLOAD DUP5 DUP3 SUB PUSH1 0x20 DUP7 ADD MSTORE PUSH2 0x30D8 DUP3 DUP3 PUSH2 0x2D9C JUMP JUMPDEST SWAP2 POP POP PUSH1 0x40 DUP4 ADD MLOAD PUSH2 0x30ED PUSH1 0x40 DUP7 ADD DUP3 PUSH2 0x2D09 JUMP JUMPDEST POP PUSH1 0x60 DUP4 ADD MLOAD PUSH2 0x3100 PUSH1 0x60 DUP7 ADD DUP3 PUSH2 0x3138 JUMP JUMPDEST POP DUP1 SWAP2 POP POP SWAP3 SWAP2 POP POP JUMP JUMPDEST PUSH2 0x3114 DUP2 PUSH2 0x3621 JUMP JUMPDEST DUP3 MSTORE POP POP JUMP JUMPDEST PUSH2 0x3123 DUP2 PUSH2 0x3621 JUMP JUMPDEST DUP3 MSTORE POP POP JUMP JUMPDEST PUSH2 0x3132 DUP2 PUSH2 0x362B JUMP JUMPDEST DUP3 MSTORE POP POP JUMP JUMPDEST PUSH2 0x3141 DUP2 PUSH2 0x363B JUMP JUMPDEST DUP3 MSTORE POP POP JUMP JUMPDEST PUSH2 0x3150 DUP2 PUSH2 0x363B JUMP JUMPDEST DUP3 MSTORE POP POP JUMP JUMPDEST PUSH1 0x0 PUSH1 0x20 DUP3 ADD SWAP1 POP PUSH2 0x316B PUSH1 0x0 DUP4 ADD DUP5 PUSH2 0x2C8E JUMP JUMPDEST SWAP3 SWAP2 POP POP JUMP JUMPDEST PUSH1 0x0 PUSH1 0x20 DUP3 ADD SWAP1 POP PUSH2 0x3186 PUSH1 0x0 DUP4 ADD DUP5 PUSH2 0x2CFA JUMP JUMPDEST SWAP3 SWAP2 POP POP JUMP JUMPDEST PUSH1 0x0 PUSH1 0x20 DUP3 ADD SWAP1 POP PUSH2 0x31A1 PUSH1 0x0 DUP4 ADD DUP5 PUSH2 0x2D18 JUMP JUMPDEST SWAP3 SWAP2 POP POP JUMP JUMPDEST PUSH1 0x0 PUSH1 0x60 DUP3 ADD SWAP1 POP PUSH2 0x31BC PUSH1 0x0 DUP4 ADD DUP8 PUSH2 0x2D18 JUMP JUMPDEST DUP2 DUP2 SUB PUSH1 0x20 DUP4 ADD MSTORE PUSH2 0x31CF DUP2 DUP6 DUP8 PUSH2 0x2D6F JUMP JUMPDEST SWAP1 POP PUSH2 0x31DE PUSH1 0x40 DUP4 ADD DUP5 PUSH2 0x2D18 JUMP JUMPDEST SWAP6 SWAP5 POP POP POP POP POP JUMP JUMPDEST PUSH1 0x0 PUSH1 0x40 DUP3 ADD SWAP1 POP PUSH2 0x31FC PUSH1 0x0 DUP4 ADD DUP6 PUSH2 0x2D18 JUMP JUMPDEST PUSH2 0x3209 PUSH1 0x20 DUP4 ADD DUP5 PUSH2 0x3147 JUMP JUMPDEST SWAP4 SWAP3 POP POP POP JUMP JUMPDEST PUSH1 0x0 PUSH1 0x60 DUP3 ADD SWAP1 POP PUSH2 0x3225 PUSH1 0x0 DUP4 ADD DUP8 PUSH2 0x2D18 JUMP JUMPDEST PUSH2 0x3232 PUSH1 0x20 DUP4 ADD DUP7 PUSH2 0x3147 JUMP JUMPDEST DUP2 DUP2 SUB PUSH1 0x40 DUP4 ADD MSTORE PUSH2 0x3245 DUP2 DUP5 DUP7 PUSH2 0x2C9D JUMP JUMPDEST SWAP1 POP SWAP6 SWAP5 POP POP POP POP POP JUMP JUMPDEST PUSH1 0x0 PUSH1 0x20 DUP3 ADD SWAP1 POP DUP2 DUP2 SUB PUSH1 0x0 DUP4 ADD MSTORE PUSH2 0x3269 DUP2 PUSH2 0x2DD5 JUMP JUMPDEST SWAP1 POP SWAP2 SWAP1 POP JUMP JUMPDEST PUSH1 0x0 PUSH1 0x20 DUP3 ADD SWAP1 POP DUP2 DUP2 SUB PUSH1 0x0 DUP4 ADD MSTORE PUSH2 0x3289 DUP2 PUSH2 0x2DF8 JUMP JUMPDEST SWAP1 POP SWAP2 SWAP1 POP JUMP JUMPDEST PUSH1 0x0 PUSH1 0x20 DUP3 ADD SWAP1 POP DUP2 DUP2 SUB PUSH1 0x0 DUP4 ADD MSTORE PUSH2 0x32A9 DUP2 PUSH2 0x2E1B JUMP JUMPDEST SWAP1 POP SWAP2 SWAP1 POP JUMP JUMPDEST PUSH1 0x0 PUSH1 0x20 DUP3 ADD SWAP1 POP DUP2 DUP2 SUB PUSH1 0x0 DUP4 ADD MSTORE PUSH2 0x32C9 DUP2 PUSH2 0x2E3E JUMP JUMPDEST SWAP1 POP SWAP2 SWAP1 POP JUMP JUMPDEST PUSH1 0x0 PUSH1 0x20 DUP3 ADD SWAP1 POP DUP2 DUP2 SUB PUSH1 0x0 DUP4 ADD MSTORE PUSH2 0x32E9 DUP2 PUSH2 0x2E61 JUMP JUMPDEST SWAP1 POP SWAP2 SWAP1 POP JUMP JUMPDEST PUSH1 0x0 PUSH1 0x20 DUP3 ADD SWAP1 POP DUP2 DUP2 SUB PUSH1 0x0 DUP4 ADD MSTORE PUSH2 0x3309 DUP2 PUSH2 0x2E84 JUMP JUMPDEST SWAP1 POP SWAP2 SWAP1 POP JUMP JUMPDEST PUSH1 0x0 PUSH1 0x20 DUP3 ADD SWAP1 POP DUP2 DUP2 SUB PUSH1 0x0 DUP4 ADD MSTORE PUSH2 0x3329 DUP2 PUSH2 0x2EA7 JUMP JUMPDEST SWAP1 POP SWAP2 SWAP1 POP JUMP JUMPDEST PUSH1 0x0 PUSH1 0x20 DUP3 ADD SWAP1 POP DUP2 DUP2 SUB PUSH1 0x0 DUP4 ADD MSTORE PUSH2 0x3349 DUP2 PUSH2 0x2ECA JUMP JUMPDEST SWAP1 POP SWAP2 SWAP1 POP JUMP JUMPDEST PUSH1 0x0 PUSH1 0x20 DUP3 ADD SWAP1 POP DUP2 DUP2 SUB PUSH1 0x0 DUP4 ADD MSTORE PUSH2 0x3369 DUP2 PUSH2 0x2EED JUMP JUMPDEST SWAP1 POP SWAP2 SWAP1 POP JUMP JUMPDEST PUSH1 0x0 PUSH1 0x20 DUP3 ADD SWAP1 POP DUP2 DUP2 SUB PUSH1 0x0 DUP4 ADD MSTORE PUSH2 0x3389 DUP2 PUSH2 0x2F10 JUMP JUMPDEST SWAP1 POP SWAP2 SWAP1 POP JUMP JUMPDEST PUSH1 0x0 PUSH1 0x20 DUP3 ADD SWAP1 POP DUP2 DUP2 SUB PUSH1 0x0 DUP4 ADD MSTORE PUSH2 0x33A9 DUP2 PUSH2 0x2F33 JUMP JUMPDEST SWAP1 POP SWAP2 SWAP1 POP JUMP JUMPDEST PUSH1 0x0 PUSH1 0x20 DUP3 ADD SWAP1 POP DUP2 DUP2 SUB PUSH1 0x0 DUP4 ADD MSTORE PUSH2 0x33C9 DUP2 PUSH2 0x2F56 JUMP JUMPDEST SWAP1 POP SWAP2 SWAP1 POP JUMP JUMPDEST PUSH1 0x0 PUSH1 0x40 DUP3 ADD SWAP1 POP PUSH2 0x33E5 PUSH1 0x0 DUP4 ADD DUP5 PUSH2 0x2F79 JUMP JUMPDEST SWAP3 SWAP2 POP POP JUMP JUMPDEST PUSH1 0x0 PUSH1 0x20 DUP3 ADD SWAP1 POP DUP2 DUP2 SUB PUSH1 0x0 DUP4 ADD MSTORE PUSH2 0x3405 DUP2 DUP5 PUSH2 0x2FA8 JUMP JUMPDEST SWAP1 POP SWAP3 SWAP2 POP POP JUMP JUMPDEST PUSH1 0x0 PUSH2 0x100 DUP3 ADD SWAP1 POP PUSH2 0x3423 PUSH1 0x0 DUP4 ADD DUP5 PUSH2 0x3006 JUMP JUMPDEST SWAP3 SWAP2 POP POP JUMP JUMPDEST PUSH1 0x0 PUSH1 0x20 DUP3 ADD SWAP1 POP DUP2 DUP2 SUB PUSH1 0x0 DUP4 ADD MSTORE PUSH2 0x3443 DUP2 DUP5 PUSH2 0x30A8 JUMP JUMPDEST SWAP1 POP SWAP3 SWAP2 POP POP JUMP JUMPDEST PUSH1 0x0 PUSH1 0x20 DUP3 ADD SWAP1 POP PUSH2 0x3460 PUSH1 0x0 DUP4 ADD DUP5 PUSH2 0x311A JUMP JUMPDEST SWAP3 SWAP2 POP POP JUMP JUMPDEST PUSH1 0x0 PUSH1 0x80 DUP3 ADD SWAP1 POP PUSH2 0x347B PUSH1 0x0 DUP4 ADD DUP9 PUSH2 0x311A JUMP JUMPDEST PUSH2 0x3488 PUSH1 0x20 DUP4 ADD DUP8 PUSH2 0x2C8E JUMP JUMPDEST DUP2 DUP2 SUB PUSH1 0x40 DUP4 ADD MSTORE PUSH2 0x349B DUP2 DUP6 DUP8 PUSH2 0x2D6F JUMP JUMPDEST SWAP1 POP PUSH2 0x34AA PUSH1 0x60 DUP4 ADD DUP5 PUSH2 0x2D18 JUMP JUMPDEST SWAP7 SWAP6 POP POP POP POP POP POP JUMP JUMPDEST PUSH1 0x0 DUP2 SWAP1 POP SWAP2 SWAP1 POP JUMP JUMPDEST PUSH1 0x0 DUP2 MLOAD SWAP1 POP SWAP2 SWAP1 POP JUMP JUMPDEST PUSH1 0x0 DUP2 MLOAD SWAP1 POP SWAP2 SWAP1 POP JUMP JUMPDEST PUSH1 0x0 PUSH1 0x20 DUP3 ADD SWAP1 POP SWAP2 SWAP1 POP JUMP JUMPDEST PUSH1 0x0 DUP3 DUP3 MSTORE PUSH1 0x20 DUP3 ADD SWAP1 POP SWAP3 SWAP2 POP POP JUMP JUMPDEST PUSH1 0x0 DUP3 DUP3 MSTORE PUSH1 0x20 DUP3 ADD SWAP1 POP SWAP3 SWAP2 POP POP JUMP JUMPDEST PUSH1 0x0 DUP3 DUP3 MSTORE PUSH1 0x20 DUP3 ADD SWAP1 POP SWAP3 SWAP2 POP POP JUMP JUMPDEST PUSH1 0x0 DUP3 DUP3 MSTORE PUSH1 0x20 DUP3 ADD SWAP1 POP SWAP3 SWAP2 POP POP JUMP JUMPDEST PUSH1 0x0 PUSH2 0x3534 PUSH1 0x20 DUP5 ADD DUP5 PUSH2 0x2795 JUMP JUMPDEST SWAP1 POP SWAP3 SWAP2 POP POP JUMP JUMPDEST PUSH1 0x0 PUSH2 0x3547 DUP3 PUSH2 0x3621 JUMP JUMPDEST SWAP2 POP PUSH2 0x3552 DUP4 PUSH2 0x3621 JUMP JUMPDEST SWAP3 POP DUP3 PUSH32 0xFFFFFFFFFFFFFFFFFFFFFFFFFFFFFFFFFFFFFFFFFFFFFFFFFFFFFFFFFFFFFFFF SUB DUP3 GT ISZERO PUSH2 0x3587 JUMPI PUSH2 0x3586 PUSH2 0x371E JUMP JUMPDEST JUMPDEST DUP3 DUP3 ADD SWAP1 POP SWAP3 SWAP2 POP POP JUMP JUMPDEST PUSH1 0x0 PUSH2 0x359D DUP3 PUSH2 0x3621 JUMP JUMPDEST SWAP2 POP PUSH2 0x35A8 DUP4 PUSH2 0x3621 JUMP JUMPDEST SWAP3 POP DUP3 DUP3 LT ISZERO PUSH2 0x35BB JUMPI PUSH2 0x35BA PUSH2 0x371E JUMP JUMPDEST JUMPDEST DUP3 DUP3 SUB SWAP1 POP SWAP3 SWAP2 POP POP JUMP JUMPDEST PUSH1 0x0 PUSH2 0x35D1 DUP3 PUSH2 0x3601 JUMP JUMPDEST SWAP1 POP SWAP2 SWAP1 POP JUMP JUMPDEST PUSH1 0x0 DUP2 ISZERO ISZERO SWAP1 POP SWAP2 SWAP1 POP JUMP JUMPDEST PUSH1 0x0 DUP2 SWAP1 POP SWAP2 SWAP1 POP JUMP JUMPDEST PUSH1 0x0 DUP2 SWAP1 POP PUSH2 0x35FC DUP3 PUSH2 0x3AB7 JUMP JUMPDEST SWAP2 SWAP1 POP JUMP JUMPDEST PUSH1 0x0 PUSH20 0xFFFFFFFFFFFFFFFFFFFFFFFFFFFFFFFFFFFFFFFF DUP3 AND SWAP1 POP SWAP2 SWAP1 POP JUMP JUMPDEST PUSH1 0x0 DUP2 SWAP1 POP SWAP2 SWAP1 POP JUMP JUMPDEST PUSH1 0x0 PUSH4 0xFFFFFFFF DUP3 AND SWAP1 POP SWAP2 SWAP1 POP JUMP JUMPDEST PUSH1 0x0 PUSH8 0xFFFFFFFFFFFFFFFF DUP3 AND SWAP1 POP SWAP2 SWAP1 POP JUMP JUMPDEST PUSH1 0x0 PUSH2 0x365A DUP3 PUSH2 0x35EE JUMP JUMPDEST SWAP1 POP SWAP2 SWAP1 POP JUMP JUMPDEST DUP3 DUP2 DUP4 CALLDATACOPY PUSH1 0x0 DUP4 DUP4 ADD MSTORE POP POP POP JUMP JUMPDEST PUSH1 0x0 JUMPDEST DUP4 DUP2 LT ISZERO PUSH2 0x368E JUMPI DUP1 DUP3 ADD MLOAD DUP2 DUP5 ADD MSTORE PUSH1 0x20 DUP2 ADD SWAP1 POP PUSH2 0x3673 JUMP JUMPDEST DUP4 DUP2 GT ISZERO PUSH2 0x369D JUMPI PUSH1 0x0 DUP5 DUP5 ADD MSTORE JUMPDEST POP POP POP POP JUMP JUMPDEST PUSH1 0x0 PUSH1 0x2 DUP3 DIV SWAP1 POP PUSH1 0x1 DUP3 AND DUP1 PUSH2 0x36BB JUMPI PUSH1 0x7F DUP3 AND SWAP2 POP JUMPDEST PUSH1 0x20 DUP3 LT DUP2 EQ ISZERO PUSH2 0x36CF JUMPI PUSH2 0x36CE PUSH2 0x377C JUMP JUMPDEST JUMPDEST POP SWAP2 SWAP1 POP JUMP JUMPDEST PUSH1 0x0 PUSH2 0x36E0 DUP3 PUSH2 0x3621 JUMP JUMPDEST SWAP2 POP PUSH32 0xFFFFFFFFFFFFFFFFFFFFFFFFFFFFFFFFFFFFFFFFFFFFFFFFFFFFFFFFFFFFFFFF DUP3 EQ ISZERO PUSH2 0x3713 JUMPI PUSH2 0x3712 PUSH2 0x371E JUMP JUMPDEST JUMPDEST PUSH1 0x1 DUP3 ADD SWAP1 POP SWAP2 SWAP1 POP JUMP JUMPDEST PUSH32 0x4E487B7100000000000000000000000000000000000000000000000000000000 PUSH1 0x0 MSTORE PUSH1 0x11 PUSH1 0x4 MSTORE PUSH1 0x24 PUSH1 0x0 REVERT JUMPDEST PUSH32 0x4E487B7100000000000000000000000000000000000000000000000000000000 PUSH1 0x0 MSTORE PUSH1 0x21 PUSH1 0x4 MSTORE PUSH1 0x24 PUSH1 0x0 REVERT JUMPDEST PUSH32 0x4E487B7100000000000000000000000000000000000000000000000000000000 PUSH1 0x0 MSTORE PUSH1 0x22 PUSH1 0x4 MSTORE PUSH1 0x24 PUSH1 0x0 REVERT JUMPDEST PUSH32 0x4E487B7100000000000000000000000000000000000000000000000000000000 PUSH1 0x0 MSTORE PUSH1 0x32 PUSH1 0x4 MSTORE PUSH1 0x24 PUSH1 0x0 REVERT JUMPDEST PUSH32 0x4E487B7100000000000000000000000000000000000000000000000000000000 PUSH1 0x0 MSTORE PUSH1 0x41 PUSH1 0x4 MSTORE PUSH1 0x24 PUSH1 0x0 REVERT JUMPDEST PUSH1 0x0 DUP1 REVERT JUMPDEST PUSH1 0x0 DUP1 REVERT JUMPDEST PUSH1 0x0 DUP1 REVERT JUMPDEST PUSH1 0x0 DUP1 REVERT JUMPDEST PUSH1 0x0 DUP1 REVERT JUMPDEST PUSH1 0x0 PUSH1 0x1F NOT PUSH1 0x1F DUP4 ADD AND SWAP1 POP SWAP2 SWAP1 POP JUMP JUMPDEST PUSH32 0x43616C6C6572206973206E6F74206F776E657200000000000000000000000000 PUSH1 0x0 DUP3 ADD MSTORE POP JUMP JUMPDEST PUSH32 0x4A6F696E20646561646C696E6520686173207061737365640000000000000000 PUSH1 0x0 DUP3 ADD MSTORE POP JUMP JUMPDEST PUSH32 0x546865205461736B20526F756E64204D75737420657869737473000000000000 PUSH1 0x0 DUP3 ADD MSTORE POP JUMP JUMPDEST PUSH32 0x74686520726F756E6420686173206265656E20616C7265616479207374617274 PUSH1 0x0 DUP3 ADD MSTORE PUSH32 0x6564206F72207468652070726520726F756E6420646F6573206E6F7420657869 PUSH1 0x20 DUP3 ADD MSTORE PUSH32 0x7374000000000000000000000000000000000000000000000000000000000000 PUSH1 0x40 DUP3 ADD MSTORE POP JUMP JUMPDEST PUSH32 0x5468697320726F756E64206973206E6F742072756E6E696E67206E6F77000000 PUSH1 0x0 DUP3 ADD MSTORE POP JUMP JUMPDEST PUSH32 0x43616E646964617465206D757374206578697374000000000000000000000000 PUSH1 0x0 DUP3 ADD MSTORE POP JUMP JUMPDEST PUSH32 0x43616E6E6F74206A6F696E207468652073616D6520726F756E64206D756C7469 PUSH1 0x0 DUP3 ADD MSTORE PUSH32 0x706C652074696D65730000000000000000000000000000000000000000000000 PUSH1 0x20 DUP3 ADD MSTORE POP JUMP JUMPDEST PUSH32 0x4D7573742063616C6C656420627920746865207461736B206F776E6572000000 PUSH1 0x0 DUP3 ADD MSTORE POP JUMP JUMPDEST PUSH32 0x7468697320726F756E64206861732066696E6973686564206F72206974206861 PUSH1 0x0 DUP3 ADD MSTORE PUSH32 0x736E2774206265656E2073746172746564207965742E00000000000000000000 PUSH1 0x20 DUP3 ADD MSTORE POP JUMP JUMPDEST PUSH32 0x75706C6F616420646561646C696E652068617320706173736564000000000000 PUSH1 0x0 DUP3 ADD MSTORE POP JUMP JUMPDEST PUSH32 0x5461736B206E6F74206578697374730000000000000000000000000000000000 PUSH1 0x0 DUP3 ADD MSTORE POP JUMP JUMPDEST PUSH32 0x4D7573742070726F766964652061646472657373657300000000000000000000 PUSH1 0x0 DUP3 ADD MSTORE POP JUMP JUMPDEST PUSH1 0x4 DUP2 LT PUSH2 0x3AC8 JUMPI PUSH2 0x3AC7 PUSH2 0x374D JUMP JUMPDEST JUMPDEST POP JUMP JUMPDEST PUSH2 0x3AD4 DUP2 PUSH2 0x35C6 JUMP JUMPDEST DUP2 EQ PUSH2 0x3ADF JUMPI PUSH1 0x0 DUP1 REVERT JUMPDEST POP JUMP JUMPDEST PUSH2 0x3AEB DUP2 PUSH2 0x35E4 JUMP JUMPDEST DUP2 EQ PUSH2 0x3AF6 JUMPI PUSH1 0x0 DUP1 REVERT JUMPDEST POP JUMP JUMPDEST PUSH2 0x3B02 DUP2 PUSH2 0x362B JUMP JUMPDEST DUP2 EQ PUSH2 0x3B0D JUMPI PUSH1 0x0 DUP1 REVERT JUMPDEST POP JUMP JUMPDEST PUSH2 0x3B19 DUP2 PUSH2 0x363B JUMP JUMPDEST DUP2 EQ PUSH2 0x3B24 JUMPI PUSH1 0x0 DUP1 REVERT JUMPDEST POP JUMP INVALID LOG2 PUSH5 0x6970667358 0x22 SLT KECCAK256 SWAP11 0x1E OR PUSH19 0xC7697658AF17B19B52F6491A02A951CF51C1C8 PUSH27 0x66A0A6C718F9260764736F6C634300080700330000000000000000 "
		},
		"gasEstimates": {
			"creation": {
				"codeDepositCost": "3039400",
				"executionCost": "31285",
				"totalCost": "3070685"
			},
			"external": {
				"changeOwner(address)": "30633",
				"createTask(string,bytes32)": "infinite",
				"endRound(bytes32,uint64)": "infinite",
				"getCandidatePks(bytes32,uint64,address)": "infinite",
				"getCommitment(bytes32,address,uint64)": "infinite",
				"getOwner()": "2566",
				"getTaskData(bytes32)": "infinite",
				"getTaskRound(bytes32,uint64)": "infinite",
				"joinRound(bytes32,uint64,bytes32,bytes32)": "infinite",
				"selectCandidates(bytes32,uint64,address[])": "infinite",
				"startAggregate(bytes32,uint64,address[])": "infinite",
				"startRound(bytes32,uint64,uint32,uint32,uint32,uint32)": "infinite",
				"testAssembly()": "infinite",
				"uploadSeedCommitment(bytes32,uint64,bytes)": "infinite",
				"uploadSkMaskCommitment(bytes32,uint64,bytes)": "infinite",
				"uploadWeightCommitment(bytes32,uint64,bytes)": "infinite"
			}
		},
		"methodIdentifiers": {
			"changeOwner(address)": "a6f9dae1",
			"createTask(string,bytes32)": "75cb2a0e",
			"endRound(bytes32,uint64)": "01bd7269",
			"getCandidatePks(bytes32,uint64,address)": "1449f4de",
			"getCommitment(bytes32,address,uint64)": "8750745e",
			"getOwner()": "893d20e8",
			"getTaskData(bytes32)": "58af9f73",
			"getTaskRound(bytes32,uint64)": "4893b362",
			"joinRound(bytes32,uint64,bytes32,bytes32)": "bdf666a4",
			"selectCandidates(bytes32,uint64,address[])": "41e865cb",
			"startAggregate(bytes32,uint64,address[])": "4956219b",
			"startRound(bytes32,uint64,uint32,uint32,uint32,uint32)": "57c91b95",
			"testAssembly()": "12ab8b87",
			"uploadSeedCommitment(bytes32,uint64,bytes)": "456523e2",
			"uploadSkMaskCommitment(bytes32,uint64,bytes)": "20f0672c",
			"uploadWeightCommitment(bytes32,uint64,bytes)": "68f14acf"
		}
	},
	"abi": [
		{
			"inputs": [],
			"stateMutability": "nonpayable",
			"type": "constructor"
		},
		{
			"anonymous": false,
			"inputs": [
				{
					"indexed": false,
					"internalType": "bytes32",
					"name": "taskId",
					"type": "bytes32"
				},
				{
					"indexed": false,
					"internalType": "uint64",
					"name": "round",
					"type": "uint64"
				},
				{
					"indexed": false,
					"internalType": "address[]",
					"name": "onlineClients",
					"type": "address[]"
				}
			],
			"name": "AggregatingStarted",
			"type": "event"
		},
		{
			"anonymous": false,
			"inputs": [
				{
					"indexed": true,
					"internalType": "address",
					"name": "oldOwner",
					"type": "address"
				},
				{
					"indexed": true,
					"internalType": "address",
					"name": "newOwner",
					"type": "address"
				}
			],
			"name": "OwnerSet",
			"type": "event"
		},
		{
			"anonymous": false,
			"inputs": [
				{
					"indexed": false,
					"internalType": "bytes32",
					"name": "taskId",
					"type": "bytes32"
				},
				{
					"indexed": false,
					"internalType": "uint64",
					"name": "round",
					"type": "uint64"
				},
				{
					"indexed": false,
					"internalType": "address[]",
					"name": "addrs",
					"type": "address[]"
				}
			],
			"name": "PartnerSelected",
			"type": "event"
		},
		{
			"anonymous": false,
			"inputs": [
				{
					"indexed": false,
					"internalType": "bytes32",
					"name": "taskId",
					"type": "bytes32"
				},
				{
					"indexed": false,
					"internalType": "uint64",
					"name": "round",
					"type": "uint64"
				}
			],
			"name": "RoundStart",
			"type": "event"
		},
		{
			"anonymous": false,
			"inputs": [
				{
					"indexed": true,
					"internalType": "address",
					"name": "creator",
					"type": "address"
				},
				{
					"indexed": false,
					"internalType": "bytes32",
					"name": "taskId",
					"type": "bytes32"
				},
				{
					"indexed": false,
					"internalType": "string",
					"name": "dataSet",
					"type": "string"
				},
				{
					"indexed": false,
					"internalType": "bytes32",
					"name": "taskCommitment",
					"type": "bytes32"
				}
			],
			"name": "TaskCreated",
			"type": "event"
		},
		{
			"inputs": [
				{
					"internalType": "address",
					"name": "newOwner",
					"type": "address"
				}
			],
			"name": "changeOwner",
			"outputs": [],
			"stateMutability": "nonpayable",
			"type": "function"
		},
		{
			"inputs": [
				{
					"internalType": "string",
					"name": "dataSet",
					"type": "string"
				},
				{
					"internalType": "bytes32",
					"name": "commitment",
					"type": "bytes32"
				}
			],
			"name": "createTask",
			"outputs": [
				{
					"internalType": "bytes32",
					"name": "taskId",
					"type": "bytes32"
				}
			],
			"stateMutability": "payable",
			"type": "function"
		},
		{
			"inputs": [
				{
					"internalType": "bytes32",
					"name": "taskId",
					"type": "bytes32"
				},
				{
					"internalType": "uint64",
					"name": "round",
					"type": "uint64"
				}
			],
			"name": "endRound",
			"outputs": [],
			"stateMutability": "nonpayable",
			"type": "function"
		},
		{
			"inputs": [
				{
					"internalType": "bytes32",
					"name": "taskId",
					"type": "bytes32"
				},
				{
					"internalType": "uint64",
					"name": "round",
					"type": "uint64"
				},
				{
					"internalType": "address",
					"name": "candidateAddr",
					"type": "address"
				}
			],
			"name": "getCandidatePks",
			"outputs": [
				{
					"components": [
						{
							"internalType": "bytes32",
							"name": "pk1",
							"type": "bytes32"
						},
						{
							"internalType": "bytes32",
							"name": "pk2",
							"type": "bytes32"
						}
					],
					"internalType": "struct DeltaContract.Candidate",
					"name": "candidate",
					"type": "tuple"
				}
			],
			"stateMutability": "view",
			"type": "function"
		},
		{
			"inputs": [
				{
					"internalType": "bytes32",
					"name": "taskId",
					"type": "bytes32"
				},
				{
					"internalType": "address",
					"name": "clientaddress",
					"type": "address"
				},
				{
					"internalType": "uint64",
					"name": "round",
					"type": "uint64"
				}
			],
			"name": "getCommitment",
			"outputs": [
				{
					"components": [
						{
							"internalType": "bytes",
							"name": "weightCommitment",
							"type": "bytes"
						},
						{
							"internalType": "bytes",
							"name": "seedCmmtmnt",
							"type": "bytes"
						},
						{
							"internalType": "bytes",
							"name": "secretKeyMaskCmmtmnt",
							"type": "bytes"
						}
					],
					"internalType": "struct DeltaContract.CommitmentData",
					"name": "commitment",
					"type": "tuple"
				}
			],
			"stateMutability": "view",
			"type": "function"
		},
		{
			"inputs": [],
			"name": "getOwner",
			"outputs": [
				{
					"internalType": "address",
					"name": "",
					"type": "address"
				}
			],
			"stateMutability": "view",
			"type": "function"
		},
		{
			"inputs": [
				{
					"internalType": "bytes32",
					"name": "taskId",
					"type": "bytes32"
				}
			],
			"name": "getTaskData",
			"outputs": [
				{
					"components": [
						{
							"internalType": "address",
							"name": "creator",
							"type": "address"
						},
						{
							"internalType": "string",
							"name": "dataSet",
							"type": "string"
						},
						{
							"internalType": "bytes32",
							"name": "commitment",
							"type": "bytes32"
						},
						{
							"internalType": "uint64",
							"name": "currentRound",
							"type": "uint64"
						}
					],
					"internalType": "struct DeltaContract.Task",
					"name": "task",
					"type": "tuple"
				}
			],
			"stateMutability": "view",
			"type": "function"
		},
		{
			"inputs": [
				{
					"internalType": "bytes32",
					"name": "taskId",
					"type": "bytes32"
				},
				{
					"internalType": "uint64",
					"name": "round",
					"type": "uint64"
				}
			],
			"name": "getTaskRound",
			"outputs": [
				{
					"components": [
						{
							"internalType": "uint64",
							"name": "currentRound",
							"type": "uint64"
						},
						{
							"internalType": "uint32",
							"name": "maxSample",
							"type": "uint32"
						},
						{
							"internalType": "uint32",
							"name": "minSample",
							"type": "uint32"
						},
						{
							"internalType": "enum DeltaContract.RoundStatus",
							"name": "status",
							"type": "uint8"
						},
						{
							"internalType": "uint256",
							"name": "roundStartBlockNum",
							"type": "uint256"
						},
						{
							"internalType": "uint256",
							"name": "calcStartBlockNum",
							"type": "uint256"
						},
						{
							"internalType": "uint32",
							"name": "joinTimeout",
							"type": "uint32"
						},
						{
							"internalType": "uint32",
							"name": "computTimeout",
							"type": "uint32"
						}
					],
					"internalType": "struct DeltaContract.ExtCallTaskRoundStruct",
					"name": "taskround",
					"type": "tuple"
				}
			],
			"stateMutability": "view",
			"type": "function"
		},
		{
			"inputs": [
				{
					"internalType": "bytes32",
					"name": "taskId",
					"type": "bytes32"
				},
				{
					"internalType": "uint64",
					"name": "round",
					"type": "uint64"
				},
				{
					"internalType": "bytes32",
					"name": "pk1",
					"type": "bytes32"
				},
				{
					"internalType": "bytes32",
					"name": "pk2",
					"type": "bytes32"
				}
			],
			"name": "joinRound",
			"outputs": [
				{
					"internalType": "bool",
					"name": "",
					"type": "bool"
				}
			],
			"stateMutability": "nonpayable",
			"type": "function"
		},
		{
			"inputs": [
				{
					"internalType": "bytes32",
					"name": "taskId",
					"type": "bytes32"
				},
				{
					"internalType": "uint64",
					"name": "round",
					"type": "uint64"
				},
				{
					"internalType": "address[]",
					"name": "cltaddrs",
					"type": "address[]"
				}
			],
			"name": "selectCandidates",
			"outputs": [],
			"stateMutability": "nonpayable",
			"type": "function"
		},
		{
			"inputs": [
				{
					"internalType": "bytes32",
					"name": "taskId",
					"type": "bytes32"
				},
				{
					"internalType": "uint64",
					"name": "round",
					"type": "uint64"
				},
				{
					"internalType": "address[]",
					"name": "onlineClients",
					"type": "address[]"
				}
			],
			"name": "startAggregate",
			"outputs": [],
			"stateMutability": "nonpayable",
			"type": "function"
		},
		{
			"inputs": [
				{
					"internalType": "bytes32",
					"name": "taskId",
					"type": "bytes32"
				},
				{
					"internalType": "uint64",
					"name": "round",
					"type": "uint64"
				},
				{
					"internalType": "uint32",
					"name": "maxSample",
					"type": "uint32"
				},
				{
					"internalType": "uint32",
					"name": "minSample",
					"type": "uint32"
				},
				{
					"internalType": "uint32",
					"name": "joinTimeout",
					"type": "uint32"
				},
				{
					"internalType": "uint32",
					"name": "computTimeout",
					"type": "uint32"
				}
			],
			"name": "startRound",
			"outputs": [],
			"stateMutability": "nonpayable",
			"type": "function"
		},
		{
			"inputs": [],
			"name": "testAssembly",
			"outputs": [
				{
					"internalType": "uint256",
					"name": "ret",
					"type": "uint256"
				}
			],
			"stateMutability": "view",
			"type": "function"
		},
		{
			"inputs": [
				{
					"internalType": "bytes32",
					"name": "taskId",
					"type": "bytes32"
				},
				{
					"internalType": "uint64",
					"name": "round",
					"type": "uint64"
				},
				{
					"internalType": "bytes",
					"name": "seedCmmtmnt",
					"type": "bytes"
				}
			],
			"name": "uploadSeedCommitment",
			"outputs": [],
			"stateMutability": "nonpayable",
			"type": "function"
		},
		{
			"inputs": [
				{
					"internalType": "bytes32",
					"name": "taskId",
					"type": "bytes32"
				},
				{
					"internalType": "uint64",
					"name": "round",
					"type": "uint64"
				},
				{
					"internalType": "bytes",
					"name": "secretKeyMaskCmmtmnt",
					"type": "bytes"
				}
			],
			"name": "uploadSkMaskCommitment",
			"outputs": [],
			"stateMutability": "nonpayable",
			"type": "function"
		},
		{
			"inputs": [
				{
					"internalType": "bytes32",
					"name": "taskId",
					"type": "bytes32"
				},
				{
					"internalType": "uint64",
					"name": "round",
					"type": "uint64"
				},
				{
					"internalType": "bytes",
					"name": "weightCommitment",
					"type": "bytes"
				}
			],
			"name": "uploadWeightCommitment",
			"outputs": [],
			"stateMutability": "nonpayable",
			"type": "function"
		}
	]
}