{
	"data": {
		"bytecode": {
			"linkReferences": {},
			"object": "60806040523480156200001157600080fd5b50604051620015d9380380620015d9833981810160405281019062000037919062000095565b806000806101000a81548173ffffffffffffffffffffffffffffffffffffffff021916908373ffffffffffffffffffffffffffffffffffffffff160217905550506200012e565b6000815190506200008f8162000114565b92915050565b600060208284031215620000ae57620000ad6200010f565b5b6000620000be848285016200007e565b91505092915050565b6000620000d482620000ef565b9050919050565b6000620000e882620000c7565b9050919050565b600073ffffffffffffffffffffffffffffffffffffffff82169050919050565b600080fd5b6200011f81620000db565b81146200012b57600080fd5b50565b61149b806200013e6000396000f3fe6080604052600436106100915760003560e01c806357c91b951161005957806357c91b951461016557806368f14acf1461018e57806375cb2a0e146101b75780638750745e146101e7578063bdf666a41461022457610091565b806320f0672c146100965780632e9c58bb146100bf57806341e865cb146100ea578063456523e2146101135780634956219b1461013c575b600080fd5b3480156100a257600080fd5b506100bd60048036038101906100b89190610c87565b610261565b005b3480156100cb57600080fd5b506100d46102f8565b6040516100e19190610ff1565b60405180910390f35b3480156100f657600080fd5b50610111600480360381019061010c9190610bac565b610301565b005b34801561011f57600080fd5b5061013a60048036038101906101359190610c87565b610398565b005b34801561014857600080fd5b50610163600480360381019061015e9190610bac565b61042f565b005b34801561017157600080fd5b5061018c60048036038101906101879190610cfb565b6104c6565b005b34801561019a57600080fd5b506101b560048036038101906101b09190610c87565b610563565b005b6101d160048036038101906101cc9190610d88565b6105fa565b6040516101de919061100c565b60405180910390f35b3480156101f357600080fd5b5061020e60048036038101906102099190610b59565b6106b5565b60405161021b91906111b6565b60405180910390f35b34801561023057600080fd5b5061024b60048036038101906102469190610c20565b610778565b6040516102589190610ff1565b60405180910390f35b60008054906101000a900473ffffffffffffffffffffffffffffffffffffffff1673ffffffffffffffffffffffffffffffffffffffff166320f0672c858585856040518563ffffffff1660e01b81526004016102c094939291906110e3565b600060405180830381600087803b1580156102da57600080fd5b505af11580156102ee573d6000803e3d6000fd5b5050505050505050565b60006001905090565b60008054906101000a900473ffffffffffffffffffffffffffffffffffffffff1673ffffffffffffffffffffffffffffffffffffffff166341e865cb858585856040518563ffffffff1660e01b8152600401610360949392919061105e565b600060405180830381600087803b15801561037a57600080fd5b505af115801561038e573d6000803e3d6000fd5b5050505050505050565b60008054906101000a900473ffffffffffffffffffffffffffffffffffffffff1673ffffffffffffffffffffffffffffffffffffffff1663456523e2858585856040518563ffffffff1660e01b81526004016103f794939291906110e3565b600060405180830381600087803b15801561041157600080fd5b505af1158015610425573d6000803e3d6000fd5b5050505050505050565b60008054906101000a900473ffffffffffffffffffffffffffffffffffffffff1673ffffffffffffffffffffffffffffffffffffffff16634956219b858585856040518563ffffffff1660e01b815260040161048e949392919061105e565b600060405180830381600087803b1580156104a857600080fd5b505af11580156104bc573d6000803e3d6000fd5b5050505050505050565b60008054906101000a900473ffffffffffffffffffffffffffffffffffffffff1673ffffffffffffffffffffffffffffffffffffffff166357c91b958787878787876040518763ffffffff1660e01b815260040161052996959493929190611123565b600060405180830381600087803b15801561054357600080fd5b505af1158015610557573d6000803e3d6000fd5b50505050505050505050565b60008054906101000a900473ffffffffffffffffffffffffffffffffffffffff1673ffffffffffffffffffffffffffffffffffffffff166368f14acf858585856040518563ffffffff1660e01b81526004016105c294939291906110e3565b600060405180830381600087803b1580156105dc57600080fd5b505af11580156105f0573d6000803e3d6000fd5b5050505050505050565b60008060009054906101000a900473ffffffffffffffffffffffffffffffffffffffff1673ffffffffffffffffffffffffffffffffffffffff166375cb2a0e8585856040518463ffffffff1660e01b815260040161065a93929190611184565b602060405180830381600087803b15801561067457600080fd5b505af1158015610688573d6000803e3d6000fd5b505050506040513d601f19601f820116820180604052508101906106ac9190610b2c565b90509392505050565b6106bd610836565b60008054906101000a900473ffffffffffffffffffffffffffffffffffffffff1673ffffffffffffffffffffffffffffffffffffffff16638750745e8585856040518463ffffffff1660e01b815260040161071a93929190611027565b60006040518083038186803b15801561073257600080fd5b505afa158015610746573d6000803e3d6000fd5b505050506040513d6000823e3d601f19601f8201168201806040525081019061076f9190610de8565b90509392505050565b60008060009054906101000a900473ffffffffffffffffffffffffffffffffffffffff1673ffffffffffffffffffffffffffffffffffffffff1663bdf666a4868686866040518563ffffffff1660e01b81526004016107da949392919061109e565b602060405180830381600087803b1580156107f457600080fd5b505af1158015610808573d6000803e3d6000fd5b505050506040513d601f19601f8201168201806040525081019061082c9190610aff565b9050949350505050565b60405180606001604052806060815260200160608152602001606081525090565b600061086a610865846111fd565b6111d8565b905082815260208101848484011115610886576108856113d2565b5b610891848285611326565b509392505050565b6000813590506108a8816113f2565b92915050565b60008083601f8401126108c4576108c36113be565b5b8235905067ffffffffffffffff8111156108e1576108e06113b9565b5b6020830191508360208202830111156108fd576108fc6113cd565b5b9250929050565b60008151905061091381611409565b92915050565b60008135905061092881611420565b92915050565b60008151905061093d81611420565b92915050565b60008083601f840112610959576109586113be565b5b8235905067ffffffffffffffff811115610976576109756113b9565b5b602083019150836001820283011115610992576109916113cd565b5b9250929050565b600082601f8301126109ae576109ad6113be565b5b81516109be848260208601610857565b91505092915050565b60008083601f8401126109dd576109dc6113be565b5b8235905067ffffffffffffffff8111156109fa576109f96113b9565b5b602083019150836001820283011115610a1657610a156113cd565b5b9250929050565b600060608284031215610a3357610a326113c3565b5b610a3d60606111d8565b9050600082015167ffffffffffffffff811115610a5d57610a5c6113c8565b5b610a6984828501610999565b600083015250602082015167ffffffffffffffff811115610a8d57610a8c6113c8565b5b610a9984828501610999565b602083015250604082015167ffffffffffffffff811115610abd57610abc6113c8565b5b610ac984828501610999565b60408301525092915050565b600081359050610ae481611437565b92915050565b600081359050610af98161144e565b92915050565b600060208284031215610b1557610b146113dc565b5b6000610b2384828501610904565b91505092915050565b600060208284031215610b4257610b416113dc565b5b6000610b508482850161092e565b91505092915050565b600080600060608486031215610b7257610b716113dc565b5b6000610b8086828701610919565b9350506020610b9186828701610899565b9250506040610ba286828701610aea565b9150509250925092565b60008060008060608587031215610bc657610bc56113dc565b5b6000610bd487828801610919565b9450506020610be587828801610aea565b935050604085013567ffffffffffffffff811115610c0657610c056113d7565b5b610c12878288016108ae565b925092505092959194509250565b60008060008060808587031215610c3a57610c396113dc565b5b6000610c4887828801610919565b9450506020610c5987828801610aea565b9350506040610c6a87828801610919565b9250506060610c7b87828801610919565b91505092959194509250565b60008060008060608587031215610ca157610ca06113dc565b5b6000610caf87828801610919565b9450506020610cc087828801610aea565b935050604085013567ffffffffffffffff811115610ce157610ce06113d7565b5b610ced87828801610943565b925092505092959194509250565b60008060008060008060c08789031215610d1857610d176113dc565b5b6000610d2689828a01610919565b9650506020610d3789828a01610aea565b9550506040610d4889828a01610ad5565b9450506060610d5989828a01610ad5565b9350506080610d6a89828a01610ad5565b92505060a0610d7b89828a01610ad5565b9150509295509295509295565b600080600060408486031215610da157610da06113dc565b5b600084013567ffffffffffffffff811115610dbf57610dbe6113d7565b5b610dcb868287016109c7565b93509350506020610dde86828701610919565b9150509250925092565b600060208284031215610dfe57610dfd6113dc565b5b600082015167ffffffffffffffff811115610e1c57610e1b6113d7565b5b610e2884828501610a1d565b91505092915050565b6000610e3d8383610e49565b60208301905092915050565b610e52816112ab565b82525050565b610e61816112ab565b82525050565b6000610e738385611250565b9350610e7e8261122e565b8060005b85811015610eb757610e948284611294565b610e9e8882610e31565b9750610ea983611243565b925050600181019050610e82565b5085925050509392505050565b610ecd816112bd565b82525050565b610edc816112c9565b82525050565b6000610eee8385611272565b9350610efb838584611317565b610f04836113e1565b840190509392505050565b6000610f1a82611238565b610f248185611261565b9350610f34818560208601611326565b610f3d816113e1565b840191505092915050565b6000610f548385611283565b9350610f61838584611317565b610f6a836113e1565b840190509392505050565b60006060830160008301518482036000860152610f928282610f0f565b91505060208301518482036020860152610fac8282610f0f565b91505060408301518482036040860152610fc68282610f0f565b9150508091505092915050565b610fdc816112f3565b82525050565b610feb81611303565b82525050565b60006020820190506110066000830184610ec4565b92915050565b60006020820190506110216000830184610ed3565b92915050565b600060608201905061103c6000830186610ed3565b6110496020830185610e58565b6110566040830184610fe2565b949350505050565b60006060820190506110736000830187610ed3565b6110806020830186610fe2565b8181036040830152611093818486610e67565b905095945050505050565b60006080820190506110b36000830187610ed3565b6110c06020830186610fe2565b6110cd6040830185610ed3565b6110da6060830184610ed3565b95945050505050565b60006060820190506110f86000830187610ed3565b6111056020830186610fe2565b8181036040830152611118818486610ee2565b905095945050505050565b600060c0820190506111386000830189610ed3565b6111456020830188610fe2565b6111526040830187610fd3565b61115f6060830186610fd3565b61116c6080830185610fd3565b61117960a0830184610fd3565b979650505050505050565b6000604082019050818103600083015261119f818587610f48565b90506111ae6020830184610ed3565b949350505050565b600060208201905081810360008301526111d08184610f75565b905092915050565b60006111e26111f3565b90506111ee8282611359565b919050565b6000604051905090565b600067ffffffffffffffff8211156112185761121761138a565b5b611221826113e1565b9050602081019050919050565b6000819050919050565b600081519050919050565b6000602082019050919050565b600082825260208201905092915050565b600082825260208201905092915050565b600082825260208201905092915050565b600082825260208201905092915050565b60006112a36020840184610899565b905092915050565b60006112b6826112d3565b9050919050565b60008115159050919050565b6000819050919050565b600073ffffffffffffffffffffffffffffffffffffffff82169050919050565b600063ffffffff82169050919050565b600067ffffffffffffffff82169050919050565b82818337600083830152505050565b60005b83811015611344578082015181840152602081019050611329565b83811115611353576000848401525b50505050565b611362826113e1565b810181811067ffffffffffffffff821117156113815761138061138a565b5b80604052505050565b7f4e487b7100000000000000000000000000000000000000000000000000000000600052604160045260246000fd5b600080fd5b600080fd5b600080fd5b600080fd5b600080fd5b600080fd5b600080fd5b600080fd5b6000601f19601f8301169050919050565b6113fb816112ab565b811461140657600080fd5b50565b611412816112bd565b811461141d57600080fd5b50565b611429816112c9565b811461143457600080fd5b50565b611440816112f3565b811461144b57600080fd5b50565b61145781611303565b811461146257600080fd5b5056fea2646970667358221220f07a6a21a29bef25172e977623144e2bc9fac43b76b9bb63bcfccd4d8767e0ef64736f6c63430008070033",
			"opcodes": "PUSH1 0x80 PUSH1 0x40 MSTORE CALLVALUE DUP1 ISZERO PUSH3 0x11 JUMPI PUSH1 0x0 DUP1 REVERT JUMPDEST POP PUSH1 0x40 MLOAD PUSH3 0x15D9 CODESIZE SUB DUP1 PUSH3 0x15D9 DUP4 CODECOPY DUP2 DUP2 ADD PUSH1 0x40 MSTORE DUP2 ADD SWAP1 PUSH3 0x37 SWAP2 SWAP1 PUSH3 0x95 JUMP JUMPDEST DUP1 PUSH1 0x0 DUP1 PUSH2 0x100 EXP DUP2 SLOAD DUP2 PUSH20 0xFFFFFFFFFFFFFFFFFFFFFFFFFFFFFFFFFFFFFFFF MUL NOT AND SWAP1 DUP4 PUSH20 0xFFFFFFFFFFFFFFFFFFFFFFFFFFFFFFFFFFFFFFFF AND MUL OR SWAP1 SSTORE POP POP PUSH3 0x12E JUMP JUMPDEST PUSH1 0x0 DUP2 MLOAD SWAP1 POP PUSH3 0x8F DUP2 PUSH3 0x114 JUMP JUMPDEST SWAP3 SWAP2 POP POP JUMP JUMPDEST PUSH1 0x0 PUSH1 0x20 DUP3 DUP5 SUB SLT ISZERO PUSH3 0xAE JUMPI PUSH3 0xAD PUSH3 0x10F JUMP JUMPDEST JUMPDEST PUSH1 0x0 PUSH3 0xBE DUP5 DUP3 DUP6 ADD PUSH3 0x7E JUMP JUMPDEST SWAP2 POP POP SWAP3 SWAP2 POP POP JUMP JUMPDEST PUSH1 0x0 PUSH3 0xD4 DUP3 PUSH3 0xEF JUMP JUMPDEST SWAP1 POP SWAP2 SWAP1 POP JUMP JUMPDEST PUSH1 0x0 PUSH3 0xE8 DUP3 PUSH3 0xC7 JUMP JUMPDEST SWAP1 POP SWAP2 SWAP1 POP JUMP JUMPDEST PUSH1 0x0 PUSH20 0xFFFFFFFFFFFFFFFFFFFFFFFFFFFFFFFFFFFFFFFF DUP3 AND SWAP1 POP SWAP2 SWAP1 POP JUMP JUMPDEST PUSH1 0x0 DUP1 REVERT JUMPDEST PUSH3 0x11F DUP2 PUSH3 0xDB JUMP JUMPDEST DUP2 EQ PUSH3 0x12B JUMPI PUSH1 0x0 DUP1 REVERT JUMPDEST POP JUMP JUMPDEST PUSH2 0x149B DUP1 PUSH3 0x13E PUSH1 0x0 CODECOPY PUSH1 0x0 RETURN INVALID PUSH1 0x80 PUSH1 0x40 MSTORE PUSH1 0x4 CALLDATASIZE LT PUSH2 0x91 JUMPI PUSH1 0x0 CALLDATALOAD PUSH1 0xE0 SHR DUP1 PUSH4 0x57C91B95 GT PUSH2 0x59 JUMPI DUP1 PUSH4 0x57C91B95 EQ PUSH2 0x165 JUMPI DUP1 PUSH4 0x68F14ACF EQ PUSH2 0x18E JUMPI DUP1 PUSH4 0x75CB2A0E EQ PUSH2 0x1B7 JUMPI DUP1 PUSH4 0x8750745E EQ PUSH2 0x1E7 JUMPI DUP1 PUSH4 0xBDF666A4 EQ PUSH2 0x224 JUMPI PUSH2 0x91 JUMP JUMPDEST DUP1 PUSH4 0x20F0672C EQ PUSH2 0x96 JUMPI DUP1 PUSH4 0x2E9C58BB EQ PUSH2 0xBF JUMPI DUP1 PUSH4 0x41E865CB EQ PUSH2 0xEA JUMPI DUP1 PUSH4 0x456523E2 EQ PUSH2 0x113 JUMPI DUP1 PUSH4 0x4956219B EQ PUSH2 0x13C JUMPI JUMPDEST PUSH1 0x0 DUP1 REVERT JUMPDEST CALLVALUE DUP1 ISZERO PUSH2 0xA2 JUMPI PUSH1 0x0 DUP1 REVERT JUMPDEST POP PUSH2 0xBD PUSH1 0x4 DUP1 CALLDATASIZE SUB DUP2 ADD SWAP1 PUSH2 0xB8 SWAP2 SWAP1 PUSH2 0xC87 JUMP JUMPDEST PUSH2 0x261 JUMP JUMPDEST STOP JUMPDEST CALLVALUE DUP1 ISZERO PUSH2 0xCB JUMPI PUSH1 0x0 DUP1 REVERT JUMPDEST POP PUSH2 0xD4 PUSH2 0x2F8 JUMP JUMPDEST PUSH1 0x40 MLOAD PUSH2 0xE1 SWAP2 SWAP1 PUSH2 0xFF1 JUMP JUMPDEST PUSH1 0x40 MLOAD DUP1 SWAP2 SUB SWAP1 RETURN JUMPDEST CALLVALUE DUP1 ISZERO PUSH2 0xF6 JUMPI PUSH1 0x0 DUP1 REVERT JUMPDEST POP PUSH2 0x111 PUSH1 0x4 DUP1 CALLDATASIZE SUB DUP2 ADD SWAP1 PUSH2 0x10C SWAP2 SWAP1 PUSH2 0xBAC JUMP JUMPDEST PUSH2 0x301 JUMP JUMPDEST STOP JUMPDEST CALLVALUE DUP1 ISZERO PUSH2 0x11F JUMPI PUSH1 0x0 DUP1 REVERT JUMPDEST POP PUSH2 0x13A PUSH1 0x4 DUP1 CALLDATASIZE SUB DUP2 ADD SWAP1 PUSH2 0x135 SWAP2 SWAP1 PUSH2 0xC87 JUMP JUMPDEST PUSH2 0x398 JUMP JUMPDEST STOP JUMPDEST CALLVALUE DUP1 ISZERO PUSH2 0x148 JUMPI PUSH1 0x0 DUP1 REVERT JUMPDEST POP PUSH2 0x163 PUSH1 0x4 DUP1 CALLDATASIZE SUB DUP2 ADD SWAP1 PUSH2 0x15E SWAP2 SWAP1 PUSH2 0xBAC JUMP JUMPDEST PUSH2 0x42F JUMP JUMPDEST STOP JUMPDEST CALLVALUE DUP1 ISZERO PUSH2 0x171 JUMPI PUSH1 0x0 DUP1 REVERT JUMPDEST POP PUSH2 0x18C PUSH1 0x4 DUP1 CALLDATASIZE SUB DUP2 ADD SWAP1 PUSH2 0x187 SWAP2 SWAP1 PUSH2 0xCFB JUMP JUMPDEST PUSH2 0x4C6 JUMP JUMPDEST STOP JUMPDEST CALLVALUE DUP1 ISZERO PUSH2 0x19A JUMPI PUSH1 0x0 DUP1 REVERT JUMPDEST POP PUSH2 0x1B5 PUSH1 0x4 DUP1 CALLDATASIZE SUB DUP2 ADD SWAP1 PUSH2 0x1B0 SWAP2 SWAP1 PUSH2 0xC87 JUMP JUMPDEST PUSH2 0x563 JUMP JUMPDEST STOP JUMPDEST PUSH2 0x1D1 PUSH1 0x4 DUP1 CALLDATASIZE SUB DUP2 ADD SWAP1 PUSH2 0x1CC SWAP2 SWAP1 PUSH2 0xD88 JUMP JUMPDEST PUSH2 0x5FA JUMP JUMPDEST PUSH1 0x40 MLOAD PUSH2 0x1DE SWAP2 SWAP1 PUSH2 0x100C JUMP JUMPDEST PUSH1 0x40 MLOAD DUP1 SWAP2 SUB SWAP1 RETURN JUMPDEST CALLVALUE DUP1 ISZERO PUSH2 0x1F3 JUMPI PUSH1 0x0 DUP1 REVERT JUMPDEST POP PUSH2 0x20E PUSH1 0x4 DUP1 CALLDATASIZE SUB DUP2 ADD SWAP1 PUSH2 0x209 SWAP2 SWAP1 PUSH2 0xB59 JUMP JUMPDEST PUSH2 0x6B5 JUMP JUMPDEST PUSH1 0x40 MLOAD PUSH2 0x21B SWAP2 SWAP1 PUSH2 0x11B6 JUMP JUMPDEST PUSH1 0x40 MLOAD DUP1 SWAP2 SUB SWAP1 RETURN JUMPDEST CALLVALUE DUP1 ISZERO PUSH2 0x230 JUMPI PUSH1 0x0 DUP1 REVERT JUMPDEST POP PUSH2 0x24B PUSH1 0x4 DUP1 CALLDATASIZE SUB DUP2 ADD SWAP1 PUSH2 0x246 SWAP2 SWAP1 PUSH2 0xC20 JUMP JUMPDEST PUSH2 0x778 JUMP JUMPDEST PUSH1 0x40 MLOAD PUSH2 0x258 SWAP2 SWAP1 PUSH2 0xFF1 JUMP JUMPDEST PUSH1 0x40 MLOAD DUP1 SWAP2 SUB SWAP1 RETURN JUMPDEST PUSH1 0x0 DUP1 SLOAD SWAP1 PUSH2 0x100 EXP SWAP1 DIV PUSH20 0xFFFFFFFFFFFFFFFFFFFFFFFFFFFFFFFFFFFFFFFF AND PUSH20 0xFFFFFFFFFFFFFFFFFFFFFFFFFFFFFFFFFFFFFFFF AND PUSH4 0x20F0672C DUP6 DUP6 DUP6 DUP6 PUSH1 0x40 MLOAD DUP6 PUSH4 0xFFFFFFFF AND PUSH1 0xE0 SHL DUP2 MSTORE PUSH1 0x4 ADD PUSH2 0x2C0 SWAP5 SWAP4 SWAP3 SWAP2 SWAP1 PUSH2 0x10E3 JUMP JUMPDEST PUSH1 0x0 PUSH1 0x40 MLOAD DUP1 DUP4 SUB DUP2 PUSH1 0x0 DUP8 DUP1 EXTCODESIZE ISZERO DUP1 ISZERO PUSH2 0x2DA JUMPI PUSH1 0x0 DUP1 REVERT JUMPDEST POP GAS CALL ISZERO DUP1 ISZERO PUSH2 0x2EE JUMPI RETURNDATASIZE PUSH1 0x0 DUP1 RETURNDATACOPY RETURNDATASIZE PUSH1 0x0 REVERT JUMPDEST POP POP POP POP POP POP POP POP JUMP JUMPDEST PUSH1 0x0 PUSH1 0x1 SWAP1 POP SWAP1 JUMP JUMPDEST PUSH1 0x0 DUP1 SLOAD SWAP1 PUSH2 0x100 EXP SWAP1 DIV PUSH20 0xFFFFFFFFFFFFFFFFFFFFFFFFFFFFFFFFFFFFFFFF AND PUSH20 0xFFFFFFFFFFFFFFFFFFFFFFFFFFFFFFFFFFFFFFFF AND PUSH4 0x41E865CB DUP6 DUP6 DUP6 DUP6 PUSH1 0x40 MLOAD DUP6 PUSH4 0xFFFFFFFF AND PUSH1 0xE0 SHL DUP2 MSTORE PUSH1 0x4 ADD PUSH2 0x360 SWAP5 SWAP4 SWAP3 SWAP2 SWAP1 PUSH2 0x105E JUMP JUMPDEST PUSH1 0x0 PUSH1 0x40 MLOAD DUP1 DUP4 SUB DUP2 PUSH1 0x0 DUP8 DUP1 EXTCODESIZE ISZERO DUP1 ISZERO PUSH2 0x37A JUMPI PUSH1 0x0 DUP1 REVERT JUMPDEST POP GAS CALL ISZERO DUP1 ISZERO PUSH2 0x38E JUMPI RETURNDATASIZE PUSH1 0x0 DUP1 RETURNDATACOPY RETURNDATASIZE PUSH1 0x0 REVERT JUMPDEST POP POP POP POP POP POP POP POP JUMP JUMPDEST PUSH1 0x0 DUP1 SLOAD SWAP1 PUSH2 0x100 EXP SWAP1 DIV PUSH20 0xFFFFFFFFFFFFFFFFFFFFFFFFFFFFFFFFFFFFFFFF AND PUSH20 0xFFFFFFFFFFFFFFFFFFFFFFFFFFFFFFFFFFFFFFFF AND PUSH4 0x456523E2 DUP6 DUP6 DUP6 DUP6 PUSH1 0x40 MLOAD DUP6 PUSH4 0xFFFFFFFF AND PUSH1 0xE0 SHL DUP2 MSTORE PUSH1 0x4 ADD PUSH2 0x3F7 SWAP5 SWAP4 SWAP3 SWAP2 SWAP1 PUSH2 0x10E3 JUMP JUMPDEST PUSH1 0x0 PUSH1 0x40 MLOAD DUP1 DUP4 SUB DUP2 PUSH1 0x0 DUP8 DUP1 EXTCODESIZE ISZERO DUP1 ISZERO PUSH2 0x411 JUMPI PUSH1 0x0 DUP1 REVERT JUMPDEST POP GAS CALL ISZERO DUP1 ISZERO PUSH2 0x425 JUMPI RETURNDATASIZE PUSH1 0x0 DUP1 RETURNDATACOPY RETURNDATASIZE PUSH1 0x0 REVERT JUMPDEST POP POP POP POP POP POP POP POP JUMP JUMPDEST PUSH1 0x0 DUP1 SLOAD SWAP1 PUSH2 0x100 EXP SWAP1 DIV PUSH20 0xFFFFFFFFFFFFFFFFFFFFFFFFFFFFFFFFFFFFFFFF AND PUSH20 0xFFFFFFFFFFFFFFFFFFFFFFFFFFFFFFFFFFFFFFFF AND PUSH4 0x4956219B DUP6 DUP6 DUP6 DUP6 PUSH1 0x40 MLOAD DUP6 PUSH4 0xFFFFFFFF AND PUSH1 0xE0 SHL DUP2 MSTORE PUSH1 0x4 ADD PUSH2 0x48E SWAP5 SWAP4 SWAP3 SWAP2 SWAP1 PUSH2 0x105E JUMP JUMPDEST PUSH1 0x0 PUSH1 0x40 MLOAD DUP1 DUP4 SUB DUP2 PUSH1 0x0 DUP8 DUP1 EXTCODESIZE ISZERO DUP1 ISZERO PUSH2 0x4A8 JUMPI PUSH1 0x0 DUP1 REVERT JUMPDEST POP GAS CALL ISZERO DUP1 ISZERO PUSH2 0x4BC JUMPI RETURNDATASIZE PUSH1 0x0 DUP1 RETURNDATACOPY RETURNDATASIZE PUSH1 0x0 REVERT JUMPDEST POP POP POP POP POP POP POP POP JUMP JUMPDEST PUSH1 0x0 DUP1 SLOAD SWAP1 PUSH2 0x100 EXP SWAP1 DIV PUSH20 0xFFFFFFFFFFFFFFFFFFFFFFFFFFFFFFFFFFFFFFFF AND PUSH20 0xFFFFFFFFFFFFFFFFFFFFFFFFFFFFFFFFFFFFFFFF AND PUSH4 0x57C91B95 DUP8 DUP8 DUP8 DUP8 DUP8 DUP8 PUSH1 0x40 MLOAD DUP8 PUSH4 0xFFFFFFFF AND PUSH1 0xE0 SHL DUP2 MSTORE PUSH1 0x4 ADD PUSH2 0x529 SWAP7 SWAP6 SWAP5 SWAP4 SWAP3 SWAP2 SWAP1 PUSH2 0x1123 JUMP JUMPDEST PUSH1 0x0 PUSH1 0x40 MLOAD DUP1 DUP4 SUB DUP2 PUSH1 0x0 DUP8 DUP1 EXTCODESIZE ISZERO DUP1 ISZERO PUSH2 0x543 JUMPI PUSH1 0x0 DUP1 REVERT JUMPDEST POP GAS CALL ISZERO DUP1 ISZERO PUSH2 0x557 JUMPI RETURNDATASIZE PUSH1 0x0 DUP1 RETURNDATACOPY RETURNDATASIZE PUSH1 0x0 REVERT JUMPDEST POP POP POP POP POP POP POP POP POP POP JUMP JUMPDEST PUSH1 0x0 DUP1 SLOAD SWAP1 PUSH2 0x100 EXP SWAP1 DIV PUSH20 0xFFFFFFFFFFFFFFFFFFFFFFFFFFFFFFFFFFFFFFFF AND PUSH20 0xFFFFFFFFFFFFFFFFFFFFFFFFFFFFFFFFFFFFFFFF AND PUSH4 0x68F14ACF DUP6 DUP6 DUP6 DUP6 PUSH1 0x40 MLOAD DUP6 PUSH4 0xFFFFFFFF AND PUSH1 0xE0 SHL DUP2 MSTORE PUSH1 0x4 ADD PUSH2 0x5C2 SWAP5 SWAP4 SWAP3 SWAP2 SWAP1 PUSH2 0x10E3 JUMP JUMPDEST PUSH1 0x0 PUSH1 0x40 MLOAD DUP1 DUP4 SUB DUP2 PUSH1 0x0 DUP8 DUP1 EXTCODESIZE ISZERO DUP1 ISZERO PUSH2 0x5DC JUMPI PUSH1 0x0 DUP1 REVERT JUMPDEST POP GAS CALL ISZERO DUP1 ISZERO PUSH2 0x5F0 JUMPI RETURNDATASIZE PUSH1 0x0 DUP1 RETURNDATACOPY RETURNDATASIZE PUSH1 0x0 REVERT JUMPDEST POP POP POP POP POP POP POP POP JUMP JUMPDEST PUSH1 0x0 DUP1 PUSH1 0x0 SWAP1 SLOAD SWAP1 PUSH2 0x100 EXP SWAP1 DIV PUSH20 0xFFFFFFFFFFFFFFFFFFFFFFFFFFFFFFFFFFFFFFFF AND PUSH20 0xFFFFFFFFFFFFFFFFFFFFFFFFFFFFFFFFFFFFFFFF AND PUSH4 0x75CB2A0E DUP6 DUP6 DUP6 PUSH1 0x40 MLOAD DUP5 PUSH4 0xFFFFFFFF AND PUSH1 0xE0 SHL DUP2 MSTORE PUSH1 0x4 ADD PUSH2 0x65A SWAP4 SWAP3 SWAP2 SWAP1 PUSH2 0x1184 JUMP JUMPDEST PUSH1 0x20 PUSH1 0x40 MLOAD DUP1 DUP4 SUB DUP2 PUSH1 0x0 DUP8 DUP1 EXTCODESIZE ISZERO DUP1 ISZERO PUSH2 0x674 JUMPI PUSH1 0x0 DUP1 REVERT JUMPDEST POP GAS CALL ISZERO DUP1 ISZERO PUSH2 0x688 JUMPI RETURNDATASIZE PUSH1 0x0 DUP1 RETURNDATACOPY RETURNDATASIZE PUSH1 0x0 REVERT JUMPDEST POP POP POP POP PUSH1 0x40 MLOAD RETURNDATASIZE PUSH1 0x1F NOT PUSH1 0x1F DUP3 ADD AND DUP3 ADD DUP1 PUSH1 0x40 MSTORE POP DUP2 ADD SWAP1 PUSH2 0x6AC SWAP2 SWAP1 PUSH2 0xB2C JUMP JUMPDEST SWAP1 POP SWAP4 SWAP3 POP POP POP JUMP JUMPDEST PUSH2 0x6BD PUSH2 0x836 JUMP JUMPDEST PUSH1 0x0 DUP1 SLOAD SWAP1 PUSH2 0x100 EXP SWAP1 DIV PUSH20 0xFFFFFFFFFFFFFFFFFFFFFFFFFFFFFFFFFFFFFFFF AND PUSH20 0xFFFFFFFFFFFFFFFFFFFFFFFFFFFFFFFFFFFFFFFF AND PUSH4 0x8750745E DUP6 DUP6 DUP6 PUSH1 0x40 MLOAD DUP5 PUSH4 0xFFFFFFFF AND PUSH1 0xE0 SHL DUP2 MSTORE PUSH1 0x4 ADD PUSH2 0x71A SWAP4 SWAP3 SWAP2 SWAP1 PUSH2 0x1027 JUMP JUMPDEST PUSH1 0x0 PUSH1 0x40 MLOAD DUP1 DUP4 SUB DUP2 DUP7 DUP1 EXTCODESIZE ISZERO DUP1 ISZERO PUSH2 0x732 JUMPI PUSH1 0x0 DUP1 REVERT JUMPDEST POP GAS STATICCALL ISZERO DUP1 ISZERO PUSH2 0x746 JUMPI RETURNDATASIZE PUSH1 0x0 DUP1 RETURNDATACOPY RETURNDATASIZE PUSH1 0x0 REVERT JUMPDEST POP POP POP POP PUSH1 0x40 MLOAD RETURNDATASIZE PUSH1 0x0 DUP3 RETURNDATACOPY RETURNDATASIZE PUSH1 0x1F NOT PUSH1 0x1F DUP3 ADD AND DUP3 ADD DUP1 PUSH1 0x40 MSTORE POP DUP2 ADD SWAP1 PUSH2 0x76F SWAP2 SWAP1 PUSH2 0xDE8 JUMP JUMPDEST SWAP1 POP SWAP4 SWAP3 POP POP POP JUMP JUMPDEST PUSH1 0x0 DUP1 PUSH1 0x0 SWAP1 SLOAD SWAP1 PUSH2 0x100 EXP SWAP1 DIV PUSH20 0xFFFFFFFFFFFFFFFFFFFFFFFFFFFFFFFFFFFFFFFF AND PUSH20 0xFFFFFFFFFFFFFFFFFFFFFFFFFFFFFFFFFFFFFFFF AND PUSH4 0xBDF666A4 DUP7 DUP7 DUP7 DUP7 PUSH1 0x40 MLOAD DUP6 PUSH4 0xFFFFFFFF AND PUSH1 0xE0 SHL DUP2 MSTORE PUSH1 0x4 ADD PUSH2 0x7DA SWAP5 SWAP4 SWAP3 SWAP2 SWAP1 PUSH2 0x109E JUMP JUMPDEST PUSH1 0x20 PUSH1 0x40 MLOAD DUP1 DUP4 SUB DUP2 PUSH1 0x0 DUP8 DUP1 EXTCODESIZE ISZERO DUP1 ISZERO PUSH2 0x7F4 JUMPI PUSH1 0x0 DUP1 REVERT JUMPDEST POP GAS CALL ISZERO DUP1 ISZERO PUSH2 0x808 JUMPI RETURNDATASIZE PUSH1 0x0 DUP1 RETURNDATACOPY RETURNDATASIZE PUSH1 0x0 REVERT JUMPDEST POP POP POP POP PUSH1 0x40 MLOAD RETURNDATASIZE PUSH1 0x1F NOT PUSH1 0x1F DUP3 ADD AND DUP3 ADD DUP1 PUSH1 0x40 MSTORE POP DUP2 ADD SWAP1 PUSH2 0x82C SWAP2 SWAP1 PUSH2 0xAFF JUMP JUMPDEST SWAP1 POP SWAP5 SWAP4 POP POP POP POP JUMP JUMPDEST PUSH1 0x40 MLOAD DUP1 PUSH1 0x60 ADD PUSH1 0x40 MSTORE DUP1 PUSH1 0x60 DUP2 MSTORE PUSH1 0x20 ADD PUSH1 0x60 DUP2 MSTORE PUSH1 0x20 ADD PUSH1 0x60 DUP2 MSTORE POP SWAP1 JUMP JUMPDEST PUSH1 0x0 PUSH2 0x86A PUSH2 0x865 DUP5 PUSH2 0x11FD JUMP JUMPDEST PUSH2 0x11D8 JUMP JUMPDEST SWAP1 POP DUP3 DUP2 MSTORE PUSH1 0x20 DUP2 ADD DUP5 DUP5 DUP5 ADD GT ISZERO PUSH2 0x886 JUMPI PUSH2 0x885 PUSH2 0x13D2 JUMP JUMPDEST JUMPDEST PUSH2 0x891 DUP5 DUP3 DUP6 PUSH2 0x1326 JUMP JUMPDEST POP SWAP4 SWAP3 POP POP POP JUMP JUMPDEST PUSH1 0x0 DUP2 CALLDATALOAD SWAP1 POP PUSH2 0x8A8 DUP2 PUSH2 0x13F2 JUMP JUMPDEST SWAP3 SWAP2 POP POP JUMP JUMPDEST PUSH1 0x0 DUP1 DUP4 PUSH1 0x1F DUP5 ADD SLT PUSH2 0x8C4 JUMPI PUSH2 0x8C3 PUSH2 0x13BE JUMP JUMPDEST JUMPDEST DUP3 CALLDATALOAD SWAP1 POP PUSH8 0xFFFFFFFFFFFFFFFF DUP2 GT ISZERO PUSH2 0x8E1 JUMPI PUSH2 0x8E0 PUSH2 0x13B9 JUMP JUMPDEST JUMPDEST PUSH1 0x20 DUP4 ADD SWAP2 POP DUP4 PUSH1 0x20 DUP3 MUL DUP4 ADD GT ISZERO PUSH2 0x8FD JUMPI PUSH2 0x8FC PUSH2 0x13CD JUMP JUMPDEST JUMPDEST SWAP3 POP SWAP3 SWAP1 POP JUMP JUMPDEST PUSH1 0x0 DUP2 MLOAD SWAP1 POP PUSH2 0x913 DUP2 PUSH2 0x1409 JUMP JUMPDEST SWAP3 SWAP2 POP POP JUMP JUMPDEST PUSH1 0x0 DUP2 CALLDATALOAD SWAP1 POP PUSH2 0x928 DUP2 PUSH2 0x1420 JUMP JUMPDEST SWAP3 SWAP2 POP POP JUMP JUMPDEST PUSH1 0x0 DUP2 MLOAD SWAP1 POP PUSH2 0x93D DUP2 PUSH2 0x1420 JUMP JUMPDEST SWAP3 SWAP2 POP POP JUMP JUMPDEST PUSH1 0x0 DUP1 DUP4 PUSH1 0x1F DUP5 ADD SLT PUSH2 0x959 JUMPI PUSH2 0x958 PUSH2 0x13BE JUMP JUMPDEST JUMPDEST DUP3 CALLDATALOAD SWAP1 POP PUSH8 0xFFFFFFFFFFFFFFFF DUP2 GT ISZERO PUSH2 0x976 JUMPI PUSH2 0x975 PUSH2 0x13B9 JUMP JUMPDEST JUMPDEST PUSH1 0x20 DUP4 ADD SWAP2 POP DUP4 PUSH1 0x1 DUP3 MUL DUP4 ADD GT ISZERO PUSH2 0x992 JUMPI PUSH2 0x991 PUSH2 0x13CD JUMP JUMPDEST JUMPDEST SWAP3 POP SWAP3 SWAP1 POP JUMP JUMPDEST PUSH1 0x0 DUP3 PUSH1 0x1F DUP4 ADD SLT PUSH2 0x9AE JUMPI PUSH2 0x9AD PUSH2 0x13BE JUMP JUMPDEST JUMPDEST DUP2 MLOAD PUSH2 0x9BE DUP5 DUP3 PUSH1 0x20 DUP7 ADD PUSH2 0x857 JUMP JUMPDEST SWAP2 POP POP SWAP3 SWAP2 POP POP JUMP JUMPDEST PUSH1 0x0 DUP1 DUP4 PUSH1 0x1F DUP5 ADD SLT PUSH2 0x9DD JUMPI PUSH2 0x9DC PUSH2 0x13BE JUMP JUMPDEST JUMPDEST DUP3 CALLDATALOAD SWAP1 POP PUSH8 0xFFFFFFFFFFFFFFFF DUP2 GT ISZERO PUSH2 0x9FA JUMPI PUSH2 0x9F9 PUSH2 0x13B9 JUMP JUMPDEST JUMPDEST PUSH1 0x20 DUP4 ADD SWAP2 POP DUP4 PUSH1 0x1 DUP3 MUL DUP4 ADD GT ISZERO PUSH2 0xA16 JUMPI PUSH2 0xA15 PUSH2 0x13CD JUMP JUMPDEST JUMPDEST SWAP3 POP SWAP3 SWAP1 POP JUMP JUMPDEST PUSH1 0x0 PUSH1 0x60 DUP3 DUP5 SUB SLT ISZERO PUSH2 0xA33 JUMPI PUSH2 0xA32 PUSH2 0x13C3 JUMP JUMPDEST JUMPDEST PUSH2 0xA3D PUSH1 0x60 PUSH2 0x11D8 JUMP JUMPDEST SWAP1 POP PUSH1 0x0 DUP3 ADD MLOAD PUSH8 0xFFFFFFFFFFFFFFFF DUP2 GT ISZERO PUSH2 0xA5D JUMPI PUSH2 0xA5C PUSH2 0x13C8 JUMP JUMPDEST JUMPDEST PUSH2 0xA69 DUP5 DUP3 DUP6 ADD PUSH2 0x999 JUMP JUMPDEST PUSH1 0x0 DUP4 ADD MSTORE POP PUSH1 0x20 DUP3 ADD MLOAD PUSH8 0xFFFFFFFFFFFFFFFF DUP2 GT ISZERO PUSH2 0xA8D JUMPI PUSH2 0xA8C PUSH2 0x13C8 JUMP JUMPDEST JUMPDEST PUSH2 0xA99 DUP5 DUP3 DUP6 ADD PUSH2 0x999 JUMP JUMPDEST PUSH1 0x20 DUP4 ADD MSTORE POP PUSH1 0x40 DUP3 ADD MLOAD PUSH8 0xFFFFFFFFFFFFFFFF DUP2 GT ISZERO PUSH2 0xABD JUMPI PUSH2 0xABC PUSH2 0x13C8 JUMP JUMPDEST JUMPDEST PUSH2 0xAC9 DUP5 DUP3 DUP6 ADD PUSH2 0x999 JUMP JUMPDEST PUSH1 0x40 DUP4 ADD MSTORE POP SWAP3 SWAP2 POP POP JUMP JUMPDEST PUSH1 0x0 DUP2 CALLDATALOAD SWAP1 POP PUSH2 0xAE4 DUP2 PUSH2 0x1437 JUMP JUMPDEST SWAP3 SWAP2 POP POP JUMP JUMPDEST PUSH1 0x0 DUP2 CALLDATALOAD SWAP1 POP PUSH2 0xAF9 DUP2 PUSH2 0x144E JUMP JUMPDEST SWAP3 SWAP2 POP POP JUMP JUMPDEST PUSH1 0x0 PUSH1 0x20 DUP3 DUP5 SUB SLT ISZERO PUSH2 0xB15 JUMPI PUSH2 0xB14 PUSH2 0x13DC JUMP JUMPDEST JUMPDEST PUSH1 0x0 PUSH2 0xB23 DUP5 DUP3 DUP6 ADD PUSH2 0x904 JUMP JUMPDEST SWAP2 POP POP SWAP3 SWAP2 POP POP JUMP JUMPDEST PUSH1 0x0 PUSH1 0x20 DUP3 DUP5 SUB SLT ISZERO PUSH2 0xB42 JUMPI PUSH2 0xB41 PUSH2 0x13DC JUMP JUMPDEST JUMPDEST PUSH1 0x0 PUSH2 0xB50 DUP5 DUP3 DUP6 ADD PUSH2 0x92E JUMP JUMPDEST SWAP2 POP POP SWAP3 SWAP2 POP POP JUMP JUMPDEST PUSH1 0x0 DUP1 PUSH1 0x0 PUSH1 0x60 DUP5 DUP7 SUB SLT ISZERO PUSH2 0xB72 JUMPI PUSH2 0xB71 PUSH2 0x13DC JUMP JUMPDEST JUMPDEST PUSH1 0x0 PUSH2 0xB80 DUP7 DUP3 DUP8 ADD PUSH2 0x919 JUMP JUMPDEST SWAP4 POP POP PUSH1 0x20 PUSH2 0xB91 DUP7 DUP3 DUP8 ADD PUSH2 0x899 JUMP JUMPDEST SWAP3 POP POP PUSH1 0x40 PUSH2 0xBA2 DUP7 DUP3 DUP8 ADD PUSH2 0xAEA JUMP JUMPDEST SWAP2 POP POP SWAP3 POP SWAP3 POP SWAP3 JUMP JUMPDEST PUSH1 0x0 DUP1 PUSH1 0x0 DUP1 PUSH1 0x60 DUP6 DUP8 SUB SLT ISZERO PUSH2 0xBC6 JUMPI PUSH2 0xBC5 PUSH2 0x13DC JUMP JUMPDEST JUMPDEST PUSH1 0x0 PUSH2 0xBD4 DUP8 DUP3 DUP9 ADD PUSH2 0x919 JUMP JUMPDEST SWAP5 POP POP PUSH1 0x20 PUSH2 0xBE5 DUP8 DUP3 DUP9 ADD PUSH2 0xAEA JUMP JUMPDEST SWAP4 POP POP PUSH1 0x40 DUP6 ADD CALLDATALOAD PUSH8 0xFFFFFFFFFFFFFFFF DUP2 GT ISZERO PUSH2 0xC06 JUMPI PUSH2 0xC05 PUSH2 0x13D7 JUMP JUMPDEST JUMPDEST PUSH2 0xC12 DUP8 DUP3 DUP9 ADD PUSH2 0x8AE JUMP JUMPDEST SWAP3 POP SWAP3 POP POP SWAP3 SWAP6 SWAP2 SWAP5 POP SWAP3 POP JUMP JUMPDEST PUSH1 0x0 DUP1 PUSH1 0x0 DUP1 PUSH1 0x80 DUP6 DUP8 SUB SLT ISZERO PUSH2 0xC3A JUMPI PUSH2 0xC39 PUSH2 0x13DC JUMP JUMPDEST JUMPDEST PUSH1 0x0 PUSH2 0xC48 DUP8 DUP3 DUP9 ADD PUSH2 0x919 JUMP JUMPDEST SWAP5 POP POP PUSH1 0x20 PUSH2 0xC59 DUP8 DUP3 DUP9 ADD PUSH2 0xAEA JUMP JUMPDEST SWAP4 POP POP PUSH1 0x40 PUSH2 0xC6A DUP8 DUP3 DUP9 ADD PUSH2 0x919 JUMP JUMPDEST SWAP3 POP POP PUSH1 0x60 PUSH2 0xC7B DUP8 DUP3 DUP9 ADD PUSH2 0x919 JUMP JUMPDEST SWAP2 POP POP SWAP3 SWAP6 SWAP2 SWAP5 POP SWAP3 POP JUMP JUMPDEST PUSH1 0x0 DUP1 PUSH1 0x0 DUP1 PUSH1 0x60 DUP6 DUP8 SUB SLT ISZERO PUSH2 0xCA1 JUMPI PUSH2 0xCA0 PUSH2 0x13DC JUMP JUMPDEST JUMPDEST PUSH1 0x0 PUSH2 0xCAF DUP8 DUP3 DUP9 ADD PUSH2 0x919 JUMP JUMPDEST SWAP5 POP POP PUSH1 0x20 PUSH2 0xCC0 DUP8 DUP3 DUP9 ADD PUSH2 0xAEA JUMP JUMPDEST SWAP4 POP POP PUSH1 0x40 DUP6 ADD CALLDATALOAD PUSH8 0xFFFFFFFFFFFFFFFF DUP2 GT ISZERO PUSH2 0xCE1 JUMPI PUSH2 0xCE0 PUSH2 0x13D7 JUMP JUMPDEST JUMPDEST PUSH2 0xCED DUP8 DUP3 DUP9 ADD PUSH2 0x943 JUMP JUMPDEST SWAP3 POP SWAP3 POP POP SWAP3 SWAP6 SWAP2 SWAP5 POP SWAP3 POP JUMP JUMPDEST PUSH1 0x0 DUP1 PUSH1 0x0 DUP1 PUSH1 0x0 DUP1 PUSH1 0xC0 DUP8 DUP10 SUB SLT ISZERO PUSH2 0xD18 JUMPI PUSH2 0xD17 PUSH2 0x13DC JUMP JUMPDEST JUMPDEST PUSH1 0x0 PUSH2 0xD26 DUP10 DUP3 DUP11 ADD PUSH2 0x919 JUMP JUMPDEST SWAP7 POP POP PUSH1 0x20 PUSH2 0xD37 DUP10 DUP3 DUP11 ADD PUSH2 0xAEA JUMP JUMPDEST SWAP6 POP POP PUSH1 0x40 PUSH2 0xD48 DUP10 DUP3 DUP11 ADD PUSH2 0xAD5 JUMP JUMPDEST SWAP5 POP POP PUSH1 0x60 PUSH2 0xD59 DUP10 DUP3 DUP11 ADD PUSH2 0xAD5 JUMP JUMPDEST SWAP4 POP POP PUSH1 0x80 PUSH2 0xD6A DUP10 DUP3 DUP11 ADD PUSH2 0xAD5 JUMP JUMPDEST SWAP3 POP POP PUSH1 0xA0 PUSH2 0xD7B DUP10 DUP3 DUP11 ADD PUSH2 0xAD5 JUMP JUMPDEST SWAP2 POP POP SWAP3 SWAP6 POP SWAP3 SWAP6 POP SWAP3 SWAP6 JUMP JUMPDEST PUSH1 0x0 DUP1 PUSH1 0x0 PUSH1 0x40 DUP5 DUP7 SUB SLT ISZERO PUSH2 0xDA1 JUMPI PUSH2 0xDA0 PUSH2 0x13DC JUMP JUMPDEST JUMPDEST PUSH1 0x0 DUP5 ADD CALLDATALOAD PUSH8 0xFFFFFFFFFFFFFFFF DUP2 GT ISZERO PUSH2 0xDBF JUMPI PUSH2 0xDBE PUSH2 0x13D7 JUMP JUMPDEST JUMPDEST PUSH2 0xDCB DUP7 DUP3 DUP8 ADD PUSH2 0x9C7 JUMP JUMPDEST SWAP4 POP SWAP4 POP POP PUSH1 0x20 PUSH2 0xDDE DUP7 DUP3 DUP8 ADD PUSH2 0x919 JUMP JUMPDEST SWAP2 POP POP SWAP3 POP SWAP3 POP SWAP3 JUMP JUMPDEST PUSH1 0x0 PUSH1 0x20 DUP3 DUP5 SUB SLT ISZERO PUSH2 0xDFE JUMPI PUSH2 0xDFD PUSH2 0x13DC JUMP JUMPDEST JUMPDEST PUSH1 0x0 DUP3 ADD MLOAD PUSH8 0xFFFFFFFFFFFFFFFF DUP2 GT ISZERO PUSH2 0xE1C JUMPI PUSH2 0xE1B PUSH2 0x13D7 JUMP JUMPDEST JUMPDEST PUSH2 0xE28 DUP5 DUP3 DUP6 ADD PUSH2 0xA1D JUMP JUMPDEST SWAP2 POP POP SWAP3 SWAP2 POP POP JUMP JUMPDEST PUSH1 0x0 PUSH2 0xE3D DUP4 DUP4 PUSH2 0xE49 JUMP JUMPDEST PUSH1 0x20 DUP4 ADD SWAP1 POP SWAP3 SWAP2 POP POP JUMP JUMPDEST PUSH2 0xE52 DUP2 PUSH2 0x12AB JUMP JUMPDEST DUP3 MSTORE POP POP JUMP JUMPDEST PUSH2 0xE61 DUP2 PUSH2 0x12AB JUMP JUMPDEST DUP3 MSTORE POP POP JUMP JUMPDEST PUSH1 0x0 PUSH2 0xE73 DUP4 DUP6 PUSH2 0x1250 JUMP JUMPDEST SWAP4 POP PUSH2 0xE7E DUP3 PUSH2 0x122E JUMP JUMPDEST DUP1 PUSH1 0x0 JUMPDEST DUP6 DUP2 LT ISZERO PUSH2 0xEB7 JUMPI PUSH2 0xE94 DUP3 DUP5 PUSH2 0x1294 JUMP JUMPDEST PUSH2 0xE9E DUP9 DUP3 PUSH2 0xE31 JUMP JUMPDEST SWAP8 POP PUSH2 0xEA9 DUP4 PUSH2 0x1243 JUMP JUMPDEST SWAP3 POP POP PUSH1 0x1 DUP2 ADD SWAP1 POP PUSH2 0xE82 JUMP JUMPDEST POP DUP6 SWAP3 POP POP POP SWAP4 SWAP3 POP POP POP JUMP JUMPDEST PUSH2 0xECD DUP2 PUSH2 0x12BD JUMP JUMPDEST DUP3 MSTORE POP POP JUMP JUMPDEST PUSH2 0xEDC DUP2 PUSH2 0x12C9 JUMP JUMPDEST DUP3 MSTORE POP POP JUMP JUMPDEST PUSH1 0x0 PUSH2 0xEEE DUP4 DUP6 PUSH2 0x1272 JUMP JUMPDEST SWAP4 POP PUSH2 0xEFB DUP4 DUP6 DUP5 PUSH2 0x1317 JUMP JUMPDEST PUSH2 0xF04 DUP4 PUSH2 0x13E1 JUMP JUMPDEST DUP5 ADD SWAP1 POP SWAP4 SWAP3 POP POP POP JUMP JUMPDEST PUSH1 0x0 PUSH2 0xF1A DUP3 PUSH2 0x1238 JUMP JUMPDEST PUSH2 0xF24 DUP2 DUP6 PUSH2 0x1261 JUMP JUMPDEST SWAP4 POP PUSH2 0xF34 DUP2 DUP6 PUSH1 0x20 DUP7 ADD PUSH2 0x1326 JUMP JUMPDEST PUSH2 0xF3D DUP2 PUSH2 0x13E1 JUMP JUMPDEST DUP5 ADD SWAP2 POP POP SWAP3 SWAP2 POP POP JUMP JUMPDEST PUSH1 0x0 PUSH2 0xF54 DUP4 DUP6 PUSH2 0x1283 JUMP JUMPDEST SWAP4 POP PUSH2 0xF61 DUP4 DUP6 DUP5 PUSH2 0x1317 JUMP JUMPDEST PUSH2 0xF6A DUP4 PUSH2 0x13E1 JUMP JUMPDEST DUP5 ADD SWAP1 POP SWAP4 SWAP3 POP POP POP JUMP JUMPDEST PUSH1 0x0 PUSH1 0x60 DUP4 ADD PUSH1 0x0 DUP4 ADD MLOAD DUP5 DUP3 SUB PUSH1 0x0 DUP7 ADD MSTORE PUSH2 0xF92 DUP3 DUP3 PUSH2 0xF0F JUMP JUMPDEST SWAP2 POP POP PUSH1 0x20 DUP4 ADD MLOAD DUP5 DUP3 SUB PUSH1 0x20 DUP7 ADD MSTORE PUSH2 0xFAC DUP3 DUP3 PUSH2 0xF0F JUMP JUMPDEST SWAP2 POP POP PUSH1 0x40 DUP4 ADD MLOAD DUP5 DUP3 SUB PUSH1 0x40 DUP7 ADD MSTORE PUSH2 0xFC6 DUP3 DUP3 PUSH2 0xF0F JUMP JUMPDEST SWAP2 POP POP DUP1 SWAP2 POP POP SWAP3 SWAP2 POP POP JUMP JUMPDEST PUSH2 0xFDC DUP2 PUSH2 0x12F3 JUMP JUMPDEST DUP3 MSTORE POP POP JUMP JUMPDEST PUSH2 0xFEB DUP2 PUSH2 0x1303 JUMP JUMPDEST DUP3 MSTORE POP POP JUMP JUMPDEST PUSH1 0x0 PUSH1 0x20 DUP3 ADD SWAP1 POP PUSH2 0x1006 PUSH1 0x0 DUP4 ADD DUP5 PUSH2 0xEC4 JUMP JUMPDEST SWAP3 SWAP2 POP POP JUMP JUMPDEST PUSH1 0x0 PUSH1 0x20 DUP3 ADD SWAP1 POP PUSH2 0x1021 PUSH1 0x0 DUP4 ADD DUP5 PUSH2 0xED3 JUMP JUMPDEST SWAP3 SWAP2 POP POP JUMP JUMPDEST PUSH1 0x0 PUSH1 0x60 DUP3 ADD SWAP1 POP PUSH2 0x103C PUSH1 0x0 DUP4 ADD DUP7 PUSH2 0xED3 JUMP JUMPDEST PUSH2 0x1049 PUSH1 0x20 DUP4 ADD DUP6 PUSH2 0xE58 JUMP JUMPDEST PUSH2 0x1056 PUSH1 0x40 DUP4 ADD DUP5 PUSH2 0xFE2 JUMP JUMPDEST SWAP5 SWAP4 POP POP POP POP JUMP JUMPDEST PUSH1 0x0 PUSH1 0x60 DUP3 ADD SWAP1 POP PUSH2 0x1073 PUSH1 0x0 DUP4 ADD DUP8 PUSH2 0xED3 JUMP JUMPDEST PUSH2 0x1080 PUSH1 0x20 DUP4 ADD DUP7 PUSH2 0xFE2 JUMP JUMPDEST DUP2 DUP2 SUB PUSH1 0x40 DUP4 ADD MSTORE PUSH2 0x1093 DUP2 DUP5 DUP7 PUSH2 0xE67 JUMP JUMPDEST SWAP1 POP SWAP6 SWAP5 POP POP POP POP POP JUMP JUMPDEST PUSH1 0x0 PUSH1 0x80 DUP3 ADD SWAP1 POP PUSH2 0x10B3 PUSH1 0x0 DUP4 ADD DUP8 PUSH2 0xED3 JUMP JUMPDEST PUSH2 0x10C0 PUSH1 0x20 DUP4 ADD DUP7 PUSH2 0xFE2 JUMP JUMPDEST PUSH2 0x10CD PUSH1 0x40 DUP4 ADD DUP6 PUSH2 0xED3 JUMP JUMPDEST PUSH2 0x10DA PUSH1 0x60 DUP4 ADD DUP5 PUSH2 0xED3 JUMP JUMPDEST SWAP6 SWAP5 POP POP POP POP POP JUMP JUMPDEST PUSH1 0x0 PUSH1 0x60 DUP3 ADD SWAP1 POP PUSH2 0x10F8 PUSH1 0x0 DUP4 ADD DUP8 PUSH2 0xED3 JUMP JUMPDEST PUSH2 0x1105 PUSH1 0x20 DUP4 ADD DUP7 PUSH2 0xFE2 JUMP JUMPDEST DUP2 DUP2 SUB PUSH1 0x40 DUP4 ADD MSTORE PUSH2 0x1118 DUP2 DUP5 DUP7 PUSH2 0xEE2 JUMP JUMPDEST SWAP1 POP SWAP6 SWAP5 POP POP POP POP POP JUMP JUMPDEST PUSH1 0x0 PUSH1 0xC0 DUP3 ADD SWAP1 POP PUSH2 0x1138 PUSH1 0x0 DUP4 ADD DUP10 PUSH2 0xED3 JUMP JUMPDEST PUSH2 0x1145 PUSH1 0x20 DUP4 ADD DUP9 PUSH2 0xFE2 JUMP JUMPDEST PUSH2 0x1152 PUSH1 0x40 DUP4 ADD DUP8 PUSH2 0xFD3 JUMP JUMPDEST PUSH2 0x115F PUSH1 0x60 DUP4 ADD DUP7 PUSH2 0xFD3 JUMP JUMPDEST PUSH2 0x116C PUSH1 0x80 DUP4 ADD DUP6 PUSH2 0xFD3 JUMP JUMPDEST PUSH2 0x1179 PUSH1 0xA0 DUP4 ADD DUP5 PUSH2 0xFD3 JUMP JUMPDEST SWAP8 SWAP7 POP POP POP POP POP POP POP JUMP JUMPDEST PUSH1 0x0 PUSH1 0x40 DUP3 ADD SWAP1 POP DUP2 DUP2 SUB PUSH1 0x0 DUP4 ADD MSTORE PUSH2 0x119F DUP2 DUP6 DUP8 PUSH2 0xF48 JUMP JUMPDEST SWAP1 POP PUSH2 0x11AE PUSH1 0x20 DUP4 ADD DUP5 PUSH2 0xED3 JUMP JUMPDEST SWAP5 SWAP4 POP POP POP POP JUMP JUMPDEST PUSH1 0x0 PUSH1 0x20 DUP3 ADD SWAP1 POP DUP2 DUP2 SUB PUSH1 0x0 DUP4 ADD MSTORE PUSH2 0x11D0 DUP2 DUP5 PUSH2 0xF75 JUMP JUMPDEST SWAP1 POP SWAP3 SWAP2 POP POP JUMP JUMPDEST PUSH1 0x0 PUSH2 0x11E2 PUSH2 0x11F3 JUMP JUMPDEST SWAP1 POP PUSH2 0x11EE DUP3 DUP3 PUSH2 0x1359 JUMP JUMPDEST SWAP2 SWAP1 POP JUMP JUMPDEST PUSH1 0x0 PUSH1 0x40 MLOAD SWAP1 POP SWAP1 JUMP JUMPDEST PUSH1 0x0 PUSH8 0xFFFFFFFFFFFFFFFF DUP3 GT ISZERO PUSH2 0x1218 JUMPI PUSH2 0x1217 PUSH2 0x138A JUMP JUMPDEST JUMPDEST PUSH2 0x1221 DUP3 PUSH2 0x13E1 JUMP JUMPDEST SWAP1 POP PUSH1 0x20 DUP2 ADD SWAP1 POP SWAP2 SWAP1 POP JUMP JUMPDEST PUSH1 0x0 DUP2 SWAP1 POP SWAP2 SWAP1 POP JUMP JUMPDEST PUSH1 0x0 DUP2 MLOAD SWAP1 POP SWAP2 SWAP1 POP JUMP JUMPDEST PUSH1 0x0 PUSH1 0x20 DUP3 ADD SWAP1 POP SWAP2 SWAP1 POP JUMP JUMPDEST PUSH1 0x0 DUP3 DUP3 MSTORE PUSH1 0x20 DUP3 ADD SWAP1 POP SWAP3 SWAP2 POP POP JUMP JUMPDEST PUSH1 0x0 DUP3 DUP3 MSTORE PUSH1 0x20 DUP3 ADD SWAP1 POP SWAP3 SWAP2 POP POP JUMP JUMPDEST PUSH1 0x0 DUP3 DUP3 MSTORE PUSH1 0x20 DUP3 ADD SWAP1 POP SWAP3 SWAP2 POP POP JUMP JUMPDEST PUSH1 0x0 DUP3 DUP3 MSTORE PUSH1 0x20 DUP3 ADD SWAP1 POP SWAP3 SWAP2 POP POP JUMP JUMPDEST PUSH1 0x0 PUSH2 0x12A3 PUSH1 0x20 DUP5 ADD DUP5 PUSH2 0x899 JUMP JUMPDEST SWAP1 POP SWAP3 SWAP2 POP POP JUMP JUMPDEST PUSH1 0x0 PUSH2 0x12B6 DUP3 PUSH2 0x12D3 JUMP JUMPDEST SWAP1 POP SWAP2 SWAP1 POP JUMP JUMPDEST PUSH1 0x0 DUP2 ISZERO ISZERO SWAP1 POP SWAP2 SWAP1 POP JUMP JUMPDEST PUSH1 0x0 DUP2 SWAP1 POP SWAP2 SWAP1 POP JUMP JUMPDEST PUSH1 0x0 PUSH20 0xFFFFFFFFFFFFFFFFFFFFFFFFFFFFFFFFFFFFFFFF DUP3 AND SWAP1 POP SWAP2 SWAP1 POP JUMP JUMPDEST PUSH1 0x0 PUSH4 0xFFFFFFFF DUP3 AND SWAP1 POP SWAP2 SWAP1 POP JUMP JUMPDEST PUSH1 0x0 PUSH8 0xFFFFFFFFFFFFFFFF DUP3 AND SWAP1 POP SWAP2 SWAP1 POP JUMP JUMPDEST DUP3 DUP2 DUP4 CALLDATACOPY PUSH1 0x0 DUP4 DUP4 ADD MSTORE POP POP POP JUMP JUMPDEST PUSH1 0x0 JUMPDEST DUP4 DUP2 LT ISZERO PUSH2 0x1344 JUMPI DUP1 DUP3 ADD MLOAD DUP2 DUP5 ADD MSTORE PUSH1 0x20 DUP2 ADD SWAP1 POP PUSH2 0x1329 JUMP JUMPDEST DUP4 DUP2 GT ISZERO PUSH2 0x1353 JUMPI PUSH1 0x0 DUP5 DUP5 ADD MSTORE JUMPDEST POP POP POP POP JUMP JUMPDEST PUSH2 0x1362 DUP3 PUSH2 0x13E1 JUMP JUMPDEST DUP2 ADD DUP2 DUP2 LT PUSH8 0xFFFFFFFFFFFFFFFF DUP3 GT OR ISZERO PUSH2 0x1381 JUMPI PUSH2 0x1380 PUSH2 0x138A JUMP JUMPDEST JUMPDEST DUP1 PUSH1 0x40 MSTORE POP POP POP JUMP JUMPDEST PUSH32 0x4E487B7100000000000000000000000000000000000000000000000000000000 PUSH1 0x0 MSTORE PUSH1 0x41 PUSH1 0x4 MSTORE PUSH1 0x24 PUSH1 0x0 REVERT JUMPDEST PUSH1 0x0 DUP1 REVERT JUMPDEST PUSH1 0x0 DUP1 REVERT JUMPDEST PUSH1 0x0 DUP1 REVERT JUMPDEST PUSH1 0x0 DUP1 REVERT JUMPDEST PUSH1 0x0 DUP1 REVERT JUMPDEST PUSH1 0x0 DUP1 REVERT JUMPDEST PUSH1 0x0 DUP1 REVERT JUMPDEST PUSH1 0x0 DUP1 REVERT JUMPDEST PUSH1 0x0 PUSH1 0x1F NOT PUSH1 0x1F DUP4 ADD AND SWAP1 POP SWAP2 SWAP1 POP JUMP JUMPDEST PUSH2 0x13FB DUP2 PUSH2 0x12AB JUMP JUMPDEST DUP2 EQ PUSH2 0x1406 JUMPI PUSH1 0x0 DUP1 REVERT JUMPDEST POP JUMP JUMPDEST PUSH2 0x1412 DUP2 PUSH2 0x12BD JUMP JUMPDEST DUP2 EQ PUSH2 0x141D JUMPI PUSH1 0x0 DUP1 REVERT JUMPDEST POP JUMP JUMPDEST PUSH2 0x1429 DUP2 PUSH2 0x12C9 JUMP JUMPDEST DUP2 EQ PUSH2 0x1434 JUMPI PUSH1 0x0 DUP1 REVERT JUMPDEST POP JUMP JUMPDEST PUSH2 0x1440 DUP2 PUSH2 0x12F3 JUMP JUMPDEST DUP2 EQ PUSH2 0x144B JUMPI PUSH1 0x0 DUP1 REVERT JUMPDEST POP JUMP JUMPDEST PUSH2 0x1457 DUP2 PUSH2 0x1303 JUMP JUMPDEST DUP2 EQ PUSH2 0x1462 JUMPI PUSH1 0x0 DUP1 REVERT JUMPDEST POP JUMP INVALID LOG2 PUSH5 0x6970667358 0x22 SLT KECCAK256 CREATE PUSH27 0x6A21A29BEF25172E977623144E2BC9FAC43B76B9BB63BCFCCD4D87 PUSH8 0xE0EF64736F6C6343 STOP ADDMOD SMOD STOP CALLER "
		},
		"gasEstimates": {
			"creation": {
				"codeDepositCost": "1055000",
				"executionCost": "infinite",
				"totalCost": "infinite"
			},
			"external": {
				"createTask(string,bytes32)": "infinite",
				"getCommitment(bytes32,address,uint64)": "infinite",
				"joinRound(bytes32,uint64,bytes32,bytes32)": "infinite",
				"nop()": "366",
				"selectCandidates(bytes32,uint64,address[])": "infinite",
				"startAggregate(bytes32,uint64,address[])": "infinite",
				"startRound(bytes32,uint64,uint32,uint32,uint32,uint32)": "infinite",
				"uploadSeedCommitment(bytes32,uint64,bytes)": "infinite",
				"uploadSkMaskCommitment(bytes32,uint64,bytes)": "infinite",
				"uploadWeightCommitment(bytes32,uint64,bytes)": "infinite"
			}
		},
		"methodIdentifiers": {
			"createTask(string,bytes32)": "75cb2a0e",
			"getCommitment(bytes32,address,uint64)": "8750745e",
			"joinRound(bytes32,uint64,bytes32,bytes32)": "bdf666a4",
			"nop()": "2e9c58bb",
			"selectCandidates(bytes32,uint64,address[])": "41e865cb",
			"startAggregate(bytes32,uint64,address[])": "4956219b",
			"startRound(bytes32,uint64,uint32,uint32,uint32,uint32)": "57c91b95",
			"uploadSeedCommitment(bytes32,uint64,bytes)": "456523e2",
			"uploadSkMaskCommitment(bytes32,uint64,bytes)": "20f0672c",
			"uploadWeightCommitment(bytes32,uint64,bytes)": "68f14acf"
		}
	},
	"abi": [
		{
			"inputs": [
				{
					"internalType": "contract DeltaContract",
					"name": "ct",
					"type": "address"
				}
			],
			"stateMutability": "nonpayable",
			"type": "constructor"
		},
		{
			"inputs": [
				{
					"internalType": "string",
					"name": "dataSet",
					"type": "string"
				},
				{
					"internalType": "bytes32",
					"name": "tskCmmtmnt",
					"type": "bytes32"
				}
			],
			"name": "createTask",
			"outputs": [
				{
					"internalType": "bytes32",
					"name": "taskId",
					"type": "bytes32"
				}
			],
			"stateMutability": "payable",
			"type": "function"
		},
		{
			"inputs": [
				{
					"internalType": "bytes32",
					"name": "taskId",
					"type": "bytes32"
				},
				{
					"internalType": "address",
					"name": "clientaddress",
					"type": "address"
				},
				{
					"internalType": "uint64",
					"name": "round",
					"type": "uint64"
				}
			],
			"name": "getCommitment",
			"outputs": [
				{
					"components": [
						{
							"internalType": "bytes",
							"name": "weightCommitment",
							"type": "bytes"
						},
						{
							"internalType": "bytes",
							"name": "seedCmmtmnt",
							"type": "bytes"
						},
						{
							"internalType": "bytes",
							"name": "secretKeyMaskCmmtmnt",
							"type": "bytes"
						}
					],
					"internalType": "struct DeltaContract.CommitmentData",
					"name": "commitment",
					"type": "tuple"
				}
			],
			"stateMutability": "view",
			"type": "function"
		},
		{
			"inputs": [
				{
					"internalType": "bytes32",
					"name": "taskId",
					"type": "bytes32"
				},
				{
					"internalType": "uint64",
					"name": "round",
					"type": "uint64"
				},
				{
					"internalType": "bytes32",
					"name": "pk1",
					"type": "bytes32"
				},
				{
					"internalType": "bytes32",
					"name": "pk2",
					"type": "bytes32"
				}
			],
			"name": "joinRound",
			"outputs": [
				{
					"internalType": "bool",
					"name": "",
					"type": "bool"
				}
			],
			"stateMutability": "nonpayable",
			"type": "function"
		},
		{
			"inputs": [],
			"name": "nop",
			"outputs": [
				{
					"internalType": "bool",
					"name": "",
					"type": "bool"
				}
			],
			"stateMutability": "nonpayable",
			"type": "function"
		},
		{
			"inputs": [
				{
					"internalType": "bytes32",
					"name": "taskId",
					"type": "bytes32"
				},
				{
					"internalType": "uint64",
					"name": "round",
					"type": "uint64"
				},
				{
					"internalType": "address[]",
					"name": "cltaddrs",
					"type": "address[]"
				}
			],
			"name": "selectCandidates",
			"outputs": [],
			"stateMutability": "nonpayable",
			"type": "function"
		},
		{
			"inputs": [
				{
					"internalType": "bytes32",
					"name": "taskId",
					"type": "bytes32"
				},
				{
					"internalType": "uint64",
					"name": "round",
					"type": "uint64"
				},
				{
					"internalType": "address[]",
					"name": "onlineClients",
					"type": "address[]"
				}
			],
			"name": "startAggregate",
			"outputs": [],
			"stateMutability": "nonpayable",
			"type": "function"
		},
		{
			"inputs": [
				{
					"internalType": "bytes32",
					"name": "taskId",
					"type": "bytes32"
				},
				{
					"internalType": "uint64",
					"name": "round",
					"type": "uint64"
				},
				{
					"internalType": "uint32",
					"name": "maxSample",
					"type": "uint32"
				},
				{
					"internalType": "uint32",
					"name": "minSample",
					"type": "uint32"
				},
				{
					"internalType": "uint32",
					"name": "joinTimeout",
					"type": "uint32"
				},
				{
					"internalType": "uint32",
					"name": "computTimeout",
					"type": "uint32"
				}
			],
			"name": "startRound",
			"outputs": [],
			"stateMutability": "nonpayable",
			"type": "function"
		},
		{
			"inputs": [
				{
					"internalType": "bytes32",
					"name": "taskId",
					"type": "bytes32"
				},
				{
					"internalType": "uint64",
					"name": "round",
					"type": "uint64"
				},
				{
					"internalType": "bytes",
					"name": "weightCommitment",
					"type": "bytes"
				}
			],
			"name": "uploadSeedCommitment",
			"outputs": [],
			"stateMutability": "nonpayable",
			"type": "function"
		},
		{
			"inputs": [
				{
					"internalType": "bytes32",
					"name": "taskId",
					"type": "bytes32"
				},
				{
					"internalType": "uint64",
					"name": "round",
					"type": "uint64"
				},
				{
					"internalType": "bytes",
					"name": "weightCommitment",
					"type": "bytes"
				}
			],
			"name": "uploadSkMaskCommitment",
			"outputs": [],
			"stateMutability": "nonpayable",
			"type": "function"
		},
		{
			"inputs": [
				{
					"internalType": "bytes32",
					"name": "taskId",
					"type": "bytes32"
				},
				{
					"internalType": "uint64",
					"name": "round",
					"type": "uint64"
				},
				{
					"internalType": "bytes",
					"name": "weightCommitment",
					"type": "bytes"
				}
			],
			"name": "uploadWeightCommitment",
			"outputs": [],
			"stateMutability": "nonpayable",
			"type": "function"
		}
	]
}